:02000002D0002C
:1040000000400D009C890D00000006000C00050119
:084010000401BB0400000000E4
:1040180008800D0009480A49884208B505D0094AB0
:10402800824202D0121A03F027FB0748074A0021F0
:10403800121A03F02CFB014808BD00BFF0E0032072
:1040480080870D00E4E20320E4E20320F0E7032088
:1040580070B502F0F3FB074C074BE41AA4080025DF
:104068001E46A54204D056F8253098470135F8E792
:1040780070BD00BF80870D0040870D0000F05ABC5E
:1040880008B500F029FABDE8084002F0A5BB01F028
:1040980053BA01F059BA01F057BA0078B0FA80F073
:1040A80040097047012303707047012A02D0022A91
:1040B80002D004E0016002E00B6800B10360002058
:1040C80070471FB50468684602F037F86846A0478D
:1040D8000446684602F041F8204604B010BD37B5E2
:1040E8009DF8184023438DF800303C23054601F025
:1040F800E1FB284603B030BD10B5074C01F010F8BD
:104108002368C01AB0F57A7F04D901F009F8206055
:10411800012010BD002010BDFCE2032008B5FFF708
:10412800EBFF18B1BDE80840FFF7E6BF01F074F9EE
:10413800F5E7000000B58DB00A4903A802F0F2FACD
:1041480003A802F0B5FA10EE100A02F0D5FE064AEE
:10415800CDE900011021054801F00EFA0DB05DF817
:1041680004FB00BFE0E6032022800D0044E30320A7
:1041780007B5212002F0B1FB02F0ACFE0DA3D3E994
:10418800002302F00DFF03F01DF9074B186002F041
:10419800B3FE064ACDE900011021054801F0ECF90B
:1041A80003B05DF804FB00BF5CE3032029800D0029
:1041B80060E303209402C1D2AF63523F38B504686C
:1041C80005467CB16368013B63605BB923682046A0
:1041D8009B689847A368013BA3601BB923682046E6
:1041E800DB689847284638BD70B51E4E8CB0012450
:1041F8001D4800F035FD054688B11B4800F054FD08
:104208001A4B10EE100A83ED000A02F075FE184AE8
:10421800CDE900011021174801F0AEF91EE000F0C9
:104228007FFF306001F0F8F82346134A202104A8E4
:1042380001F0A2F9FFF772FF104B1B785BB1104B2E
:1042480010491B788DF8005002A804AAFFF747FF11
:1042580003A8FFF7B3FF01340B2CC9D128460CB0D3
:1042680070BD00BFECE6032010E3032008E3032041
:1042780031800D00E8E2032041800D0055E3032062
:1042880070E3032060800D0008B5FFF753FFFFF7C8
:104298006FFFBDE80840FFF7A7BF00007FB52949B9
:1042A800054601F0B4FF10B1274B1E7886B12549A9
:1042B800284601F0ACFFA8B1234B1B7893B1FFF758
:1042C8002DFF224B224A1B7800248DF800402EE057
:1042D80001241C70FFF722FF1C4B1E4A1B788DF827
:1042E800006024E01C49284601F091FF60B1164B9C
:1042F8001C784CB100251D70FFF710FF134B174AAF
:104308001B788DF8005012E01349284601F07FFF12
:1043180020B10D4B1C781CB100240FE004460DE0C1
:10432800FFF7FCFE094B0E4A1B788DF8004002A8E7
:104338000C49FFF7D4FE03A8FFF740FF204604B05E
:1043480070BD00BF5C830D0055E3032070E30320BC
:104358007E800D0068800D0097800D0099800D000B
:10436800AF800D0042820D0000B5154BC7B018682C
:1043780002F0C2FDCDE90201124B186802F0BCFD43
:10438800114ACDE900014FF4807106A801F0F4F854
:104398000E4B0F491B7800228DF8002004A806AAAE
:1043A800FFF79DFE05A8FFF709FF00F0B9FE094BCE
:1043B8001860094B01221A7047B05DF804FB00BF72
:1043C8005CE3032008E30320C9800D0070E30320A9
:1043D800F0800D0058E30320F8E2032030B50C46C6
:1043E80085B01D4D51B92B78002B32D0FFF796FEC2
:1043F8001A4B1B4A1B788DF8004023E0084603F04F
:1044080031F8C83801282B7813D873B1FFF786FE26
:10441800124B14491B7800228DF8002002A8124A7A
:10442800FFF75DFE03A8FFF7C9FE104B00221A70C4
:104438000FE073B1FFF772FE084B00221B788DF86E
:104448000020224602A80A49FFF749FE03A8FFF701
:10445800B5FE05B030BD00BF55E3032070E303206F
:1044680001810D0016810D00A9810D00F8E20320DD
:1044780009810D0030B5124D124C95B0FFF74EFE74
:1044880011492A7820782C2303FB0212009203FB9F
:1044980000130E4A402104A801F06EF82B7823700F
:1044A8000B4B0C491B7800228DF8002002A804AAA7
:1044B800FFF715FE03A8FFF781FE15B030BD00BF5A
:1044C80004E3032054E30320F8E003201C810D00DB
:1044D80070E3032016810D002DE9FF41934C2378EA
:1044E800013B052B00F27D81DFE813F00600220076
:1044F8003200BE00E4004E018D4B1B782BB18D4B72
:104508001B78012B01D0FFF7B5FF01F031FF8A4B73
:104518001A68801A894A126890421D4680F05C81A8
:1045280001F01CFF864B1B68984240F0558158E10A
:104538007F4B1B782BB17F4B1B78022B01D0FFF7E9
:1045480099FFFFF7A1FE002800F0E9800323EBE0C4
:10455800774D2B782BB1774B1B78032B01D0FFF7C6
:1045680089FF01F0FBFE764B1A6890421E4615D073
:104578002B7873B1FFF7D2FD724B73491B78002279
:104588008DF8002002A8714AFFF7A9FD03A8FFF7DC
:1045980015FE01F0E3FE04233060C5E06C4A6D4B64
:1045A800D2ED006A93ED007ADFF8908176EEC77A53
:1045B8001746FDEEE77A1E4617EE901A0029B8BF97
:1045C800494207EE901A6449F8EEE77A91ED006ADD
:1045D800F4EEC67AF1EE10FA16DB2B7873B1FFF71A
:1045E8009DFD584B58491B7800228DF8002002A8E1
:1045F8005A4AFFF774FD03A8FFF7E0FD3B683360F4
:104608000423237005231AE0F4EE476AF1EE10FA4A
:104618002B7817D073B1FFF781FD4A4B4A491B78B5
:1046280000228DF8002002A84D4AFFF758FD03A884
:10463800FFF7C4FD3B683360042323700A23C8F8DE
:104648000030CEE073B1FFF769FD3E4B3E491B7861
:1046580000228DF8002002A8424AFFF740FD03A877
:10466800FFF7ACFD0123E8E7314B1A781D462AB164
:10467800304B1B78042B01D0FFF7FCFE01F06EFED7
:104688000C2802D1002000F0EFFE2B7873B1FFF761
:1046980045FD2C4B34491B7800228DF8002002A8D8
:1046A800324AFFF71CFD03A8FFF788FDFFF75CFE01
:1046B800052339E01E4B1A781D462AB11D4B1B787D
:1046C800052B01D0FFF7D6FE294B1B788BB92D7827
:1046D800012323706DB9FFF721FD1A4B254A1B787A
:1046E80019498DF8005002A8FFF7F9FC03A8FFF755
:1046F80065FD00F015FD204B1B68C01A4AF6C8730B
:1047080098426ED90F4B1D491B7800228DF8002066
:1047180002A81B4AFFF7E3FC03A8FFF74FFD00F0D0
:10472800FFFC184B1860062323705AE004E30320AB
:1047380055E3032054E303200CE30320F4E00320B3
:1047480000E3032070E3032016810D0031810D0082
:1047580008E3032040E30320F0E0032045810D0037
:1047680064810D0080810D0091810D00E8E2032035
:10477800F8E203209D810D0058E30320BB810D0062
:104788001E830D003CE30320174B1B782BB1174BFE
:104798001B78062B01D0FFF76DFE00F0C1FC144B0F
:1047A8001B68C01A47F22F5398421AD9FFF7B6FC74
:1047B800104B11491B7800228DF8002002A80F4ADF
:1047C800FFF78DFC03A8FFF7F9FC4FF4FA6000F03F
:1047D800EBFE01F04BFD04E00223237001F0C8FD5D
:1047E800286004B0BDE8F08155E3032054E30320BA
:1047F8003CE3032070E30320EC810D00D4810D001D
:104808001FB51149044601F002FD98B10F4B04226F
:104818001A70FFF783FC0E4B0E491B7800228DF8A7
:10482800002002A80C4AFFF75AFC03A8FFF7C6FCB1
:10483800012006E00949204601F0E9FC003018BFD4
:10484800012004B010BD00BF5C830D0004E3032009
:1048580070E3032013820D00F2810D0097800D0094
:104868001FB51149044601F0D2FC98B10F4B022242
:104878001A70FFF753FC0E4B0E491B7800228DF877
:10488800002002A80C4AFFF72AFC03A8FFF796FCB1
:10489800012006E00949204601F0B9FC003018BFA4
:1048A800012004B010BD00BF5C830D0004E30320A9
:1048B80070E3032013820D001C820D0097800D0009
:1048C80030B585B000230546029321B1144B0393FC
:1048D800144B00910293029B83B11020FFF7D7FB82
:1048E800044658B100238360029B7BB102226946CB
:1048F8009847039BE360029BA36007E00024029BA8
:104908005BB1032269466846984706E021462A4675
:10491800054800F0AEFE0446F1E7204605B030BD7C
:10492800CB400D00B3400D0053560D000023042268
:1049380000F062BD10B5A8B004A800F07DFD002409
:1049480000237D2208A904A801F073FC234622460F
:104958001D490194009408A800F07EFD1B491C48DD
:10496800FFF7AEFF1B491C48FFF7AAFF1B491C486D
:10497800FFF7A6FF1B491C48FFF7D8FF1B491C4837
:10498800FFF7D4FF1B491C48FFF7D0FF1B491C4801
:10499800FFF7CCFFFFF728FC1A4B1B785BB11A4BCB
:1049A8001A4A1B781A498DF8004002A8FFF797FBAE
:1049B80003A8FFF703FC174B012204A81A7001F0A3
:1049C800CCFB28B010BD00BFE5430D00A5420D008B
:1049D8003B820D0069480D0047820D0009480D0013
:1049E80053820D00E8E2032091810D001C800D0028
:1049F8005F820D0044E3032067820D0060E303201B
:104A08006E820D0055E3032070E3032076820D00CB
:104A180016810D0004E3032008B5064B01221A7025
:104A280000F096FB002203210348BDE8084000F08F
:104A380016B800BF70E3032010E303200023002210
:104A4800438242618361C3610362436280F8283014
:104A580080F8293080F82A3080F82B30704738B534
:104A68000446154600F094F94FF47A732046A5736E
:104A78002382FFF7E3FF204638BD0000F8B52DED8F
:104A8800028B0B68836100F118054B686B600B782B
:104A9800222B04460AD003D8102B42D1012308E068
:104AA800262B05D0282B3CD1022302E0032300E06B
:104AB800042384F82930204600F074F9294620465A
:104AC80000F030FAA27B4421204600F0F8F9208A51
:104AD80000F06AFD204600F065F92946204600F0FE
:104AE80021FA0022B821204600F0E9F900221146F7
:104AF800204600F0E4F9204600F054F92946204603
:104B080000F010FA0022BE21204600F0D8F994F8EF
:104B18002930042B09D100221146204600F0CFF994
:104B280003E0002084F8290094E004F11F0504F153
:104B38002806204600F0E6F905F8010FAE42F8D144
:104B4800082104F1200000F086FA94F82830834206
:104B580004D0012384F82B3000207BE094F8212036
:104B680094F8203094F8291043EA02230429638238
:104B780027D194F8223007EE903A42EA0321D2086E
:104B8800F8EE678A07EE902A13F0800F618284F8A6
:104B98002120B8EE678A45D018EE900A02F0ACF9E9
:104BA800064618EE100A0F4602F0A6F900222B4B13
:104BB80002F0F6F902460B463046394602F03CF858
:104BC80044E0012903D044D3032910D941E0B4F9C2
:104BD800123094F82720DB00102A638219D194F848
:104BE800262023F00F03C2F10C02134410E094F8BE
:104BF800242012F0600202D123F0070308E0202AE3
:104C080002D123F0030303E0402A02D123F0010379
:104C18006382B4F9123007EE903AFAEECE7AC4ED18
:104C2800057A16E018EE100A02F066F900220B4B1E
:104C380002F0B6F9064618EE900A0F4602F05CF943
:104C480002460B463046394601F0F8FF02F0BAFB3F
:104C580060610120BDEC028BF8BD00BF0000A03FE1
:104C680038B50446FFF7EAFE00F11805294600F0BA
:104C780077F930B9012384F82A30204600F064F926
:104C880010E00721284600F0E6F9E37F834203D0CD
:104C9800012384F82B3005E029462046BDE838403A
:104CA800FFF7ECBE002038BD90ED050A704700F014
:104CB8004FBA000010B503682F2B044604D9074AE1
:104CC80000210A2000F04CFB23681F2B83BF03F050
:104CD8001F03236002484FF0A04010BD19510D007A
:104CE8000003005007B50B4B1B68000119181A5C2C
:104CF8004B7802A803F01F0343EA421340F8043D2F
:104D0800FFF7D8FF019A01239340C0F80C3503B090
:104D18005DF804FB74E3032007B50B4B1B68000127
:104D280019181A5C4B7802A803F01F0343EA4213D0
:104D380040F8043DFFF7BEFF019A01239340C0F8F5
:104D4800083503B05DF804FB74E3032013B50F4B7B
:104D58001B6800011A181C5C537802A803F01F0393
:104D680043EA441440F8044DFFF7A4FFD0F8103587
:104D780002A840F8084DFFF79DFFD0F810350098BD
:104D880023FA00F000F0010002B010BD74E3032024
:104D980038B504460D462846002101F08DFD2580D2
:104DA800204638BD38B5054600F06AFF002128883E
:104DB80000F0DEF900F066FF7D24013C14F0FF04EA
:104DC8002BD0022000F0A4F92888FFF7BFFF0028A5
:104DD800F3D000F055FF2888FFF784FF01212888C9
:104DE80000F0C6F900F04EFF4FF4F07000F090F9B3
:104DF80000F046FF0021288800F0BAF9462000F0AC
:104E080087F92888FFF7A2FFB0FA80F400F03AFF8C
:104E18004FF4CD70640900F07BF9204638BD38B5F1
:104E280011F00105044613D000F02AFF2088FFF78F
:104E380059FF0121208800F09BF90A2000F068F949
:104E48002088002100F094F900F01CFF372012E0C0
:104E580000F016FF2088FFF745FF0121208800F0A9
:104E680087F9412000F054F92088294600F080F99C
:104E780000F008FF0520BDE8384000F049B910B53A
:104E8800044600F0FDFE2088FFF72CFF0121208852
:104E980000F06EF9032000F03BF90021208800F0B3
:104EA80067F90A2000F034F92088FFF74FFF04461D
:104EB80000F0E8FE352000F02BF9204610BD2DE962
:104EC800F0410546884617460826012418EA040FCB
:104ED80014BF012100212846FFF7A1FF6400013E0D
:104EE800E4B2F3D167B100F0CBFE2888FFF714FFD6
:104EF8002888012100F03CF9BDE8F04100F0C2BE6D
:104F0800BDE8F081F8B50746082600250124384693
:104F1800FFF7B5FF00B125436400013EE4B2F6D1C6
:104F28002846F8BD70B500220C4655210646FFF705
:104F3800C6FF651E073415F8011F00223046FFF72B
:104F4800BEFFA542F7D170BD002383720373C372FD
:104F580000F10A02023002F8013D8242FBD170479B
:104F68002DE9F047057B04468846002D5ED1FFF702
:104F780019FF20B9A0722073E072BDE8F0872A46B5
:104F8800F0212046FFF79BFF0126AA463746204618
:104F9800FFF775FF81462046FFF771FFB9F1010F52
:104FA80002D101281BD137E0814504EB05031ED14E
:104FB800A27A974207D29A78164214BF4FF0010995
:104FC8004FF0000904E00CBF4FF001094FF0000951
:104FD800B9F1000F03D1082F08D8E77206E062196B
:104FE8004FF0010993783343937004E0BA469A78F6
:104FF80022EA06029A70494620467600FFF70FFF1C
:1050080016F0FF0604BF0135EDB207F1010708BF2E
:105018000126072DFFB2BAD9402F07D984F80AA074
:10502800BAF1000F12D1012323730FE00020A07200
:105038002073E072631C08F1FF38093413F8012F5C
:1050480008F8012FA342F9D1BDE8F087A378002B17
:10505800ECD00120EEE730B5054600200139C9B291
:10506800FF2913D015F8014B082280EA040313F036
:10507800010F4FEA50001CBF80F08C03D8B2531EBA
:1050880013F0FF024FEA5404EFD1E7E730BD000008
:1050980008B500F05DF8014B186008BD74E3032003
:1050A80008B5024B1B689B68019308BD48020300C2
:1050B80008B5024B1B681B69019308BD4802030031
:1050C80008B5024B1B685B69019308BD48020300E1
:1050D80008B5024B1B681B6B019308BD480203000F
:1050E80008B5024B1B685B6C019308BD48020300BE
:1050F80008B5024B1B689B6E019308BD3402030080
:1051080008B5024B1B685B68019308BD18020300D1
:1051180008B5024B1B68DB68019308BD1802030041
:1051280008B5024B1B685B69019308BD18020300B0
:1051380008B5024B1B68DB69019308BD1802030020
:1051480008B5024B1B689B6D019308BD180203004C
:1051580008B5024B1B681B68019308BD2C020300AD
:1051680008B5024B1B685B68019308BD2C0203005D
:1051780008B5024B1B689B68019308BD2C0203000D
:1051880008B5024B1B681B6A019308BD2C0203007B
:1051980008B5024B1B685B6A019308BD2C0203002B
:1051A80008B5024B1B681B6B019308BD2C0203005A
:1051B80008B5024B1B681B6A019308BD280203004F
:1051C80008B5024B1B685B6A019308BD28020300FF
:1051D80008B5024B1B689B6A019308BD28020300AF
:1051E80008B5024B1B68DB6A019308BD280203005F
:1051F80008B5024B1B681B6B019308BD280203000E
:1052080008B5024B1B685B6B019308BD28020300BD
:1052180008B5024B1B681B6C019308BD28020300EC
:1052280008B5024B1B685B69019308BD6402030063
:1052380008B5024B1B689B68019308BD6802030010
:1052480008B5024B1B68DB68019308BD68020300C0
:1052580008B5024B1B68DB69019308BD30020300E7
:1052680008B5024B1B681B6A019308BD3002030096
:1052780008B5024B1B681B68019308BD3C0203007C
:1052880008B5024B1B68DB68019308BD3C020300AC
:1052980008B5024B1B681B69019308BD3C0203005B
:1052A80008B5024B1B685B69019308BD3C0203000B
:1052B80008B5024B1B689B69019308BD3C020300BB
:1052C80008B5024B1B68DB69019308BD3C0203006B
:1052D80008B5024B1B681B6A019308BD3C0203001A
:1052E80008B5024B1B689B6A019308BD3C0203008A
:1052F80008B5024B1B681B68019308BD4C020300EC
:1053080008B5024B1B681B69019308BD4C020300DA
:1053180008B5024B1B685B69019308BD4C0203008A
:1053280008B5024B1B689B69019308BD4C0203003A
:1053380008B5024B1B68DB69019308BD4C020300EA
:1053480008B5024B1B681B6A019308BD4C02030099
:1053580008B5024B1B685B6F019308BD740203001C
:1053680008B5024B1B685B6B019308BD6002030024
:1053780008B5024B1B681B68019308BD2002030097
:1053880008B5024B1B685B68019308BD2002030047
:1053980008B5024B1B685B69019308BD2002030036
:1053A80008B5024B1B68DB6C019308BD20020300A3
:1053B80008B5024B1B685B6D019308BD2002030012
:1053C80008B5024B1B689B6D019308BD20020300C2
:1053D80008B5034B1B68D3F88830019308BD00005B
:1053E8002002030008B5034B1B68D3F894300193DF
:1053F80008BD00002002030008B5024B1B681B68AB
:10540800019308BD4402030008B5024B1B685B68A2
:10541800019308BD4402030008B5024B1B689B6852
:10542800019308BD4402030008B5024B1B685B6981
:10543800019308BD4402030008B5024B1B68DB69F1
:10544800019308BD4402030008B5024B1B681B6AA0
:10545800019308BD4402030008B5024B1B685B6A50
:10546800019308BD4402030008B5024B1B68DB6AC0
:10547800019308BD4402030008B5024B1B681B6B6F
:10548800019308BD4402030008B5024B1B68DB6B9F
:10549800019308BD4402030008B5024B1B685B6812
:1054A800019308BD4002030008B5024B1B689B68C6
:1054B800019308BD4002030008B5024B1B68DB6876
:1054C800019308BD4002030008B5024B1B681B6925
:1054D800019308BD4002030008B5024B1B685B69D5
:1054E800019308BD4002030008B5024B1B689B6985
:1054F800019308BD4002030008B5024B1B68DB6935
:10550800019308BD4002030008B5024B1B681B6AE3
:10551800019308BD4002030008B5024B1B681B6BD2
:10552800019308BD4002030008B5024B1B685B6B82
:10553800019308BD4002030008B5024B1B681B68B5
:10554800019308BD1C02030008B5024B1B685B6889
:10555800019308BD1C02030008B5024B1B689B6839
:10556800019308BD1C02030008B5024B1B689B6928
:10557800019308BD1C02030008B5024B1B68DB69D8
:10558800019308BD1C02030008B5024B1B68DB6AC7
:10559800019308BD1C02030008B5024B1B681B6B76
:1055A800019308BD1C0203000021FFF7F1BE10B5EE
:1055B800836804460BB901F0F0F9C3689847A368FB
:1055C8001BB1032221462046984720461021BDE8FA
:1055D800104001F0E0B970470020704710B5102165
:1055E800044601F0D8F9204610BD08B508B1FFF708
:1055F800F5FF08BD10B58368044613B103220146C0
:105608009847204610BD38B5C468ECB12378022B02
:1056180002D1E068FFF798FF656835B12846FFF7C3
:10562800E9FF1021284601F0B6F9A56835B12846EA
:10563800FFF7E0FF1021284601F0ADF920461421BC
:10564800BDE8384001F0A7B938BD1FB50446684623
:1056580000F0CAFDA3680BB901F09FF9E368694639
:10566800204698470446684600F077FD204604B077
:1056780010BDF0B5102485B007460E46154600212A
:105688002246684602F003F8002269461046ADF843
:105698000040029703960195FFF7B6FE05B0F0BDEE
:1056A80013B5044691E8050000234B600B602060A9
:1056B800626001A801930093FEF780FD204602B0C6
:1056C80010BD0B68036013B15A6801325A60704705
:1056D800F7B50C4602AD54F8043B45F8083D0646BC
:1056E8000F4601A82146FFF7ECFF29463046FFF791
:1056F800D7FF01A8FEF762FD2046FEF75FFD38469A
:10570800082101F048F9304603B0F0BD13B50B4647
:10571800044603C88DE8030093E8030084E8030007
:105728009DE8030083E8030002B010BD826810B54D
:105738000AB901F032F9C368BDE81040184708B546
:10574800006800F11001FFF7F1FF08BD826810B58D
:105758000AB901F022F9C368BDE81040184708B536
:10576800006800F11001FFF7F1FF08BD38B500230C
:1057780083608B6804460D462BB102229847EB687C
:10578800E360AB68A360204638BD00002DE9F04116
:105798004FF69C7386B00468B1F904208B8000230F
:1057A8000F688DF800300B604FF00200D4E84F1FEF
:1057B800994203D1C4E8450F002DF7D102D08DF8E6
:1057C80000106BE014F10C051EBFE76022821F4633
:1057D8000123BFF35F8F0020637004F10803BFF358
:1057E8005F8F53E8006F43E80002002AF9D1BFF346
:1057F8005F8F002E52D0FFF7D3FD20B129463046E7
:10580800FFF794FF43E031466846FFF7AFFFE068D3
:10581800B4F9105008B101F07DFF04901020ADF8E4
:105828001450FEF734FC054630B34FF00008C0F8BA
:1058380008801820FEF72BFC0446C0B1C0F8088089
:1058480001466846FFF762FF029BA268A360039BBC
:105858000292E268E360BDF81430A3824FF69C73AD
:10586800ADF81430049B03922361CDF810800E4BE1
:10587800EB600E4B2C60AB600498FFF765FE684642
:10588800FFF7B8FE002229460948FFF791FD304688
:10589800FFF7B0FE1021304601F07DF83846FFF7DB
:1058A80053FE06B0BDE8F08147570D00A5590D001D
:1058B800B7550D002DE9F04F8BB007AD4FF0000B39
:1058C8000646994614200C230F4690469DF850A092
:1058D800C5F804B0C5F808B00793FEF7D8FB04462E
:1058E80038B180F800B080F801B0C0F804B0C0F852
:1058F80008B00023102003940493FEF7C8FB28B1D6
:10590800012343608360234B0360C4600490224BEF
:1059180008930820FEF7BBFB044628B1039B40F818
:10592800043B04A9FFF7CDFE00955FFA8AF34A46C7
:10593800414638460994FFF787FDB8B9039B5B7861
:1059480003F0FF0293B94FF69C7305A903A80592CB
:10595800ADF81830FFF71AFF0598FFF7F5FD05A811
:105968000999FFF7B5FE06A8FEF728FC039B0593E7
:1059780004A906A8FFF7A5FE05A93046FFF790FE83
:1059880006A8FEF71BFC04A8FEF718FC30460BB06F
:10599800BDE8F08F84820D00115B0D00022AF8B576
:1059A800044606D0032A17D0012A21D10B680360C8
:1059B8001EE018200E68FEF76AFB054650B1314616
:1059C800FFF7D4FE3069B6F9147008B101F0A2FEF1
:1059D8002861AF8225600BE004684CB12069FFF7AD
:1059E800B3FD2046FFF706FE1821204600F0D3FF3E
:1059F8000020F8BD38B5002383608B6804460D4647
:105A08002BB102229847EB68E360AB68A36020469D
:105A180038BD022A70B5044606D0032A11D0012ADF
:105A280018D10B68036015E014200E68FEF72FFBF1
:105A3800054620B13146FFF7DDFF337C2B74256026
:105A480008E0046834B12046FFF7D4FD142120464D
:105A580000F0A1FF002070BDF0B5002387B00C4610
:105A6800BFF35F8F50E8006F40E80032002AF9D199
:105A7800BFF35F8F002E3FD01846FFF791FC074613
:105A880020B121463046FFF761FE2EE0314601A8DD
:105A9800FFF7B0FF23788DF814301020FEF7F7FADF
:105AA8000546D0B187601420FEF7F1FA044678B1B4
:105AB8008760014601A8FFF729FE039BA268A3603F
:105AC800049B0392E268E3609DF814300492237407
:105AD8000A4BEB600A4B2C60AB6001A8FFF78AFD0C
:105AE800002229460748FFF763FC3046FFF782FD8E
:105AF8001021304600F04FFF07B0F0BD67570D008A
:105B08001B5A0D00B7550D0030B585B004460D463B
:105B180068461146FFF7DCFD7CB124B228460DB17A
:105B280001F0F8FD029002A96846ADF80C40FFF7B5
:105B38002DFE0298FFF708FD1DE000988DF808403B
:105B48004FF00102D0E84F3FA34203D1C0E8412FF4
:105B58000029F7D102D08DF808300CE010F10C01C3
:105B68004FF0010318BF0373BFF35F8F043000F8D1
:105B7800033CFFF771FF01A8FEF720FB05B030BD1D
:105B8800002211464068FFF7BFBC0022114640685A
:105B9800FFF7CABC00224068FFF7BEBC002281F0B4
:105BA80001014068FFF7A8BC00231A46194640685F
:105BB800FFF79ABC00231A4619464068FFF78CBCC9
:105BC800002211464068FFF77FBC0022114640685A
:105BD800FFF76ABC002202214068FFF76DBC002372
:105BE8001A464068FFF758BC024B03225A60024A23
:105BF8001A60704778E30320A0820D007047F8B55B
:105C0800064615460C468F18BC4206D0336814F871
:105C1800011B9B6830469847F6E72846F8BD0022E6
:105C2800007CFFF7C5BA0021007CFFF7C9BA002144
:105C3800007CFFF7CDBA0021007CFFF7D1BA002124
:105C4800007CFFF7D5BA10B51421044600F0A3FE76
:105C5800204610BD10B504464FF47A730846A36079
:105C68000021044B207461602360FFF7D1FA2046BD
:105C780010BD00BFD4820D000021007CFFF7C0BA20
:105C8800FFF786BAFFF77CBA704710B518210446AB
:105C980000F081FE204610BDF0B5037D062B8DB0C7
:105CA8000E4600F104074FF0000402D000F1080589
:105CB80018E00CAD394605F8304D2F232A460A2046
:105CC800FFF7AEFA284601F040FD33680246DB686C
:105CD8002946304698470FE024B12E21304600F07F
:105CE800C7F9044415F8011D0A22304600F0F0F9FE
:105CF800BD420444F0D120460DB0F0BD10B5054BAF
:105D08000446112240F8043B002101F0C0FC204663
:105D180010BD00BFFC820D000346074A10B543F8CA
:105D2800042B01F1100251F8044B43F8044B914243
:105D3800F9D10A781A7010BDFC820D0010B59DF8D3
:105D4800084044EA032343EA024242EA0161042389
:105D58004160037510BD37B50D788B784A78C978DE
:105D680000912946FFF7EAFF03B030BD014B024A14
:105D78001A60704780E30320BD830D00002211469E
:105D88004068FFF7C1BB002211464068FFF7CCBB53
:105D980000224068FFF7C0BB002281F00101406883
:105DA800FFF7AABB00231A4619464068FFF79CBBB9
:105DB80000231A4619464068FFF78EBB0022114699
:105DC8004068FFF781BB002211464068FFF76CBBB3
:105DD800002202214068FFF76FBB00231A46406883
:105DE800FFF75ABB38B5054688B104684CB1A368BB
:105DF8001BB103222146204698471021204600F077
:105E0800CAFD28461421BDE8384000F0C4BD38BD9D
:105E180010B103685B681847704710B503680446FB
:105E2800BBB15868FFF73CF978B923685A7C12B9B6
:105E38005868FFF73DF923685868FFF741F920686B
:105E48000023236028B1FFF7CDFF206808B1FFF7D2
:105E5800C9FF204610BD000038B50C4B036004464E
:105E6800D0F8CC0108B1FEF716F9D4F8C45135B111
:105E78002846FFF7D2FF0421284600F08CFDA068D1
:105E880008B1FFF7C5FF204638BD00BFF0830D00FD
:105E980038B50D4C0D4B23600025022304F5E47042
:105EA8006360A560C4F8C451C4F8C851FFF718F975
:105EB800074BC4F8CC5123602046064A0649BDE882
:105EC800384000F063BD00BF84E3032024840D0044
:105ED800F0830D00E4E20320615E0D0000231A4602
:105EE8004068FFF7D9BA002202214068FFF7E4BAF8
:105EF800002211464068FFF7D7BA002211464068D1
:105F0800FFF7E2BA00231A4619464068FFF7E4BAD9
:105F180000231A4619464068FFF7E6BA002281F0C6
:105F280001014068FFF7E8BA00224068FFF7F4BAB9
:105F3800002211464068FFF7F7BA00221146406870
:105F4800FFF7E2BA2DE9F043002495B016460D4656
:105F58000746FFF7D3FE214620220CA8009401F043
:105F680096FB40230C9321466B460CAA3046FFF75C
:105F780067F90446002844D1024601216868FFF702
:105F8800A3FA0221804622466868FFF79DFA009E20
:105F980081462146002E34D0002932D17368022B65
:105FA80002D00A2B09D02AE0B8F1000F27D0716976
:105FB80038460431FFF7CFFE20E0B9F1000F1ED0BC
:105FC8007469112201A801F062FB06238DF81430D0
:105FD80001AD04F108031834186859682A4603C249
:105FE8000833A3421546F7D101A906A807ADFFF764
:105FF80093FE0FCD3C1D0FC42B6823700121F66959
:10600800C8E70098FFF714F9384615B0BDE8F083E3
:10601800024B034A1A6000225A60704754E5032075
:1060280024840D00F8B506460D468F180024BD429D
:106038000CD0336815F8011B9B6830469847002838
:1060480001DB0444F3E7002C08BF04462046F8BDF2
:1060580070B505460C46084649B101F076FB2B6839
:10606800024621462846DB68BDE87040184770BDE7
:1060780003689B68184730B58BB00B4600218DF834
:106088002410012A98BF0A220DF12304B3FBF2F56C
:1060980005FB123303F0FF03092B94BF303337336A
:1060A800DBB2214604F801392B46002DEED1FFF76B
:1060B800CFFF0BB030BD10B42AB903685DF8044BAC
:1060C8009B68C9B21847D2B25DF8044BFFF7D3BF3B
:1060D800FFF7F1BF10B50446FFF78CFA204610BD54
:1060E8000348044A04490023836000F04FBC00BF02
:1060F8005CE50320E4E20320DD600D00704710B585
:106108001021044600F047FC204610BD70B5084B2E
:106118000360044600250E4640F80C5FFEF7D8FFE2
:1061280030462671FFF794F8A560204670BD00BF81
:1061380058840D000079FFF793B80023036043608B
:106148008360037310B50C6804604C6844608C6805
:1061580084600B604B608B6010BD10B5044600680E
:10616800FFF7F2F9204610BD10B50446006808B1E3
:10617800FFF7EAF900232360A360636010BD38B518
:1061880004460D4600680131FFF7E6F910B184E8CE
:106198002100012038BD10B50368044613B14368D7
:1061A8008B4207D22046FFF7EAFF20B1A3680BB95C
:1061B80022681370012010BD70B50E4611460446C2
:1061C8001546FFF7E8FF18B92046FFF7CDFF09E0AD
:1061D8002A463146A560206801F04EFA2268A36875
:1061E8000021D154204670BD38B500230446036011
:1061F8004360836003730D4639B1084601F0A5FA80
:10620800294602462046FFF7D7FF204638BD08B585
:1062180082680B4612B919B9012008BD11B9036883
:10622800187802E0006801F063FAB0FA80F04009DB
:1062380008BD70B50E469AB191B185689D4202D8E5
:1062480000230B7070BD541EED1A0168AC4228BFC4
:106258002C4619442246304601F094FA002333555F
:1062680070BD014600228C20FEF742BF0020FFF7D8
:10627800F8BF0000044B00204FF6FF7218705880DA
:106288009A80FFF77DB800BF6CE50320F0B5144B8A
:10629800144F1E68144B064418683B6806449E4217
:1062A8008BB01BD00AA801AD40F8286D01F0ECF8BE
:1062B800436903F26C73436104460FCC0FC50FCCDE
:1062C8000FC5D4F800E0C5F800E001AD0FCD074CCC
:1062D8000FC40FCD0FC43E60C4F800E00BB0F0BD92
:1062E800A4E50320A0E503209CE5032074E5032032
:1062F80008B50020FFF7C0F828B1FFF795F880F03F
:106308000100C0B208BD012008BD10B50020FEF78D
:1063180017FF044668B9FFF72BF801280BD1204670
:10632800FFF74EF838B9FFF7E3FF30B9FFF774F815
:10633800F9E7012010BD002010BDFFF7D9FF0020AC
:10634800FEF7FEFE003018BF012010BD08B5FFF7AC
:10635800DCFFBDE80840FEF7EBBE000008B5FFF71C
:10636800F5FFFFF793FF014B986808BD74E503201C
:1063780008B5FFF7EBFFFFF789FF014B586808BD29
:1063880074E50320024B1A68024B1A60704700BF7D
:106398002CE2032098E5032070474174704708B544
:1063A800007CFEF79DFF20EAE07008BD08B5007C80
:1063B800FEF76EFF20EAE07008BD08B5007CFEF726
:1063C80077FF30EA200028BF4FF0FF3008BD08B53E
:1063D800007CFEF765FF30EA200028BF4FF0FF3051
:1063E80008BD007CFEF76CBF10B51421044600F010
:1063F800D2FA204610BD70B5457C04460E4625B934
:10640800007CFEF76DFF002805DD3146207CBDE8E5
:106418007040FEF735BF284670BD000010B5044631
:1064280008461146002262604FF47A72A260054A5B
:1064380022600122207462741A46FEF719FF204672
:1064480010BD00BF90840D00007CFEF741BF000026
:1064580038B50C4D296811F0010411D12846FDF713
:106468001CFE68B1084A094B09482146FFF7D6FFC8
:106478002846FDF717FE074A0749054800F086FA3F
:10648800034838BD40E6032044E60320BCE503206A
:10649800A8E50320E4E20320A1630D0041747047DE
:1064A800704708B50021007CFEF73AFF30EA20006B
:1064B80028BF4FF0FF3008BD08B50121007CFEF76A
:1064C8002FFF30EA200028BF4FF0FF3008BD08B585
:1064D800007CFEF71DFF20EAE07008BD08B5007CCF
:1064E800FEF70EFF20EAE07008BD007CFEF728BF2B
:1064F80010B51421044600F04EFA204610BD38B5F8
:106508000446007C0D46FEF703FF002801DC607C92
:1065180028B12946207CFEF70BFF20EAE07038BD41
:1065280010B50446002363604FF47A73A360054BEB
:10653800236001230846217463741146FEF7D8FED0
:10654800204610BDC0840D0010B514220446002159
:1065580001F09DF8204610BD30B50E4D87B001A85A
:10656800FFF7F2FF296811F0010410D12846FDF762
:1065780094FD60B101AA21460748FFF7D1FF2846DC
:10658800FDF790FD054A0649034800F0FFF9024867
:1065980007B030BDC8E60320CCE60320E4E20320C0
:1065A800A9640D00704701207047000083891BB162
:1065B8000369B3F1004F02D19FED050A704707EE5A
:1065C800903A9FED047AF8EEE77A87EE870A7047EB
:1065D800000000000000C84283891BB18369B3F141
:1065E800004F02D19FED050A704707EE903A9FEDE4
:1065F800047AF8EEE77A87EE870A70470000000011
:106608000000C842002211464068FEF75DBF10B581
:106618002421044600F0BFF9204610BD002211468F
:106628004068FEF771BF002211464068FEF77CBF44
:1066380000224068FEF770BF002281F00101406827
:10664800FEF75ABF00231A4619464068FEF74CBFAA
:1066580000231A4619464068FEF73EBF002211463D
:106668004068FEF721BF002202214068FEF724BFE0
:1066780000231A464068FEF70FBF000083897BB1EC
:10668800036A002B0CDB07EE903ADFED076A9FEDFB
:10669800070AB8EEE77AC7EE267A27EE800A70472F
:1066A800BFEE000A704700BF00FF7F470000C842E6
:1066B80083897BB14369002B0CDB07EE903ADFED51
:1066C800076A9FED070AB8EEE77AC7EE267A27EE43
:1066D800800A7047BFEE000A704700BF00FF7F477F
:1066E8000000C84270B50D46064600F10C040FCDF7
:1066F8000FC495E8030084E803003369B3F1004F41
:106708000EBF0223642293FBF2F37360B369B3F103
:10671800004F0EBF0023642293FBF2F3B360012005
:1067280070BD00002DE9F041164B03600025884636
:106738000227182686B047608560324629460446F7
:106748000C3000F0A4FF2A462946D8F80400FEF7CA
:10675800BBFE90B132462946684600F098FF2A46AB
:1067680069462846ADF80060FEF7F2FD20B9694693
:106778002046FFF7B7FF00E06760204606B0BDE897
:10678800F08100BF24850D00024B04225A60024AA2
:106798001A607047E0E60320F0840D0008B50C4B42
:1067A80033B1FFF7D9FE03681B699847002809DC55
:1067B800084B63B1FFF74CFE03681B699847002834
:1067C80003DC08BDAFF30080F2E7AFF3008008BD3B
:1067D800000000000000000008B5FFF7DFFFFEF72B
:1067E8009FFC014B186008BDECE6032007B50023A9
:1067F80000931A466FF07701FEF7F4FD03B05DF8D9
:1068080004FB000007B543880A2B08D0502B09D198
:10681800094B1B683BB103B05DF804EB1847FFF761
:10682800E5FF06E0002300931A466FF07701FEF7B4
:10683800D9FD03B05DF804FBE8E6032010B5FEF7C8
:106848005FFC044600F02CFF074B13B12046AFF362
:10685800008000210448FEF717FE00210348BDE828
:106868001040FEF7B5BD00BF000000000D680D0028
:1068780010B504460F48FFF75DFC28B1A4F10B03DF
:10688800022B01D8002010BD00F03EF8FFF7F4F904
:1068980008B1012CF6D9FFF7DBFDFFF7D5FD18B1DC
:1068A800A4F10903012BEDD9232C8CBF0020012072
:1068B80010BD00BF08E70320232838B504460D465D
:1068C8000AD8FF2908D0FFF7D3FF28B12946204668
:1068D800BDE83840FEF74CBC38BD0D2810B504465D
:1068E8009CBF0E34A4B22046FFF7C2FF50B103216B
:1068F8002046FEF735FC032804D12046BDE81040A9
:10690800FEF74EBC002010BD38B50B4D296811F0BC
:1069180001040FD12846FDF7C0FB58B121460748AE
:10692800FFF798F92846FDF7BDFB054A05490348D6
:1069380000F02CF8014838BDF0E60320F4E6032007
:10694800E4E20320055C0D0070B50C4C0C4E0D4DB7
:1069580000212046FFF7DAFB20460B4C3246294639
:1069680000F014F801212046FFF7D0FB32462946F3
:106978002046BDE8704000F009B800BF08E70320D2
:10698800E4E2032005610D0018E703200B460146E9
:10699800184600F06BBDFDF77CBB08B5FEF7F4FDAB
:1069A800244B1A68D0075CBF01221A60224B1A6870
:1069B800D1075CBF01221A60204B1A68D2075CBF5E
:1069C80001221A601E4B1A68D0075CBF01221A60A8
:1069D8001C4B1A68D1075CBF01221A601A4B1A684F
:1069E800D2075CBF01221A60184B1A68D0075CBF37
:1069F80001221A60164B1A68D1075CBF01221A607F
:106A0800144B1A68D2075CBF01221A60124B1A682D
:106A1800D0075CBF01221A60104B1A68D1075CBF0F
:106A280001221A600E4B1A68D2075CBF01221A6055
:106A3800704700BF54E7032050E703204CE70320CA
:106A480048E7032044E7032040E703203CE703200E
:106A580038E7032034E7032030E703202CE703203E
:106A680028E70320184B1A68D1075CBF01221A6077
:106A7800164B1A68D2075CBF01221A60144B1A68B9
:106A8800D0075CBF01221A60124B1A68D1075CBF9D
:106A980001221A60104B1A68D2075CBF01221A60E3
:106AA8000E4B1A68D0075CBF01221A600C4B1A689B
:106AB800D1075CBF01221A600A4B1A68D2075CBF73
:106AC80001221A60704700BF74E7032070E70320B3
:106AD8006CE7032068E7032064E7032060E70320EE
:106AE8005CE7032058E70320184B1A68D1075CBFFE
:106AF80001221A60164B1A68D2075CBF01221A607D
:106B0800144B1A68D0075CBF01221A60124B1A682E
:106B1800D1075CBF01221A60104B1A68D2075CBF0C
:106B280001221A600E4B1A68D0075CBF01221A6056
:106B38000C4B1A68D1075CBF01221A600A4B1A680D
:106B4800D2075CBF01221A60704700BF94E7032098
:106B580090E703208CE7032088E7032084E70320DD
:106B680080E703207CE7032078E70320244B1A689A
:106B7800D0075CBF01221A60224B1A68D1075CBF9C
:106B880001221A60204B1A68D2075CBF01221A60E2
:106B98001E4B1A68D0075CBF01221A601C4B1A688A
:106BA800D1075CBF01221A601A4B1A68D2075CBF72
:106BB80001221A60184B1A68D0075CBF01221A60BC
:106BC800164B1A68D1075CBF01221A60144B1A6869
:106BD800D2075CBF01221A60124B1A68D0075CBF4B
:106BE80001221A60104B1A68D1075CBF01221A6093
:106BF8000E4B1A68D2075CBF01221A60704700BFAB
:106C0800C4E70320C0E70320BCE70320B8E703205C
:106C1800B4E70320B0E70320ACE70320A8E703208C
:106C2800A4E70320A0E703209CE7032098E70320BC
:106C380081F0004102E000BF83F0004330B54FEA25
:106C480041044FEA430594EA050F08BF90EA020F92
:106C58001FBF54EA000C55EA020C7FEA645C7FEA25
:106C6800655C00F0E2804FEA5454D4EB5555B8BF48
:106C78006D420CDD2C4480EA020281EA030382EAB9
:106C8800000083EA010180EA020281EA0303362D4B
:106C980088BF30BD11F0004F4FEA01314FF4801C1E
:106CA8004CEA113102D0404261EB410113F0004F30
:106CB8004FEA03334CEA133302D0524263EB4303E7
:106CC80094EA050F00F0A780A4F10104D5F1200E85
:106CD8000DDB02FA0EFC22FA05F2801841F10001E0
:106CE80003FA0EF2801843FA05F359410EE0A5F1B4
:106CF80020050EF1200E012A03FA0EFC28BF4CF0E5
:106D0800020C43FA05F3C01851EBE37101F000459A
:106D180007D54FF0000EDCF1000C7EEB00006EEBA7
:106D28000101B1F5801F1BD3B1F5001F0CD3490831
:106D38005FEA30004FEA3C0C04F101044FEA445288
:106D480012F5800F80F09A80BCF1004F08BF5FEA0F
:106D5800500C50F1000041EB045141EA050130BDEF
:106D68005FEA4C0C404141EB010111F4801FA4F192
:106D78000104E9D191F0000F04BF01460020B1FAE7
:106D880081F308BF2033A3F10B03B3F120020CDA1F
:106D98000C3208DD02F1140CC2F10C0201FA0CF0FD
:106DA80021FA02F10CE002F11402D8BFC2F1200C62
:106DB80001FA02F120FA0CFCDCBF41EA0C01904018
:106DC800E41AA2BF01EB0451294330BD6FEA040461
:106DD8001F3C1CDA0C340EDC04F11404C4F120024C
:106DE80020FA04F001FA02F340EA030021FA04F35E
:106DF80045EA030130BDC4F10C04C4F1200220FAB5
:106E080002F001FA04F340EA0300294630BD21FAF2
:106E180004F0294630BD94F0000F83F4801306BFB8
:106E280081F480110134013D4EE77FEA645C18BFAC
:106E38007FEA655C29D094EA050F08BF90EA020F43
:106E480005D054EA000C04BF1946104630BD91EA3B
:106E5800030F1EBF0021002030BD5FEA545C05D13E
:106E68004000494128BF41F0004130BD14F580047D
:106E78003CBF01F5801130BD01F0004545F0FE41F1
:106E880041F470014FF0000030BD7FEA645C1ABF26
:106E9800194610467FEA655C1CBF0B46024650EA5D
:106EA800013406BF52EA033591EA030F41F4002189
:106EB80030BD00BF90F0000F04BF0021704730B50F
:106EC8004FF4806404F132044FF000054FF00001E4
:106ED80050E700BF90F0000F04BF0021704730B5A5
:106EE8004FF4806404F1320410F0004548BF40427A
:106EF8004FF000013EE700BF42004FEAE2014FEACF
:106F080031014FEA02701FBF12F07F4393F07F4FA9
:106F180081F06051704792F0000F14BF93F07F4FDB
:106F2800704730B54FF4607401F0004521F000411E
:106F380020E700BF50EA010208BF704730B54FF0A4
:106F480000050AE050EA010208BF704730B511F0A9
:106F5800004502D5404261EB41014FF4806404F1E1
:106F680032045FEA915C3FF4DCAE4FF003025FEA63
:106F7800DC0C18BF03325FEADC0C18BF033202EBEB
:106F8800DC02C2F1200300FA03FC20FA02F001FA45
:106F980003FE40EA0E0021FA02F11444C1E600BFE4
:106FA80070B54FF0FF0C4CF4E06C1CEA11541DBF97
:106FB8001CEA135594EA0C0F95EA0C0F00F0DEF862
:106FC8002C4481EA030621EA4C5123EA4C5350EA47
:106FD800013518BF52EA033541F4801143F4801398
:106FE80038D0A0FB02CE4FF00005E1FB02E506F029
:106FF8000042E0FB03E54FF00006E1FB03569CF07E
:10700800000F18BF4EF0010EA4F1FF04B6F5007F83
:1070180064F5407404D25FEA4E0E6D4146EB0606F5
:1070280042EAC62141EA55514FEAC52040EA5E507E
:107038004FEACE2EB4F1FD0C88BFBCF5E06F1ED828
:10704800BEF1004F08BF5FEA500E50F1000041EB5F
:10705800045170BD06F0004646EA010140EA02000C
:1070680081EA0301B4EB5C04C2BFD4EB0C0541EA2E
:10707800045170BD41F480114FF0000E013C00F343
:10708800AB8014F1360FDEBF002001F0004170BD67
:10709800C4F10004203C35DA0C341BDC04F1140480
:1070A800C4F1200500FA05F320FA04F001FA05F20C
:1070B80040EA020001F0004221F0004110EBD370D9
:1070C80021FA04F642EB06015EEA430E08BF20EA05
:1070D800D37070BDC4F10C04C4F1200500FA04F3A8
:1070E80020FA05F001FA04F240EA020001F000413A
:1070F80010EBD37041F100015EEA430E08BF20EAAD
:10710800D37070BDC4F1200500FA05F24EEA020EF4
:1071180020FA04F301FA05F243EA020321FA04F023
:1071280001F0004121FA04F220EA020000EBD370DA
:107138005EEA430E08BF20EAD37070BD94F0000FDA
:107148000FD101F00046400041EB010111F4801F0E
:1071580008BF013CF7D041EA060195F0000F18BFBF
:10716800704703F00046520043EB030313F4801FFB
:1071780008BF013DF7D043EA0603704794EA0C0FB5
:107188000CEA135518BF95EA0C0F0CD050EA4106CB
:1071980018BF52EA4306D1D181EA030101F0004148
:1071A8004FF0000070BD50EA410606BF1046194670
:1071B80052EA430619D094EA0C0F02D150EA01367C
:1071C80013D195EA0C0F05D152EA03361CBF1046BD
:1071D80019460AD181EA030101F0004141F0FE415C
:1071E80041F470014FF0000070BD41F0FE4141F4E0
:1071F800780170BD70B54FF0FF0C4CF4E06C1CEAE0
:1072080011541DBF1CEA135594EA0C0F95EA0C0F94
:1072180000F0A7F8A4EB050481EA030E52EA03354F
:107228004FEA013100F088804FEA03334FF0805570
:1072380045EA131343EA12634FEA022245EA11159D
:1072480045EA10654FEA00260EF000419D4208BF4E
:10725800964244F1FD0404F5407402D25B084FEAFB
:107268003202B61A65EB03055B084FEA32024FF4A7
:1072780080104FF4002CB6EB020E75EB030E22BF04
:10728800B61A754640EA0C005B084FEA3202B6EBC4
:10729800020E75EB030E22BFB61A754640EA5C0073
:1072A8005B084FEA3202B6EB020E75EB030E22BF03
:1072B800B61A754640EA9C005B084FEA3202B6EB04
:1072C800020E75EB030E22BFB61A754640EADC00C3
:1072D80055EA060E18D04FEA051545EA16754FEA25
:1072E80006164FEAC30343EA52734FEAC2025FEA43
:1072F8001C1CC0D111F4801F0BD141EA00014FF0D2
:1073080000004FF0004CB6E711F4801F04BF0143A2
:107318000020B4F1FD0C88BFBCF5E06F3FF6AFAEBE
:10732800B5EB030C04BFB6EB020C5FEA500C50F14E
:10733800000041EB045170BD0EF0004E4EEA1131D1
:1073480014EB5C04C2BFD4EB0C0541EA045170BDD8
:1073580041F480114FF0000E013C90E645EA060E1C
:107368008DE60CEA135594EA0C0F08BF95EA0C0F4A
:107378003FF43BAF94EA0C0F0AD150EA01347FF492
:1073880034AF95EA0C0F7FF425AF104619462CE769
:1073980095EA0C0F06D152EA03353FF4FDAE1046CC
:1073A800194622E750EA410618BF52EA43067FF41D
:1073B800C5AE50EA41047FF40DAF52EA43057FF4AD
:1073C800EBAE12E74FEA4102B2F1E04324BFB3F556
:1073D800001CDCF1FE5C0DD901F0004C4FEAC00244
:1073E8004CEA5070B2F1004F40EB830008BF20F028
:1073F8000100704711F0804F21D113F13872BCBFE2
:1074080001F00040704741F480114FEA5252C2F136
:107418001802C2F1200C10FA0CF320FA02F018BF7F
:1074280040F001004FEAC1234FEAD32303FA0CFCD2
:1074380040EA0C0023FA02F34FEA4303CCE77FEA61
:10744800625307D150EA01331EBF4FF0FE4040F4AB
:107458004000704701F0004040F0FE4040F400005A
:10746800704700BF0A22002100F026BA10B5054C6B
:1074780013462CB10A4601460220AFF3008010BD26
:10748800204610BD0000000038B5074B1C68E36BB0
:1074980005461BB92420FEF74FF8E063E16B284648
:1074A800BDE8384000F002B894E203202DE9F0412D
:1074B8000C46804600F006FD21460746404600F08F
:1074C80005FD466906F26C76B307044605D16422C9
:1074D80096FBF2F302FB13634BB94FF4C87596FBA6
:1074E800F5F305FB1365B5FA85F35B0900E00123A5
:1074F8005F4A302505FB032500F018FB00F018FB58
:107508005C4B1B68F3B17B689E4205D13968D8F89B
:107518000030FA6941B90AE0304600F05FFA002805
:10752800F4D14FF0FF330DE0934208DB01E09342C2
:1075380007DABA6B9342ACBF0023012302E00023B1
:1075480000E001232362236A012B0CBFF96B396A1F
:107558004FF461633C2091FBF3F603FB161361685B
:1075680093FBF0F200FB12302368891AA26861606D
:107578001B1A921B3B2B2360A26003DD0131616063
:107588003C3B04E0002B03DA013961603C332360A3
:1075980063683B2B03DD0132A2603C3B04E0002B17
:1075A80003DA013AA2603C336360A368172B22DD3B
:1075B800E2690132E261A2690132062AC8BF0022EB
:1075C800A261E268183B0132A3602369E26055F8C2
:1075D80023108A4246DD01330C2B0CBF63692361FB
:1075E800A2EB0102E26001BF013300222261636164
:1075F80008BFE26136E0002B34DAE269013AE26161
:10760800A269013A48BF0622A261E2681833013A2A
:10761800E260A36032BB2369013B01D423611DE012
:107628000B23236163695A1E12F0030F626103F290
:107638006B7305D1642193FBF1F201FB12324AB955
:107648004FF4C87193FBF1F201FB1233B3FA83F3E1
:107658005B0900E0012303F5B673E361236955F87C
:107668002330E36000F063FA2046BDE8F08100BFF4
:10767800A4860D00E4E7032010B5431E0A44914296
:1076880004D011F8014B03F8014FF8E710BD02448C
:107698000346934202D003F8011BFAE77047000043
:1076A80038B5124B1C68A36B0546D3B91820FDF7F3
:1076B80043FF43F20E33A06303804AF6CD33438081
:1076C80041F2342383804EF26D63C3804DF6EC6340
:1076D8000381052343810B23838101220023C0E911
:1076E8000423A36B00221D615A6138BD94E2032074
:1076F80010F8012B11F8013B012A28BF9A42F7D054
:10770800D01A7047034611F8012B03F8012B002A01
:10771800F9D17047024B0146186800F003B800BF62
:1077280094E2032070B5064608460C4600F00DF8B2
:10773800451C29463046FDF72FFF064618B12A4654
:107748002146FFF799FF304670BD034613F8012B19
:10775800002AFBD1181A0138704730B582B1451E8E
:10776800013915F8013F11F8014FA34206D1EC4346
:107778001444E04201D0002BF3D11C46181B30BD45
:10778800104630BD10B5034642B111F8014B03F85D
:10779800014B013A002CF7D11A4400E010BD934286
:1077A80002D003F8014BFAE710BD00002DE9F047BD
:1077B80080464048D0F800900F463D4615F8014BEA
:1077C80009EB0400407800F0080000F0FF0608B15B
:1077D8002F46F2E72D2C03D1BD1C7C78012603E04F
:1077E8002B2C04BF7C78BD1C13B1102B0AD15BE095
:1077F800302C57D1287800F0DF0058284DD16C780C
:1078080010230235002E14BF4FF0004C6FF0004CCF
:107818000027BCFBF3FA384603FB1ACC09EB040E2D
:107828009EF801E01EF0040F01D0303C0BE01EF082
:10783800030E1BD0BEF1010F0CBF4FF0370E4FF0F7
:10784800570ECEEB0404A34210DDB7F1FF3F0AD078
:10785800504506D801D1644503DC03FB00400127ED
:1078680001E04FF0FF3715F8014BD7E77B1C0CD12F
:10787800002E4FF0220314BF4FF000406FF000407D
:10788800C8F800302AB9BDE8F08706B1404272B1A5
:1078980007B1691E1160BDE8F0873024002BB1D113
:1078A8000823AFE70A23ADE7302CA3D0AAE7BDE849
:1078B800F08700BF30E2032013460A46014602481B
:1078C8000068FFF773BF00BF94E203202DE9F0477B
:1078D80080463C48D0F800900E46354615F8014BD6
:1078E80009EB0400407800F0080000F0FF0708B139
:1078F8002E46F2E72D2C03D1B51C7478012703E03E
:107908002B2C04BF7478B51C13B1102B0AD153E08B
:10791800302C4FD1287800F0DF00582845D16C78FA
:10792800102302354FF0FF3C0026BCFBF3FC03FBA1
:107938000CFA6FEA0A0A304609EB040E9EF801E0D9
:107948001EF0040F01D0303C0BE01EF0030E1AD0DD
:10795800BEF1010F0CBF4FF0370E4FF0570ECEEBB4
:107968000404A3420FDD002E08DB604506D801D1D0
:10797800544503DC03FB0040012601E04FF0FF36CD
:1079880015F8014BD8E7002E07DA2223C8F8003093
:107998004FF0FF302AB9BDE8F08707B1404272B115
:1079A80006B1691E1160BDE8F0873024002BB9D1FB
:1079B8000823B7E70A23B5E7302CABD0B2E7BDE818
:1079C800F08700BF30E2032013460A46014602480A
:1079D8000068FFF77BBF00BF94E203202DE9F74F53
:1079E800044600F06FFA40F2B1739C4240F396806F
:1079F8006FF4F663E318A4F2B2729B1040F26D15AF
:107A080005FB0235A4F26D726FF0630392FBF3F38A
:107A18006FF4C8622B44A5184FF4C87295FBF2F5B1
:107A28001D44642394FBF2F794FBF3F602FB17471B
:107A380003FB164600F13803B7FA87FE019304F0FA
:107A4800030344604FEA5E1E014600934FF0070CA3
:107A58000B7A4A2B0ED14B69009AEC1802B906B979
:107A680027B93B2BD4BF0023012300E00023234484
:107A7800013B3FE0442B02D14B692B443AE0009B89
:107A88002BB9002E0CBFF0464FF0010800E0F0467D
:107A9800244BCC68302202FB0838A8F1040AA94616
:107AA8000123A34204DA5AF804BF0133D944F8E7A2
:107AB80009F1040393FBFCFBCBEBCB0A012CCAEBCB
:107AC800030A4B69B8BF012404F18044B3EB0A0AE6
:107AD8000B6904F1FF3403F1FF3348BF0AF1070AC9
:107AE800C3EBC30358F824405344A34201DB073BCC
:107AF800FBE74B448C690C4A02FB03430C6A2344A2
:107B080041F81C3F019B9942A2D1C369826B934201
:107B1800ACBF002301230360012000E0002003B074
:107B2800BDE8F08FA4860D008051010070477047B2
:107B3800014B186800F002B894E203202DE9F04FD9
:107B48008DB0074600F0BEF9B049B14E044638463C
:107B580000F0B0F9054660B9AE4BAF4A1860AF4BBC
:107B68001860AF4B30681A605A60FDF7EDFC35605D
:107B780048E1316879B93068FDF7E6FC2846FFF737
:107B8800E4FD411C3846FDF707FD306048B1294641
:107B9800FFF7B8FD05E0FFF7ABFD002800F03281E4
:107BA800E9E72B789F4AA0493A2B08BF01350AAE6E
:107BB80033462846FDF7D8FC002840F323810A9B6A
:107BC800EF18EB5C2D2B03D101374FF0FF3503E0A5
:107BD8002B2B08BF013701250DF1200A0DF11E0BD3
:107BE8004FF000080396CDF808A00196CDF800B034
:107BF800334607AA8D49ADF81E803846ADF8208077
:107C0800FDF7B2FC404540F3FD80BDF81E20BDF8ED
:107C18002030DFF824923C2101FB0233BDF81C2000
:107C28004FF4616101FB02335D4325627C4D7D4B5E
:107C38002B600A9B7C491F444A4633463846FDF769
:107C480093FC404508DC2B686B60724B226A1A6013
:107C5800724BC3F80080D5E00A9BC5F80490FD1864
:107C6800FB5C2D2B03D101354FF0FF3703E02B2BA5
:107C780008BF013501270023ADF81C30ADF81E30D0
:107C8800ADF820300A930396CDF808A00196CDF8F8
:107C980000B0334607AA65492846FDF765FC002869
:107CA80004DC236AA3F56163E3630EE0BDF81E20DC
:107CB800BDF820303C2101FB0233BDF81C204FF4F5
:107CC800616101FB02335F43E7630A9B27461D445A
:107CD8004FF000092B782C2B08BF013595F8008050
:107CE800B8F14D0F26D10DF12603029309AB00938D
:107CF8000396019633460DF122024D492846FDF7B9
:107D080033FC03287ED1BDF822104B1E0B2B79D8EB
:107D1800BDF82420531E042B74D8BDF82630062B3A
:107D280070D887F80880F9603A617B610A9B05EB97
:107D380003082AE0B8F14A0F06BF01354346442339
:107D48000A220BA928460593FFF73EFEDDF82C8092
:107D5800ADF826004545059B14D14D23B9F1000F18
:107D680007D123720323E36002232361C4F814902C
:107D78000BE084F824300B23A3620123E362002381
:107D8800236302E080B23B7278610223ADF81C30B5
:107D98000023ADF81E30ADF820300A9398F8003073
:107DA8002F2B0BD10396CDF808A00196CDF800B083
:107DB800334607AA1F494046FDF7D6FBBDF81E20EB
:107DC800BDF820303C2101FB0233BDF81C204FF4E4
:107DD800616101FB0233BB610A9D09F10109B9F137
:107DE800020F454407F11C077FF474AF6068FFF782
:107DF800F5FD084B226A1A60E36B9B1A074A18BF05
:107E0800012313600DB0BDE8F08F00BF04870D009B
:107E1800E0E70320E8E7032007870D00E4E70320F5
:107E280098E20320D3E703200B870D002E870D006F
:107E38001A870D002D870D00C8E703202DE9F84F9C
:107E480007468B46904600F0D9F8194B1D689A46AC
:107E58003DB15C46234613F8012B42B13D2A1C462E
:107E6800F8D1384600F0CBF80020BDE8F88FCBEB0E
:107E78000404A94659F8040B0028F2D022465946B2
:107E8800FFF76BFC88B959F8043C1E191B5D3D2BA4
:107E98000BD1DAF80030ED1AAD103846C8F80050AA
:107EA80000F0ADF8701CBDE8F88F4D46E1E700BF63
:107EB800E0E2032007B501AAFFF7C0FF03B05DF8B1
:107EC80004FB000000487047A0E203200268474B0B
:107ED800F0B592FBF3F403FB1422002ABCBF02F5B1
:107EE800A83202F5C0724FF4616004F52F2492FBAA
:107EF800F0F300FB13224FF03C00ACBF04F66C24F7
:107F080004F66B248B6092FBF0F300FB13224B60AA
:107F18000A600723E21C92FBF3F3C3EBC303D31AF3
:107F28008B61334B334D94FBF5F503FB054448F661
:107F3800AC62B4FBF2F2224440F2B457B4FBF7F35C
:107F4800D21A2D48B4FBF0F048F69466131AB3FB26
:107F5800F6F6344440F26D12B3FBF2F0B3FBF7F3DC
:107F6800E31A02FB1033992403EB83020232B2FBBB
:107F7800F4F20A2A04FB02F404F102064FF00504A5
:107F8800B6FBF4F434BF02266FF0090616444FF42A
:107F9800C87202FB05055F1C012E98BF0135B3F5B9
:107FA800997FA7EB040702D3A3F5997214E082071F
:107FB80005D16424B0FBF4F204FB12024AB94FF471
:107FC800C872B0FBF2F402FB1400B0FA80F2520956
:107FD80000E001223B331A44A5F26C750023CA6104
:107FE8004D610E61CF600B620846F0BD8051010003
:107FF8004FC5FDFFB13A0200B03A02007047704722
:108008001D400D0059400D0085400D0089400D00B0
:1080180000000000312E31390000252E306625255C
:108028000025332E316620560025332E3166204434
:1080380065677265657320430053656E736F7220C0
:1080480052656164204661696C65642C20617474B2
:10805800656D70742025690053656E73696E6700DD
:10806800566572626F7365204D6F64652053746145
:10807800727465642E00566572626F7365204D6F69
:10808800646520416C7265616479204F4E2E003022
:1080980000566572626F7365204D6F646520537476
:1080A8006F707065642E00566572626F7365204D3F
:1080B8006F646520616C7265616479204F46462E55
:1080C800007B2254656D7065726174757265223A21
:1080D80025332E31662C2022426174746572792210
:1080E8003A25332E31667D004169722D5175616CD8
:1080F8006974792D486F6F6B004E6F20446174610D
:1081080000556269646F747320486F6F6B00537415
:10811800617465005472616E736974696F6E3A2098
:10812800257320746F202573004E657720486F757E
:10813800722D205265706F7274696E6700426967AC
:10814800204368616E6765202D2052617069642044
:1081580026205265706F7274696E67004368616E9D
:108168006765206465746563746564202D205265B5
:10817800706F7274696E67004E6F204368616E6736
:1081880065202D2049646C650054656D70657261C9
:108198007475726500446174612053656E74202F94
:1081A80020526573706F6E736520526563656976DA
:1081B800656400737061726B2F6465766963652FFF
:1081C80073657373696F6E2F656E640052657365AE
:1081D8007474696E6720696E203330207365636F2D
:1081E8006E6473004572726F7200436F6D6D616EDD
:1081F80064206163636570746564202D2072657006
:108208006F7274696E67206E6F770046756E63745F
:10821800696F6E00436F6D6D616E642061636365A5
:1082280070746564202D2073656E73696E67206EA7
:108238006F7700766572626F73654D6F646500478E
:1082480065742D52656164696E670053656E642DAF
:108258005265706F72740052656C65617365005386
:1082680069676E616C004261747465727900494493
:108278004C4500000000000000000000DF550D0024
:10828800E5550D000F560D00F3550D00E1550D0095
:108298000000000000000000E75B0D00DD5B0D0042
:1082A800D35B0D00C95B0D00BD5B0D00B15B0D001C
:1082B800A55B0D009D5B0D00935B0D00895B0D00B8
:1082C8004D5F0D000000000000000000055C0D007F
:1082D8004F5C0D00275C0D00075C0D002F5C0D0046
:1082E800375C0D003F5C0D00475C0D00000000008E
:1082F80000000000A15C0D00915C0D00935C0D0076
:1083080066006C6E00666E00636F64650064657479
:1083180061696C000D0A00253031307520005D2040
:10832800002564002C200028293A2000205B0063E7
:108338006F6465203D200064657461696C73203D3D
:108348002000626175640053657269616C00536551
:108358007269616C31007479706500706172616D69
:1083680000636D6400696400686E64007374726D04
:108378000066696C74006C766C0061646448616EB8
:10838800646C65720072656D6F766548616E646CC9
:10839800657200656E756D48616E646C6572730018
:1083A8004A534F4E53747265616D4C6F6748616EE6
:1083B800646C657200617070006E6F6E6500747237
:1083C80061636500696E666F007761726E00657241
:1083D800726F720070616E696300616C6C000000FE
:1083E8000000000000000000E35D0D00D95D0D00F5
:1083F800CF5D0D00C55D0D00B95D0D00AD5D0D00D3
:10840800A15D0D00995D0D008F5D0D00855D0D006E
:108418004D5F0D000000000000000000E55E0D004B
:10842800EF5E0D00F95E0D00035F0D000D5F0D009E
:10843800195F0D00255F0D00315F0D00395F0D00DC
:10844800435F0D004D5F0D000000000000000000BC
:1084580005610D0007610D00252B3033643A253086
:1084680032750025592D256D2D25645425483A254A
:108478004D3A2553257A0061736374696D65000070
:108488000000000000000000A1630D00F1630D0072
:10849800FF630D002D600D00B5630D00D7630D005F
:1084A800C3630D00EB630D00A3630D00A7630D000C
:1084B8000000000000000000A9640D00F9640D0030
:1084C80007650D002D600D00E5640D00AB640D001F
:1084D800C1640D00F3640D00D7640D00A5640D00A0
:1084E800000000000000000079660D006F660D00B6
:1084F80065660D000D660D0059660D004D660D0090
:1085080041660D0039660D002F660D0025660D00C9
:108518004D5F0D000000000000000000AD650D007B
:1085280017660D00AF650D00B9660D00B5650D0045
:1085380085660D00E1650D00002020202020202008
:1085480020202828282828202020202020202020FB
:10855800202020202020202020881010101010100B
:108568001010101010101010100404040404040457
:1085780004040410101010101010414141414141F1
:1085880001010101010101010101010101010101D3
:1085980001010101101010101010424242424242E3
:1085A80002020202020202020202020202020202A3
:1085B800020202021010101020000000000000004B
:1085C80000000000000000000000000000000000A3
:1085D8000000000000000000000000000000000093
:1085E8000000000000000000000000000000000083
:1085F8000000000000000000000000000000000073
:108608000000000000000000000000000000000062
:108618000000000000000000000000000000000052
:108628000000000000000000000000000000000042
:108638000000000000000000000000000000000032
:108648000000000000000000000000000000000022
:108658000000000000000000000000000000000012
:108668000000000000000000000000000000000002
:1086780000000000000000000000000000000000F2
:1086880000000000000000000000000000000000E2
:108698000000000000000000000000001F000000B3
:1086A8001C0000001F0000001E0000001F0000004A
:1086B8001E0000001F0000001F0000001E00000038
:1086C8001F0000001E0000001F0000001F00000027
:1086D8001D0000001F0000001E0000001F00000019
:1086E8001E0000001F0000001F0000001E00000008
:1086F8001F0000001E0000001F000000545A004721
:108708004D54002531305B5E302D392C2B2D5D25E5
:108718006E004D256875256E2E256875256E2E25EB
:108728006875256E002F256875256E3A25687525AC
:108738006E3A256875256E00214A0D00B74C0D006C
:1087480099500D00F15B0D00755D0D00995E0D00EF
:1087580019600D00E9600D007D620D008D630D004C
:1087680091670D0051690D00A9690D006D6A0D0032
:08877800F16A0D00756B0D00A4
:108780000000C03F0A000000496E697469616C20F6
:1087900053746174650000000000000000000000D8
:1087A00000000000000000000000000000000000C9
:1087B0000000000049646C6520537461746500001A
:1087C00000000000000000000000000000000000A9
:1087D0000000000000000000000000000000000099
:1087E0004D6561737572696E6700000000000000DE
:1087F0000000000000000000000000000000000079
:108800000000000000000000000000005265706FD2
:108810007274696E672044657465726D696E617407
:10882000696F6E0000000000000000000000000002
:1088300000000000000000005265706F7274696EE5
:1088400067000000000000000000000000000000C1
:108850000000000000000000000000000000000018
:1088600000000000526573706F6E73652057616978
:108870007400000000000000000000000000000084
:1088800000000000000000000000000000000000E8
:108890004572726F72205761697400000000000019
:1088A00000000000000000000000000000000000C8
:1088B0000000000000000000000000007F840D00A8
:1088C00040850D000000000044860D0064860D0008
:1088D00084860D0000000000000000000000000081
:1088E000000000003F800D000000000000000000BC
:1088F0000000000000000000000000000000000078
:108900000000000000000000000000000000000067
:108910000000000000000000000000000000000057
:108920000000000034E2032007870D0007870D00D8
:1089300001000000000000004A00000000000000EC
:108940000000000000000000000000000000000027
:10895000000000004A0000000000000000000000CD
:108960000000000000000000000000000000000007
:04897000ECE703200D
:10897400FFFFFFFF00000102030405060708090AC0
:108984000B0C0D0E0F101112131415161718191ABB
:088994001B1C1D1E1F20280002
:04899C0078563412C3
:04000003D0004018D1
:00000001FF
