:02000002D0002C
:1040000000400D0030710D00000006000C0005019D
:0840100004014E040000000051
:10401800C06C0D0009480A49884208B505D0094A0C
:10402800824202D0121A02F0DDFD0748074A002139
:10403800121A02F0E2FD014808BD00BFECE20320BD
:10404800A0700D0054E3032054E30320F0E703209D
:1040580070B501F0A5FF074C074BE41AA40800252A
:104068001E46A54204D056F8253098470135F8E792
:1040780070BD00BFA0700D0060700D0000F0EEB8BC
:1040880008B500F09DF8BDE8084001F057BF00F002
:1040980083BE00F089BE00F087BE0078B0FA80F0D9
:1040A80040097047012303707047012A02D0022A91
:1040B80002D004E0016002E00B6800B10360002058
:1040C80070471FB50468684601F075FC6846A0474C
:1040D8000446684601F07FFC204604B010BD00008D
:1040E80010B50549044601F0E1FC20B1024920461B
:1040F80001F0CBFC012010BDD46C0D0000B58DB0D3
:104108000A4903A801F0C0FE03A801F083FE10EEDF
:10411800100A02F0A3FA064ACDE900011021054869
:1041280000F052FE0DB05DF804FB00BF08E7032065
:10413800D76C0D00BCE3032007B5212001F07FFFF9
:1041480002F07AFA0CA3D3E9002302F0DBFA02F0BA
:10415800EBFC02F083FA064ACDE90001102105487C
:1041680000F032FE03B05DF804FB00BFAFF300803F
:10417800DE6C0D00A6E303209402C1D2AF63523F68
:1041880007B5FFF7BBFFFFF7D7FF0A4800F0F0F9C4
:1041980068B1084800F010FA10EE100A02F05EFA52
:1041A800054ACDE900011021044800F00DFE03B0D6
:1041B8005DF804FB68E30320E66C0D0058E3032078
:1041C80030B51F4C2378022B85B0254612D0032B1F
:1041D80015D0012B31D11B4D00F022FC2B68C01AE1
:1041E80042F20F73984228D90223237000F018FC7A
:1041F800286022E0FFF7C4FF032323701DE0124B61
:10420800124A1B788DF8003011493C2302A800F0AF
:104218008FFF039C7CB16368013B63605BB92368D3
:1042280020469B689847A368013BA3601BB9236895
:104238002046DB68984701232B7005B030BD00BFCE
:10424800A4E30320B8E30320A5E3032058E30320F5
:10425800F66C0D000023042200F02EBD1FB51B498B
:104268001B48FFF7F7FF1B491B48FFF7F3FF1B49E4
:104278001B48FFF7EFFF1B491B48FFF7EBFF1B4BE2
:1042880000931B4B039310201A4B0293FFF7FFFE7A
:10429800044678B100238360029B33B10222694649
:1042A8009847039BE360029BA360134A1348214687
:1042B80000F007FE029B1BB1032269466846984737
:1042C8000F4B01221A7004B010BD00BF58E3032041
:1042D800026D0D002D6D0D000A6D0D00BCE303206D
:1042E800126D0D00A6E30320196D0D00E9400D00C5
:1042F800CB400D00B3400D00216D0D00A34E0D0005
:10430800A4E3032010B50B4B0B4C01221A7000F0EC
:104318008FFB00220321094800F029F808492046AC
:1043280001F0A0FB2046074A0749BDE8104001F00C
:10433800DFBE00BFA5E3032094E3032068E3032066
:10434800D46C0D0054E30320DF590D000023002234
:10435800438242618361C3610362436280F828300B
:1043680080F8293080F82A3080F82B30704738B52B
:104378000446154600F094F94FF47A732046A57365
:104388002382FFF7E3FF204638BD0000F8B52DED86
:10439800028B0B68836100F118054B686B600B7822
:1043A800222B04460AD003D8102B42D1012308E05F
:1043B800262B05D0282B3CD1022302E0032300E062
:1043C800042384F82930204600F074F92946204651
:1043D80000F030FAA27B4421204600F0F8F9208A48
:1043E80000F00AFD204600F065F92946204600F055
:1043F80021FA0022B821204600F0E9F900221146EE
:10440800204600F0E4F9204600F054F929462046F9
:1044180000F010FA0022BE21204600F0D8F994F8E6
:104428002930042B09D100221146204600F0CFF98B
:1044380003E0002084F8290094E004F11F0504F14A
:104448002806204600F0E6F905F8010FAE42F8D13B
:10445800082104F1200000F086FA94F828308342FD
:1044680004D0012384F82B3000207BE094F821202D
:1044780094F8203094F8291043EA0223042963822F
:1044880027D194F8223007EE903A42EA0321D20865
:10449800F8EE678A07EE902A13F0800F618284F89D
:1044A8002120B8EE678A45D018EE900A02F0D6F8B7
:1044B800064618EE100A0F4602F0D0F800222B4BE1
:1044C80002F020F902460B463046394601F066FFF5
:1044D80044E0012903D044D3032910D941E0B4F9B9
:1044E800123094F82720DB00102A638219D194F83F
:1044F800262023F00F03C2F10C02134410E094F8B5
:10450800242012F0600202D123F0070308E0202AD9
:1045180002D123F0030303E0402A02D123F0010370
:104528006382B4F9123007EE903AFAEECE7AC4ED0F
:10453800057A16E018EE100A02F090F800220B4BEC
:1045480002F0E0F8064618EE900A0F4602F086F8E8
:1045580002460B463046394601F022FF02F0E4FAE3
:1045680060610120BDEC028BF8BD00BF0000A03FD8
:1045780038B50446FFF7EAFE00F11805294600F0B1
:1045880077F930B9012384F82A30204600F064F91D
:1045980010E00721284600F0E6F9E37F834203D0C4
:1045A800012384F82B3005E029462046BDE8384031
:1045B800FFF7ECBE002038BD90ED050A704700F00B
:1045C80037BA000010B503682F2B044604D9074AF0
:1045D80000210A2000F034FB23681F2B83BF03F05F
:1045E8001F03236002484FF0A04010BD194A0D0078
:1045F8000003005007B50B4B1B68000119181A5C23
:104608004B7802A803F01F0343EA421340F8043D25
:10461800FFF7D8FF019A01239340C0F80C3503B087
:104628005DF804FBCCE3032007B50B4B1B680001C6
:1046380019181A5C4B7802A803F01F0343EA4213C7
:1046480040F8043DFFF7BEFF019A01239340C0F8EC
:10465800083503B05DF804FBCCE3032013B50F4B1A
:104668001B6800011A181C5C537802A803F01F038A
:1046780043EA441440F8044DFFF7A4FFD0F810357E
:1046880002A840F8084DFFF79DFFD0F810350098B4
:1046980023FA00F000F0010002B010BDCCE30320C3
:1046A80038B504460D462846002101F0B7FC2580A0
:1046B800204638BD38B5054600F020FF002128887F
:1046C80000F0C6F900F01CFF7D24013C14F0FF0443
:1046D8002BD0022000F09CF92888FFF7BFFF0028A4
:1046E800F3D000F00BFF2888FFF784FF012128880A
:1046F80000F0AEF900F004FF4FF4F07000F088F914
:1047080000F0FCFE0021288800F0A2F9462000F005
:104718007FF92888FFF7A2FFB0FA80F400F0F0FED6
:104728004FF4CD70640900F073F9204638BD38B5F0
:1047380011F00105044613D000F0E0FE2088FFF7D1
:1047480059FF0121208800F083F90A2000F060F960
:104758002088002100F07CF900F0D2FE372012E01A
:1047680000F0CCFE2088FFF745FF0121208800F0EB
:104778006FF9412000F04CF92088294600F068F9CB
:1047880000F0BEFE0520BDE8384000F041B910B584
:10479800044600F0B3FE2088FFF72CFF0121208893
:1047A80000F056F9032000F033F90021208800F0CA
:1047B8004FF90A2000F02CF92088FFF74FFF044634
:1047C80000F09EFE352000F023F9204610BD2DE9AB
:1047D800F0410546884617460826012418EA040FC2
:1047E80014BF012100212846FFF7A1FF6400013E04
:1047F800E4B2F3D167B100F081FE2888FFF714FF17
:104808002888012100F024F9BDE8F04100F078BEC5
:10481800BDE8F081F8B5074608260025012438468A
:10482800FFF7B5FF00B125436400013EE4B2F6D1BD
:104838002846F8BD70B500220C4655210646FFF7FC
:10484800C6FF651E073415F8011F00223046FFF722
:10485800BEFFA542F7D170BD002383720373C372F4
:1048680000F10A02023002F8013D8242FBD1704792
:104878002DE9F047057B04468846002D5ED1FFF7F9
:1048880019FF20B9A0722073E072BDE8F0872A46AC
:10489800F0212046FFF79BFF0126AA46374620460F
:1048A800FFF775FF81462046FFF771FFB9F1010F49
:1048B80002D101281BD137E0814504EB05031ED145
:1048C800A27A974207D29A78164214BF4FF001098C
:1048D8004FF0000904E00CBF4FF001094FF0000948
:1048E800B9F1000F03D1082F08D8E77206E0621962
:1048F8004FF0010993783343937004E0BA469A78ED
:1049080022EA06029A70494620467600FFF70FFF12
:1049180016F0FF0604BF0135EDB207F1010708BF25
:104928000126072DFFB2BAD9402F07D984F80AA06B
:10493800BAF1000F12D1012323730FE00020A072F7
:104948002073E072631C08F1FF38093413F8012F53
:1049580008F8012FA342F9D1BDE8F087A378002B0E
:10496800ECD00120EEE730B5054600200139C9B288
:10497800FF2913D015F8014B082280EA040313F02D
:10498800010F4FEA50001CBF80F08C03D8B2531EB1
:1049980013F0FF024FEA5404EFD1E7E730BD0000FF
:1049A80008B500F045F8014B186008BDCCE30320BA
:1049B80008B5024B1B689B68019308BD48020300B9
:1049C80008B5024B1B681B69019308BD4802030028
:1049D80008B5024B1B685B69019308BD48020300D8
:1049E80008B5024B1B681B6B019308BD4802030006
:1049F80008B5024B1B685B6C019308BD48020300B5
:104A080008B5024B1B685B68019308BD18020300D8
:104A180008B5024B1B68DB68019308BD1802030048
:104A280008B5024B1B685B69019308BD18020300B7
:104A380008B5024B1B681B68019308BD2C020300D4
:104A480008B5024B1B685B68019308BD2C02030084
:104A580008B5024B1B689B68019308BD2C02030034
:104A680008B5024B1B681B6A019308BD2C020300A2
:104A780008B5024B1B685B6A019308BD2C02030052
:104A880008B5024B1B681B6B019308BD2C02030081
:104A980008B5024B1B681B6A019308BD2802030076
:104AA80008B5024B1B685B6A019308BD2802030026
:104AB80008B5024B1B689B6A019308BD28020300D6
:104AC80008B5024B1B68DB6A019308BD2802030086
:104AD80008B5024B1B681B6B019308BD2802030035
:104AE80008B5024B1B685B6B019308BD28020300E5
:104AF80008B5024B1B681B6C019308BD2802030014
:104B080008B5024B1B685B69019308BD640203008A
:104B180008B5024B1B689B68019308BD6802030037
:104B280008B5024B1B68DB68019308BD68020300E7
:104B380008B5024B1B68DB69019308BD300203000E
:104B480008B5024B1B681B6A019308BD30020300BD
:104B580008B5024B1B681B68019308BD3C020300A3
:104B680008B5024B1B68DB68019308BD3C020300D3
:104B780008B5024B1B681B69019308BD3C02030082
:104B880008B5024B1B685B69019308BD3C02030032
:104B980008B5024B1B689B69019308BD3C020300E2
:104BA80008B5024B1B68DB69019308BD3C02030092
:104BB80008B5024B1B681B6A019308BD3C02030041
:104BC80008B5024B1B689B6A019308BD3C020300B1
:104BD80008B5024B1B681B68019308BD4C02030013
:104BE80008B5024B1B681B69019308BD4C02030002
:104BF80008B5024B1B685B69019308BD4C020300B2
:104C080008B5024B1B689B69019308BD4C02030061
:104C180008B5024B1B68DB69019308BD4C02030011
:104C280008B5024B1B681B6A019308BD4C020300C0
:104C380008B5024B1B685B6F019308BD7402030043
:104C480008B5024B1B685B6B019308BD600203004B
:104C580008B5024B1B685B68019308BD200203007E
:104C680008B5024B1B685B69019308BD200203006D
:104C780008B5024B1B68DB6C019308BD20020300DA
:104C880008B5024B1B685B6D019308BD2002030049
:104C980008B5034B1B68D3F88830019308BD0000A2
:104CA8002002030008B5034B1B68D3F89430019326
:104CB80008BD00002002030008B5024B1B681B68F2
:104CC800019308BD4402030008B5024B1B685B68EA
:104CD800019308BD4402030008B5024B1B681B6A18
:104CE800019308BD4402030008B5024B1B68DB6B47
:104CF800019308BD4402030008B5024B1B685B68BA
:104D0800019308BD4002030008B5024B1B689B686D
:104D1800019308BD4002030008B5024B1B68DB681D
:104D2800019308BD4002030008B5024B1B681B69CC
:104D3800019308BD4002030008B5024B1B685B697C
:104D4800019308BD4002030008B5024B1B689B692C
:104D5800019308BD4002030008B5024B1B68DB69DC
:104D6800019308BD4002030008B5024B1B681B6A8B
:104D7800019308BD4002030008B5024B1B681B6B7A
:104D8800019308BD4002030008B5024B1B685B6B2A
:104D9800019308BD4002030008B5024B1B681B685D
:104DA800019308BD1C02030008B5024B1B685B6831
:104DB800019308BD1C02030008B5024B1B689B68E1
:104DC800019308BD1C02030008B5024B1B68DB6990
:104DD800019308BD1C02030008B5024B1B68DB6A7F
:104DE800019308BD1C02030008B5024B1B681B6B2E
:104DF800019308BD1C0203000021FFF731BF10B565
:104E0800836804460BB901F07AF9C3689847A36828
:104E18001BB1032221462046984720461021BDE8B1
:104E2800104001F06AB970470020704710B5102192
:104E3800044601F062F9204610BD08B508B1FFF735
:104E4800F5FF08BD10B58368044613B10322014677
:104E58009847204610BD38B5C468ECB12378022BBA
:104E680002D1E068FFF7A0FF656835B12846FFF773
:104E7800E9FF1021284601F040F9A56835B1284618
:104E8800FFF7E0FF1021284601F037F920461421EA
:104E9800BDE8384001F031B938BD1FB50446684651
:104EA80000F0E0FDA3680BB901F029F9E368694651
:104EB800204698470446684600F08DFD204604B019
:104EC80010BDF0B5102485B007460E4615460021E2
:104ED8002246684601F091FE002269461046ADF868
:104EE8000040029703960195FFF7EEFE05B0F0BD6E
:104EF80038B5046805467CB16368013B63605BB9FB
:104F0800236820469B689847A368013BA3601BB9A8
:104F180023682046DB689847284638BD13B5044601
:104F280091E8050000234B600B602060626001A8D7
:104F380001930093FFF7DCFF204602B010BD0B6819
:104F4800036013B15A6801325A607047F7B50C46CE
:104F580002AD54F8043B45F8083D06460F4601A843
:104F68002146FFF7ECFF29463046FFF7D7FF01A897
:104F7800FFF7BEFF2046FFF7BBFF3846082101F0C8
:104F8800BCF8304603B0F0BD13B50B46044603C861
:104F98008DE8030093E8030084E803009DE803001C
:104FA80083E8030002B010BD826810B50AB901F0A9
:104FB800A6F8C368BDE81040184708B5006800F1B6
:104FC8001001FFF7F1FF08BD826810B50AB901F0BA
:104FD80096F8C368BDE81040184708B5006800F1A6
:104FE8001001FFF7F1FF08BD38B5002383608B6817
:104FF80004460D462BB102229847EB68E360AB6884
:10500800A360204638BD00002DE9F0414FF69C739F
:1050180086B00468B1F904208B8000230F688DF8EE
:1050280000300B604FF00200D4E84F1F994203D1C3
:10503800C4E8450F002DF7D102D08DF800106BE0C1
:1050480014F10C051EBFE76022821F460123BFF33F
:105058005F8F0020637004F10803BFF35F8F53E88C
:10506800006F43E80002002AF9D1BFF35F8F002EDA
:1050780052D0FFF7FDFD20B129463046FFF794FFD7
:1050880043E031466846FFF7AFFFE068B4F91050D7
:1050980008B101F0EDFD04901020ADF81450FEF7B2
:1050A800F6FF054630B34FF00008C0F80880182016
:1050B800FEF7EDFF0446C0B1C0F808800146684617
:1050C800FFF762FF029BA268A360039B0292E2685B
:1050D800E360BDF81430A3824FF69C73ADF814302A
:1050E800049B03922361CDF810800E4BEB600E4BAE
:1050F8002C60AB600498FFF757FE6846FFF7A2FEE6
:10510800002229460948FFF7BBFD3046FFF79AFE03
:105118001021304600F0F1FF3846FFF745FE06B093
:10512800BDE8F081C34F0D0021520D00074E0D0060
:105138002DE9F04F8BB007AD4FF0000B06469946AE
:1051480014200C230F4690469DF850A0C5F804B0D3
:10515800C5F808B00793FEF79AFF044638B180F8FF
:1051680000B080F801B0C0F804B0C0F808B000235F
:10517800102003940493FEF78AFF28B101234360AB
:105188008360234B0360C4600490224B089308207B
:10519800FEF77DFF044628B1039B40F8043B04A9B1
:1051A800FFF7CDFE00955FFA8AF34A464146384636
:1051B8000994FFF791FDB8B9039B5B7803F0FF02F0
:1051C80093B94FF69C7305A903A80592ADF818305A
:1051D800FFF71AFF0598FFF7E7FD05A80999FFF7FC
:1051E800B5FE06A8FFF784FE039B059304A906A84D
:1051F800FFF7A5FE05A93046FFF790FE06A8FFF7C2
:1052080077FE04A8FFF774FE30460BB0BDE8F08FB8
:105218003C6D0D008D530D00022AF8B5044606D0EA
:10522800032A17D0012A21D10B6803601EE0182039
:105238000E68FEF72CFF054650B13146FFF7D4FE45
:105248003069B6F9147008B101F012FD2861AF8217
:1052580025600BE004684CB12069FFF7A5FD2046E6
:10526800FFF7F0FD1821204600F047FF0020F8BDA9
:1052780038B5002383608B6804460D462BB10222A3
:105288009847EB68E360AB68A360204638BD022A04
:1052980070B5044606D0032A11D0012A18D10B682C
:1052A800036015E014200E68FEF7F1FE054620B1F4
:1052B8003146FFF7DDFF337C2B74256008E0046876
:1052C80034B12046FFF7BEFD1421204600F015FF3B
:1052D800002070BDF0B5002387B00C46BFF35F8F88
:1052E80050E8006F40E80032002AF9D1BFF35F8F21
:1052F800002E3FD01846FFF7BBFC074620B12146D9
:105308003046FFF761FE2EE0314601A8FFF7B0FFF7
:1053180023788DF814301020FEF7B9FE0546D0B179
:1053280087601420FEF7B3FE044678B18760014613
:1053380001A8FFF729FE039BA268A360049B0392C0
:10534800E268E3609DF81430049223740A4BEB6022
:105358000A4B2C60AB6001A8FFF774FD00222946B8
:105368000748FFF78DFC3046FFF76CFD10213046EB
:1053780000F0C3FE07B0F0BDE34F0D0097520D00DB
:10538800074E0D0030B585B004460D4668461146F7
:10539800FFF7DCFD7CB124B228460DB101F068FCB2
:1053A800029002A96846ADF80C40FFF72DFE02985E
:1053B800FFF7FAFC1DE000988DF808404FF0010255
:1053C800D0E84F3FA34203D1C0E8412F0029F7D1CD
:1053D80002D08DF808300CE010F10C014FF00103F9
:1053E80018BF0373BFF35F8F043000F8033CFFF767
:1053F80071FF01A8FFF77CFD05B030BD0022114602
:105408004068FFF7B1BC002211464068FFF7BCBCFA
:1054180000224068FFF7B0BC002281F0010140681B
:10542800FFF79ABC00231A4619464068FFF78CBC60
:1054380000231A4619464068FFF77EBC0022114631
:105448004068FFF771BC002211464068FFF75CBC5A
:10545800002202214068FFF75FBC00231A4640681B
:10546800FFF74ABC024B03225A60024A1A6070478F
:10547800D0E30320586D0D007047F8B50646154671
:105488000C468F18BC4206D0336814F8011B9B6881
:1054980030469847F6E72846F8BD0022007CFFF71B
:1054A800F7BA0021007CFFF7FBBA0021007CFFF768
:1054B800FFBA0021007CFFF703BB0021007CFFF747
:1054C80007BB10B51421044600F017FE204610BD96
:1054D80010B504464FF47A730846A3600021044BC4
:1054E800207461602360FFF703FB204610BD00BFF6
:1054F8008C6D0D000021007CFFF7F2BAFFF7B8BAF7
:10550800FFF7AEBA704710B51821044600F0F5FD54
:10551800204610BDF0B5037D062B8DB00E4600F178
:1055280004074FF0000402D000F1080518E00CADA4
:10553800394605F8304D2F232A460A20FFF7E0FAAE
:10554800284601F0B0FB33680246DB68294630463E
:1055580098470FE024B12E21304600F0C7F90444E3
:1055680015F8011D0A22304600F0F0F9BD42044446
:10557800F0D120460DB0F0BD10B5054B0446112200
:1055880040F8043B002101F038FB204610BD00BF65
:10559800B46D0D000346074A10B543F8042B01F11A
:1055A800100251F8044B43F8044B9142F9D10A78A0
:1055B8001A7010BDB46D0D0010B59DF8084044EA8E
:1055C800032343EA024242EA01610423416003756E
:1055D80010BD37B50D788B784A78C978009129467F
:1055E800FFF7EAFF03B030BD014B024A1A6070476B
:1055F800D8E30320786E0D00002211464068FFF7BB
:10560800B3BB002211464068FFF7BEBB00224068CA
:10561800FFF7B2BB002281F001014068FFF79CBB95
:1056280000231A4619464068FFF78EBB00231A4626
:1056380019464068FFF780BB002211464068FFF713
:1056480073BB002211464068FFF75EBB00220221AF
:105658004068FFF761BB00231A464068FFF74CBB60
:1056680038B5054688B104684CB1A3681BB103225C
:105678002146204698471021204600F03EFD284646
:105688001421BDE8384000F038BD38BD10B10368BA
:105698005B681847704710B503680446BBB1586883
:1056A800FFF786F978B923685A7C12B95868FFF76A
:1056B80087F923685868FFF78BF92068002323606F
:1056C80028B1FFF7CDFF206808B1FFF7C9FF2046D2
:1056D80010BD000038B50C4B03600446D0F8CC016F
:1056E80008B1FEF7D8FCD4F8C45135B12846FFF705
:1056F800D2FF0421284600F000FDA06808B1FFF79A
:10570800C5FF204638BD00BFAC6E0D0038B50D4C46
:105718000D4B23600025022304F5E4706360A56047
:10572800C4F8C451C4F8C851FFF762F9074BC4F86C
:10573800CC5123602046064A0649BDE8384000F0AF
:10574800D7BC00BFDCE30320E06E0D00AC6E0D009B
:1057580054E30320DD560D0000231A464068FFF786
:10576800CBBA002202214068FFF7D6BA00221146C0
:105778004068FFF7C9BA002211464068FFF7D4BA5B
:1057880000231A4619464068FFF7D6BA00231A467E
:1057980019464068FFF7D8BA002281F00101406835
:1057A800FFF7DABA00224068FFF7E6BA002211468E
:1057B8004068FFF7E9BA002211464068FFF7D4BAFB
:1057C8002DE9F043002495B016460D460746FFF72D
:1057D800D3FE214620220CA8009401F00EFA4023A3
:1057E8000C9321466B460CAA3046FFF799F90446FC
:1057F800002844D1024601216868FFF795FA022182
:10580800804622466868FFF78FFA009E8146214647
:10581800002E34D0002932D17368022B02D00A2B13
:1058280009D02AE0B8F1000F27D071693846043151
:10583800FFF7CFFE20E0B9F1000F1ED074691122E6
:1058480001A801F0DAF906238DF8143001AD04F14E
:1058580008031834186859682A4603C20833A34253
:105868001546F7D101A906A807ADFFF793FE0FCD9E
:105878003C1D0FC42B6823700121F669C8E7009806
:10588800FFF746F9384615B0BDE8F083024B034AE6
:105898001A6000225A607047ACE50320E06E0D00E4
:1058A800F8B506460D468F180024BD420CD0336863
:1058B80015F8011B9B6830469847002801DB044413
:1058C800F3E7002C08BF04462046F8BD70B505462E
:1058D8000C46084649B101F0E6F92B680246214614
:1058E8002846DB68BDE87040184770BD03689B68B0
:1058F800184730B58BB00B4600218DF82410012ACB
:1059080098BF0A220DF12304B3FBF2F505FB12330D
:1059180003F0FF03092B94BF30333733DBB2214642
:1059280004F801392B46002DEED1FFF7CFFF0BB05D
:1059380030BD10B42AB903685DF8044B9B68C9B23E
:105948001847D2B25DF8044BFFF7D3BFFFF7F1BF9A
:1059580010B50446FFF776FA204610BD0348044AFE
:1059680004490023836000F0C3BB00BFB4E50320F3
:1059780054E3032059590D00704710B5102104460F
:1059880000F0BBFB204610BD70B5084B0360044611
:1059980000250E4640F80C5FFFF722F830462671C6
:1059A800FFF7C6F8A560204670BD00BF146F0D0054
:1059B8000079FFF7C5B80023036043608360037371
:1059C80010B50C6804604C6844608C6884600B6097
:1059D8004B608B6010BD10B504460068FFF7E4F912
:1059E800204610BD10B50446006808B1FFF7DCF981
:1059F80000232360A360636010BD38B504460D46DC
:105A080000680131FFF7D8F910B184E821000120BE
:105A180038BD10B50368044613B143688B4207D2FA
:105A28002046FFF7EAFF20B1A3680BB9226813707C
:105A3800012010BD70B50E46114604461546FFF705
:105A4800E8FF18B92046FFF7CDFF09E02A4631469E
:105A5800A560206801F0C6F82268A3680021D15427
:105A6800204670BD38B50023044603604360836058
:105A780003730D4639B1084601F015F92946024667
:105A88002046FFF7D7FF204638BD38B505460C46F7
:105A980041B1084601F007F9214602462846FFF7BA
:105AA800C9FF01E0FFF79EFF284638BD08B58268A8
:105AB8000B4612B919B9012008BD11B90368187845
:105AC80002E0006801F0CAF8B0FA80F0400908BDA9
:105AD800044B00204FF6FF72187058809A80FFF729
:105AE800B7B800BFC4E50320024B1A68024B1A601E
:105AF800704700BFECE20320CCE5032070474174F7
:105B0800704708B5007CFFF75BF820EAE07008BD35
:105B180008B5007CFFF72CF820EAE07008BD08B54E
:105B2800007CFFF735F830EA200028BF4FF0FF303F
:105B380008BD08B5007CFFF723F830EA200028BF2D
:105B48004FF0FF3008BD007CFFF72AB810B51421CC
:105B5800044600F0D2FA204610BD70B5457C0446D4
:105B68000E4625B9007CFFF72BF8002805DD3146E5
:105B7800207CBDE87040FEF7F3BF284670BD0000EA
:105B880010B5044608461146002262604FF47A7246
:105B9800A260054A22600122207462741A46FEF748
:105BA800D7FF204610BD00BF506F0D00007CFEF7E8
:105BB800FFBF000038B50C4D296811F0010411D160
:105BC8002846FEF76AFA68B1084A094B094821468F
:105BD800FFF7D6FF2846FEF765FA074A0749054842
:105BE80000F086FA034838BD68E603206CE6032017
:105BF800E4E50320D0E5032054E30320055B0D0012
:105C080041747047704708B50021007CFEF7F8FF23
:105C180030EA200028BF4FF0FF3008BD08B5012149
:105C2800007CFEF7EDFF30EA200028BF4FF0FF3080
:105C380008BD08B5007CFEF7DBFF20EAE07008BD70
:105C480008B5007CFEF7CCFF20EAE07008BD007CB8
:105C5800FEF7E6BF10B51421044600F04EFA2046C0
:105C680010BD38B50446007C0D46FEF7C1FF00287C
:105C780001DC607C28B12946207CFEF7C9FF20EAB8
:105C8800E07038BD10B50446002363604FF47A73A2
:105C9800A360054B236001230846217463741146F1
:105CA800FEF796FF204610BD806F0D0010B5142238
:105CB8000446002100F0A1FF204610BD30B50E4D6E
:105CC80087B001A8FFF7F2FF296811F0010410D18D
:105CD8002846FEF7E2F960B101AA21460748FFF716
:105CE800D1FF2846FEF7DEF9054A0649034800F0C9
:105CF800FFF9024807B030BDF0E60320F4E60320C0
:105D080054E303200D5C0D0070470120704700002C
:105D180083891BB10369B3F1004F02D19FED050AD6
:105D2800704707EE903A9FED047AF8EEE77A87EE2F
:105D3800870A7047000000000000C84283891BB131
:105D48008369B3F1004F02D19FED050A704707EE52
:105D5800903A9FED047AF8EEE77A87EE870A704763
:105D6800000000000000C842002211464068FEF70B
:105D7800DBBF10B52421044600F0BFF9204610BD52
:105D8800002211464068FEF7EFBF00221146406826
:105D9800FEF7FABF00224068FEF7EEBF002281F04E
:105DA80001014068FEF7D8BF00231A46194640682B
:105DB800FEF7CABF00231A4619464068FEF7BCBF63
:105DC800002211464068FEF79FBF0022022140686A
:105DD800FEF7A2BF00231A464068FEF78DBF0000F9
:105DE80083897BB1036A002B0CDB07EE903ADFED69
:105DF800076A9FED070AB8EEE77AC7EE267A27EE1C
:105E0800800A7047BFEE000A704700BF00FF7F4757
:105E18000000C84283897BB14369002B0CDB07EE85
:105E2800903ADFED076A9FED070AB8EEE77AC7EE0A
:105E3800267A27EE800A7047BFEE000A704700BF37
:105E480000FF7F470000C84270B50D46064600F1C6
:105E58000C040FCD0FC495E8030084E803003369F0
:105E6800B3F1004F0EBF0223642293FBF2F3736079
:105E7800B369B3F1004F0EBF0023642293FBF2F322
:105E8800B360012070BD00002DE9F041164B03609E
:105E9800002588460227182686B047608560324666
:105EA800294604460C3000F0A8FE2A462946D8F8B0
:105EB8000400FEF739FF90B132462946684600F0E3
:105EC8009CFE2A4669462846ADF80060FEF7B0FEFB
:105ED80020B969462046FFF7B7FF00E06760204613
:105EE80006B0BDE8F08100BFE46F0D00024B04224C
:105EF8005A60024A1A60704708E70320B06F0D0025
:105F080008B50C4B33B1FFF7D9FE03681B699847F6
:105F1800002809DC084B63B1FFF74CFE03681B69D6
:105F28009847002803DC08BDAFF30080F2E7AFF321
:105F3800008008BD000000000000000008B5FFF761
:105F4800DFFFFEF76DFD014B186008BD14E7032065
:105F580007B5002300931A466FF07701FEF7A2FEFB
:105F680003B05DF804FB000007B543880A2B08D08E
:105F7800502B09D1094B1B683BB103B05DF804EB0A
:105F88001847FFF7E5FF06E0002300931A466FF075
:105F98007701FEF787FE03B05DF804FB10E70320E6
:105FA80010B5FEF72DFD044600F030FE074B13B187
:105FB8002046AFF3008000210448FEF795FE00213B
:105FC8000348BDE81040FEF763BE00BF00000000B4
:105FD800715F0D0010B504460F48FFF7E9FC28B1C2
:105FE800A4F10B03022B01D8002010BD00F03EF8ED
:105FF800FFF780FA08B1012CF6D9FFF7DBFDFFF7B0
:10600800D5FD18B1A4F10903012BEDD9232C8CBFC0
:106018000020012010BD00BF30E70320232838B539
:1060280004460D460AD8FF2908D0FFF7D3FF28B148
:1060380029462046BDE83840FEF70ABD38BD0D2880
:1060480010B504469CBF0E34A4B22046FFF7C2FF29
:1060580050B103212046FEF7F3FC032804D1204663
:10606800BDE81040FEF70CBD002010BD38B50B4D43
:10607800296811F001040FD12846FEF70EF858B12F
:1060880021460748FFF724FA2846FEF70BF8054A89
:106098000549034800F02CF8014838BD18E70320EB
:1060A8001CE7032054E3032081540D0070B50C4C09
:1060B8000C4E0D4D00212046FFF766FC20460B4C88
:1060C8003246294600F014F801212046FFF75CFC0F
:1060D800324629462046BDE8704000F009B800BFA6
:1060E80030E7032054E3032081590D0040E70320E3
:1060F8000B460146184600F067BDFDF7CABF08B554
:10610800FEF76AFE244B1A68D0075CBF01221A60AA
:10611800224B1A68D1075CBF01221A60204B1A680B
:10612800D2075CBF01221A601E4B1A68D0075CBFF9
:1061380001221A601C4B1A68D1075CBF01221A6041
:106148001A4B1A68D2075CBF01221A60184B1A68EA
:10615800D0075CBF01221A60164B1A68D1075CBFD2
:1061680001221A60144B1A68D2075CBF01221A6018
:10617800124B1A68D0075CBF01221A60104B1A68CC
:10618800D1075CBF01221A600E4B1A68D2075CBFA8
:1061980001221A60704700BF7CE7032078E70320DC
:1061A80074E7032070E703206CE7032068E7032007
:1061B80064E7032060E703205CE7032058E7032037
:1061C80054E7032050E70320184B1A68D1075CBF37
:1061D80001221A60164B1A68D2075CBF01221A60A6
:1061E800144B1A68D0075CBF01221A60124B1A6858
:1061F800D1075CBF01221A60104B1A68D2075CBF36
:1062080001221A600E4B1A68D0075CBF01221A607F
:106218000C4B1A68D1075CBF01221A600A4B1A6836
:10622800D2075CBF01221A60704700BF9CE70320B9
:1062380098E7032094E7032090E703208CE70320E6
:1062480088E7032084E7032080E70320184B1A68B7
:10625800D1075CBF01221A60164B1A68D2075CBFCF
:1062680001221A60144B1A68D0075CBF01221A6019
:10627800124B1A68D1075CBF01221A60104B1A68CA
:10628800D2075CBF01221A600E4B1A68D0075CBFA8
:1062980001221A600C4B1A68D1075CBF01221A60F0
:1062A8000A4B1A68D2075CBF01221A60704700BF08
:1062B800BCE70320B8E70320B4E70320B0E70320D6
:1062C800ACE70320A8E70320A4E70320A0E7032006
:1062D800244B1A68D0075CBF01221A60224B1A6847
:1062E800D1075CBF01221A60204B1A68D2075CBF35
:1062F80001221A601E4B1A68D0075CBF01221A607F
:106308001C4B1A68D1075CBF01221A601A4B1A6825
:10631800D2075CBF01221A60184B1A68D0075CBF0D
:1063280001221A60164B1A68D1075CBF01221A6055
:10633800144B1A68D2075CBF01221A60124B1A6804
:10634800D0075CBF01221A60104B1A68D1075CBFE6
:1063580001221A600E4B1A68D2075CBF01221A602C
:10636800704700BFECE70320E8E70320E4E70320D9
:10637800E0E70320DCE70320D8E70320D4E7032085
:10638800D0E70320CCE70320C8E70320C4E70320B5
:10639800C0E7032081F0004102E000BF83F0004322
:1063A80030B54FEA41044FEA430594EA050F08BFA8
:1063B80090EA020F1FBF54EA000C55EA020C7FEA6C
:1063C800645C7FEA655C00F0E2804FEA5454D4EBE9
:1063D8005555B8BF6D420CDD2C4480EA020281EAB3
:1063E800030382EA000083EA010180EA020281EAEB
:1063F8000303362D88BF30BD11F0004F4FEA01313D
:106408004FF4801C4CEA113102D0404261EB41014B
:1064180013F0004F4FEA03334CEA133302D05242D1
:1064280063EB430394EA050F00F0A780A4F101048D
:10643800D5F1200E0DDB02FA0EFC22FA05F28018C7
:1064480041F1000103FA0EF2801843FA05F35941AD
:106458000EE0A5F120050EF1200E012A03FA0EFC2C
:1064680028BF4CF0020C43FA05F3C01851EBE37156
:1064780001F0004507D54FF0000EDCF1000C7EEB73
:1064880000006EEB0101B1F5801F1BD3B1F5001FB1
:106498000CD349085FEA30004FEA3C0C04F10104D0
:1064A8004FEA445212F5800F80F09A80BCF1004FF9
:1064B80008BF5FEA500C50F1000041EB045141EA7B
:1064C800050130BD5FEA4C0C404141EB010111F47C
:1064D800801FA4F10104E9D191F0000F04BF014627
:1064E8000020B1FA81F308BF2033A3F10B03B3F105
:1064F80020020CDA0C3208DD02F1140CC2F10C0295
:1065080001FA0CF021FA02F10CE002F11402D8BFF2
:10651800C2F1200C01FA02F120FA0CFCDCBF41EABE
:106528000C019040E41AA2BF01EB0451294330BD8D
:106538006FEA04041F3C1CDA0C340EDC04F114046A
:10654800C4F1200220FA04F001FA02F340EA030041
:1065580021FA04F345EA030130BDC4F10C04C4F187
:10656800200220FA02F001FA04F340EA0300294667
:1065780030BD21FA04F0294630BD94F0000F83F4B1
:10658800801306BF81F480110134013D4EE77FEA94
:10659800645C18BF7FEA655C29D094EA050F08BFE0
:1065A80090EA020F05D054EA000C04BF19461046C1
:1065B80030BD91EA030F1EBF0021002030BD5FEA05
:1065C800545C05D14000494128BF41F0004130BD2D
:1065D80014F580043CBF01F5801130BD01F0004581
:1065E80045F0FE4141F470014FF0000030BD7FEAF4
:1065F800645C1ABF194610467FEA655C1CBF0B46EF
:10660800024650EA013406BF52EA033591EA030F05
:1066180041F4002130BD00BF90F0000F04BF0021FD
:10662800704730B54FF4806404F132044FF0000530
:106638004FF0000150E700BF90F0000F04BF0021A9
:10664800704730B54FF4806404F1320410F000450F
:1066580048BF40424FF000013EE700BF42004FEA0A
:10666800E2014FEA31014FEA02701FBF12F07F4387
:1066780093F07F4F81F06051704792F0000F14BF84
:1066880093F07F4F704730B54FF4607401F00045C8
:1066980021F0004120E700BF50EA010208BF70471F
:1066A80030B54FF000050AE050EA010208BF704714
:1066B80030B511F0004502D5404261EB41014FF47D
:1066C800806404F132045FEA915C3FF4DCAE4FF081
:1066D80003025FEADC0C18BF03325FEADC0C18BF68
:1066E800033202EBDC02C2F1200300FA03FC20FAB9
:1066F80002F001FA03FE40EA0E0021FA02F1144406
:10670800C1E600BF70B54FF0FF0C4CF4E06C1CEA1A
:1067180011541DBF1CEA135594EA0C0F95EA0C0F8F
:1067280000F0DEF82C4481EA030621EA4C5123EA02
:106738004C5350EA013518BF52EA033541F4801131
:1067480043F4801338D0A0FB02CE4FF00005E1FBE4
:1067580002E506F00042E0FB03E54FF00006E1FB2E
:1067680003569CF0000F18BF4EF0010EA4F1FF0471
:10677800B6F5007F64F5407404D25FEA4E0E6D41B1
:1067880046EB060642EAC62141EA55514FEAC520C2
:1067980040EA5E504FEACE2EB4F1FD0C88BFBCF53E
:1067A800E06F1ED8BEF1004F08BF5FEA500E50F1EF
:1067B800000041EB045170BD06F0004646EA0101B5
:1067C80040EA020081EA0301B4EB5C04C2BFD4EBE7
:1067D8000C0541EA045170BD41F480114FF0000EE0
:1067E800013C00F3AB8014F1360FDEBF002001F04E
:1067F800004170BDC4F10004203C35DA0C341BDCC8
:1068080004F11404C4F1200500FA05F320FA04F099
:1068180001FA05F240EA020001F0004221F00041CD
:1068280010EBD37021FA04F642EB06015EEA430E40
:1068380008BF20EAD37070BDC4F10C04C4F1200570
:1068480000FA04F320FA05F001FA04F240EA020023
:1068580001F0004110EBD37041F100015EEA430EF4
:1068680008BF20EAD37070BDC4F1200500FA05F214
:106878004EEA020E20FA04F301FA05F243EA020393
:1068880021FA04F001F0004121FA04F220EA0200A2
:1068980000EBD3705EEA430E08BF20EAD37070BDE8
:1068A80094F0000F0FD101F00046400041EB0101C8
:1068B80011F4801F08BF013CF7D041EA060195F0AA
:1068C800000F18BF704703F00046520043EB030364
:1068D80013F4801F08BF013DF7D043EA0603704751
:1068E80094EA0C0F0CEA135518BF95EA0C0F0CD05C
:1068F80050EA410618BF52EA4306D1D181EA0301A2
:1069080001F000414FF0000070BD50EA410606BF9B
:106918001046194652EA430619D094EA0C0F02D1E0
:1069280050EA013613D195EA0C0F05D152EA033625
:106938001CBF104619460AD181EA030101F0004143
:1069480041F0FE4141F470014FF0000070BD41F08C
:10695800FE4141F4780170BD70B54FF0FF0C4CF466
:10696800E06C1CEA11541DBF1CEA135594EA0C0F85
:1069780095EA0C0F00F0A7F8A4EB050481EA030ED2
:1069880052EA03354FEA013100F088804FEA0333B9
:106998004FF0805545EA131343EA12634FEA022287
:1069A80045EA111545EA10654FEA00260EF0004148
:1069B8009D4208BF964244F1FD0404F5407402D29A
:1069C8005B084FEA3202B61A65EB03055B084FEA2B
:1069D80032024FF480104FF4002CB6EB020E75EB28
:1069E800030E22BFB61A754640EA0C005B084FEA50
:1069F8003202B6EB020E75EB030E22BFB61A7546CD
:106A080040EA5C005B084FEA3202B6EB020E75EB17
:106A1800030E22BFB61A754640EA9C005B084FEA8F
:106A28003202B6EB020E75EB030E22BFB61A75469C
:106A380040EADC0055EA060E18D04FEA051545EA8B
:106A480016754FEA06164FEAC30343EA52734FEA34
:106A5800C2025FEA1C1CC0D111F4801F0BD141EAAD
:106A680000014FF000004FF0004CB6E711F4801F12
:106A780004BF01430020B4F1FD0C88BFBCF5E06FF2
:106A88003FF6AFAEB5EB030C04BFB6EB020C5FEA02
:106A9800500C50F1000041EB045170BD0EF0004E57
:106AA8004EEA113114EB5C04C2BFD4EB0C0541EA89
:106AB800045170BD41F480114FF0000E013C90E686
:106AC80045EA060E8DE60CEA135594EA0C0F08BF4A
:106AD80095EA0C0F3FF43BAF94EA0C0F0AD150EA49
:106AE80001347FF434AF95EA0C0F7FF425AF1046DC
:106AF80019462CE795EA0C0F06D152EA03353FF404
:106B0800FDAE1046194622E750EA410618BF52EA80
:106B180043067FF4C5AE50EA41047FF40DAF52EA54
:106B280043057FF4EBAE12E74FEA4102B2F1E043CE
:106B380024BFB3F5001CDCF1FE5C0DD901F0004C5C
:106B48004FEAC0024CEA5070B2F1004F40EB8300AC
:106B580008BF20F00100704711F0804F21D113F1D8
:106B68003872BCBF01F00040704741F480114FEA11
:106B78005252C2F11802C2F1200C10FA0CF320FA9A
:106B880002F018BF40F001004FEAC1234FEAD323B7
:106B980003FA0CFC40EA0C0023FA02F34FEA430321
:106BA800CCE77FEA625307D150EA01331EBF4FF0AA
:106BB800FE4040F44000704701F0004040F0FE40C5
:106BC80040F40000704700BF10B5054C13462CB1C7
:106BD8000A4601460220AFF3008010BD204610BDD2
:106BE8000000000010B5431E0A44914204D011F879
:106BF800014B03F8014FF8E710BD024403469342E6
:106C080002D003F8011BFAE77047000038B5124BB1
:106C18001C68A36B0546D3B91820FEF7BDF843F2EC
:106C28000E33A06303804AF6CD33438041F2342308
:106C380083804EF26D63C3804DF6EC6303810523B8
:106C480043810B23838101220023C0E90423A36B22
:106C580000221D615A6138BD50E3032010F8012B52
:106C680011F8013B012A28BF9A42F7D0D01A704781
:106C7800024B0146186800F003B800BF50E3032038
:106C880070B5064608460C4600F00DF8451C294626
:106C98003046FEF7A9F8064618B12A462146FFF7FE
:106CA800A1FF304670BD034613F8012B002AFBD123
:106CB800181A0138704700001D400D0059400D009A
:106CC80085400D0089400D00000000006F6E002512
:106CD8002E306625250025332E31662056002533B3
:106CE8002E316620446567726565732043005465DC
:106CF8006D70657261747572650063656C73697532
:106D0800730052656C65617365005369676E616CE9
:106D1800004261747465727900766572626F73659A
:106D28004D6F646500312E30340000000000000013
:106D3800000000002F4E0D00354E0D005F4E0D0077
:106D4800434E0D00314E0D00000000000000000011
:106D580063540D0059540D004F540D0045540D0057
:106D680039540D002D540D0021540D0019540D00F7
:106D78000F540D0005540D00C9570D000000000008
:106D88000000000081540D00CB540D00A3540D00E9
:106D980083540D00AB540D00B3540D00BB540D00CB
:106DA800C3540D0000000000000000001D550D0038
:106DB8000D550D000F550D0066006C6E00666E00D7
:106DC800636F64650064657461696C000D0A002571
:106DD8003031307520005D20002564002C2000280B
:106DE800293A2000205B00636F6465203D20002560
:106DF800690064657461696C73203D200062617587
:106E0800640053657269616C0053657269616C3125
:106E1800007479706500706172616D00636D640063
:106E2800696400686E64007374726D0066696C74DE
:106E3800006C766C0061646448616E646C65720015
:106E480072656D6F766548616E646C657200656E1B
:106E5800756D48616E646C657273004A534F4E538A
:106E6800747265616D4C6F6748616E646C65720021
:106E7800617070006E6F6E650074726163650069A1
:106E88006E666F007761726E006572726F72007065
:106E9800616E696300616C6C000000000000000016
:106EA800000000005F560D0055560D004B560D00B2
:106EB80041560D0035560D0029560D001D560D0082
:106EC80015560D000B560D0001560D00C9570D0043
:106ED800000000000000000061570D006B570D0016
:106EE80075570D007F570D0089570D0095570D00F8
:106EF800A1570D00AD570D00B5570D00BF570D0038
:106F0800C9570D00000000000000000081590D0065
:106F180083590D005A00252B3033643A25303275D9
:106F28000025592D256D2D25645425483A254D3ABF
:106F38002553257A0061736374696D65000000004C
:106F48000000000000000000055B0D00555B0D000F
:106F5800635B0D00A9580D00195B0D003B5B0D002C
:106F6800275B0D004F5B0D00075B0D000B5B0D00F1
:106F780000000000000000000D5C0D005D5C0D00CD
:106F88006B5C0D00A9580D00495C0D000F5C0D00ED
:106F9800255C0D00575C0D003B5C0D00095C0D0085
:106FA8000000000000000000DD5D0D00D35D0D0055
:106FB800C95D0D00715D0D00BD5D0D00B15D0D0079
:106FC800A55D0D009D5D0D00935D0D00895D0D00B3
:106FD800C9570D000000000000000000115D0D0001
:106FE8007B5D0D00135D0D001D5E0D00195D0D002C
:106FF800E95D0D00455D0D00000000000000000087
:107008000000000000000000000000000000000078
:107018000000000000000000000000000000000068
:107028000000000000000000000000000000000058
:107038000000000000000000000000000000000048
:107048000000000000000000000000000000000038
:1070580000000000000000000D430D00C7450D00B2
:10706800A9490D006D540D00F1550D0015570D007F
:1070780095580D0065590D00D95A0D00F15A0D00AB
:10708800F55E0D00B5600D000D610D00D1610D00BC
:0870980055620D00D9620D00E4
:1070A0003D6F0D000000000000700D0020700D000D
:1070B00040700D0000000000000000000000000013
:1070C00000000000F46C0D00000000000000000053
:1070D00000000000000000000000000000000000B0
:1070E00000000000000000000000000000000000A0
:1070F0000000000000000000000000000000000090
:0871000000000000F0E2032092
:10710800FFFFFFFF00000102030405060708090A44
:107118000B0C0D0E0F101112131415161718191A3F
:087128001B1C1D1E1F20280086
:047130007856341247
:04000003D0004018D1
:00000001FF
