:02000002D0002C
:1040000000400D00E0640D00000006000C000501FA
:0840100004014E040000000051
:10401800D8600D0009480A49884208B505D0094A00
:10402800824202D0121A02F00FF80748074A00210C
:10403800121A02F014F8014808BD00BF20E303205B
:1040480050640D0088E3032088E30320F0E7032091
:1040580070B501F0F1F9074C074BE41AA4080025E4
:104068001E46A54204D056F8253098470135F8E792
:1040780070BD00BF50640D0004640D0000F014B85A
:1040880008B500F025F8BDE8084001F0A3B900F034
:104098005BBD00F059BD0078B0FA80F04009704768
:1040A800012303707047000008B50749074800233B
:1040B800042200F0E1FC01F00BF94FF41651BDE8C1
:1040C800084001F0F9B800BF8CE30320EC600D0054
:1040D80007B50E4800F048F9A8B10C4800F068F997
:1040E80010EE100A01F0ECFC094ACDE9000110219C
:1040F800084800F031FD01F0EBF8074903B05DF81E
:1041080004EB00F0B1BF03B05DF804FB9CE30320AF
:10411800F4600D008CE3032004610D0008B500F085
:1041280087FB00220821044800F01DF800F078FB06
:10413800024B186008BD00BF9CE30320C8E30320BE
:1041480000F076BB00230022438242618361C36191
:104158000362436280F8283080F8293080F82A30DA
:1041680080F82B30704738B50446154600F094F9AE
:104178004FF47A732046A5732382FFF7E3FF2046A6
:1041880038BD0000F8B52DED028B0B68836100F196
:1041980018054B686B600B78222B04460AD003D8AD
:1041A800102B42D1012308E0262B05D0282B3CD127
:1041B800022302E0032300E0042384F82930204688
:1041C80000F074F92946204600F030FAA27B442119
:1041D800204600F0F8F9208A00F0C6FC204600F0DE
:1041E80065F92946204600F021FA0022B821204628
:1041F80000F0E9F900221146204600F0E4F92046D3
:1042080000F054F92946204600F010FA0022BE2199
:10421800204600F0D8F994F82930042B09D100225F
:104228001146204600F0CFF903E0002084F8290069
:1042380094E004F11F0504F12806204600F0E6F991
:1042480005F8010FAE42F8D1082104F1200000F072
:1042580086FA94F82830834204D0012384F82B305E
:1042680000207BE094F8212094F8203094F829105D
:1042780043EA02230429638227D194F8223007EE07
:10428800903A42EA0321D208F8EE678A07EE902AAC
:1042980013F0800F618284F82120B8EE678A45D038
:1042A80018EE900A01F00CFC064618EE100A0F46AC
:1042B80001F006FC00222B4B01F056FC02460B468F
:1042C8003046394601F09CFA44E0012903D044D332
:1042D800032910D941E0B4F9123094F82720DB0003
:1042E800102A638219D194F8262023F00F03C2F113
:1042F8000C02134410E094F8242012F0600202D15A
:1043080023F0070308E0202A02D123F0030303E087
:10431800402A02D123F001036382B4F9123007EE78
:10432800903AFAEECE7AC4ED057A16E018EE100A45
:1043380001F0C6FB00220B4B01F016FC064618EEF6
:10434800900A0F4601F0BCFB02460B463046394640
:1043580001F058FA01F01AFE60610120BDEC028BF1
:10436800F8BD00BF0000A03F38B50446FFF7EAFEDD
:1043780000F11805294600F077F930B9012384F8CF
:104388002A30204600F064F910E00721284600F0A2
:10439800E6F9E37F834203D0012384F82B3005E05C
:1043A80029462046BDE83840FFF7ECBE002038BD5E
:1043B80090ED050A704700F03BBA000010B503689D
:1043C8002F2B044604D9074A00210A2000F028FBB5
:1043D80023681F2B83BF03F01F03236002484FF09D
:1043E800A04010BD19480D000003005007B50B4B45
:1043F8001B68000119181A5C4B7802A803F01F0308
:1044080043EA421340F8043DFFF7D8FF019A01231D
:104418009340C0F80C3503B05DF804FBCCE30320EF
:1044280007B50B4B1B68000119181A5C4B7802A8DA
:1044380003F01F0343EA421340F8043DFFF7BEFFB1
:10444800019A01239340C0F8083503B05DF804FBD6
:10445800CCE3032013B50F4B1B6800011A181C5C32
:10446800537802A803F01F0343EA441440F8044DAC
:10447800FFF7A4FFD0F8103502A840F8084DFFF761
:104488009DFFD0F81035009823FA00F000F00100E5
:1044980002B010BDCCE3032038B504460D462846CB
:1044A800002101F007F82580204638BD38B50546BB
:1044B80000F0E6FB0021288800F0C2F900F0E2FBDA
:1044C8007D24013C14F0FF042BD0022000F0A0F959
:1044D8002888FFF7BFFF0028F3D000F0D1FB288819
:1044E800FFF784FF0121288800F0AAF900F0CAFB31
:1044F8004FF4F07000F08CF900F0C2FB002128881E
:1045080000F09EF9462000F083F92888FFF7A2FF03
:10451800B0FA80F400F0B6FB4FF4CD70640900F0F7
:1045280077F9204638BD38B511F00105044613D097
:1045380000F0A6FB2088FFF759FF0121208800F032
:104548007FF90A2000F064F92088002100F078F94A
:1045580000F098FB372012E000F092FB2088FFF76C
:1045680045FF0121208800F06BF9412000F050F947
:104578002088294600F064F900F084FB0520BDE896
:10458800384000F045B910B5044600F079FB2088A2
:10459800FFF72CFF0121208800F052F9032000F0DA
:1045A80037F90021208800F04BF90A2000F030F993
:1045B8002088FFF74FFF044600F064FB352000F029
:1045C80027F9204610BD2DE9F041054688461746D3
:1045D8000826012418EA040F14BF012100212846E7
:1045E800FFF7A1FF6400013EE4B2F3D167B100F028
:1045F80047FB2888FFF714FF2888012100F020F9DD
:10460800BDE8F04100F03EBBBDE8F081F8B50746D3
:104618000826002501243846FFF7B5FF00B12543D9
:104628006400013EE4B2F6D12846F8BD70B5002218
:104638000C4655210646FFF7C6FF651E073415F8D8
:10464800011F00223046FFF7BEFFA542F7D170BD1B
:10465800002383720373C37200F10A02023002F866
:10466800013D8242FBD170472DE9F047057B0446A6
:104678008846002D5ED1FFF719FF20B9A07220737C
:10468800E072BDE8F0872A46F0212046FFF79BFF3D
:104698000126AA4637462046FFF775FF8146204681
:1046A800FFF771FFB9F1010F02D101281BD137E0E3
:1046B800814504EB05031ED1A27A974207D29A7866
:1046C800164214BF4FF001094FF0000904E00CBF77
:1046D8004FF001094FF00009B9F1000F03D1082F7D
:1046E80008D8E77206E062194FF00109937833435E
:1046F800937004E0BA469A7822EA06029A7049460C
:1047080020467600FFF70FFF16F0FF0604BF0135BD
:10471800EDB207F1010708BF0126072DFFB2BAD98C
:10472800402F07D984F80AA0BAF1000F12D101234B
:1047380023730FE00020A0722073E072631C08F15D
:10474800FF38093413F8012F08F8012FA342F9D1D3
:10475800BDE8F087A378002BECD00120EEE730B558
:10476800054600200139C9B2FF2913D015F8014BBD
:10477800082280EA040313F0010F4FEA50001CBF1F
:1047880080F08C03D8B2531E13F0FF024FEA540492
:10479800EFD1E7E730BD000008B500F049F8014B5C
:1047A800186008BDCCE3032000F042B800F040B820
:1047B80008B5024B1B689B68019308BD48020300BB
:1047C80008B5024B1B681B69019308BD480203002A
:1047D80008B5024B1B685B69019308BD48020300DA
:1047E80008B5024B1B681B6B019308BD4802030008
:1047F80008B5024B1B685B6C019308BD48020300B7
:1048080008B5024B1B685B68019308BD18020300DA
:1048180008B5024B1B68DB68019308BD180203004A
:1048280008B5024B1B685B69019308BD18020300B9
:1048380008B5024B1B681B68019308BD2C020300D6
:1048480008B5024B1B689B68019308BD2C02030046
:1048580008B5024B1B681B6A019308BD2C020300B4
:1048680008B5024B1B685B6A019308BD2C02030064
:1048780008B5024B1B681B6A019308BD2802030098
:1048880008B5024B1B685B6A019308BD2802030048
:1048980008B5024B1B689B6A019308BD28020300F8
:1048A80008B5024B1B68DB6A019308BD28020300A8
:1048B80008B5024B1B681B6B019308BD2802030057
:1048C80008B5024B1B685B6B019308BD2802030007
:1048D80008B5024B1B681B6C019308BD2802030036
:1048E80008B5024B1B685B69019308BD64020300AD
:1048F80008B5024B1B689B68019308BD680203005A
:1049080008B5024B1B68DB68019308BD6802030009
:1049180008B5024B1B68DB69019308BD3002030030
:1049280008B5024B1B681B6A019308BD30020300DF
:1049380008B5024B1B681B68019308BD3C020300C5
:1049480008B5024B1B68DB68019308BD3C020300F5
:1049580008B5024B1B681B69019308BD3C020300A4
:1049680008B5024B1B685B69019308BD3C02030054
:1049780008B5024B1B689B69019308BD3C02030004
:1049880008B5024B1B68DB69019308BD3C020300B4
:1049980008B5024B1B681B6A019308BD3C02030063
:1049A80008B5024B1B689B6A019308BD3C020300D3
:1049B80008B5024B1B681B68019308BD4C02030035
:1049C80008B5024B1B685B68019308BD4C020300E5
:1049D80008B5024B1B681B69019308BD4C02030014
:1049E80008B5024B1B685B69019308BD4C020300C4
:1049F80008B5024B1B689B69019308BD4C02030074
:104A080008B5024B1B68DB69019308BD4C02030023
:104A180008B5024B1B681B6A019308BD4C020300D2
:104A280008B5024B1B685B6B019308BD600203006D
:104A380008B5024B1B685B68019308BD20020300A0
:104A480008B5024B1B685B69019308BD200203008F
:104A580008B5034B1B68D3F88830019308BD0000E4
:104A68002002030008B5034B1B68D3F89430019368
:104A780008BD00002002030008B5024B1B681B6834
:104A8800019308BD4402030008B5024B1B68DB6BA9
:104A9800019308BD4402030008B5024B1B685B681C
:104AA800019308BD4002030008B5024B1B689B68D0
:104AB800019308BD4002030008B5024B1B68DB6880
:104AC800019308BD4002030008B5024B1B681B692F
:104AD800019308BD4002030008B5024B1B685B69DF
:104AE800019308BD4002030008B5024B1B689B698F
:104AF800019308BD4002030008B5024B1B68DB693F
:104B0800019308BD4002030008B5024B1B681B6AED
:104B1800019308BD4002030008B5024B1B681B6BDC
:104B2800019308BD4002030008B5024B1B685B6B8C
:104B3800019308BD4002030008B5024B1B681B68BF
:104B4800019308BD1C02030008B5024B1B685B6893
:104B5800019308BD1C02030008B5024B1B68DB6902
:104B6800019308BD1C0203000021FFF769BF10B5BF
:104B78008368044613B1032201469847204610BDB6
:104B8800002211464068FFF7BFBF00221146406867
:104B9800FFF7CABF00224068FFF7BEBF002281F0BE
:104BA80001014068FFF7A8BF00231A46194640686C
:104BB800FFF79ABF00231A4619464068FFF78CBFD3
:104BC800002211464068FFF77FBF00221146406867
:104BD800FFF76ABF002202214068FFF76DBF00237C
:104BE8001A464068FFF758BF024B03225A60024A30
:104BF8001A607047D0E3032020610D007047F8B5B4
:104C0800064615460C468F18BC4206D0336814F881
:104C1800011B9B6830469847F6E72846F8BD0022F6
:104C2800007CFFF725BE0021007CFFF729BE00218C
:104C3800007CFFF72DBE0021007CFFF731BE00216C
:104C4800007CFFF735BE10B50446FFF720FA204672
:104C580010BD000010B504464FF47A730846A360EF
:104C68000021044B207461602360FFF731FE204669
:104C780010BD00BF54610D000021007CFFF720BE6D
:104C8800FFF7EEBDFFF7E4BD704710B50446FFF728
:104C9800FEF9204610BDF0B5037D062B8DB00E46FB
:104CA80000F104074FF0000402D000F1080518E0F5
:104CB8000CAD394605F8304D2F232A460A20FFF758
:104CC8000FFE284601F0FCF933680246DB682946E6
:104CD800304698470FE024B12E21304600F0C8F93D
:104CE800044415F8011D0A22304600F0F1F9BD42CE
:104CF8000444F0D120460DB0F0BD000010B5054BBE
:104D08000446112240F8043B002101F0A8F920468E
:104D180010BD00BF7C610D000346074A10B543F87B
:104D2800042B01F1100251F8044B43F8044B914253
:104D3800F9D10A781A7010BD7C610D0010B59DF884
:104D4800084044EA032343EA024242EA0161042399
:104D58004160037510BD37B50D788B784A78C978EE
:104D680000912946FFF7EAFF03B030BD014B024A24
:104D78001A607047D8E3032040620D0000221146F4
:104D88004068FFF7C1BE002211464068FFF7CCBE5D
:104D980000224068FFF7C0BE002281F00101406890
:104DA800FFF7AABE00231A4619464068FFF79CBEC3
:104DB80000231A4619464068FFF78EBE00221146A6
:104DC8004068FFF781BE002211464068FFF76CBEBD
:104DD800002202214068FFF76FBE00231A46406890
:104DE800FFF75ABE38B5054678B1046844B1A368E0
:104DF8001BB103222146204698472046FFF747F972
:104E08002846BDE83840FFF742B938BD10B10368FD
:104E18005B681847704710B503680446BBB158680B
:104E2800FFF7C6FC78B923685A7C12B95868FFF7AF
:104E3800C7FC23685868FFF7CBFC20680023236071
:104E480028B1FFF7CFFF206808B1FFF7CBFF204656
:104E580010BD000038B50B4B03600446D0F8CC01F8
:104E680008B1FFF716F9D4F8C4512DB12846FFF759
:104E7800D2FF2846FFF70BF9A06808B1FFF7C6FF75
:104E8800204638BD74620D0038B50D4C0D4B2360BB
:104E98000025022304F5E4706360A560C4F8C451DA
:104EA800C4F8C851FFF7A4FC074BC4F8CC512360E1
:104EB8002046064A0649BDE8384000F04FBB00BF0F
:104EC800DCE30320A8620D0074620D0088E3032070
:104ED8005D4E0D0000231A464068FFF7DDBD002235
:104EE80002214068FFF7E8BD002211464068FFF73D
:104EF800DBBD002211464068FFF7E6BD00231A46D5
:104F080019464068FFF7E8BD00231A46194640686D
:104F1800FFF7EABD002281F001014068FFF7ECBD10
:104F280000224068FFF7F8BD002211464068FFF7ED
:104F3800FBBD002211464068FFF7E6BD2DE9F043AE
:104F4800002495B016460D460746FFF7D7FE2146C2
:104F580020220CA8009401F082F840230C932146EB
:104F68006B460CAA3046FFF7CBFC0446002844D118
:104F7800024601216868FFF7A7FD02218046224604
:104F88006868FFF7A1FD009E81462146002E34D0B7
:104F9800002932D17368022B02D00A2B09D02AE0EB
:104FA800B8F1000F27D0716938460431FFF7D3FEF6
:104FB80020E0B9F1000F1ED07469112201A801F098
:104FC8004EF806238DF8143001AD04F108031834A7
:104FD800186859682A4603C20833A3421546F7D110
:104FE80001A906A807ADFFF797FE0FCD3C1D0FC41A
:104FF8002B6823700121F669C8E70098FFF778FC51
:10500800384615B0BDE8F083024B034A1A60002207
:105018005A607047ACE50320A8620D00F8B5064653
:105028000D468F180024BD420CD0336815F8011BBB
:105038009B6830469847002801DB0444F3E7002CBE
:1050480008BF04462046F8BD70B505460C4608461C
:1050580049B101F035F82B68024621462846DB683D
:10506800BDE87040184770BD08B5FFF7EDFF08BDF3
:1050780003689B68184730B58BB00B4600218DF844
:105088002410012A98BF0A220DF12304B3FBF2F57C
:1050980005FB123303F0FF03092B94BF303337337A
:1050A800DBB2214604F801392B46002DEED1FFF77B
:1050B800CBFF0BB030BD10B42AB903685DF8044BC0
:1050C8009B68C9B21847D2B25DF8044BFFF7D3BF4B
:1050D800FFF7F1BF10B50446FFF749FD204610BDA4
:1050E8000348044A04490023836000F037BA00BF2C
:1050F800B4E5032088E30320DD500D00704710B5A8
:105108000446FEF7C4FF204610BD000070B5084BEA
:105118000360044600250E4640F80C5FFFF760FB6D
:1051280030462671FFF7F4FBA560204670BD00BF2E
:10513800DC620D000079FFF7F3BB0000044B002090
:105148004FF6FF72187058809A80FFF771BC00BF45
:10515800C4E50320024B1A68024B1A60704700BF6F
:1051680020E30320CCE50320704741747047007C9E
:10517800FFF716BC007CFFF7EBBB007CFFF7F8BB22
:10518800007CFFF7EDBB007CFFF7FABB10B50446C7
:10519800FEF77DFF204610BD70B5457C04460E46DF
:1051A80025B9007CFFF7FCFB002805DD3146207C93
:1051B800BDE87040FFF7C4BB284670BD10B5044673
:1051C80008461146002262604FF47A72A260054ACE
:1051D80022600122207462741A46FFF7A9FB204658
:1051E80010BD00BF18630D00007CFFF7D1BB0000A5
:1051F80038B50C4D296811F0010411D12846FEF785
:105208004AFF68B1084A094B09482146FFF7D6FF0B
:105218002846FEF745FF074A0749054800F09EF96A
:10522800034838BD68E603206CE60320E4E5032064
:10523800D0E5032088E3032071510D0041747047C5
:1052480070470021007CFFF7D3BB0121007CFFF7EA
:10525800CFBB007CFFF7C4BB007CFFF7B9BB38B5F8
:105268000446007C0D46FFF7BBFB002801DC607C90
:1052780020B12946207CFFF7C3FB012038BD007C04
:10528800FFF7C6BB10B50446FEF701FF204610BD68
:1052980010B50446002363604FF47A73A360054B8E
:1052A800236001230846217463741146FFF780FBCD
:1052B800204610BD48630D000022007CFFF780BB2C
:1052C80010B514220446002100F0C9FE204610BD86
:1052D80030B50E4D87B001A8FFF7F2FF296811F02D
:1052E800010410D12846FEF7D6FE60B101AA214676
:1052F8000748FFF7CDFF2846FEF7D2FE054A0649C4
:10530800034800F02BF9024807B030BDF0E603204F
:10531800F4E6032088E3032049520D0000221146D9
:105328004068FFF7D1BB002211464068FFF7ECBB8D
:10533800002211464068FFF7F7BB00224068FFF7DC
:10534800EBBB002281F001014068FFF7D5BB0023C9
:105358001A4619464068FFF7C7BB00231A46194684
:105368004068FFF7B9BB002211464068FFF79CBBB5
:10537800002202214068FFF79FBB00231A464068BD
:10538800FFF78ABB024B04225A60024A1A60704730
:1053980008E7032078630D0008B50C4B33B1FFF71D
:1053A80097FF03681B699847002809DC084B63B11D
:1053B800FFF71EFF03681B699847002803DC08BD38
:1053C800AFF30080F2E7AFF3008008BD00000000F3
:1053D8000000000008B5FFF7DFFFFFF721FA014BD7
:1053E800186008BD14E7032007B5002300931A4688
:1053F8006FF07701FFF736FB03B05DF804FB0000A0
:1054080007B543880A2B08D0502B09D1094B1B68D4
:105418003BB103B05DF804EB1847FFF7E5FF06E082
:10542800002300931A466FF07701FFF71BFB03B0C8
:105438005DF804FB10E7032010B5FFF7E1F9044617
:1054480000F016FE074B13B12046AFF30080002191
:105458000448FFF719FB00210348BDE81040FFF797
:10546800F7BA00BF0000000009540D0010B504464B
:105478000F48FFF75FFE28B1A4F10B03022B01D8F8
:10548800002010BD00F028F8FFF7F6FB08B1012C4A
:10549800F6D9FFF7ADFEFFF7A7FE18B1A4F109038F
:1054A800012BEDD9232C8CBF0020012010BD00BF9B
:1054B80030E70320232838B504460D460AD8FF29CB
:1054C80008D0FFF7D3FF28B129462046BDE8384069
:1054D800FFF7B6B938BD000038B50B4D296811F093
:1054E80001040FD12846FEF7D6FD58B121460748DA
:1054F800FFF7B0FB2846FEF7D3FD054A05490348E8
:1055080000F02CF8014838BD18E703201CE70320F9
:1055180088E30320054C0D0070B50C4C0C4E0D4D66
:1055280000212046FFF7F2FD20460B4C3246294663
:1055380000F014F801212046FFF7E8FD324629461D
:105548002046BDE8704000F009B800BF30E70320EE
:1055580088E3032005510D0040E703200B46014670
:10556800184600F063BD0000244B1A68D0075CBFE2
:1055780001221A60224B1A68D1075CBF01221A6007
:10558800204B1A68D2075CBF01221A601E4B1A68AA
:10559800D0075CBF01221A601C4B1A68D1075CBF98
:1055A80001221A601A4B1A68D2075CBF01221A60DE
:1055B800184B1A68D0075CBF01221A60164B1A688C
:1055C800D1075CBF01221A60144B1A68D2075CBF6E
:1055D80001221A60124B1A68D0075CBF01221A60B8
:1055E800104B1A68D1075CBF01221A600E4B1A686B
:1055F800D2075CBF01221A60704700BF7CE7032016
:1056080078E7032074E7032070E703206CE70320A2
:1056180068E7032064E7032060E703205CE70320D2
:1056280058E7032054E7032050E70320184B1A6873
:10563800D1075CBF01221A60164B1A68D2075CBFFB
:1056480001221A60144B1A68D0075CBF01221A6045
:10565800124B1A68D1075CBF01221A60104B1A68F6
:10566800D2075CBF01221A600E4B1A68D0075CBFD4
:1056780001221A600C4B1A68D1075CBF01221A601C
:105688000A4B1A68D2075CBF01221A60704700BF34
:105698009CE7032098E7032094E7032090E7032082
:1056A8008CE7032088E7032084E7032080E70320B2
:1056B800184B1A68D1075CBF01221A60164B1A688A
:1056C800D2075CBF01221A60144B1A68D0075CBF6E
:1056D80001221A60124B1A68D1075CBF01221A60B6
:1056E800104B1A68D2075CBF01221A600E4B1A6869
:1056F800D0075CBF01221A600C4B1A68D1075CBF47
:1057080001221A600A4B1A68D2075CBF01221A608C
:10571800704700BFBCE70320B8E70320B4E70320C5
:10572800B0E70320ACE70320A8E70320A4E70320A1
:10573800A0E70320244B1A68D0075CBF01221A6037
:10574800224B1A68D1075CBF01221A60204B1A68E5
:10575800D2075CBF01221A601E4B1A68D0075CBFD3
:1057680001221A601C4B1A68D1075CBF01221A601B
:105778001A4B1A68D2075CBF01221A60184B1A68C4
:10578800D0075CBF01221A60164B1A68D1075CBFAC
:1057980001221A60144B1A68D2075CBF01221A60F2
:1057A800124B1A68D0075CBF01221A60104B1A68A6
:1057B800D1075CBF01221A600E4B1A68D2075CBF82
:1057C80001221A60704700BFECE70320E8E70320D6
:1057D800E4E70320E0E70320DCE70320D8E7032021
:1057E800D4E70320D0E70320CCE70320C8E7032051
:1057F800C4E70320C0E7032081F0004102E000BFB6
:1058080083F0004330B54FEA41044FEA430594EA78
:10581800050F08BF90EA020F1FBF54EA000C55EAB3
:10582800020C7FEA645C7FEA655C00F0E2804FEA84
:105838005454D4EB5555B8BF6D420CDD2C4480EA66
:10584800020281EA030382EA000083EA010180EA96
:10585800020281EA0303362D88BF30BD11F0004FE4
:105868004FEA01314FF4801C4CEA113102D040421A
:1058780061EB410113F0004F4FEA03334CEA133355
:1058880002D0524263EB430394EA050F00F0A7806D
:10589800A4F10104D5F1200E0DDB02FA0EFC22FA68
:1058A80005F2801841F1000103FA0EF2801843FA5C
:1058B80005F359410EE0A5F120050EF1200E012A4D
:1058C80003FA0EFC28BF4CF0020C43FA05F3C0188B
:1058D80051EBE37101F0004507D54FF0000EDCF104
:1058E800000C7EEB00006EEB0101B1F5801F1BD3AD
:1058F800B1F5001F0CD349085FEA30004FEA3C0CB1
:1059080004F101044FEA445212F5800F80F09A80A6
:10591800BCF1004F08BF5FEA500C50F1000041EBAA
:10592800045141EA050130BD5FEA4C0C404141EBAE
:10593800010111F4801FA4F10104E9D191F0000FD5
:1059480004BF01460020B1FA81F308BF2033A3F158
:105958000B03B3F120020CDA0C3208DD02F1140C4F
:10596800C2F10C0201FA0CF021FA02F10CE002F18A
:105978001402D8BFC2F1200C01FA02F120FA0CFC83
:10598800DCBF41EA0C019040E41AA2BF01EB0451CC
:10599800294330BD6FEA04041F3C1CDA0C340EDCCA
:1059A80004F11404C4F1200220FA04F001FA02F30D
:1059B80040EA030021FA04F345EA030130BDC4F1CB
:1059C8000C04C4F1200220FA02F001FA04F340EAC0
:1059D8000300294630BD21FA04F0294630BD94F071
:1059E800000F83F4801306BF81F480110134013D58
:1059F8004EE77FEA645C18BF7FEA655C29D094EAC9
:105A0800050F08BF90EA020F05D054EA000C04BF46
:105A18001946104630BD91EA030F1EBF0021002031
:105A280030BD5FEA545C05D14000494128BF41F0D0
:105A3800004130BD14F580043CBF01F5801130BD34
:105A480001F0004545F0FE4141F470014FF00000BF
:105A580030BD7FEA645C1ABF194610467FEA655C70
:105A68001CBF0B46024650EA013406BF52EA033512
:105A780091EA030F41F4002130BD00BF90F0000F00
:105A880004BF0021704730B54FF4806404F132043C
:105A98004FF000054FF0000150E700BF90F0000FF5
:105AA80004BF0021704730B54FF4806404F132041C
:105AB80010F0004548BF40424FF000013EE700BFEC
:105AC80042004FEAE2014FEA31014FEA02701FBF7C
:105AD80012F07F4393F07F4F81F06051704792F04E
:105AE800000F14BF93F07F4F704730B54FF46074C8
:105AF80001F0004521F0004120E700BF50EA010213
:105B080008BF704730B54FF000050AE050EA0102BF
:105B180008BF704730B511F0004502D5404261EB2F
:105B280041014FF4806404F132045FEA915C3FF470
:105B3800DCAE4FF003025FEADC0C18BF03325FEA09
:105B4800DC0C18BF033202EBDC02C2F1200300FABE
:105B580003FC20FA02F001FA03FE40EA0E0021FAE3
:105B680002F11444C1E600BF70B54FF0FF0C4CF4CD
:105B7800E06C1CEA11541DBF1CEA135594EA0C0F83
:105B880095EA0C0F00F0DEF82C4481EA030621EABE
:105B98004C5123EA4C5350EA013518BF52EA0335F9
:105BA80041F4801143F4801338D0A0FB02CE4FF0AB
:105BB8000005E1FB02E506F00042E0FB03E54FF0DB
:105BC8000006E1FB03569CF0000F18BF4EF0010ED3
:105BD800A4F1FF04B6F5007F64F5407404D25FEACF
:105BE8004E0E6D4146EB060642EAC62141EA555182
:105BF8004FEAC52040EA5E504FEACE2EB4F1FD0CC4
:105C080088BFBCF5E06F1ED8BEF1004F08BF5FEA41
:105C1800500E50F1000041EB045170BD06F00046F3
:105C280046EA010140EA020081EA0301B4EB5C04A0
:105C3800C2BFD4EB0C0541EA045170BD41F4801198
:105C48004FF0000E013C00F3AB8014F1360FDEBFBD
:105C5800002001F0004170BDC4F10004203C35DA99
:105C68000C341BDC04F11404C4F1200500FA05F31C
:105C780020FA04F001FA05F240EA020001F00042BD
:105C880021F0004110EBD37021FA04F642EB060133
:105C98005EEA430E08BF20EAD37070BDC4F10C045D
:105CA800C4F1200500FA04F320FA05F001FA04F221
:105CB80040EA020001F0004110EBD37041F100010D
:105CC8005EEA430E08BF20EAD37070BDC4F1200518
:105CD80000FA05F24EEA020E20FA04F301FA05F280
:105CE80043EA020321FA04F001F0004121FA04F228
:105CF80020EA020000EBD3705EEA430E08BF20EAF8
:105D0800D37070BD94F0000F0FD101F00046400031
:105D180041EB010111F4801F08BF013CF7D041EAB3
:105D2800060195F0000F18BF704703F000465200B7
:105D380043EB030313F4801F08BF013DF7D043EA88
:105D48000603704794EA0C0F0CEA135518BF95EA3E
:105D58000C0F0CD050EA410618BF52EA4306D1D1C5
:105D680081EA030101F000414FF0000070BD50EAE4
:105D7800410606BF1046194652EA430619D094EA6E
:105D88000C0F02D150EA013613D195EA0C0F05D158
:105D980052EA03361CBF104619460AD181EA0301AC
:105DA80001F0004141F0FE4141F470014FF0000064
:105DB80070BD41F0FE4141F4780170BD70B54FF0FF
:105DC800FF0C4CF4E06C1CEA11541DBF1CEA13557F
:105DD80094EA0C0F95EA0C0F00F0A7F8A4EB050461
:105DE80081EA030E52EA03354FEA013100F0888058
:105DF8004FEA03334FF0805545EA131343EA126321
:105E08004FEA022245EA111545EA10654FEA0026D5
:105E18000EF000419D4208BF964244F1FD0404F58E
:105E2800407402D25B084FEA3202B61A65EB0305EA
:105E38005B084FEA32024FF480104FF4002CB6EBA7
:105E4800020E75EB030E22BFB61A754640EA0C0027
:105E58005B084FEA3202B6EB020E75EB030E22BF67
:105E6800B61A754640EA5C005B084FEA3202B6EBA8
:105E7800020E75EB030E22BFB61A754640EA9C0067
:105E88005B084FEA3202B6EB020E75EB030E22BF37
:105E9800B61A754640EADC0055EA060E18D04FEAF5
:105EA800051545EA16754FEA06164FEAC30343EA95
:105EB80052734FEAC2025FEA1C1CC0D111F4801F62
:105EC8000BD141EA00014FF000004FF0004CB6E75B
:105ED80011F4801F04BF01430020B4F1FD0C88BFFA
:105EE800BCF5E06F3FF6AFAEB5EB030C04BFB6EB05
:105EF800020C5FEA500C50F1000041EB045170BDF8
:105F08000EF0004E4EEA113114EB5C04C2BFD4EB24
:105F18000C0541EA045170BD41F480114FF0000EA8
:105F2800013C90E645EA060E8DE60CEA135594EA24
:105F38000C0F08BF95EA0C0F3FF43BAF94EA0C0F27
:105F48000AD150EA01347FF434AF95EA0C0F7FF49C
:105F580025AF104619462CE795EA0C0F06D152EAF0
:105F680003353FF4FDAE1046194622E750EA4106D4
:105F780018BF52EA43067FF4C5AE50EA41047FF4E5
:105F88000DAF52EA43057FF4EBAE12E74FEA410248
:105F9800B2F1E04324BFB3F5001CDCF1FE5C0DD97F
:105FA80001F0004C4FEAC0024CEA5070B2F1004FC9
:105FB80040EB830008BF20F00100704711F0804FCC
:105FC80021D113F13872BCBF01F00040704741F491
:105FD80080114FEA5252C2F11802C2F1200C10FA95
:105FE8000CF320FA02F018BF40F001004FEAC12379
:105FF8004FEAD32303FA0CFC40EA0C0023FA02F31D
:106008004FEA4303CCE77FEA625307D150EA0133F2
:106018001EBF4FF0FE4040F44000704701F00040C2
:1060280040F0FE4040F40000704700BF10B5054C3A
:1060380013462CB10A4601460220AFF3008010BD7A
:10604800204610BD0000000010B5431E0A449142CE
:1060580004D011F8014B03F8014FF8E710BD0244D2
:106068000346934202D003F8011BFAE77047000089
:1060780038B5124B1C68A36B0546D3B91820FEF738
:106088005BFD43F20E33A06303804AF6CD334380B1
:1060980041F2342383804EF26D63C3804DF6EC6386
:1060A8000381052343810B23838101220023C0E957
:1060B8000423A36B00221D615A6138BD84E30320C9
:1060C800034613F8012B002AFBD1181A0138704730
:1060D8001D400D0059400D0085400D0089400D0000
:1060E8000000000063656C736975730025332E31F9
:1060F80066204465677265657320430073656E7337
:106108006F722E63656C736975732829000000002F
:106118000000000000000000E74B0D00DD4B0D0003
:10612800D34B0D00C94B0D00BD4B0D00B14B0D00FD
:10613800A54B0D009D4B0D00934B0D00894B0D0099
:10614800454F0D000000000000000000054C0D0048
:106158004F4C0D00274C0D00074C0D002F4C0D0027
:10616800374C0D003F4C0D00474C0D00000000005F
:10617800000000009F4C0D00914C0D00934C0D0049
:1061880066006C6E00666E00636F6465006465741B
:1061980061696C000D0A00253031307520005D20E2
:1061A800002564002C200028293A2000205B006389
:1061B8006F6465203D200025690064657461696C21
:1061C80073203D2000626175640053657269616CDB
:1061D8000053657269616C31007479706500706193
:1061E80072616D00636D6400696400686E640073B9
:1061F80074726D0066696C74006C766C006164641E
:1062080048616E646C65720072656D6F7665486191
:106218006E646C657200656E756D48616E646C6560
:106228007273004A534F4E53747265616D4C6F67B9
:1062380048616E646C657200617070006E6F6E65A7
:1062480000747261636500696E666F007761726ED3
:10625800006572726F720070616E696300616C6CC8
:10626800000000000000000000000000E34D0D00E9
:10627800D94D0D00CF4D0D00C54D0D00B94D0D0088
:10628800AD4D0D00A14D0D00994D0D008F4D0D0028
:10629800854D0D00454F0D00000000000000000076
:1062A800DD4E0D00E74E0D00F14E0D00FB4E0D00CA
:1062B800054F0D00114F0D001D4F0D00294F0D000A
:1062C800314F0D003B4F0D00454F0D000000000001
:1062D8000000000005510D0007510D005A00252B44
:1062E8003033643A253032750025592D256D2D251A
:1062F800645425483A254D3A2553257A006173633D
:1063080074696D65000000000000000000000000D6
:1063180071510D0095510D00A1510D0025500D0032
:106328007D510D0089510D0083510D008F510D00D5
:1063380073510D0077510D000000000000000000AF
:1063480049520D008D520D0067520D0025500D0069
:1063580061520D004B520D0053520D0087520D0033
:106368005B520D0045520D000000000000000000C7
:1063780083530D0079530D006F530D0025530D0005
:1063880063530D0057530D004B530D0043530D003D
:1063980039530D002F530D00454F0D00000000002C
:1063A80000000000000000000000000000000000E5
:1063B80000000000000000000000000000000000D5
:1063C80000000000000000000000000000000000C5
:1063D80000000000000000000000000000000000B5
:1063E80000000000000000000000000000000000A5
:1063F80000000000000000000000000025410D0022
:1064080049410D00BF430D00A1470D00B1470D00E4
:10641800B5470D00F14B0D00754D0D00914E0D0067
:1064280011500D00E9500D0045510D005D510D0052
:106438008D530D0021550D0071550D0035560D0079
:08644800B9560D003D570D008F
:1064500005630D0000000000A4630D00C4630D007F
:10646000E4630D00000000000000000000000000D8
:106470000000000002610D000000000000000000AC
:10648000000000000000000000000000000000000C
:1064900000000000000000000000000000000000FC
:1064A00000000000000000000000000000000000EC
:0864B0000000000024E30320BA
:1064B800FFFFFFFF00000102030405060708090AA1
:1064C8000B0C0D0E0F101112131415161718191A9C
:0864D8001B1C1D1E1F202800E3
:0464E00078563412A4
:04000003D0004018D1
:00000001FF
