:02000002D0002C
:1040000000400D00646B0D00000006000C0005016F
:0840100004014D040000000052
:1040180040670D0009480A49884208B505D0094A91
:10402800824202D0121A02F027FB0748074A0021F1
:10403800121A02F02CFB014808BD00BF18E3032048
:10404800D06A0D0084E3032084E30320F0E7032013
:1040580070B501F007FD074C074BE41AA4080025CA
:104068001E46A54204D056F8253098470135F8E792
:1040780070BD00BFD06A0D00906A0D0000F016B840
:1040880008B500F041F8BDE8084001F0B9BC00F0FF
:104098009FBD00F0A5BD00F0A3BD0078B0FA80F088
:1040A80040097047012303707047000010B50023D2
:1040B80004220649064800F01BFD00230422054996
:1040C8000548BDE8104000F013BD00BF88E3032099
:1040D80054670D005C670D0061670D0010B5084C52
:1040E80000F0D2FB2368C01A064B1B68984204D91B
:1040F80000F0CAFB2060012010BD002010BD00BFE9
:10410800C8E3032018E303201FB51C4800F064F936
:1041180068B11A4800F084F910EE100A01F0E8FFBF
:10412800174ACDE900011021164800F061FDFFF79C
:10413800D5FF10B900F0E4FCF9E7FFF7CFFF124B09
:10414800104A1B788DF8003010493C2302A800F073
:10415800D1FE039C7CB16368013B63605BB9236853
:1041680020469B689847A368013BA3601BB9236856
:104178002046DB68984704B010BD00BF98E30320D1
:1041880069670D0088E30320C4E3032079670D0005
:1041980008B5064B01221A7000F07EFB00220721A9
:1041A8000348BDE8084000F016B800BFC4E3032088
:1041B80098E3032000230022438242618361C361A4
:1041C8000362436280F8283080F8293080F82A306A
:1041D80080F82B30704738B50446154600F094F93E
:1041E8004FF47A732046A5732382FFF7E3FF204636
:1041F80038BD0000F8B52DED028B0B68836100F126
:1042080018054B686B600B78222B04460AD003D83C
:10421800102B42D1012308E0262B05D0282B3CD1B6
:10422800022302E0032300E0042384F82930204617
:1042380000F074F92946204600F030FAA27B4421A8
:10424800204600F0F8F9208A00F0EAFC204600F049
:1042580065F92946204600F021FA0022B8212046B7
:1042680000F0E9F900221146204600F0E4F9204662
:1042780000F054F92946204600F010FA0022BE2129
:10428800204600F0D8F994F82930042B09D10022EF
:104298001146204600F0CFF903E0002084F82900F9
:1042A80094E004F11F0504F12806204600F0E6F921
:1042B80005F8010FAE42F8D1082104F1200000F002
:1042C80086FA94F82830834204D0012384F82B30EE
:1042D80000207BE094F8212094F8203094F82910ED
:1042E80043EA02230429638227D194F8223007EE97
:1042F800903A42EA0321D208F8EE678A07EE902A3C
:1043080013F0800F618284F82120B8EE678A45D0C7
:1043180018EE900A01F0ECFE064618EE100A0F4659
:1043280001F0E6FE00222B4B01F036FF02460B4659
:104338003046394601F07CFD44E0012903D044D3DE
:10434800032910D941E0B4F9123094F82720DB0092
:10435800102A638219D194F8262023F00F03C2F1A2
:104368000C02134410E094F8242012F0600202D1E9
:1043780023F0070308E0202A02D123F0030303E017
:10438800402A02D123F001036382B4F9123007EE08
:10439800903AFAEECE7AC4ED057A16E018EE100AD5
:1043A80001F0A6FE00220B4B01F0F6FE064618EEC1
:1043B800900A0F4601F09CFE02460B4630463946ED
:1043C80001F038FD02F0FAF860610120BDEC028BC3
:1043D800F8BD00BF0000A03F38B50446FFF7EAFE6D
:1043E80000F11805294600F077F930B9012384F85F
:1043F8002A30204600F064F910E00721284600F032
:10440800E6F9E37F834203D0012384F82B3005E0EB
:1044180029462046BDE83840FFF7ECBE002038BDED
:1044280090ED050A704700F037BA000010B5036830
:104438002F2B044604D9074A00210A2000F01CFB50
:1044480023681F2B83BF03F01F03236002484FF02C
:10445800A04010BD81480D000003005007B50B4B6C
:104468001B68000119181A5C4B7802A803F01F0397
:1044780043EA421340F8043DFFF7D8FF019A0123AD
:104488009340C0F80C3503B05DF804FBCCE303207F
:1044980007B50B4B1B68000119181A5C4B7802A86A
:1044A80003F01F0343EA421340F8043DFFF7BEFF41
:1044B800019A01239340C0F8083503B05DF804FB66
:1044C800CCE3032013B50F4B1B6800011A181C5CC2
:1044D800537802A803F01F0343EA441440F8044D3C
:1044E800FFF7A4FFD0F8103502A840F8084DFFF7F1
:1044F8009DFFD0F81035009823FA00F000F0010075
:1045080002B010BDCCE3032038B504460D4628465A
:10451800002101F0E5FA2580204638BD38B505466A
:1045280000F0CCFE0021288800F0BEF900F0C8FE9B
:104538007D24013C14F0FF042BD0022000F09CF9EC
:104548002888FFF7BFFF0028F3D000F0B7FE2888BF
:10455800FFF784FF0121288800F0A6F900F0B0FEDB
:104568004FF4F07000F088F900F0A8FE00212888C8
:1045780000F09AF9462000F07FF92888FFF7A2FF9B
:10458800B0FA80F400F09CFE4FF4CD70640900F09E
:1045980073F9204638BD38B511F00105044613D02B
:1045A80000F08CFE2088FFF759FF0121208800F0D9
:1045B8007BF90A2000F060F92088002100F074F9E6
:1045C80000F07EFE372012E000F078FE2088FFF72A
:1045D80045FF0121208800F067F9412000F04CF9DF
:1045E8002088294600F060F900F06AFE0520BDE841
:1045F800384000F041B910B5044600F05FFE20884D
:10460800FFF72CFF0121208800F04EF9032000F06D
:1046180033F90021208800F047F90A2000F02CF92E
:104628002088FFF74FFF044600F04AFE352000F0CF
:1046380023F9204610BD2DE9F04105468846174666
:104648000826012418EA040F14BF01210021284676
:10465800FFF7A1FF6400013EE4B2F3D167B100F0B7
:104668002DFE2888FFF714FF2888012100F01CF987
:10467800BDE8F04100F024BEBDE8F081F8B507467A
:104688000826002501243846FFF7B5FF00B1254369
:104698006400013EE4B2F6D12846F8BD70B50022A8
:1046A8000C4655210646FFF7C6FF651E073415F868
:1046B800011F00223046FFF7BEFFA542F7D170BDAB
:1046C800002383720373C37200F10A02023002F8F6
:1046D800013D8242FBD170472DE9F047057B044636
:1046E8008846002D5ED1FFF719FF20B9A07220730C
:1046F800E072BDE8F0872A46F0212046FFF79BFFCD
:104708000126AA4637462046FFF775FF8146204610
:10471800FFF771FFB9F1010F02D101281BD137E072
:10472800814504EB05031ED1A27A974207D29A78F5
:10473800164214BF4FF001094FF0000904E00CBF06
:104748004FF001094FF00009B9F1000F03D1082F0C
:1047580008D8E77206E062194FF0010993783343ED
:10476800937004E0BA469A7822EA06029A7049469B
:1047780020467600FFF70FFF16F0FF0604BF01354D
:10478800EDB207F1010708BF0126072DFFB2BAD91C
:10479800402F07D984F80AA0BAF1000F12D10123DB
:1047A80023730FE00020A0722073E072631C08F1ED
:1047B800FF38093413F8012F08F8012FA342F9D163
:1047C800BDE8F087A378002BECD00120EEE730B5E8
:1047D800054600200139C9B2FF2913D015F8014B4D
:1047E800082280EA040313F0010F4FEA50001CBFAF
:1047F80080F08C03D8B2531E13F0FF024FEA540422
:10480800EFD1E7E730BD000008B500F045F8014BEF
:10481800186008BDCCE3032008B5024B1B689B68F1
:10482800019308BD4802030008B5024B1B681B69C9
:10483800019308BD4802030008B5024B1B685B6979
:10484800019308BD4802030008B5024B1B681B6BA7
:10485800019308BD4802030008B5024B1B685B6C56
:10486800019308BD4802030008B5024B1B685B684A
:10487800019308BD1802030008B5024B1B68DB68EA
:10488800019308BD1802030008B5024B1B685B6959
:10489800019308BD1802030008B5024B1B681B688A
:1048A800019308BD2C02030008B5024B1B689B68E6
:1048B800019308BD2C02030008B5024B1B681B6A54
:1048C800019308BD2C02030008B5024B1B685B6A04
:1048D800019308BD2C02030008B5024B1B681B6A34
:1048E800019308BD2802030008B5024B1B685B6AE8
:1048F800019308BD2802030008B5024B1B689B6A98
:10490800019308BD2802030008B5024B1B68DB6A47
:10491800019308BD2802030008B5024B1B681B6BF6
:10492800019308BD2802030008B5024B1B685B6BA6
:10493800019308BD2802030008B5024B1B681B6CD5
:10494800019308BD2802030008B5024B1B685B6988
:10495800019308BD6402030008B5024B1B689B68FD
:10496800019308BD6802030008B5024B1B68DB68A9
:10497800019308BD6802030008B5024B1B68DB6998
:10498800019308BD3002030008B5024B1B681B6A7F
:10499800019308BD3002030008B5024B1B681B6871
:1049A800019308BD3C02030008B5024B1B68DB6895
:1049B800019308BD3C02030008B5024B1B681B6944
:1049C800019308BD3C02030008B5024B1B685B69F4
:1049D800019308BD3C02030008B5024B1B689B69A4
:1049E800019308BD3C02030008B5024B1B68DB6954
:1049F800019308BD3C02030008B5024B1B681B6A03
:104A0800019308BD3C02030008B5024B1B689B6A72
:104A1800019308BD3C02030008B5024B1B681B68E4
:104A2800019308BD4C02030008B5024B1B681B69C3
:104A3800019308BD4C02030008B5024B1B685B6973
:104A4800019308BD4C02030008B5024B1B689B6923
:104A5800019308BD4C02030008B5024B1B68DB69D3
:104A6800019308BD4C02030008B5024B1B681B6A82
:104A7800019308BD4C02030008B5024B1B685B6B31
:104A8800019308BD6002030008B5024B1B685B6810
:104A9800019308BD2002030008B5024B1B685B693F
:104AA800019308BD2002030008B5024B1B68DB6CAC
:104AB800019308BD2002030008B5024B1B685B6D1B
:104AC800019308BD2002030008B5034B1B68D3F807
:104AD8008830019308BD00002002030008B5034B8D
:104AE8001B68D3F89430019308BD0000200203002E
:104AF80008B5024B1B681B68019308BD44020300FC
:104B080008B5024B1B689B68019308BD440203006B
:104B180008B5024B1B681B6A019308BD44020300D9
:104B280008B5024B1B68DB6B019308BD4402030008
:104B380008B5024B1B685B68019308BD400203007F
:104B480008B5024B1B689B68019308BD400203002F
:104B580008B5024B1B68DB68019308BD40020300DF
:104B680008B5024B1B681B69019308BD400203008E
:104B780008B5024B1B685B69019308BD400203003E
:104B880008B5024B1B689B69019308BD40020300EE
:104B980008B5024B1B68DB69019308BD400203009E
:104BA80008B5024B1B681B6A019308BD400203004D
:104BB80008B5024B1B681B6B019308BD400203003C
:104BC80008B5024B1B685B6B019308BD40020300EC
:104BD80008B5024B1B681B68019308BD1C02030043
:104BE80008B5024B1B685B68019308BD1C020300F3
:104BF80008B5024B1B68DB69019308BD1C02030062
:104C080008B5024B1B68DB6A019308BD1C02030050
:104C180008B5024B1B681B6B019308BD1C020300FF
:104C28000021FFF739BF10B5836804460BB900F0BF
:104C3800B0FFC3689847A3681BB1032221462046EA
:104C480098472046BDE81040FFF723BA7047002078
:104C5800704710B50446FFF71CFA204610BD08B58A
:104C680008B1FFF7F6FF08BD10B58368044613B115
:104C7800032201469847204610BD38B5C468D4B110
:104C88002378022B02D1E068FFF7AAFF65682DB1EF
:104C98002846FFF7E9FF2846FFF7FBF9A5682DB17D
:104CA8002846FFF7E1FF2846FFF7F3F92046BDE85D
:104CB8003840FFF7EEB938BD38B5046805467CB111
:104CC8006368013B63605BB9236820469B6898472B
:104CD800A368013BA3601BB923682046DB6898479B
:104CE800284638BD13B5044691E8050000234B60FB
:104CF8000B602060626001A801930093FFF7DCFF5E
:104D0800204602B010BD0B68036013B15A68013227
:104D18005A607047F7B50C4602AD54F8043B45F8A5
:104D2800083D06460F4601A82146FFF7ECFF294635
:104D38003046FFF7D7FF01A8FFF7BEFF2046FFF771
:104D4800BBFF3846FFF7A5F9304603B0F0BD13B5F1
:104D58000B46044603C88DE8030093E8030084E883
:104D680003009DE8030083E8030002B010BD8268D9
:104D780010B50AB900F00DFFC368BDE81040184728
:104D880008B5006800F11001FFF7F1FF08BD82685F
:104D980010B50AB900F0FDFEC368BDE81040184719
:104DA80008B5006800F11001FFF7F1FF08BD38B53C
:104DB800002383608B6804460D462BB10222984776
:104DC800EB68E360AB68A360204638BD2DE9F0418D
:104DD8004FF69C7386B00468B1F904208B800023D9
:104DE8000F688DF800300B604FF00200D4E84F1FB9
:104DF800994203D1C4E8450F002DF7D102D08DF8B0
:104E080000106AE014F10C051EBFE76022821F46FD
:104E18000123BFF35F8F0020637004F10803BFF321
:104E28005F8F53E8006F43E80002002AF9D1BFF30F
:104E38005F8F002E51D0FFF737FE20B1294630464C
:104E4800FFF795FF43E031466846FFF7B0FFE0689B
:104E5800B4F9105008B101F04BFC04901020ADF8E3
:104E68001450FFF714F9054630B34FF00008C0F8A6
:104E780008801820FFF70BF90446C0B1C0F8088075
:104E880001466846FFF763FF029BA268A360039B85
:104E98000292E268E360BDF81430A3824FF69C7377
:104EA800ADF81430049B03922361CDF810800E4BAB
:104EB800EB600E4B2C60AB600498FFF791FE6846E0
:104EC800FFF7D2FE002229460948FFF7F5FD3046D4
:104ED800FFF7CAFE3046FFF7DCF83846FFF780FEDA
:104EE80006B0BDE8F08100BF894D0D00E54F0D000B
:104EF8002F4C0D002DE9F04F8BB007AD4FF0000B94
:104F08000646994614200C230F4690469DF850A05B
:104F1800C5F804B0C5F808B00793FFF7B8F8044619
:104F280038B180F800B080F801B0C0F804B0C0F81B
:104F380008B00023102003940493FFF7A8F828B1C1
:104F4800012343608360234B0360C4600490224BB9
:104F580008930820FFF79BF8044628B1039B40F804
:104F6800043B04A9FFF7CFFE00955FFA8AF34A468F
:104F7800414638460994FFF7CBFDB8B9039B5B78E7
:104F880003F0FF0293B94FF69C7305A903A8059295
:104F9800ADF81830FFF71AFF0598FFF721FE05A8AE
:104FA8000999FFF7B7FE06A8FFF786FE039B05934E
:104FB80004A906A8FFF7A7FE05A93046FFF792FE49
:104FC80006A8FFF779FE04A8FFF776FE30460BB077
:104FD800BDE8F08F90670D004D510D00022AF8B51D
:104FE800044606D0032A17D0012A20D10B68036093
:104FF8001DE018200E68FFF74AF8054650B1314603
:10500800FFF7D5FE3069B6F9147008B101F070FBEE
:105018002861AF8225600AE0046844B12069FFF77F
:10502800DFFD2046FFF720FE2046FFF732F800207C
:10503800F8BD38B5002383608B6804460D462BB154
:1050480002229847EB68E360AB68A360204638BD4E
:10505800022A70B5044606D0032A11D0012A17D1B6
:105068000B68036014E014200E68FFF710F805467B
:1050780020B13146FFF7DDFF337C2B74256007E054
:1050880004682CB12046FFF7EFFD2046FFF701F832
:10509800002070BDF0B5002387B00C46BFF35F8FCA
:1050A80050E8006F40E80032002AF9D1BFF35F8F63
:1050B800002E3ED01846FFF7F7FC074620B12146E0
:1050C8003046FFF764FE2EE0314601A8FFF7B1FF36
:1050D80023788DF814301020FEF7D9FF0546D0B19B
:1050E80087601420FEF7D3FF044678B18760014635
:1050F80001A8FFF72CFE039BA268A360049B039200
:10510800E268E3609DF81430049223740A4BEB6064
:105118000A4B2C60AB6001A8FFF7A6FD00222946C8
:105128000748FFF7C9FC3046FFF79EFD3046FEF7FB
:10513800B0FF07B0F0BD00BFA94D0D0059500D00DC
:105148002F4C0D0030B585B004460D466846114613
:10515800FFF7E0FD7CB124B228460DB101F0C8FA92
:10516800029002A96846ADF80C40FFF72FFE02989E
:10517800FFF736FD1DE000988DF808404FF001025A
:10518800D0E84F3FA34203D1C0E8412F0029F7D10F
:1051980002D08DF808300CE010F10C014FF001033B
:1051A80018BF0373BFF35F8F043000F8033CFFF7A9
:1051B80071FF01A8FFF780FD05B030BD0022114640
:1051C8004068FFF7EDBC002211464068FFF7F8BCC5
:1051D80000224068FFF7ECBC002281F00101406822
:1051E800FFF7D6BC00231A4619464068FFF7C8BC2B
:1051F80000231A4619464068FFF7BABC0022114638
:105208004068FFF7ADBC002211464068FFF798BC24
:10521800002202214068FFF79BBC00231A46406821
:10522800FFF786BC024B03225A60024A1A60704795
:10523800D0E30320AC670D007047F8B50646154665
:105248000C468F18BC4206D0336814F8011B9B68C3
:1052580030469847F6E72846F8BD0022007CFFF75D
:105268003BBB0021007CFFF73FBB0021007CFFF720
:1052780043BB0021007CFFF747BB0021007CFFF700
:105288004BBB10B50446FEF704FF204610BD0000D6
:1052980010B504464FF47A730846A3600021044B06
:1052A800207461602360FFF747FB204610BD00BFF4
:1052B800E0670D000021007CFFF736BBFFF704BB59
:1052C800FFF7FABA704710B50446FEF7E2FE20462B
:1052D80010BDF0B5037D062B8DB00E4600F1040716
:1052E8004FF0000402D000F1080518E00CAD394673
:1052F80005F8304D2F232A460A20FFF725FB2846BC
:1053080001F011FA33680246DB68294630469847AF
:105318000FE024B12E21304600F0C4F9044415F8FA
:10532800011D0A22304600F0EDF9BD420444F0D1D7
:1053380020460DB0F0BD000010B5054B0446112203
:1053480040F8043B002101F0A2F9204610BD00BF3F
:1053580008680D000346074A10B543F8042B01F10D
:10536800100251F8044B43F8044B9142F9D10A78E2
:105378001A7010BD08680D0010B59DF8084044EA81
:10538800032343EA024242EA0161042341600375B0
:1053980010BD37B50D788B784A78C97800912946C1
:1053A800FFF7EAFF03B030BD014B024A1A607047AD
:1053B800D8E30320CC680D00002211464068FFF7AF
:1053C800EFBB002211464068FFF7FABB0022406895
:1053D800FFF7EEBB002281F001014068FFF7D8BB60
:1053E80000231A4619464068FFF7CABB00231A462D
:1053F80019464068FFF7BCBB002211464068FFF71A
:10540800AFBB002211464068FFF79ABB0022022179
:105418004068FFF79DBB00231A464068FFF788BB2A
:1054280038B5054678B1046844B1A3681BB10322B6
:105438002146204698472046FEF72BFE2846BDE821
:105448003840FEF726BE38BD10B103685B681847C0
:10545800704710B503680446BBB15868FFF7DCF91C
:1054680078B923685A7C12B95868FFF7DDF92368C0
:105478005868FFF7E1F920680023236028B1FFF797
:10548800CFFF206808B1FFF7CBFF204610BD000012
:1054980038B50B4B03600446D0F8CC0108B1FEF7D1
:1054A800FAFDD4F8C4512DB12846FFF7D2FF28469B
:1054B800FEF7EFFDA06808B1FFF7C6FF204638BD2C
:1054C80000690D0038B50D4C0D4B236000250223F3
:1054D80004F5E4706360A560C4F8C451C4F8C85109
:1054E800FFF7BAF9074BC4F8CC5123602046064AA7
:1054F8000649BDE8384000F047BB00BFDCE30320A5
:1055080034690D0000690D0084E3032099540D00EF
:1055180000231A464068FFF70BBB002202214068AF
:10552800FFF716BB002211464068FFF709BB0022AF
:1055380011464068FFF714BB00231A461946406815
:10554800FFF716BB00231A4619464068FFF718BB39
:10555800002281F001014068FFF71ABB0022406871
:10556800FFF726BB002211464068FFF729BB00223F
:1055780011464068FFF714BB2DE9F043002495B0AD
:1055880016460D460746FFF7D7FE214620220CA8EF
:10559800009401F07CF840230C9321466B460CAA3A
:1055A8003046FFF7E1F90446002844D102460121BC
:1055B8006868FFF7D5FA0221804622466868FFF737
:1055C800CFFA009E81462146002E34D0002932D1E0
:1055D8007368022B02D00A2B09D02AE0B8F1000F19
:1055E80027D0716938460431FFF7D3FE20E0B9F1BE
:1055F800000F1ED07469112201A801F048F8062393
:105608008DF8143001AD04F108031834186859688E
:105618002A4603C20833A3421546F7D101A906A8B2
:1056280007ADFFF797FE0FCD3C1D0FC42B68237005
:105638000121F669C8E70098FFF78EF9384615B0DA
:10564800BDE8F083024B034A1A6000225A60704793
:10565800ACE5032034690D00F8B506460D468F18F1
:105668000024BD420CD0336815F8011B9B683046F6
:105678009847002801DB0444F3E7002C08BF0446E0
:105688002046F8BD70B505460C46084649B101F0FC
:105698004AF82B68024621462846DB68BDE8704078
:1056A800184770BD03689B68184730B58BB00B4628
:1056B80000218DF82410012A98BF0A220DF1230435
:1056C800B3FBF2F505FB123303F0FF03092B94BF7C
:1056D80030333733DBB2214604F801392B46002D2D
:1056E800EED1FFF7CFFF0BB030BD10B42AB9036875
:1056F8005DF8044B9B68C9B21847D2B25DF8044BF9
:10570800FFF7D3BFFFF7F1BF10B50446FFF7ACFAB8
:10571800204610BD0348044A04490023836000F072
:1057280033BA00BFB4E5032084E3032011570D000A
:10573800704710B50446FEF7ACFC204610BD0000CB
:1057480070B5084B0360044600250E4640F80C5F10
:10575800FFF77AF830462671FFF70EF9A560204664
:1057680070BD00BF68690D000079FFF70DB9000032
:10577800044B00204FF6FF72187058809A80FFF78C
:1057880083B900BFC4E50320024B1A68024B1A60B4
:10579800704700BF1CE30320CCE503207047417429
:1057A8007047007CFFF730B9007CFFF705B9007C33
:1057B800FFF712B9007CFFF707B9007CFFF714B9AF
:1057C80010B50446FEF765FC204610BD70B5457C53
:1057D80004460E4625B9007CFFF716F9002805DDBA
:1057E8003146207CBDE87040FFF7DEB8284670BD22
:1057F80010B5044608461146002262604FF47A72DA
:10580800A260054A22600122207462741A46FFF7DA
:10581800C3F8204610BD00BFA4690D00007CFFF747
:10582800EBB8000038B50C4D296811F0010411D10E
:105838002846FEF732FC68B1084A094B0948214658
:10584800FFF7D6FF2846FEF72DFC074A074905480B
:1058580000F09AF9034838BD68E603206CE6032097
:10586800E4E50320D0E5032084E30320A5570D00D9
:105878004174704770470021007CFFF7E5B80121AB
:10588800007CFFF7E1B8007CFFF7D6B8007CFFF793
:10589800CBB838B50446007C0D46FFF7CDF8002894
:1058A80001DC607C20B12946207CFFF7D5F8012077
:1058B80038BD007CFFF7D8B810B50446FEF7E9FB01
:1058C800204610BD10B50446002363604FF47A7378
:1058D800A360054B236001230846217463741146B5
:1058E800FFF79AF8204610BDD4690D0010B51422B0
:1058F8000446002100F0CBFE204610BD30B50E4D09
:1059080087B001A8FFF7F2FF296811F0010410D150
:105918002846FEF7C2FB60B101AA21460748FFF7F7
:10592800D1FF2846FEF7BEFB054A0649034800F0AA
:105938002BF9024807B030BDF0E60320F4E6032057
:1059480084E303207D580D00002211464068FFF7CC
:1059580007B9002211464068FFF722B90022114614
:105968004068FFF72DB900224068FFF721B90022EF
:1059780081F001014068FFF70BB900231A46194668
:105988004068FFF7FDB800231A4619464068FFF73C
:10599800EFB8002211464068FFF7D2B80022022172
:1059A8004068FFF7D5B800231A464068FFF7C0B82B
:1059B800024B04225A60024A1A60704708E7032023
:1059C800046A0D0008B50C4B33B1FFF797FF036865
:1059D8001B699847002809DC084B63B1FFF722FFD1
:1059E80003681B699847002803DC08BDAFF30080F3
:1059F800F2E7AFF3008008BD0000000000000000DF
:105A080008B5FFF7DFFFFEF73FFF014B186008BD41
:105A180014E7032007B5002300931A466FF07701B7
:105A2800FFF75CF803B05DF804FB000007B5438896
:105A38000A2B08D0502B09D1094B1B683BB103B086
:105A48005DF804EB1847FFF7E5FF06E00023009335
:105A58001A466FF07701FFF741F803B05DF804FBD1
:105A680010E7032010B5FEF7FFFE044600F018FE0D
:105A7800074B13B12046AFF3008000210448FFF71D
:105A88004FF800210348BDE81040FFF71DB800BFDC
:105A980000000000355A0D0010B504460F48FFF706
:105AA80063FE28B1A4F10B03022B01D8002010BD1E
:105AB80000F028F8FFF7FEFB08B1012CF6D9FFF734
:105AC800B1FEFFF7ABFE18B1A4F10903012BEDD924
:105AD800232C8CBF0020012010BD00BF30E703201D
:105AE800232838B504460D460AD8FF2908D0FFF701
:105AF800D3FF28B129462046BDE83840FEF7D4BE7A
:105B080038BD000038B50B4D296811F001040FD1DC
:105B18002846FEF7C2FA58B121460748FFF7B8FBF6
:105B28002846FEF7BFFA054A0549034800F02CF855
:105B3800014838BD18E703201CE7032084E303204D
:105B480041520D0070B50C4C0C4E0D4D00212046F5
:105B5800FFF7F6FD20460B4C3246294600F014F8B4
:105B680001212046FFF7ECFD324629462046BDE8D4
:105B7800704000F009B800BF30E7032084E3032039
:105B880039570D0040E703200B460146184600F040
:105B980065BD08B5FFF734F8244B1A68D0075CBF19
:105BA80001221A60224B1A68D1075CBF01221A60D1
:105BB800204B1A68D2075CBF01221A601E4B1A6874
:105BC800D0075CBF01221A601C4B1A68D1075CBF62
:105BD80001221A601A4B1A68D2075CBF01221A60A8
:105BE800184B1A68D0075CBF01221A60164B1A6856
:105BF800D1075CBF01221A60144B1A68D2075CBF38
:105C080001221A60124B1A68D0075CBF01221A6081
:105C1800104B1A68D1075CBF01221A600E4B1A6834
:105C2800D2075CBF01221A60704700BF7CE70320DF
:105C380078E7032074E7032070E703206CE703206C
:105C480068E7032064E7032060E703205CE703209C
:105C580058E7032054E7032050E70320184B1A683D
:105C6800D1075CBF01221A60164B1A68D2075CBFC5
:105C780001221A60144B1A68D0075CBF01221A600F
:105C8800124B1A68D1075CBF01221A60104B1A68C0
:105C9800D2075CBF01221A600E4B1A68D0075CBF9E
:105CA80001221A600C4B1A68D1075CBF01221A60E6
:105CB8000A4B1A68D2075CBF01221A60704700BFFE
:105CC8009CE7032098E7032094E7032090E703204C
:105CD8008CE7032088E7032084E7032080E703207C
:105CE800184B1A68D1075CBF01221A60164B1A6854
:105CF800D2075CBF01221A60144B1A68D0075CBF38
:105D080001221A60124B1A68D1075CBF01221A607F
:105D1800104B1A68D2075CBF01221A600E4B1A6832
:105D2800D0075CBF01221A600C4B1A68D1075CBF10
:105D380001221A600A4B1A68D2075CBF01221A6056
:105D4800704700BFBCE70320B8E70320B4E703208F
:105D5800B0E70320ACE70320A8E70320A4E703206B
:105D6800A0E70320244B1A68D0075CBF01221A6001
:105D7800224B1A68D1075CBF01221A60204B1A68AF
:105D8800D2075CBF01221A601E4B1A68D0075CBF9D
:105D980001221A601C4B1A68D1075CBF01221A60E5
:105DA8001A4B1A68D2075CBF01221A60184B1A688E
:105DB800D0075CBF01221A60164B1A68D1075CBF76
:105DC80001221A60144B1A68D2075CBF01221A60BC
:105DD800124B1A68D0075CBF01221A60104B1A6870
:105DE800D1075CBF01221A600E4B1A68D2075CBF4C
:105DF80001221A60704700BFECE70320E8E70320A0
:105E0800E4E70320E0E70320DCE70320D8E70320EA
:105E1800D4E70320D0E70320CCE70320C8E703201A
:105E2800C4E70320C0E7032081F0004102E000BF7F
:105E380083F0004330B54FEA41044FEA430594EA42
:105E4800050F08BF90EA020F1FBF54EA000C55EA7D
:105E5800020C7FEA645C7FEA655C00F0E2804FEA4E
:105E68005454D4EB5555B8BF6D420CDD2C4480EA30
:105E7800020281EA030382EA000083EA010180EA60
:105E8800020281EA0303362D88BF30BD11F0004FAE
:105E98004FEA01314FF4801C4CEA113102D04042E4
:105EA80061EB410113F0004F4FEA03334CEA13331F
:105EB80002D0524263EB430394EA050F00F0A78037
:105EC800A4F10104D5F1200E0DDB02FA0EFC22FA32
:105ED80005F2801841F1000103FA0EF2801843FA26
:105EE80005F359410EE0A5F120050EF1200E012A17
:105EF80003FA0EFC28BF4CF0020C43FA05F3C01855
:105F080051EBE37101F0004507D54FF0000EDCF1CD
:105F1800000C7EEB00006EEB0101B1F5801F1BD376
:105F2800B1F5001F0CD349085FEA30004FEA3C0C7A
:105F380004F101044FEA445212F5800F80F09A8070
:105F4800BCF1004F08BF5FEA500C50F1000041EB74
:105F5800045141EA050130BD5FEA4C0C404141EB78
:105F6800010111F4801FA4F10104E9D191F0000F9F
:105F780004BF01460020B1FA81F308BF2033A3F122
:105F88000B03B3F120020CDA0C3208DD02F1140C19
:105F9800C2F10C0201FA0CF021FA02F10CE002F154
:105FA8001402D8BFC2F1200C01FA02F120FA0CFC4D
:105FB800DCBF41EA0C019040E41AA2BF01EB045196
:105FC800294330BD6FEA04041F3C1CDA0C340EDC94
:105FD80004F11404C4F1200220FA04F001FA02F3D7
:105FE80040EA030021FA04F345EA030130BDC4F195
:105FF8000C04C4F1200220FA02F001FA04F340EA8A
:106008000300294630BD21FA04F0294630BD94F03A
:10601800000F83F4801306BF81F480110134013D21
:106028004EE77FEA645C18BF7FEA655C29D094EA92
:10603800050F08BF90EA020F05D054EA000C04BF10
:106048001946104630BD91EA030F1EBF00210020FB
:1060580030BD5FEA545C05D14000494128BF41F09A
:10606800004130BD14F580043CBF01F5801130BDFE
:1060780001F0004545F0FE4141F470014FF0000089
:1060880030BD7FEA645C1ABF194610467FEA655C3A
:106098001CBF0B46024650EA013406BF52EA0335DC
:1060A80091EA030F41F4002130BD00BF90F0000FCA
:1060B80004BF0021704730B54FF4806404F1320406
:1060C8004FF000054FF0000150E700BF90F0000FBF
:1060D80004BF0021704730B54FF4806404F13204E6
:1060E80010F0004548BF40424FF000013EE700BFB6
:1060F80042004FEAE2014FEA31014FEA02701FBF46
:1061080012F07F4393F07F4F81F06051704792F017
:10611800000F14BF93F07F4F704730B54FF4607491
:1061280001F0004521F0004120E700BF50EA0102DC
:1061380008BF704730B54FF000050AE050EA010289
:1061480008BF704730B511F0004502D5404261EBF9
:1061580041014FF4806404F132045FEA915C3FF43A
:10616800DCAE4FF003025FEADC0C18BF03325FEAD3
:10617800DC0C18BF033202EBDC02C2F1200300FA88
:1061880003FC20FA02F001FA03FE40EA0E0021FAAD
:1061980002F11444C1E600BF70B54FF0FF0C4CF497
:1061A800E06C1CEA11541DBF1CEA135594EA0C0F4D
:1061B80095EA0C0F00F0DEF82C4481EA030621EA88
:1061C8004C5123EA4C5350EA013518BF52EA0335C3
:1061D80041F4801143F4801338D0A0FB02CE4FF075
:1061E8000005E1FB02E506F00042E0FB03E54FF0A5
:1061F8000006E1FB03569CF0000F18BF4EF0010E9D
:10620800A4F1FF04B6F5007F64F5407404D25FEA98
:106218004E0E6D4146EB060642EAC62141EA55514B
:106228004FEAC52040EA5E504FEACE2EB4F1FD0C8D
:1062380088BFBCF5E06F1ED8BEF1004F08BF5FEA0B
:10624800500E50F1000041EB045170BD06F00046BD
:1062580046EA010140EA020081EA0301B4EB5C046A
:10626800C2BFD4EB0C0541EA045170BD41F4801162
:106278004FF0000E013C00F3AB8014F1360FDEBF87
:10628800002001F0004170BDC4F10004203C35DA63
:106298000C341BDC04F11404C4F1200500FA05F3E6
:1062A80020FA04F001FA05F240EA020001F0004287
:1062B80021F0004110EBD37021FA04F642EB0601FD
:1062C8005EEA430E08BF20EAD37070BDC4F10C0427
:1062D800C4F1200500FA04F320FA05F001FA04F2EB
:1062E80040EA020001F0004110EBD37041F10001D7
:1062F8005EEA430E08BF20EAD37070BDC4F12005E2
:1063080000FA05F24EEA020E20FA04F301FA05F249
:1063180043EA020321FA04F001F0004121FA04F2F1
:1063280020EA020000EBD3705EEA430E08BF20EAC1
:10633800D37070BD94F0000F0FD101F000464000FB
:1063480041EB010111F4801F08BF013CF7D041EA7D
:10635800060195F0000F18BF704703F00046520081
:1063680043EB030313F4801F08BF013DF7D043EA52
:106378000603704794EA0C0F0CEA135518BF95EA08
:106388000C0F0CD050EA410618BF52EA4306D1D18F
:1063980081EA030101F000414FF0000070BD50EAAE
:1063A800410606BF1046194652EA430619D094EA38
:1063B8000C0F02D150EA013613D195EA0C0F05D122
:1063C80052EA03361CBF104619460AD181EA030176
:1063D80001F0004141F0FE4141F470014FF000002E
:1063E80070BD41F0FE4141F4780170BD70B54FF0C9
:1063F800FF0C4CF4E06C1CEA11541DBF1CEA135549
:1064080094EA0C0F95EA0C0F00F0A7F8A4EB05042A
:1064180081EA030E52EA03354FEA013100F0888021
:106428004FEA03334FF0805545EA131343EA1263EA
:106438004FEA022245EA111545EA10654FEA00269F
:106448000EF000419D4208BF964244F1FD0404F558
:10645800407402D25B084FEA3202B61A65EB0305B4
:106468005B084FEA32024FF480104FF4002CB6EB71
:10647800020E75EB030E22BFB61A754640EA0C00F1
:106488005B084FEA3202B6EB020E75EB030E22BF31
:10649800B61A754640EA5C005B084FEA3202B6EB72
:1064A800020E75EB030E22BFB61A754640EA9C0031
:1064B8005B084FEA3202B6EB020E75EB030E22BF01
:1064C800B61A754640EADC0055EA060E18D04FEABF
:1064D800051545EA16754FEA06164FEAC30343EA5F
:1064E80052734FEAC2025FEA1C1CC0D111F4801F2C
:1064F8000BD141EA00014FF000004FF0004CB6E725
:1065080011F4801F04BF01430020B4F1FD0C88BFC3
:10651800BCF5E06F3FF6AFAEB5EB030C04BFB6EBCE
:10652800020C5FEA500C50F1000041EB045170BDC1
:106538000EF0004E4EEA113114EB5C04C2BFD4EBEE
:106548000C0541EA045170BD41F480114FF0000E72
:10655800013C90E645EA060E8DE60CEA135594EAEE
:106568000C0F08BF95EA0C0F3FF43BAF94EA0C0FF1
:106578000AD150EA01347FF434AF95EA0C0F7FF466
:1065880025AF104619462CE795EA0C0F06D152EABA
:1065980003353FF4FDAE1046194622E750EA41069E
:1065A80018BF52EA43067FF4C5AE50EA41047FF4AF
:1065B8000DAF52EA43057FF4EBAE12E74FEA410212
:1065C800B2F1E04324BFB3F5001CDCF1FE5C0DD949
:1065D80001F0004C4FEAC0024CEA5070B2F1004F93
:1065E80040EB830008BF20F00100704711F0804F96
:1065F80021D113F13872BCBF01F00040704741F45B
:1066080080114FEA5252C2F11802C2F1200C10FA5E
:106618000CF320FA02F018BF40F001004FEAC12342
:106628004FEAD32303FA0CFC40EA0C0023FA02F3E6
:106638004FEA4303CCE77FEA625307D150EA0133BC
:106648001EBF4FF0FE4040F44000704701F000408C
:1066580040F0FE4040F40000704700BF10B5054C04
:1066680013462CB10A4601460220AFF3008010BD44
:10667800204610BD0000000010B5431E0A44914298
:1066880004D011F8014B03F8014FF8E710BD02449C
:106698000346934202D003F8011BFAE77047000053
:1066A80038B5124B1C68A36B0546D3B91820FEF702
:1066B8008FFA43F20E33A06303804AF6CD3343804A
:1066C80041F2342383804EF26D63C3804DF6EC6350
:1066D8000381052343810B23838101220023C0E921
:1066E8000423A36B00221D615A6138BD80E3032097
:1066F800024B0146186800F003B800BF80E303208E
:1067080070B5064608460C4600F00DF8451C2946AB
:106718003046FEF77DFA064618B12A462146FFF7AD
:10672800ABFF304670BD034613F8012B002AFBD19E
:10673800181A0138704700001D400D0059400D001F
:1067480085400D0089400D000000000063656C73F2
:1067580069757300312E30300076657273696F6E1B
:106768000025332E316620446567726565732043C2
:106778000054656D70657261747572650000000083
:106788000000000000000000554C0D005B4C0D009F
:10679800834C0D00674C0D00574C0D0000000000A5
:1067A8000000000023520D0019520D000F520D0079
:1067B80005520D00F9510D00ED510D00E1510D008C
:1067C800D9510D00CF510D00C5510D0081550D0057
:1067D800000000000000000041520D008B520D0027
:1067E80063520D0043520D006B520D0073520D00A1
:1067F8007B520D0083520D000000000000000000D5
:10680800DB520D00CD520D00CF520D0066006C6EAC
:1068180000666E00636F64650064657461696C008E
:106828000D0A00253031307520005D2000256400F8
:106838002C200028293A2000205B00636F64652023
:106848003D200025690064657461696C73203D20F2
:1068580000626175640053657269616C005365720A
:1068680069616C31007479706500706172616D00E6
:10687800636D6400696400686E64007374726D000F
:1068880066696C74006C766C0061646448616E645F
:106898006C65720072656D6F766548616E646C65D3
:1068A8007200656E756D48616E646C657273004A3E
:1068B800534F4E53747265616D4C6F6748616E64D7
:1068C8006C657200617070006E6F6E650074726145
:1068D800636500696E666F007761726E006572723B
:1068E8006F720070616E696300616C6C000000007B
:1068F80000000000000000001F540D0015540D009A
:106908000B540D0001540D00F5530D00E9530D0013
:10691800DD530D00D5530D00CB530D00C1530D00B1
:1069280081550D00000000000000000019550D0001
:1069380023550D002D550D0037550D0041550D00FF
:106948004D550D0059550D0065550D006D550D003F
:1069580077550D0081550D00000000000000000073
:1069680039570D003B570D005A00252B3033643A38
:10697800253032750025592D256D2D25645425485F
:106988003A254D3A2553257A0061736374696D651C
:10699800000000000000000000000000A5570D00E6
:1069A800C9570D00D5570D0061560D00B1570D00A0
:1069B800BD570D00B7570D00C3570D00A7570D0061
:1069C800AB570D0000000000000000007D580D00CE
:1069D800C1580D009B580D0061560D0095580D00CB
:1069E8007F580D0087580D00BB580D008F580D00BB
:1069F80079580D000000000000000000AF590D009C
:106A0800A5590D009B590D0051590D008F590D00C6
:106A180083590D0077590D006F590D0065590D0008
:106A28005B590D0081550D000000000000000000BA
:106A3800000000000000000000000000000000004E
:106A4800000000000000000000000000000000003E
:106A5800000000000000000000000000000000002E
:106A6800000000000000000000000000000000001E
:106A7800000000000000000000000000000000000E
:106A8800000000000000000099410D002F440D0097
:106A980011480D002D520D00B1530D00CD540D00BD
:106AA8004D560D001D570D0079570D0091570D00DB
:106AB800B9590D004D5B0D00A15B0D00655C0D0023
:086AC800E95C0D006D5D0D009D
:106AD0008813000091690D0000000000306A0D006D
:106AE000506A0D00706A0D000000000000000000F8
:106AF000000000000000000077670D0000000000AB
:106B00000000000000000000000000000000000085
:106B10000000000000000000000000000000000075
:106B20000000000000000000000000000000000065
:0C6B3000000000000000000020E3032033
:106B3C00FFFFFFFF00000102030405060708090A16
:106B4C000B0C0D0E0F101112131415161718191A11
:086B5C001B1C1D1E1F20280058
:046B64007856341219
:04000003D0004018D1
:00000001FF
