:02000002D0002C
:1040000000400D00A07D0D00000006000C00050121
:0840100004014E040000000051
:104018003C770D0009480A49884208B505D0094A85
:10402800824202D0121A02F065FF0748074A0021AF
:10403800121A02F06AFF014808BD00BF54E20320CB
:10404800C07C0D000CE303200CE30320F0E7032001
:1040580070B502F035F8074C074BE41AA4080025A0
:104068001E46A54204D056F8253098470135F8E792
:1040780070BD00BFB87C0D00787C0D0000F0ECB876
:1040880008B500F09FF8BDE8084001F0E7BF00F070
:10409800A9BE00F0AFBE00F0ADBE0078B0FA80F067
:1040A80040097047012303707047012A02D0022A91
:1040B80002D004E0016002E00B6800B10360002058
:1040C80070471FB50468684601F0A3FC6846A0471E
:1040D8000446684601F0ADFC204604B010BD00005F
:1040E80008B5034901F0FFFC003018BF012008BDE6
:1040F80050770D0000B58DB00A4903A801F054FFB0
:1041080003A801F017FF10EE100A02F037FB064A69
:10411800CDE900011021054800F084FE0DB05DF8DE
:1041280004FB00BFE0E6032053770D0064E303209F
:1041380007B5212002F013F802F00EFB0CA3D3E917
:10414800002302F06FFB02F07FFD02F017FB064A26
:10415800CDE900011021054800F064FE03B05DF8C8
:1041680004FB00BFAFF300805A770D004EE3032035
:104178009402C1D2AF63523F07B50A4800F0E6F98E
:1041880068B1084800F006FA10EE100A02F0F6FAD4
:10419800054ACDE900011021044800F043FE03B0B0
:1041A8005DF804FB20E3032062770D0010E3032091
:1041B80008B5FFF79FFFFFF7BBFFBDE80840FFF713
:1041C800DBBF000030B51D4C2378022B85B0254697
:1041D8000FD0032B12D0012B2ED1194D01F00AFD5F
:1041E8002B68984228D00223237001F003FD286031
:1041F80022E0FFF7DDFF032323701DE0114B124A75
:104208001B788DF8003011493C2302A800F0BEFF4E
:10421800039C7CB16368013B63605BB923682046FB
:104228009B689847A368013BA3601BB92368204695
:10423800DB68984701232B7005B030BD4CE30320A1
:1042480060E303204DE3032010E3032072770D00A1
:104258000023042200F03EBD1FB5FFF78DFF1B4968
:104268001B48FFF7F5FF1B491B48FFF7F1FF1B49E8
:104278001B48FFF7EDFF1B491B48FFF7E9FF1B4BE6
:1042880000931B4B039310201A4B0293FFF7FFFE7A
:10429800044678B100238360029B33B10222694649
:1042A8009847039BE360029BA360134A1348214687
:1042B80000F035FE029B1BB1032269466846984709
:1042C8000F4B01221A7004B010BD00BF10E3032089
:1042D8007E770D00A9770D0086770D0064E3032033
:1042E8008E770D004EE3032095770D00E9400D0011
:1042F800CB400D00B3400D009D770D00FF4E0D0023
:104308004CE3032008B5064B01221A7000F08EFB1F
:10431800002203210348BDE8084000F016B800BF9A
:104328004DE3032020E3032000230022438242615F
:104338008361C3610362436280F8283080F82930C2
:1043480080F82A3080F82B30704738B50446154677
:1043580000F094F94FF47A732046A5732382FFF78F
:10436800E3FF204638BD0000F8B52DED028B0B6841
:10437800836100F118054B686B600B78222B0446AB
:104388000AD003D8102B42D1012308E0262B05D0F0
:10439800282B3CD1022302E0032300E0042384F805
:1043A8002930204600F074F92946204600F030FAFA
:1043B800A27B4421204600F0F8F9208A00F04AFD4B
:1043C800204600F065F92946204600F021FA00222F
:1043D800B821204600F0E9F900221146204600F0F5
:1043E800E4F9204600F054F92946204600F010FA76
:1043F8000022BE21204600F0D8F994F82930042B79
:1044080009D100221146204600F0CFF903E0002030
:1044180084F8290094E004F11F0504F128062046D9
:1044280000F0E6F905F8010FAE42F8D1082104F1D1
:10443800200000F086FA94F82830834204D0012343
:1044480084F82B3000207BE094F8212094F8203069
:1044580094F8291043EA02230429638227D194F8A7
:10446800223007EE903A42EA0321D208F8EE678A32
:1044780007EE902A13F0800F618284F82120B8EEAD
:10448800678A45D018EE900A02F078F9064618EEC9
:10449800100A0F4602F072F900222B4B02F0C2F903
:1044A80002460B463046394602F008F844E0012936
:1044B80003D044D3032910D941E0B4F9123094F859
:1044C8002720DB00102A638219D194F8262023F0D4
:1044D8000F03C2F10C02134410E094F8242012F0E8
:1044E800600202D123F0070308E0202A02D123F05A
:1044F800030303E0402A02D123F001036382B4F9E5
:10450800123007EE903AFAEECE7AC4ED057A16E04C
:1045180018EE100A02F032F900220B4B02F082F971
:10452800064618EE900A0F4602F028F902460B4696
:104538003046394601F0C4FF02F086FB6061012075
:10454800BDEC028BF8BD00BF0000A03F38B50446A3
:10455800FFF7EAFE00F11805294600F077F930B9AF
:10456800012384F82A30204600F064F910E007217E
:10457800284600F0E6F9E37F834203D0012384F85C
:104588002B3005E029462046BDE83840FFF7ECBE51
:10459800002038BD90ED050A704700F047BA0000CA
:1045A80010B503682F2B044604D9074A00210A20B6
:1045B80000F044FB23681F2B83BF03F01F03236015
:1045C80002484FF0A04010BDF5490D00000300500F
:1045D80007B50B4B1B68000119181A5C4B7802A829
:1045E80003F01F0343EA421340F8043DFFF7D8FFE6
:1045F800019A01239340C0F80C3503B05DF804FB21
:1046080074E3032007B50B4B1B68000119181A5CEB
:104618004B7802A803F01F0343EA421340F8043D15
:10462800FFF7BEFF019A01239340C0F8083503B095
:104638005DF804FB74E3032013B50F4B1B680001FE
:104648001A181C5C537802A803F01F0343EA4414A9
:1046580040F8044DFFF7A4FFD0F8103502A840F841
:10466800084DFFF79DFFD0F81035009823FA00F0A9
:1046780000F0010002B010BD74E3032038B5044611
:104688000D462846002101F059FD2580204638BDF9
:1046980038B5054600F060FF0021288800F0D6F9FB
:1046A80000F05CFF7D24013C14F0FF042BD00220B5
:1046B80000F09CF92888FFF7BFFF0028F3D000F02E
:1046C8004BFF2888FFF784FF0121288800F0BEF9F6
:1046D80000F044FF4FF4F07000F088F900F03CFF60
:1046E8000021288800F0B2F9462000F07FF92888D8
:1046F800FFF7A2FFB0FA80F400F030FF4FF4CD705E
:10470800640900F073F9204638BD38B511F0010589
:10471800044613D000F020FF2088FFF759FF01213D
:10472800208800F093F90A2000F060F92088002121
:1047380000F08CF900F012FF372012E000F00CFFB7
:104748002088FFF745FF0121208800F07FF94120EC
:1047580000F04CF92088294600F078F900F0FEFEB8
:104768000520BDE8384000F041B910B5044600F016
:10477800F3FE2088FFF72CFF0121208800F066F95E
:10478800032000F033F90021208800F05FF90A20A7
:1047980000F02CF92088FFF74FFF044600F0DEFEFA
:1047A800352000F023F9204610BD2DE9F0410546DB
:1047B800884617460826012418EA040F14BF012169
:1047C80000212846FFF7A1FF6400013EE4B2F3D1BF
:1047D80067B100F0C1FE2888FFF714FF288801217F
:1047E80000F034F9BDE8F04100F0B8BEBDE8F08152
:1047F800F8B507460826002501243846FFF7B5FF17
:1048080000B125436400013EE4B2F6D12846F8BD64
:1048180070B500220C4655210646FFF7C6FF651EF7
:10482800073415F8011F00223046FFF7BEFFA542E6
:10483800F7D170BD002383720373C37200F10A02BB
:10484800023002F8013D8242FBD170472DE9F04762
:10485800057B04468846002D5ED1FFF719FF20B975
:10486800A0722073E072BDE8F0872A46F021204646
:10487800FFF79BFF0126AA4637462046FFF775FF3C
:1048880081462046FFF771FFB9F1010F02D10128D7
:104898001BD137E0814504EB05031ED1A27A97426C
:1048A80007D29A78164214BF4FF001094FF0000959
:1048B80004E00CBF4FF001094FF00009B9F1000FF7
:1048C80003D1082F08D8E77206E062194FF00109F2
:1048D80093783343937004E0BA469A7822EA060242
:1048E8009A70494620467600FFF70FFF16F0FF063C
:1048F80004BF0135EDB207F1010708BF0126072DF6
:10490800FFB2BAD9402F07D984F80AA0BAF1000F2C
:1049180012D1012323730FE00020A0722073E072EC
:10492800631C08F1FF38093413F8012F08F8012F28
:10493800A342F9D1BDE8F087A378002BECD0012081
:10494800EEE730B5054600200139C9B2FF2913D07A
:1049580015F8014B082280EA040313F0010F4FEA0F
:1049680050001CBF80F08C03D8B2531E13F0FF0216
:104978004FEA5404EFD1E7E730BD000008B500F076
:1049880055F8014B186008BD74E3032008B5024BC5
:104998001B689B68019308BD4802030008B5024BD9
:1049A8001B681B69019308BD4802030008B5024B48
:1049B8001B685B69019308BD4802030008B5024BF8
:1049C8001B681B6B019308BD4802030008B5024B26
:1049D8001B685B6C019308BD4802030008B5024BD5
:1049E8001B685B68019308BD1802030008B5024BF9
:1049F8001B68DB68019308BD1802030008B5024B69
:104A08001B685B69019308BD1802030008B5024BD7
:104A18001B68DB69019308BD1802030008B5024B47
:104A28001B689B6D019308BD1802030008B5024B73
:104A38001B681B68019308BD2C02030008B5024BD4
:104A48001B685B68019308BD2C02030008B5024B84
:104A58001B689B68019308BD2C02030008B5024B34
:104A68001B681B6A019308BD2C02030008B5024BA2
:104A78001B685B6A019308BD2C02030008B5024B52
:104A88001B681B6B019308BD2C02030008B5024B81
:104A98001B681B6A019308BD2802030008B5024B76
:104AA8001B685B6A019308BD2802030008B5024B26
:104AB8001B689B6A019308BD2802030008B5024BD6
:104AC8001B68DB6A019308BD2802030008B5024B86
:104AD8001B681B6B019308BD2802030008B5024B35
:104AE8001B685B6B019308BD2802030008B5024BE5
:104AF8001B681B6C019308BD2802030008B5024B14
:104B08001B685B69019308BD6402030008B5024B8A
:104B18001B689B68019308BD6802030008B5024B37
:104B28001B68DB68019308BD6802030008B5024BE7
:104B38001B68DB69019308BD3002030008B5024B0E
:104B48001B681B6A019308BD3002030008B5024BBD
:104B58001B681B68019308BD3C02030008B5024BA3
:104B68001B68DB68019308BD3C02030008B5024BD3
:104B78001B681B69019308BD3C02030008B5024B82
:104B88001B685B69019308BD3C02030008B5024B32
:104B98001B689B69019308BD3C02030008B5024BE2
:104BA8001B68DB69019308BD3C02030008B5024B92
:104BB8001B681B6A019308BD3C02030008B5024B41
:104BC8001B689B6A019308BD3C02030008B5024BB1
:104BD8001B681B68019308BD4C02030008B5024B13
:104BE8001B681B69019308BD4C02030008B5024B02
:104BF8001B685B69019308BD4C02030008B5024BB2
:104C08001B689B69019308BD4C02030008B5024B61
:104C18001B68DB69019308BD4C02030008B5024B11
:104C28001B681B6A019308BD4C02030008B5024BC0
:104C38001B685B6F019308BD7402030008B5024B43
:104C48001B685B6B019308BD6002030008B5024B4B
:104C58001B681B68019308BD2002030008B5024BBE
:104C68001B685B68019308BD2002030008B5024B6E
:104C78001B685B69019308BD2002030008B5024B5D
:104C88001B68DB6C019308BD2002030008B5024BCA
:104C98001B685B6D019308BD2002030008B5024B39
:104CA8001B689B6D019308BD2002030008B5034BE8
:104CB8001B68D3F88830019308BD00002002030068
:104CC80008B5034B1B68D3F89430019308BD000066
:104CD8002002030008B5024B1B681B68019308BD3E
:104CE8004402030008B5024B1B685B68019308BDCA
:104CF8004402030008B5024B1B689B68019308BD7A
:104D08004402030008B5024B1B685B69019308BDA8
:104D18004402030008B5024B1B681B6A019308BDD7
:104D28004402030008B5024B1B681B6B019308BDC6
:104D38004402030008B5024B1B68DB6B019308BDF6
:104D48004402030008B5024B1B685B68019308BD69
:104D58004002030008B5024B1B689B68019308BD1D
:104D68004002030008B5024B1B68DB68019308BDCD
:104D78004002030008B5024B1B681B69019308BD7C
:104D88004002030008B5024B1B685B69019308BD2C
:104D98004002030008B5024B1B689B69019308BDDC
:104DA8004002030008B5024B1B68DB69019308BD8C
:104DB8004002030008B5024B1B681B6A019308BD3B
:104DC8004002030008B5024B1B681B6B019308BD2A
:104DD8004002030008B5024B1B685B6B019308BDDA
:104DE8004002030008B5024B1B681B68019308BD0D
:104DF8001C02030008B5024B1B685B68019308BDE1
:104E08001C02030008B5024B1B689B68019308BD90
:104E18001C02030008B5024B1B689B69019308BD7F
:104E28001C02030008B5024B1B68DB69019308BD2F
:104E38001C02030008B5024B1B68DB6A019308BD1E
:104E48001C02030008B5024B1B681B6B019308BDCD
:104E58001C0203000021FFF709BF10B58368044650
:104E68000BB901F0DCF9C3689847A3681BB10322AA
:104E780021462046984720461021BDE8104001F001
:104E8800CCB970470020704710B51021044601F0D6
:104E9800C4F9204610BD08B508B1FFF7F5FF08BDF5
:104EA80010B58368044613B103220146984720468B
:104EB80010BD38B5C468ECB12378022B02D1E06884
:104EC800FFF798FF656835B12846FFF7E9FF10211D
:104ED800284601F0A2F9A56835B12846FFF7E0FF9A
:104EE8001021284601F099F920461421BDE83840E0
:104EF80001F093B938BD1FB50446684600F0E0FDDF
:104F0800A3680BB901F08BF9E36869462046984716
:104F18000446684600F08DFD204604B010BDF0B58B
:104F2800102485B007460E461546002122466846DD
:104F380001F0EBFF002269461046ADF800400297E9
:104F480003960195FFF7CEFE05B0F0BD38B50468AD
:104F580005467CB16368013B63605BB92368204602
:104F68009B689847A368013BA3601BB92368204648
:104F7800DB689847284638BD13B5044691E8050014
:104F880000234B600B602060626001A801930093CE
:104F9800FFF7DCFF204602B010BD0B68036013B1B9
:104FA8005A6801325A607047F7B50C4602AD54F89A
:104FB800043B45F8083D06460F4601A82146FFF781
:104FC800ECFF29463046FFF7D7FF01A8FFF7BEFFE1
:104FD8002046FFF7BBFF3846082101F01EF930468E
:104FE80003B0F0BD13B50B46044603C88DE80300B3
:104FF80093E8030084E803009DE8030083E80300C6
:1050080002B010BD826810B50AB901F008F9C3688A
:10501800BDE81040184708B5006800F11001FFF717
:10502800F1FF08BD826810B50AB901F0F8F8C36845
:10503800BDE81040184708B5006800F11001FFF7F7
:10504800F1FF08BD38B5002383608B6804460D4620
:105058002BB102229847EB68E360AB68A360204657
:1050680038BD00002DE9F0414FF69C7386B0046806
:10507800B1F904208B8000230F688DF800300B6095
:105088004FF00200D4E84F1F994203D1C4E8450FFE
:10509800002DF7D102D08DF800106BE014F10C054B
:1050A8001EBFE76022821F460123BFF35F8F0020E7
:1050B800637004F10803BFF35F8F53E8006F43E8A0
:1050C8000002002AF9D1BFF35F8F002E52D0FFF7FC
:1050D800D5FD20B129463046FFF794FF43E031461D
:1050E8006846FFF7AFFFE068B4F9105008B101F067
:1050F8004FFF04901020ADF81450FEF7C8FF054686
:1051080030B34FF00008C0F808801820FEF7BFFF42
:105118000446C0B1C0F8088001466846FFF762FF40
:10512800029BA268A360039B0292E268E360BDF859
:105138001430A3824FF69C73ADF81430049B03928D
:105148002361CDF810800E4BEB600E4B2C60AB60EA
:105158000498FFF74FFE6846FFF7A2FE0022294693
:105168000948FFF793FD3046FFF79AFE10213046B5
:1051780001F053F83846FFF73DFE06B0BDE8F08170
:105188001F500D007D520D00634E0D002DE9F04FAC
:105198008BB007AD4FF0000B0646994614200C2340
:1051A8000F4690469DF850A0C5F804B0C5F808B061
:1051B8000793FEF76CFF044638B180F800B080F81A
:1051C80001B0C0F804B0C0F808B000231020039460
:1051D8000493FEF75CFF28B1012343608360234BEF
:1051E8000360C4600490224B08930820FEF74FFF29
:1051F800044628B1039B40F8043B04A9FFF7CDFE01
:1052080000955FFA8AF34A46414638460994FFF703
:1052180081FDB8B9039B5B7803F0FF0293B94FF6A1
:105228009C7305A903A80592ADF81830FFF71AFF7B
:105238000598FFF7DFFD05A80999FFF7B5FE06A851
:10524800FFF784FE039B059304A906A8FFF7A5FEB4
:1052580005A93046FFF790FE06A8FFF777FE04A8D9
:10526800FFF774FE30460BB0BDE8F08FB8770D003D
:10527800E9530D00022AF8B5044606D0032A17D0D0
:10528800012A21D10B6803601EE018200E68FEF782
:10529800FEFE054650B13146FFF7D4FE3069B6F937
:1052A800147008B101F074FE2861AF8225600BE02C
:1052B80004684CB12069FFF79DFD2046FFF7F0FD1B
:1052C8001821204600F0A9FF0020F8BD38B50023BA
:1052D80083608B6804460D462BB102229847EB6821
:1052E800E360AB68A360204638BD022A70B5044667
:1052F80006D0032A11D0012A18D10B68036015E0E3
:1053080014200E68FEF7C3FE054620B13146FFF7AC
:10531800DDFF337C2B74256008E0046834B1204637
:10532800FFF7BEFD1421204600F077FF002070BD76
:10533800F0B5002387B00C46BFF35F8F50E8006FCD
:1053480040E80032002AF9D1BFF35F8F002E3FD02A
:105358001846FFF793FC074620B121463046FFF771
:1053680061FE2EE0314601A8FFF7B0FF23788DF8E3
:1053780014301020FEF78BFE0546D0B1876014204C
:10538800FEF785FE044678B18760014601A8FFF75D
:1053980029FE039BA268A360049B0392E268E36072
:1053A8009DF81430049223740A4BEB600A4B2C606E
:1053B800AB6001A8FFF774FD002229460748FFF7F4
:1053C80065FC3046FFF76CFD1021304600F025FFE4
:1053D80007B0F0BD3F500D00F3520D00634E0D00B5
:1053E80030B585B004460D4668461146FFF7DCFD2A
:1053F8007CB124B228460DB101F0CAFD029002A981
:105408006846ADF80C40FFF72DFE0298FFF7F2FC56
:105418001DE000988DF808404FF00102D0E84F3F9A
:10542800A34203D1C0E8412F0029F7D102D08DF85B
:1054380008300CE010F10C014FF0010318BF0373A2
:10544800BFF35F8F043000F8033CFFF771FF01A83A
:10545800FFF77CFD05B030BD002211464068FFF71C
:10546800A9BC002211464068FFF7B4BC002240687E
:10547800FFF7A8BC002281F001014068FFF792BC49
:1054880000231A4619464068FFF784BC00231A46D1
:1054980019464068FFF776BC002211464068FFF7BE
:1054A80069BC002211464068FFF754BC0022022163
:1054B8004068FFF757BC00231A464068FFF742BC14
:1054C800024B03225A60024A1A60704778E30320AD
:1054D800D4770D007047F8B5064615460C468F1868
:1054E800BC4206D0336814F8011B9B6830469847C5
:1054F800F6E72846F8BD0022007CFFF7C7BA00216E
:10550800007CFFF7CBBA0021007CFFF7CFBA00215F
:10551800007CFFF7D3BA0021007CFFF7D7BA10B59B
:105528001421044600F079FE204610BD10B504464B
:105538004FF47A730846A3600021044B207461601D
:105548002360FFF7D3FA204610BD00BF08780D008E
:105558000021007CFFF7C2BAFFF788BAFFF77EBACE
:10556800704710B51821044600F057FE204610BDBC
:10557800F0B5037D062B8DB00E4600F104074FF001
:10558800000402D000F1080518E00CAD394605F812
:10559800304D2F232A460A20FFF7B0FA284601F09B
:1055A80012FD33680246DB682946304698470FE00B
:1055B80024B12E21304600F0C7F9044415F8011D26
:1055C8000A22304600F0F0F9BD420444F0D12046EA
:1055D8000DB0F0BD10B5054B0446112240F8043B50
:1055E800002101F092FC204610BD00BF30780D006C
:1055F8000346074A10B543F8042B01F1100251F88D
:10560800044B43F8044B9142F9D10A781A7010BD43
:1056180030780D0010B59DF8084044EA032343EAAA
:10562800024242EA016104234160037510BD37B5A7
:105638000D788B784A78C97800912946FFF7EAFFF8
:1056480003B030BD014B024A1A60704780E3032063
:10565800F4780D00002211464068FFF7ABBB00222A
:1056680011464068FFF7B6BB00224068FFF7AABBA7
:10567800002281F001014068FFF794BB00231A461D
:1056880019464068FFF786BB00231A46194640684A
:10569800FFF778BB002211464068FFF76BBB00227A
:1056A80011464068FFF756BB002202214068FFF709
:1056B80059BB00231A464068FFF744BB38B5054676
:1056C80088B104684CB1A3681BB103222146204667
:1056D80098471021204600F0A0FD28461421BDE877
:1056E800384000F09ABD38BD10B103685B681847B0
:1056F800704710B503680446BBB15868FFF746F910
:1057080078B923685A7C12B95868FFF747F92368B3
:105718005868FFF74BF920680023236028B1FFF78A
:10572800CDFF206808B1FFF7C9FF204610BD000073
:1057380038B50C4B03600446D0F8CC0108B1FEF72D
:10574800AAFCD4F8C45135B12846FFF7D2FF04218A
:10575800284600F062FDA06808B1FFF7C5FF2046A3
:1057680038BD00BF28790D0038B50D4C0D4B2360AE
:105778000025022304F5E4706360A560C4F8C451F1
:10578800C4F8C851FFF722F9074BC4F8CC5123607D
:105798002046064A0649BDE8384000F039BD00BF3A
:1057A80084E303205C790D0028790D000CE30320C5
:1057B80039570D0000231A464068FFF7C3BA002284
:1057C80002214068FFF7CEBA002211464068FFF771
:1057D800C1BA002211464068FFF7CCBA00231A4626
:1057E80019464068FFF7CEBA00231A4619464068A2
:1057F800FFF7D0BA002281F001014068FFF7D2BA62
:1058080000224068FFF7DEBA002211464068FFF721
:10581800E1BA002211464068FFF7CCBA2DE9F043FF
:10582800002495B016460D460746FFF7D3FE2146DD
:1058380020220CA8009401F068FB40230C93214619
:105848006B460CAA3046FFF769F90446002844D194
:10585800024601216868FFF78DFA02218046224638
:105868006868FFF787FA009E81462146002E34D0EB
:10587800002932D17368022B02D00A2B09D02AE002
:10588800B8F1000F27D0716938460431FFF7CFFE11
:1058980020E0B9F1000F1ED07469112201A801F0AF
:1058A80034FB06238DF8143001AD04F108031834D5
:1058B800186859682A4603C20833A3421546F7D127
:1058C80001A906A807ADFFF793FE0FCD3C1D0FC435
:1058D8002B6823700121F669C8E70098FFF716F9CD
:1058E800384615B0BDE8F083024B034A1A6000221F
:1058F8005A60704754E503205C790D00F8B50646F8
:105908000D468F180024BD420CD0336815F8011BD2
:105918009B6830469847002801DB0444F3E7002CD5
:1059280008BF04462046F8BD70B505460C46084633
:1059380049B101F048FB2B68024621462846DB683E
:10594800BDE87040184770BD03689B68184730B5BC
:105958008BB00B4600218DF82410012A98BF0A222B
:105968000DF12304B3FBF2F505FB123303F0FF033B
:10597800092B94BF30333733DBB2214604F80139A1
:105988002B46002DEED1FFF7CFFF0BB030BD10B482
:105998002AB903685DF8044B9B68C9B21847D2B2AC
:1059A8005DF8044BFFF7D3BFFFF7F1BF10B504460E
:1059B800FFF776FA204610BD0348044A044900233D
:1059C800836000F025BC00BF5CE503200CE30320E6
:1059D800B5590D00704710B51021044600F01DFCA4
:1059E800204610BD70B5084B0360044600250E46DE
:1059F80040F80C5FFEF7E2FF30462671FFF796F895
:105A0800A560204670BD00BF90790D000079FFF7B2
:105A180095B80023036043608360037310B50C6876
:105A280004604C6844608C6884600B604B608B60D9
:105A380010BD10B504460068FFF7DCF9204610BD1C
:105A480010B50446006808B1FFF7D4F900232360B5
:105A5800A360636010BD38B504460D460068013187
:105A6800FFF7D0F910B184E82100012038BD10B546
:105A78000368044613B143688B4207D22046FFF7F8
:105A8800EAFF20B1A3680BB922681370012010BD8A
:105A980070B50E46114604461546FFF7E8FF18B9DB
:105AA8002046FFF7CDFF09E02A463146A560206869
:105AB80001F020FA2268A3680021D154204670BD65
:105AC80038B50023044603604360836003730D46C2
:105AD80039B1084601F077FA294602462046FFF711
:105AE800D7FF204638BD08B582680B4612B919B9E8
:105AF800012008BD11B90368187802E0006801F0B8
:105B080035FAB0FA80F0400908BD0000044B0020C7
:105B18004FF6FF72187058809A80FFF79FB800BF41
:105B28006CE50320F0B5144B144F1E68144B064463
:105B380018683B6806449E428BB01BD00AA801AD8A
:105B480040F8286D01F0DEF8436903F26C73436195
:105B580004460FCC0FC50FCC0FC5D4F800E0C5F82C
:105B680000E001AD0FCD074C0FC40FCD0FC43E6050
:105B7800C4F800E00BB0F0BDA4E50320A0E50320C5
:105B88009CE5032074E5032008B50020FFF7CAF858
:105B980028B1FFF7B7F880F00100C0B208BD0120B6
:105BA80008BD10B50020FEF739FF044668B9FFF7B5
:105BB8004DF801280BD12046FFF770F838B9FFF7E8
:105BC800E3FF30B9FFF796F8F9E7012010BD002090
:105BD80010BDFFF7D9FF0020FEF720FF003018BFE7
:105BE800012010BD08B5FFF7DCFFBDE80840FEF74F
:105BF8000DBF000008B5FFF7F5FFFFF793FF014B56
:105C0800586808BD74E50320024B1A68024B1A60F5
:105C1800704700BF54E2032098E5032070474174A1
:105C2800704708B5007CFEF7C9FF20EAE07008BDA0
:105C380008B5007CFEF79AFF20EAE07008BD08B5B9
:105C4800007CFEF7A3FF30EA200028BF4FF0FF30AA
:105C580008BD08B5007CFEF791FF30EA200028BF98
:105C68004FF0FF3008BD007CFEF798BF10B5142137
:105C7800044600F0D2FA204610BD70B5457C0446B3
:105C88000E4625B9007CFEF799FF002805DD314650
:105C9800207CBDE87040FEF761BF284670BD00005B
:105CA80010B5044608461146002262604FF47A7225
:105CB800A260054A22600122207462741A46FEF727
:105CC80045FF204610BD00BFC8790D00007CFEF7D7
:105CD8006DBF000038B50C4D296811F0010411D1D1
:105CE8002846FEF7DAF968B1084A094B09482146FF
:105CF800FFF7D6FF2846FEF7D5F9074A07490548B2
:105D080000F086FA034838BD40E6032044E6032045
:105D1800BCE50320A8E503200CE30320255C0D0067
:105D280041747047704708B50021007CFEF766FF94
:105D380030EA200028BF4FF0FF3008BD08B5012128
:105D4800007CFEF75BFF30EA200028BF4FF0FF30F1
:105D580008BD08B5007CFEF749FF20EAE07008BDE1
:105D680008B5007CFEF73AFF20EAE07008BD007C29
:105D7800FEF754BF10B51421044600F04EFA204631
:105D880010BD38B50446007C0D46FEF72FFF0028ED
:105D980001DC607C28B12946207CFEF737FF20EA29
:105DA800E07038BD10B50446002363604FF47A7381
:105DB800A360054B236001230846217463741146D0
:105DC800FEF704FF204610BDF8790D0010B5142227
:105DD8000446002101F099F8204610BD30B50E4D5B
:105DE80087B001A8FFF7F2FF296811F0010410D16C
:105DF8002846FEF752F960B101AA21460748FFF785
:105E0800D1FF2846FEF74EF9054A0649034800F037
:105E1800FFF9024807B030BDC8E60320CCE60320EE
:105E28000CE303202D5D0D00704701207047000032
:105E380083891BB10369B3F1004F02D19FED050AB5
:105E4800704707EE903A9FED047AF8EEE77A87EE0E
:105E5800870A7047000000000000C84283891BB110
:105E68008369B3F1004F02D19FED050A704707EE31
:105E7800903A9FED047AF8EEE77A87EE870A704742
:105E8800000000000000C842002211464068FEF7EA
:105E980071BF10B52421044600F0BFF9204610BD9B
:105EA800002211464068FEF785BF0022114640686F
:105EB800FEF790BF00224068FEF784BF002281F001
:105EC80001014068FEF76EBF00231A461946406874
:105ED800FEF760BF00231A4619464068FEF752BF16
:105EE800002211464068FEF735BF002202214068B3
:105EF800FEF738BF00231A464068FEF723BF0000AC
:105F080083897BB1036A002B0CDB07EE903ADFED47
:105F1800076A9FED070AB8EEE77AC7EE267A27EEFA
:105F2800800A7047BFEE000A704700BF00FF7F4736
:105F38000000C84283897BB14369002B0CDB07EE64
:105F4800903ADFED076A9FED070AB8EEE77AC7EEE9
:105F5800267A27EE800A7047BFEE000A704700BF16
:105F680000FF7F470000C84270B50D46064600F1A5
:105F78000C040FCD0FC495E8030084E803003369CF
:105F8800B3F1004F0EBF0223642293FBF2F3736058
:105F9800B369B3F1004F0EBF0023642293FBF2F301
:105FA800B360012070BD00002DE9F041164B03607D
:105FB800002588460227182686B047608560324645
:105FC800294604460C3000F0A0FF2A462946D8F896
:105FD8000400FEF7CFFE90B132462946684600F02D
:105FE80094FF2A4669462846ADF80060FEF71EFE73
:105FF80020B969462046FFF7B7FF00E067602046F2
:1060080006B0BDE8F08100BF5C7A0D00024B0422A7
:106018005A60024A1A607047E0E60320287A0D00A9
:1060280008B50C4B33B1FFF7D9FE03681B699847D5
:10603800002809DC084B63B1FFF74CFE03681B69B5
:106048009847002803DC08BDAFF30080F2E7AFF300
:10605800008008BD000000000000000008B5FFF740
:10606800DFFFFEF7CBFC014B186008BDECE6032010
:1060780007B5002300931A466FF07701FEF720FE5C
:1060880003B05DF804FB000007B543880A2B08D06D
:10609800502B09D1094B1B683BB103B05DF804EBE9
:1060A8001847FFF7E5FF06E0002300931A466FF054
:1060B8007701FEF705FE03B05DF804FBE8E6032070
:1060C80010B5FEF78BFC044600F028FF074B13B110
:1060D8002046AFF3008000210448FEF72BFE002184
:1060E8000348BDE81040FEF7E1BD00BF0000000016
:1060F80091600D0010B504460F48FFF787FC28B1E2
:10610800A4F10B03022B01D8002010BD00F03EF8CB
:10611800FFF71EFA08B1012CF6D9FFF7DBFDFFF7F0
:10612800D5FD18B1A4F10903012BEDD9232C8CBF9F
:106138000020012010BD00BF08E70320232838B540
:1061480004460D460AD8FF2908D0FFF7D3FF28B127
:1061580029462046BDE83840FEF778BC38BD0D28F2
:1061680010B504469CBF0E34A4B22046FFF7C2FF08
:1061780050B103212046FEF761FC032804D12046D4
:10618800BDE81040FEF77ABC002010BD38B50B4DB5
:10619800296811F001040FD12846FDF77EFF58B198
:1061A80021460748FFF7C2F92846FDF77BFF054A55
:1061B8000549034800F02CF8014838BDF0E60320F3
:1061C800F4E603200CE30320DD540D0070B50C4CFD
:1061D8000C4E0D4D00212046FFF704FC20460B4CC9
:1061E8003246294600F014F801212046FFF7FAFB51
:1061F800324629462046BDE8704000F009B800BF85
:1062080008E703200CE30320DD590D0018E70320FD
:106218000B460146184600F067BDFDF73ABF08B5C2
:10622800FEF708FE244B1A68D0075CBF01221A60EB
:10623800224B1A68D1075CBF01221A60204B1A68EA
:10624800D2075CBF01221A601E4B1A68D0075CBFD8
:1062580001221A601C4B1A68D1075CBF01221A6020
:106268001A4B1A68D2075CBF01221A60184B1A68C9
:10627800D0075CBF01221A60164B1A68D1075CBFB1
:1062880001221A60144B1A68D2075CBF01221A60F7
:10629800124B1A68D0075CBF01221A60104B1A68AB
:1062A800D1075CBF01221A600E4B1A68D2075CBF87
:1062B80001221A60704700BF54E7032050E703200B
:1062C8004CE7032048E7032044E7032040E7032086
:1062D8003CE7032038E7032034E7032030E70320B6
:1062E8002CE7032028E70320184B1A68D1075CBF66
:1062F80001221A60164B1A68D2075CBF01221A6085
:10630800144B1A68D0075CBF01221A60124B1A6836
:10631800D1075CBF01221A60104B1A68D2075CBF14
:1063280001221A600E4B1A68D0075CBF01221A605E
:106338000C4B1A68D1075CBF01221A600A4B1A6815
:10634800D2075CBF01221A60704700BF74E70320C0
:1063580070E703206CE7032068E7032064E7032065
:1063680060E703205CE7032058E70320184B1A680E
:10637800D1075CBF01221A60164B1A68D2075CBFAE
:1063880001221A60144B1A68D0075CBF01221A60F8
:10639800124B1A68D1075CBF01221A60104B1A68A9
:1063A800D2075CBF01221A600E4B1A68D0075CBF87
:1063B80001221A600C4B1A68D1075CBF01221A60CF
:1063C8000A4B1A68D2075CBF01221A60704700BFE7
:1063D80094E7032090E703208CE7032088E7032055
:1063E80084E7032080E703207CE7032078E7032085
:1063F800244B1A68D0075CBF01221A60224B1A6826
:10640800D1075CBF01221A60204B1A68D2075CBF13
:1064180001221A601E4B1A68D0075CBF01221A605D
:106428001C4B1A68D1075CBF01221A601A4B1A6804
:10643800D2075CBF01221A60184B1A68D0075CBFEC
:1064480001221A60164B1A68D1075CBF01221A6034
:10645800144B1A68D2075CBF01221A60124B1A68E3
:10646800D0075CBF01221A60104B1A68D1075CBFC5
:1064780001221A600E4B1A68D2075CBF01221A600B
:10648800704700BFC4E70320C0E70320BCE7032030
:10649800B8E70320B4E70320B0E70320ACE7032004
:1064A800A8E70320A4E70320A0E703209CE7032034
:1064B80098E7032081F0004102E000BF83F0004329
:1064C80030B54FEA41044FEA430594EA050F08BF87
:1064D80090EA020F1FBF54EA000C55EA020C7FEA4B
:1064E800645C7FEA655C00F0E2804FEA5454D4EBC8
:1064F8005555B8BF6D420CDD2C4480EA020281EA92
:10650800030382EA000083EA010180EA020281EAC9
:106518000303362D88BF30BD11F0004F4FEA01311B
:106528004FF4801C4CEA113102D0404261EB41012A
:1065380013F0004F4FEA03334CEA133302D05242B0
:1065480063EB430394EA050F00F0A780A4F101046C
:10655800D5F1200E0DDB02FA0EFC22FA05F28018A6
:1065680041F1000103FA0EF2801843FA05F359418C
:106578000EE0A5F120050EF1200E012A03FA0EFC0B
:1065880028BF4CF0020C43FA05F3C01851EBE37135
:1065980001F0004507D54FF0000EDCF1000C7EEB52
:1065A80000006EEB0101B1F5801F1BD3B1F5001F90
:1065B8000CD349085FEA30004FEA3C0C04F10104AF
:1065C8004FEA445212F5800F80F09A80BCF1004FD8
:1065D80008BF5FEA500C50F1000041EB045141EA5A
:1065E800050130BD5FEA4C0C404141EB010111F45B
:1065F800801FA4F10104E9D191F0000F04BF014606
:106608000020B1FA81F308BF2033A3F10B03B3F1E3
:1066180020020CDA0C3208DD02F1140CC2F10C0273
:1066280001FA0CF021FA02F10CE002F11402D8BFD1
:10663800C2F1200C01FA02F120FA0CFCDCBF41EA9D
:106648000C019040E41AA2BF01EB0451294330BD6C
:106658006FEA04041F3C1CDA0C340EDC04F1140449
:10666800C4F1200220FA04F001FA02F340EA030020
:1066780021FA04F345EA030130BDC4F10C04C4F166
:10668800200220FA02F001FA04F340EA0300294646
:1066980030BD21FA04F0294630BD94F0000F83F490
:1066A800801306BF81F480110134013D4EE77FEA73
:1066B800645C18BF7FEA655C29D094EA050F08BFBF
:1066C80090EA020F05D054EA000C04BF19461046A0
:1066D80030BD91EA030F1EBF0021002030BD5FEAE4
:1066E800545C05D14000494128BF41F0004130BD0C
:1066F80014F580043CBF01F5801130BD01F0004560
:1067080045F0FE4141F470014FF0000030BD7FEAD2
:10671800645C1ABF194610467FEA655C1CBF0B46CD
:10672800024650EA013406BF52EA033591EA030FE4
:1067380041F4002130BD00BF90F0000F04BF0021DC
:10674800704730B54FF4806404F132044FF000050F
:106758004FF0000150E700BF90F0000F04BF002188
:10676800704730B54FF4806404F1320410F00045EE
:1067780048BF40424FF000013EE700BF42004FEAE9
:10678800E2014FEA31014FEA02701FBF12F07F4366
:1067980093F07F4F81F06051704792F0000F14BF63
:1067A80093F07F4F704730B54FF4607401F00045A7
:1067B80021F0004120E700BF50EA010208BF7047FE
:1067C80030B54FF000050AE050EA010208BF7047F3
:1067D80030B511F0004502D5404261EB41014FF45C
:1067E800806404F132045FEA915C3FF4DCAE4FF060
:1067F80003025FEADC0C18BF03325FEADC0C18BF47
:10680800033202EBDC02C2F1200300FA03FC20FA97
:1068180002F001FA03FE40EA0E0021FA02F11444E4
:10682800C1E600BF70B54FF0FF0C4CF4E06C1CEAF9
:1068380011541DBF1CEA135594EA0C0F95EA0C0F6E
:1068480000F0DEF82C4481EA030621EA4C5123EAE1
:106858004C5350EA013518BF52EA033541F4801110
:1068680043F4801338D0A0FB02CE4FF00005E1FBC3
:1068780002E506F00042E0FB03E54FF00006E1FB0D
:1068880003569CF0000F18BF4EF0010EA4F1FF0450
:10689800B6F5007F64F5407404D25FEA4E0E6D4190
:1068A80046EB060642EAC62141EA55514FEAC520A1
:1068B80040EA5E504FEACE2EB4F1FD0C88BFBCF51D
:1068C800E06F1ED8BEF1004F08BF5FEA500E50F1CE
:1068D800000041EB045170BD06F0004646EA010194
:1068E80040EA020081EA0301B4EB5C04C2BFD4EBC6
:1068F8000C0541EA045170BD41F480114FF0000EBF
:10690800013C00F3AB8014F1360FDEBF002001F02C
:10691800004170BDC4F10004203C35DA0C341BDCA6
:1069280004F11404C4F1200500FA05F320FA04F078
:1069380001FA05F240EA020001F0004221F00041AC
:1069480010EBD37021FA04F642EB06015EEA430E1F
:1069580008BF20EAD37070BDC4F10C04C4F120054F
:1069680000FA04F320FA05F001FA04F240EA020002
:1069780001F0004110EBD37041F100015EEA430ED3
:1069880008BF20EAD37070BDC4F1200500FA05F2F3
:106998004EEA020E20FA04F301FA05F243EA020372
:1069A80021FA04F001F0004121FA04F220EA020081
:1069B80000EBD3705EEA430E08BF20EAD37070BDC7
:1069C80094F0000F0FD101F00046400041EB0101A7
:1069D80011F4801F08BF013CF7D041EA060195F089
:1069E800000F18BF704703F00046520043EB030343
:1069F80013F4801F08BF013DF7D043EA0603704730
:106A080094EA0C0F0CEA135518BF95EA0C0F0CD03A
:106A180050EA410618BF52EA4306D1D181EA030180
:106A280001F000414FF0000070BD50EA410606BF7A
:106A38001046194652EA430619D094EA0C0F02D1BF
:106A480050EA013613D195EA0C0F05D152EA033604
:106A58001CBF104619460AD181EA030101F0004122
:106A680041F0FE4141F470014FF0000070BD41F06B
:106A7800FE4141F4780170BD70B54FF0FF0C4CF445
:106A8800E06C1CEA11541DBF1CEA135594EA0C0F64
:106A980095EA0C0F00F0A7F8A4EB050481EA030EB1
:106AA80052EA03354FEA013100F088804FEA033398
:106AB8004FF0805545EA131343EA12634FEA022266
:106AC80045EA111545EA10654FEA00260EF0004127
:106AD8009D4208BF964244F1FD0404F5407402D279
:106AE8005B084FEA3202B61A65EB03055B084FEA0A
:106AF80032024FF480104FF4002CB6EB020E75EB07
:106B0800030E22BFB61A754640EA0C005B084FEA2E
:106B18003202B6EB020E75EB030E22BFB61A7546AB
:106B280040EA5C005B084FEA3202B6EB020E75EBF6
:106B3800030E22BFB61A754640EA9C005B084FEA6E
:106B48003202B6EB020E75EB030E22BFB61A75467B
:106B580040EADC0055EA060E18D04FEA051545EA6A
:106B680016754FEA06164FEAC30343EA52734FEA13
:106B7800C2025FEA1C1CC0D111F4801F0BD141EA8C
:106B880000014FF000004FF0004CB6E711F4801FF1
:106B980004BF01430020B4F1FD0C88BFBCF5E06FD1
:106BA8003FF6AFAEB5EB030C04BFB6EB020C5FEAE1
:106BB800500C50F1000041EB045170BD0EF0004E36
:106BC8004EEA113114EB5C04C2BFD4EB0C0541EA68
:106BD800045170BD41F480114FF0000E013C90E665
:106BE80045EA060E8DE60CEA135594EA0C0F08BF29
:106BF80095EA0C0F3FF43BAF94EA0C0F0AD150EA28
:106C080001347FF434AF95EA0C0F7FF425AF1046BA
:106C180019462CE795EA0C0F06D152EA03353FF4E2
:106C2800FDAE1046194622E750EA410618BF52EA5F
:106C380043067FF4C5AE50EA41047FF40DAF52EA33
:106C480043057FF4EBAE12E74FEA4102B2F1E043AD
:106C580024BFB3F5001CDCF1FE5C0DD901F0004C3B
:106C68004FEAC0024CEA5070B2F1004F40EB83008B
:106C780008BF20F00100704711F0804F21D113F1B7
:106C88003872BCBF01F00040704741F480114FEAF0
:106C98005252C2F11802C2F1200C10FA0CF320FA79
:106CA80002F018BF40F001004FEAC1234FEAD32396
:106CB80003FA0CFC40EA0C0023FA02F34FEA430300
:106CC800CCE77FEA625307D150EA01331EBF4FF089
:106CD800FE4040F44000704701F0004040F0FE40A4
:106CE80040F40000704700BF10B5054C13462CB1A6
:106CF8000A4601460220AFF3008010BD204610BDB1
:106D08000000000038B5074B1C68E36B05461BB94B
:106D18002420FEF767F8E063E16B2846BDE83840B9
:106D280000F002B8BCE203202DE9F0410C46804691
:106D380000F062FC21460746404600F061FC4669C7
:106D480006F26C76B307044605D1642296FBF2F38B
:106D580002FB13634BB94FF4C87596FBF5F305FBBB
:106D68001365B5FA85F35B0900E001235F4A302516
:106D780005FB032500F074FA00F074FA5C4B1B68FD
:106D8800F3B17B689E4205D13968D8F80030FA69BA
:106D980041B90AE0304600F0BBF90028F4D14FF0C1
:106DA800FF330DE0934208DB01E0934207DABA6B48
:106DB8009342ACBF0023012302E0002300E001233B
:106DC8002362236A012B0CBFF96B396A4FF46163A4
:106DD8003C2091FBF3F603FB1613616893FBF0F27A
:106DE80000FB12302368891AA26861601B1A921B83
:106DF8003B2B2360A26003DD013161603C3B04E072
:106E0800002B03DA013961603C33236063683B2B54
:106E180003DD0132A2603C3B04E0002B03DA013AB7
:106E2800A2603C336360A368172B22DDE26901325C
:106E3800E261A2690132062AC8BF0022A261E268A3
:106E4800183B0132A3602369E26055F823108A4297
:106E580046DD01330C2B0CBF63692361A2EB0102F1
:106E6800E26001BF013300222261636108BFE26171
:106E780036E0002B34DAE269013AE261A269013AAC
:106E880048BF0622A261E2681833013AE260A360B3
:106E980032BB2369013B01D423611DE00B2323612D
:106EA80063695A1E12F0030F626103F26B7305D116
:106EB800642193FBF1F201FB12324AB94FF4C87115
:106EC80093FBF1F201FB1233B3FA83F35B0900E0A1
:106ED800012303F5B673E361236955F82330E360B2
:106EE80000F0BFF92046BDE8F08100BFDC7B0D0053
:106EF800E4E7032010B5431E0A44914204D011F878
:106F0800014B03F8014FF8E710BD024403469342D2
:106F180002D003F8011BFAE77047000038B5124B9E
:106F28001C68A36B0546D3B91820FDF75BFF43F235
:106F38000E33A06303804AF6CD33438041F23423F5
:106F480083804EF26D63C3804DF6EC6303810523A5
:106F580043810B23838101220023C0E90423A36B0F
:106F680000221D615A6138BDBCE2032010F8012BD4
:106F780011F8013B012A28BF9A42F7D0D01A70476E
:106F8800034611F8012B03F8012B002AF9D17047A9
:106F9800024B0146186800F003B800BFBCE20320AA
:106FA80070B5064608460C4600F00DF8451C294603
:106FB8003046FDF747FF064618B12A462146FFF737
:106FC80099FF304670BD034613F8012B002AFBD108
:106FD800181A0138704730B582B1451E013915F8C5
:106FE800013F11F8014FA34206D1EC431444E0429B
:106FF80001D0002BF3D11C46181B30BD104630BD04
:107008002DE9F04780463C48D0F800900E463546BA
:1070180015F8014B09EB0400407800F0080000F077
:10702800FF0708B12E46F2E72D2C03D1B51C747862
:10703800012703E02B2C04BF7478B51C13B1102B67
:107048000AD153E0302C4FD1287800F0DF005828BF
:1070580045D16C78102302354FF0FF3C0026BCFB6D
:10706800F3FC03FB0CFA6FEA0A0A304609EB040E3C
:107078009EF801E01EF0040F01D0303C0BE01EF03A
:10708800030E1AD0BEF1010F0CBF4FF0370E4FF0B0
:10709800570ECEEB0404A3420FDD002E08DB60453B
:1070A80006D801D1544503DC03FB0040012601E06A
:1070B8004FF0FF3615F8014BD8E7002E07DA2223E8
:1070C800C8F800304FF0FF302AB9BDE8F08707B1A3
:1070D800404272B106B1691E1160BDE8F0873024E4
:1070E800002BB9D10823B7E70A23B5E7302CABD07A
:1070F800B2E7BDE8F08700BF58E2032013460A460E
:10710800014602480068FFF77BBF00BFBCE20320CE
:107118002DE9F74F044600F06FFA40F2B1739C4234
:1071280040F396806FF4F663E318A4F2B2729B10F2
:1071380040F26D1505FB0235A4F26D726FF0630322
:1071480092FBF3F36FF4C8622B44A5184FF4C8728E
:1071580095FBF2F51D44642394FBF2F794FBF3F6D8
:1071680002FB174703FB164600F13803B7FA87FE00
:10717800019304F0030344604FEA5E1E0146009346
:107188004FF0070C0B7A4A2B0ED14B69009AEC187A
:1071980002B906B927B93B2BD4BF0023012300E06D
:1071A80000232344013B3FE0442B02D14B692B448D
:1071B8003AE0009B2BB9002E0CBFF0464FF00108B7
:1071C80000E0F046244BCC68302202FB0838A8F1D6
:1071D800040AA9460123A34204DA5AF804BF01337A
:1071E800D944F8E709F1040393FBFCFBCBEBCB0A8A
:1071F800012CCAEB030A4B69B8BF012404F180448F
:10720800B3EB0A0A0B6904F1FF3403F1FF3348BFFB
:107218000AF1070AC3EBC30358F824405344A342B6
:1072280001DB073BFBE74B448C690C4A02FB034339
:107238000C6A234441F81C3F019B9942A2D1C369BF
:10724800826B9342ACBF002301230360012000E05E
:10725800002003B0BDE8F08FDC7B0D0080510100F9
:1072680070477047014B186800F002B8BCE2032071
:107278002DE9F04F8DB0074600F0BEF9B049B14E88
:107288000446384600F0B0F9054660B9AE4BAF4A3F
:107298001860AF4B1860AF4B30681A605A60FDF742
:1072A800A9FD356048E1316879B93068FDF7A2FD7C
:1072B8002846FFF788FE411C3846FDF7C3FD3060BD
:1072C80048B12946FFF75CFE05E0FFF74FFE0028AE
:1072D80000F03281E9E72B789F4AA0493A2B08BF92
:1072E80001350AAE33462846FDF794FD002840F3E1
:1072F80023810A9BEF18EB5C2D2B03D101374FF04C
:10730800FF3503E02B2B08BF013701250DF1200ABB
:107318000DF11E0B4FF000080396CDF808A001965A
:10732800CDF800B0334607AA8D49ADF81E8038461F
:10733800ADF82080FDF76EFD404540F3FD80BDF8B7
:107348001E20BDF82030DFF824923C2101FB0233D7
:10735800BDF81C204FF4616101FB02335D432562D7
:107368007C4D7D4B2B600A9B7C491F444A46334623
:107378003846FDF74FFD404508DC2B686B60724BC3
:10738800226A1A60724BC3F80080D5E00A9BC5F8E0
:107398000490FD18FB5C2D2B03D101354FF0FF370E
:1073A80003E02B2B08BF013501270023ADF81C3063
:1073B800ADF81E30ADF820300A930396CDF808A03A
:1073C8000196CDF800B0334607AA65492846FDF76F
:1073D80021FD002804DC236AA3F56163E3630EE062
:1073E800BDF81E20BDF820303C2101FB0233BDF85A
:1073F8001C204FF4616101FB02335F43E7630A9B82
:1074080027461D444FF000092B782C2B08BF013567
:1074180095F80080B8F14D0F26D10DF1260302939F
:1074280009AB00930396019633460DF122024D49AC
:107438002846FDF7EFFC03287ED1BDF822104B1E2D
:107448000B2B79D8BDF82420531E042B74D8BDF813
:107458002630062B70D887F80880F9603A617B617E
:107468000A9B05EB03082AE0B8F14A0F06BF01356D
:10747800434644230A220BA928460593FFF73EFEFC
:10748800DDF82C80ADF826004545059B14D14D2329
:10749800B9F1000F07D123720323E36002232361AC
:1074A800C4F814900BE084F824300B23A362012362
:1074B800E3620023236302E080B23B727861022317
:1074C800ADF81C300023ADF81E30ADF820300A931B
:1074D80098F800302F2B0BD10396CDF808A0019611
:1074E800CDF800B0334607AA1F494046FDF792FC85
:1074F800BDF81E20BDF820303C2101FB0233BDF849
:107508001C204FF4616101FB0233BB610A9D09F144
:107518000109B9F1020F454407F11C077FF474AF64
:107528006068FFF7F5FD084B226A1A60E36B9B1A47
:10753800074A18BF012313600DB0BDE8F08F00BFE4
:107548003C7C0D00E0E70320E8E703203F7C0D00CA
:10755800E4E70320C0E20320D3E70320437C0D00C7
:10756800667C0D00527C0D00657C0D00C8E7032089
:107578002DE9F84F07468B46904600F0D9F8194B8D
:107588001D689A463DB15C46234613F8012B42B16B
:107598003D2A1C46F8D1384600F0CBF80020BDE85B
:1075A800F88FCBEB0404A94659F8040B0028F2D055
:1075B80022465946FFF70FFD88B959F8043C1E19B1
:1075C8001B5D3D2B0BD1DAF80030ED1AAD103846B3
:1075D800C8F8005000F0ADF8701CBDE8F88F4D46B3
:1075E800E1E700BF08E3032007B501AAFFF7C0FFE2
:1075F80003B05DF804FB000000487047C8E20320B0
:107608000268474BF0B592FBF3F403FB1422002AFF
:10761800BCBF02F5A83202F5C0724FF4616004F5F0
:107628002F2492FBF0F300FB13224FF03C00ACBF79
:1076380004F66C2404F66B248B6092FBF0F300FBD9
:1076480013224B600A600723E21C92FBF3F3C3EB9F
:10765800C303D31A8B61334B334D94FBF5F503FB0E
:10766800054448F6AC62B4FBF2F2224440F2B45747
:10767800B4FBF7F3D21A2D48B4FBF0F048F6946641
:10768800131AB3FBF6F6344440F26D12B3FBF2F072
:10769800B3FBF7F3E31A02FB1033992403EB8302DD
:1076A8000232B2FBF4F20A2A04FB02F404F10206E5
:1076B8004FF00504B6FBF4F434BF02266FF0090658
:1076C80016444FF4C87202FB05055F1C012E98BFD3
:1076D8000135B3F5997FA7EB040702D3A3F5997297
:1076E80014E0820705D16424B0FBF4F204FB120213
:1076F8004AB94FF4C872B0FBF2F402FB1400B0FAB6
:1077080080F2520900E001223B331A44A5F26C755D
:107718000023CA614D610E61CF600B620846F0BD5F
:10772800805101004FC5FDFFB13A0200B03A020096
:10773800704770471D400D0059400D0085400D00F1
:1077480089400D00000000006F6E00252E30662570
:10775800250025332E316620560025332E3166202C
:107768004465677265657320430054656D70657282
:1077780061747572650063656C7369757300526531
:107788006C65617365005369676E616C0042617472
:107798007465727900766572626F73654D6F6465A2
:1077A80000312E303600000000000000000000000C
:1077B8008B4E0D00914E0D00BB4E0D009F4E0D00DF
:1077C8008D4E0D000000000000000000BF540D00A9
:1077D800B5540D00AB540D00A1540D0095540D0087
:1077E80089540D007D540D0075540D006B540D0027
:1077F80061540D0025580D00000000000000000035
:10780800DD540D0027550D00FF540D00DF540D0009
:1078180007550D000F550D0017550D001F550D008C
:10782800000000000000000079550D0069550D00AA
:107838006B550D0066006C6E00666E00636F6465C4
:107848000064657461696C000D0A0025303130757B
:1078580020005D20002564002C200028293A200003
:10786800205B00636F6465203D2000256900646526
:107878007461696C73203D20006261756400536512
:107888007269616C0053657269616C31007479705A
:107898006500706172616D00636D64006964006801
:1078A8006E64007374726D0066696C74006C766C3B
:1078B8000061646448616E646C65720072656D6F26
:1078C800766548616E646C657200656E756D4861B9
:1078D8006E646C657273004A534F4E5374726561DF
:1078E8006D4C6F6748616E646C6572006170700002
:1078F8006E6F6E6500747261636500696E666F0015
:107908007761726E006572726F720070616E696382
:1079180000616C6C00000000000000000000000026
:10792800BB560D00B1560D00A7560D009D560D0013
:1079380091560D0085560D0079560D0071560D00B3
:1079480067560D005D560D0025580D00000000001B
:1079580000000000BD570D00C7570D00D1570D009E
:10796800DB570D00E5570D00F1570D00FD570D00D1
:1079780009580D0011580D001B580D0025580D0011
:107988000000000000000000DD590D00DF590D0067
:10799800252B3033643A253032750025592D256D55
:1079A8002D25645425483A254D3A2553257A0061FA
:1079B800736374696D65000000000000000000003A
:1079C800255C0D00755C0D00835C0D0005590D00EC
:1079D800395C0D005B5C0D00475C0D006F5C0D00B1
:1079E800275C0D002B5C0D0000000000000000006B
:1079F8002D5D0D007D5D0D008B5D0D0005590D00A1
:107A0800695D0D002F5D0D00455D0D00775D0D0072
:107A18005B5D0D00295D0D00000000000000000006
:107A2800FD5E0D00F35E0D00E95E0D00915E0D0038
:107A3800DD5E0D00D15E0D00C55E0D00BD5E0D0062
:107A4800B35E0D00A95E0D0025580D000000000072
:107A580000000000315E0D009B5E0D00335E0D00DE
:107A68003D5F0D00395E0D00095F0D00655E0D007C
:107A780000202020202020202020282828282820F6
:107A880020202020202020202020202020202020EE
:107A98002088101010101010101010101010101056
:107AA8001004040404040404040404101010101046
:107AB8001010414141414141010101010101010110
:107AC8000101010101010101010101011010101062
:107AD80010104242424242420202020202020202E2
:107AE8000202020202020202020202021010101036
:107AF800200000000000000000000000000000005E
:107B0800000000000000000000000000000000006D
:107B1800000000000000000000000000000000005D
:107B2800000000000000000000000000000000004D
:107B3800000000000000000000000000000000003D
:107B4800000000000000000000000000000000002D
:107B5800000000000000000000000000000000001D
:107B6800000000000000000000000000000000000D
:107B780000000000000000000000000000000000FD
:107B880000000000000000000000000000000000ED
:107B980000000000000000000000000000000000DD
:107BA80000000000000000000000000000000000CD
:107BB80000000000000000000000000000000000BD
:107BC80000000000000000000000000000000000AD
:107BD800000000001F0000001C0000001F00000043
:107BE8001E0000001F0000001E0000001F00000013
:107BF8001F0000001E0000001F0000001E00000003
:107C08001F0000001F0000001D0000001F000000F2
:107C18001E0000001F0000001E0000001F000000E2
:107C28001F0000001E0000001F0000001E000000D2
:107C38001F000000545A00474D54002531305B5E48
:107C4800302D392C2B2D5D256E004D256875256E40
:107C58002E256875256E2E256875256E002F2568DA
:107C680075256E3A256875256E3A256875256E0066
:107C78000D430D00A3450D0085490D00C9540D00A5
:107C88004D560D0071570D00F1580D00C1590D00EA
:107C9800155B0D00115C0D0015600D00D5610D0020
:107CA8002D620D00F1620D0075630D00F9630D0082
:087CB8000000000000000000C4
:107CC000B7790D00787A0D00000000007C7B0D0074
:107CD0009C7B0D00BC7B0D0000000000000000003C
:107CE000000000000000000070770D0000000000A0
:107CF0000000000000000000000000000000000084
:107D00000000000000000000000000000000000073
:107D10000000000000000000000000000000000063
:107D200000000000000000005CE203203F7C0D002A
:107D30003F7C0D0001000000000000004A00000030
:107D40000000000000000000000000000000000033
:107D500000000000000000004A00000000000000D9
:107D60000000000000000000000000000000000013
:087D700000000000ECE7032015
:107D7800FFFFFFFF00000102030405060708090AC8
:107D88000B0C0D0E0F101112131415161718191AC3
:087D98001B1C1D1E1F2028000A
:047DA00078563412CB
:04000003D0004018D1
:00000001FF
