:02000002D0002C
:1040000000400D00D8710D00000006000C000501F5
:0840100004014E040000000051
:10401800C06D0D0009480A49884208B505D0094A0B
:10402800824202D0121A02F067FE0748074A0021AE
:10403800121A02F06CFE014808BD00BF30E30320ED
:1040480048710D0098E3032098E30320F0E703206C
:1040580070B501F0EFFD074C074BE41AA4080025E2
:104068001E46A54204D056F8253098470135F8E792
:1040780070BD00BF3C710D00F8700D0000F015B860
:1040880008B500F029F8BDE8084001F0A1BD00F02E
:104098008DBD00F093BD00F091BD0078B0FA80F0BE
:1040A80040097047012303707047704738B50468AA
:1040B80005467CB16368013B63605BB923682046B1
:1040C8009B689847A368013BA3601BB923682046F7
:1040D800DB689847284638BD10B51A4888B000F004
:1040E8005FF960B31748184C00F07EF9062104A860
:1040F80001F0D2FB2378049A14498DF8003002A805
:104108003C2300F0CFFE03A8FFF7D0FF04A801F07E
:104118006BFB0C4800F06CF9062104A801F0BCFB0D
:1041280023788DF80030049A09493C2302A800F04E
:10413800B9FE03A8FFF7BAFF04A801F055FB08B0C1
:1041480010BD00BF9CE30320C8E30320D46D0D001D
:10415800E06D0D0008B5064B01221A7000F09AFBBD
:10416800002204210348BDE8084000F018B800BF49
:10417800C8E303209CE3032000F08CBB002300224B
:10418800438242618361C3610362436280F82830DD
:1041980080F8293080F82A3080F82B30704738B5FD
:1041A8000446154600F0AEF94FF47A732046A5731D
:1041B8002382FFF7E3FF204638BD0000F8B52DED58
:1041C800028B0B68836100F118054B686B600B78F4
:1041D800222B04460AD003D8102B42D1012308E031
:1041E800262B05D0282B3CD1022302E0032300E034
:1041F800042384F82930204600F08EF92946204609
:1042080000F04AFAA27B4421204600F012FA208AE4
:1042180000F0F4FC204600F07FF92946204600F023
:104228003BFA0022B821204600F003FA002211468A
:10423800204600F0FEF9204600F06EF92946204697
:1042480000F02AFA0022BE21204600F0F2F994F884
:104258002930042B09D100221146204600F0E9F943
:1042680003E0002084F8290094E004F11F0504F11C
:104278002806204600F000FA05F8010FAE42F8D1F2
:10428800082104F1200000F0A0FA94F828308342B5
:1042980004D0012384F82B3000207BE094F82120FF
:1042A80094F8203094F8291043EA02230429638201
:1042B80027D194F8223007EE903A42EA0321D20837
:1042C800F8EE678A07EE902A13F0800F618284F86F
:1042D8002120B8EE678A45D018EE900A01F0F0FF69
:1042E800064618EE100A0F4601F0EAFF00222B4B93
:1042F80002F03AF802460B463046394601F080FE95
:1043080044E0012903D044D3032910D941E0B4F98A
:10431800123094F82720DB00102A638219D194F810
:10432800262023F00F03C2F10C02134410E094F886
:10433800242012F0600202D123F0070308E0202AAB
:1043480002D123F0030303E0402A02D123F0010342
:104358006382B4F9123007EE903AFAEECE7AC4EDE1
:10436800057A16E018EE100A01F0AAFF00220B4B9E
:1043780001F0FAFF064618EE900A0F4601F0A0FF7A
:1043880002460B463046394601F03CFE02F0A6FADA
:1043980060610120BDEC028BF8BD00BF0000A03FAA
:1043A80038B50446FFF7EAFE00F11805294600F083
:1043B80091F930B9012384F82A30204600F07EF9BB
:1043C80010E00721284600F000FAE37F834203D07B
:1043D800012384F82B3005E029462046BDE8384003
:1043E800FFF7ECBE002038BD90ED050A70470000CD
:1043F80008B5406901F064FF08A3D3E9002301F080
:10440800B3FF0022044B01F0FDFD02F067FA00EE55
:10441800100A08BDAFF3008000004040CDCCCCCCE2
:10442800CCCCFC3F00F036BA10B503682F2B0446FD
:1044380004D9074A00210A2000F01CFB23681F2B1F
:1044480083BF03F01F03236002484FF0A04010BD54
:104458007D480D000003005007B50B4B1B68000199
:1044680019181A5C4B7802A803F01F0343EA421399
:1044780040F8043DFFF7D8FF019A01239340C0F8A4
:104488000C3503B05DF804FBCCE3032007B50B4BF8
:104498001B68000119181A5C4B7802A803F01F0367
:1044A80043EA421340F8043DFFF7BEFF019A012397
:1044B8009340C0F8083503B05DF804FBCCE3032053
:1044C80013B50F4B1B6800011A181C5C537802A81F
:1044D80003F01F0343EA441440F8044DFFF7A4FF18
:1044E800D0F8103502A840F8084DFFF79DFFD0F826
:1044F8001035009823FA00F000F0010002B010BD5A
:10450800CCE3032038B504460D462846002101F0C7
:10451800CFFB2580204638BD38B5054600F0A6FEFD
:104528000021288800F0BEF900F0A2FE7D24013C9D
:1045380014F0FF042BD0022000F09CF92888FFF724
:10454800BFFF0028F3D000F091FE2888FFF784FF12
:104558000121288800F0A6F900F08AFE4FF4F070D7
:1045680000F088F900F082FE0021288800F09AF90E
:10457800462000F07FF92888FFF7A2FFB0FA80F400
:1045880000F076FE4FF4CD70640900F073F9204610
:1045980038BD38B511F00105044613D000F066FEA9
:1045A8002088FFF759FF0121208800F07BF90A20B5
:1045B80000F060F92088002100F074F900F058FE3E
:1045C800372012E000F052FE2088FFF745FF012156
:1045D800208800F067F9412000F04CF9208829462E
:1045E80000F060F900F044FE0520BDE8384000F016
:1045F80041B910B5044600F039FE2088FFF72CFFBA
:104608000121208800F04EF9032000F033F9002141
:10461800208800F047F90A2000F02CF92088FFF7DD
:104628004FFF044600F024FE352000F023F9204611
:1046380010BD2DE9F0410546884617460826012495
:1046480018EA040F14BF012100212846FFF7A1FF33
:104658006400013EE4B2F3D167B100F007FE288898
:10466800FFF714FF2888012100F01CF9BDE8F0418C
:1046780000F0FEBDBDE8F081F8B507460826002524
:1046880001243846FFF7B5FF00B125436400013E19
:10469800E4B2F6D12846F8BD70B500220C46552183
:1046A8000646FFF7C6FF651E073415F8011F0022EE
:1046B8003046FFF7BEFFA542F7D170BD00238372D5
:1046C8000373C37200F10A02023002F8013D82420C
:1046D800FBD170472DE9F047057B04468846002D3D
:1046E8005ED1FFF719FF20B9A0722073E072BDE810
:1046F800F0872A46F0212046FFF79BFF0126AA46AD
:1047080037462046FFF775FF81462046FFF771FFC1
:10471800B9F1010F02D101281BD137E0814504EB23
:1047280005031ED1A27A974207D29A78164214BF7F
:104738004FF001094FF0000904E00CBF4FF00109E8
:104748004FF00009B9F1000F03D1082F08D8E7721C
:1047580006E062194FF0010993783343937004E03F
:10476800BA469A7822EA06029A70494620467600A6
:10477800FFF70FFF16F0FF0604BF0135EDB207F192
:10478800010708BF0126072DFFB2BAD9402F07D964
:1047980084F80AA0BAF1000F12D1012323730FE0A5
:1047A8000020A0722073E072631C08F1FF380934FE
:1047B80013F8012F08F8012FA342F9D1BDE8F087BB
:1047C800A378002BECD00120EEE730B50546002099
:1047D8000139C9B2FF2913D015F8014B082280EA24
:1047E800040313F0010F4FEA50001CBF80F08C0344
:1047F800D8B2531E13F0FF024FEA5404EFD1E7E793
:1048080030BD000008B500F045F8014B186008BD40
:10481800CCE3032008B5024B1B689B68019308BDD5
:104828004802030008B5024B1B681B69019308BDC9
:104838004802030008B5024B1B685B69019308BD79
:104848004802030008B5024B1B681B6B019308BDA7
:104858004802030008B5024B1B685B6C019308BD56
:104868004802030008B5024B1B685B68019308BD4A
:104878001802030008B5024B1B68DB68019308BDEA
:104888001802030008B5024B1B685B69019308BD59
:104898001802030008B5024B1B681B68019308BD8A
:1048A8002C02030008B5024B1B689B68019308BDE6
:1048B8002C02030008B5024B1B681B6A019308BD54
:1048C8002C02030008B5024B1B685B6A019308BD04
:1048D8002C02030008B5024B1B681B6A019308BD34
:1048E8002802030008B5024B1B685B6A019308BDE8
:1048F8002802030008B5024B1B689B6A019308BD98
:104908002802030008B5024B1B68DB6A019308BD47
:104918002802030008B5024B1B681B6B019308BDF6
:104928002802030008B5024B1B685B6B019308BDA6
:104938002802030008B5024B1B681B6C019308BDD5
:104948002802030008B5024B1B685B69019308BD88
:104958006402030008B5024B1B689B68019308BDFD
:104968006802030008B5024B1B68DB68019308BDA9
:104978006802030008B5024B1B68DB69019308BD98
:104988003002030008B5024B1B681B6A019308BD7F
:104998003002030008B5024B1B681B68019308BD71
:1049A8003C02030008B5024B1B68DB68019308BD95
:1049B8003C02030008B5024B1B681B69019308BD44
:1049C8003C02030008B5024B1B685B69019308BDF4
:1049D8003C02030008B5024B1B689B69019308BDA4
:1049E8003C02030008B5024B1B68DB69019308BD54
:1049F8003C02030008B5024B1B681B6A019308BD03
:104A08003C02030008B5024B1B689B6A019308BD72
:104A18003C02030008B5024B1B681B68019308BDE4
:104A28004C02030008B5024B1B681B69019308BDC3
:104A38004C02030008B5024B1B685B69019308BD73
:104A48004C02030008B5024B1B689B69019308BD23
:104A58004C02030008B5024B1B68DB69019308BDD3
:104A68004C02030008B5024B1B681B6A019308BD82
:104A78004C02030008B5024B1B685B6B019308BD31
:104A88006002030008B5024B1B685B68019308BD10
:104A98002002030008B5024B1B685B69019308BD3F
:104AA8002002030008B5024B1B68DB6C019308BDAC
:104AB8002002030008B5024B1B685B6D019308BD1B
:104AC8002002030008B5034B1B68D3F88830019314
:104AD80008BD00002002030008B5034B1B68D3F88B
:104AE8009430019308BD00002002030008B5024B72
:104AF8001B681B6A019308BD4402030008B5024BFA
:104B08001B68DB6B019308BD4402030008B5024B28
:104B18001B685B68019308BD4002030008B5024B9F
:104B28001B689B68019308BD4002030008B5024B4F
:104B38001B68DB68019308BD4002030008B5024BFF
:104B48001B681B69019308BD4002030008B5024BAE
:104B58001B685B69019308BD4002030008B5024B5E
:104B68001B689B69019308BD4002030008B5024B0E
:104B78001B68DB69019308BD4002030008B5024BBE
:104B88001B681B6A019308BD4002030008B5024B6D
:104B98001B681B6B019308BD4002030008B5024B5C
:104BA8001B685B6B019308BD4002030008B5024B0C
:104BB8001B681B68019308BD1C02030008B5024B63
:104BC8001B685B68019308BD1C02030008B5024B13
:104BD8001B689B68019308BD1C02030008B5024BC3
:104BE8001B68DB6A019308BD1C02030008B5024B71
:104BF8001B681B6B019308BD1C0203000021FFF713
:104C080049BF10B5836804460BB901F0AAF8C36818
:104C18009847A3681BB1032221462046984720469F
:104C2800BDE81040FFF735BA70470020704710B54F
:104C38000446FFF72EFA204610BD08B508B1FFF765
:104C4800F6FF08BD10B58368044613B10322014678
:104C58009847204610BD38B5C468D4B12378022BD4
:104C680002D1E068FFF7AAFF65682DB12846FFF773
:104C7800E9FF2846FFF70DFAA5682DB12846FFF78A
:104C8800E1FF2846FFF705FA2046BDE83840FFF760
:104C980000BA38BD13B5044691E8050000234B60FF
:104CA8000B602060626001A801930093FFF7FEF992
:104CB800204602B010BD0B68036013B15A68013278
:104CC8005A607047F7B50C4602AD54F8043B45F8F6
:104CD800083D06460F4601A82146FFF7ECFF294686
:104CE8003046FFF7D7FF01A8FFF7E0F92046FFF7A6
:104CF800DDF93846FFF7CDF9304603B0F0BD13B5FE
:104D08000B46044603C88DE8030093E8030084E8D3
:104D180003009DE8030083E8030002B010BD826829
:104D280010B50AB901F01DF8C368BDE8104018476E
:104D380008B5006800F11001FFF7F1FF08BD8268AF
:104D480010B50AB901F00DF8C368BDE8104018475E
:104D580008B5006800F11001FFF7F1FF08BD38B58C
:104D6800002383608B6804460D462BB102229847C6
:104D7800EB68E360AB68A360204638BD2DE9F041DD
:104D88004FF69C7386B00468B1F904208B80002329
:104D98000F688DF800300B604FF00200D4E84F1F09
:104DA800994203D1C4E8450F002DF7D102D08DF800
:104DB80000106AE014F10C051EBFE76022821F464E
:104DC8000123BFF35F8F0020637004F10803BFF372
:104DD8005F8F53E8006F43E80002002AF9D1BFF360
:104DE8005F8F002E51D0FFF75DFE20B12946304677
:104DF800FFF795FF43E031466846FFF7B0FFE068EC
:104E0800B4F9105008B101F0B3FF04901020ADF8C8
:104E18001450FFF73CF9054630B34FF00008C0F8CE
:104E280008801820FFF733F90446C0B1C0F808809D
:104E380001466846FFF763FF029BA268A360039BD5
:104E48000292E268E360BDF81430A3824FF69C73C7
:104E5800ADF81430049B03922361CDF810800E4BFB
:104E6800EB600E4B2C60AB600498FFF7A7FE68461A
:104E7800FFF7E8FE002229460948FFF71BFE3046E7
:104E8800FFF7E0FE3046FFF704F93846FFF796FED5
:104E980006B0BDE8F08100BF394D0D00954F0D00FB
:104EA8000B4C0D002DE9F04F8BB007AD4FF0000B08
:104EB8000646994614200C230F4690469DF850A0AC
:104EC800C5F804B0C5F808B00793FFF7E0F8044642
:104ED80038B180F800B080F801B0C0F804B0C0F86C
:104EE80008B00023102003940493FFF7D0F828B1EA
:104EF800012343608360234B0360C4600490224B0A
:104F080008930820FFF7C3F8044628B1039B40F82C
:104F1800043B04A9FFF7CFFE00955FFA8AF34A46DF
:104F2800414638460994FFF7E1FDB8B9039B5B7821
:104F380003F0FF0293B94FF69C7305A903A80592E5
:104F4800ADF81830FFF71AFF0598FFF737FE05A8E8
:104F58000999FFF7B7FE06A8FFF7A8F8039B059382
:104F680004A906A8FFF7A7FE05A93046FFF792FE99
:104F780006A8FFF79BF804A8FFF798F830460BB08F
:104F8800BDE8F08FF46D0D00FD500D00022AF8B554
:104F9800044606D0032A17D0012A20D10B680360E3
:104FA8001DE018200E68FFF772F8054650B131462B
:104FB800FFF7D5FE3069B6F9147008B101F0D8FED4
:104FC8002861AF8225600AE0046844B12069FFF7D0
:104FD800F5FD2046FFF736FE2046FFF75AF8002079
:104FE800F8BD38B5002383608B6804460D462BB1A5
:104FF80002229847EB68E360AB68A360204638BD9F
:10500800022A70B5044606D0032A11D0012A17D106
:105018000B68036014E014200E68FFF738F80546A3
:1050280020B13146FFF7DDFF337C2B74256007E0A4
:1050380004682CB12046FFF705FE2046FFF729F843
:10504800002070BDF0B5002387B00C46BFF35F8F1A
:1050580050E8006F40E80032002AF9D1BFF35F8FB3
:10506800002E3ED01846FFF71DFD074620B1214609
:105078003046FFF764FE2EE0314601A8FFF7B1FF86
:1050880023788DF814301020FFF701F80546D0B1C9
:1050980087601420FEF7FBFF044678B1876001465D
:1050A80001A8FFF72CFE039BA268A360049B039250
:1050B800E268E3609DF81430049223740A4BEB60B5
:1050C8000A4B2C60AB6001A8FFF7BCFD0022294603
:1050D8000748FFF7EFFC3046FFF7B4FD3046FEF710
:1050E800D8FF07B0F0BD00BF594D0D0009500D00A5
:1050F8000B4C0D0030B585B004460D466846114688
:10510800FFF7E0FD7CB124B228460DB101F030FE76
:10511800029002A96846ADF80C40FFF72FFE0298EE
:10512800FFF74CFD1DE000988DF808404FF0010294
:10513800D0E84F3FA34203D1C0E8412F0029F7D15F
:1051480002D08DF808300CE010F10C014FF001038B
:1051580018BF0373BFF35F8F043000F8033CFFF7F9
:1051680071FF01A8FEF7A2FF05B030BD002211466D
:105178004068FFF703BD002211464068FFF70EBDE7
:1051880000224068FFF702BD002281F0010140685B
:10519800FFF7ECBC00231A4619464068FFF7DEBC4F
:1051A80000231A4619464068FFF7D0BC0022114672
:1051B8004068FFF7C3BC002211464068FFF7AEBC49
:1051C800002202214068FFF7B1BC00231A4640685C
:1051D800FFF79CBC024B03225A60024A1A607047D0
:1051E800D0E30320106E0D007047F8B5064615464B
:1051F8000C468F18BC4206D0336814F8011B9B6814
:1052080030469847F6E72846F8BD0022007CFFF7AD
:1052180061BB0021007CFFF765BB0021007CFFF724
:1052280069BB0021007CFFF76DBB0021007CFFF704
:1052380071BB10B50446FEF72CFF204610BD0000D8
:1052480010B504464FF47A730846A3600021044B56
:10525800207461602360FFF76DFB204610BD00BF1E
:10526800446E0D000021007CFFF75CBBFFF72ABBF2
:10527800FFF720BB704710B50446FEF70AFF20462B
:1052880010BDF0B5037D062B8DB00E4600F1040766
:105298004FF0000402D000F1080518E00CAD3946C3
:1052A80005F8304D2F232A460A20FFF74BFB2846E6
:1052B80001F079FD33680246DB6829463046984795
:1052C8000FE024B12E21304600F0C4F9044415F84B
:1052D800011D0A22304600F0EDF9BD420444F0D128
:1052E80020460DB0F0BD000010B5054B0446112254
:1052F80040F8043B002101F00AFD204610BD00BF24
:105308006C6E0D000346074A10B543F8042B01F1F3
:10531800100251F8044B43F8044B9142F9D10A7832
:105328001A7010BD6C6E0D0010B59DF8084044EA67
:10533800032343EA024242EA016104234160037500
:1053480010BD37B50D788B784A78C9780091294611
:10535800FFF7EAFF03B030BD014B024A1A607047FD
:10536800D8E30320306F0D00002211464068FFF794
:1053780005BC002211464068FFF710BC00224068B7
:10538800FFF704BC002281F001014068FFF7EEBB83
:1053980000231A4619464068FFF7E0BB00231A4667
:1053A80019464068FFF7D2BB002211464068FFF754
:1053B800C5BB002211464068FFF7B0BB002202219E
:1053C8004068FFF7B3BB00231A464068FFF79EBB4F
:1053D80038B5054678B1046844B1A3681BB1032207
:1053E8002146204698472046FEF753FE2846BDE84A
:1053F8003840FEF74EBE38BD10B103685B681847E9
:10540800704710B503680446BBB15868FFF702FA45
:1054180078B923685A7C12B95868FFF703FA2368E9
:105428005868FFF707FA20680023236028B1FFF7C0
:10543800CFFF206808B1FFF7CBFF204610BD000062
:1054480038B50B4B03600446D0F8CC0108B1FEF721
:1054580022FED4F8C4512DB12846FFF7D2FF2846C2
:10546800FEF717FEA06808B1FFF7C6FF204638BD53
:10547800646F0D0038B50D4C0D4B236000250223D9
:1054880004F5E4706360A560C4F8C451C4F8C85159
:10549800FFF7E0F9074BC4F8CC5123602046064AD1
:1054A8000649BDE8384000F057BC00BFDCE30320E4
:1054B800986F0D00646F0D0098E3032049540D00A8
:1054C80000231A464068FFF721BB002202214068EA
:1054D800FFF72CBB002211464068FFF71FBB0022D4
:1054E80011464068FFF72ABB00231A461946406850
:1054F800FFF72CBB00231A4619464068FFF72EBB5E
:10550800002281F001014068FFF730BB00224068AB
:10551800FFF73CBB002211464068FFF73FBB002263
:1055280011464068FFF72ABB2DE9F043002495B0E7
:1055380016460D460746FFF7D7FE214620220CA83F
:10554800009401F0E4FB40230C9321466B460CAA1F
:105558003046FFF707FA0446002844D102460121E5
:105568006868FFF7EBFA0221804622466868FFF771
:10557800E5FA009E81462146002E34D0002932D11A
:105588007368022B02D00A2B09D02AE0B8F1000F69
:1055980027D0716938460431FFF7D3FE20E0B9F10E
:1055A800000F1ED07469112201A801F0B0FB062378
:1055B8008DF8143001AD04F10803183418685968DF
:1055C8002A4603C20833A3421546F7D101A906A803
:1055D80007ADFFF797FE0FCD3C1D0FC42B68237056
:1055E8000121F669C8E70098FFF7B4F9384615B005
:1055F800BDE8F083024B034A1A6000225A607047E4
:10560800ACE50320986F0D00F8B506460D468F18D7
:105618000024BD420CD0336815F8011B9B68304646
:105628009847002801DB0444F3E7002C08BF044630
:105638002046F8BD70B505460C46084649B101F04C
:10564800B2FB2B68024621462846DB68BDE870405D
:10565800184770BD03689B68184730B58BB00B4678
:1056680000218DF82410012A98BF0A220DF1230485
:10567800B3FBF2F505FB123303F0FF03092B94BFCC
:1056880030333733DBB2214604F801392B46002D7D
:10569800EED1FFF7CFFF0BB030BD10B42AB90368C5
:1056A8005DF8044B9B68C9B21847D2B25DF8044B49
:1056B800FFF7D3BFFFF7F1BF10B50446FFF7C2FAF3
:1056C800204610BD0348044A04490023836000F0C3
:1056D80043BB00BFB4E5032098E30320C1560D0087
:1056E800704710B50446FEF7D4FC204610BD0000F4
:1056F80070B5084B0360044600250E4640F80C5F61
:10570800FFF7A0F830462671FFF734F9A560204668
:1057180070BD00BFCC6F0D000079FFF733B90000F2
:105728002DE9F14F59EC108B07460E460022002355
:1057380010EE100A494601F089F828B109F1004332
:1057480099462D2333700136002301240A22D9B249
:105758008F4202D954430133F9E7204600F09EFDF9
:1057680042464B4600F000FE82468B4601F01EF989
:105778008046894600F0C2FD02460B46504659460F
:1057880000F03EFC0022174B01F074F818B118F134
:10579800010849F10009E51722462B4640464946CB
:1057A80001F0ECF801230A22314600F0CAF9AFB142
:1057B800304601F0F8FA2E233354013006442246CD
:1057C8002B464046494601F0D9F83B46104631463B
:1057D8000A2201B0BDE8F04F00F0B3B901B0BDE84E
:1057E800F08F00BF0000E03F10B504460068FFF7E7
:1057F800E5F9204610BD10B50446006808B1FFF76A
:10580800DDF900232360A360636010BD38B504464A
:105818000D4600680131FFF7D9F910B184E821007D
:10582800012038BD10B50368044613B143688B42A4
:1058380007D22046FFF7EAFF20B1A3680BB9226818
:105848001370012010BD70B50E461146044615466A
:10585800FFF7E8FF18B92046FFF7CDFF09E02A4611
:105868003146A560206801F047FA2268A368002144
:10587800D154204670BD38B505460C4641B108469E
:1058880001F091FA214602462846FFF7DCFF01E0C5
:10589800FFF7B1FF284638BD30B500238BB0036051
:1058A800436083600373044610EE100ACDB200F023
:1058B80007FD41EC100B01A92846FFF731FF01A9AC
:1058C8002046FFF7D8FF20460BB030BD044B002020
:1058D8004FF6FF72187058809A80FFF7D3B800BF50
:1058E800C4E50320024B1A68024B1A60704700BFD8
:1058F80030E30320CCE50320704741747047007CF7
:10590800FFF780B8007CFFF755B8007CFFF762B856
:10591800007CFFF757B8007CFFF764B810B5044661
:10592800FEF7B7FB204610BD70B5457C04460E4611
:1059380025B9007CFFF766F8002805DD3146207C94
:10594800BDE87040FFF72EB8284670BD10B5044674
:1059580008461146002262604FF47A72A260054A36
:1059680022600122207462741A46FFF713F8204659
:1059780010BD00BF08700D00007CFFF73BB80000A9
:1059880038B50C4D296811F0010411D12846FEF7ED
:1059980084FB68B1084A094B09482146FFF7D6FF3E
:1059A8002846FEF77FFB074A0749054800F0D4F967
:1059B800034838BD68E603206CE60320E4E50320CD
:1059C800D0E5032098E3032001590D004174704786
:1059D80070470021007CFFF735B80121007CFFF7F4
:1059E80031B8007CFFF726B8007CFFF71BB838B544
:1059F8000446007C0D46FFF71DF8002801DC607C9A
:105A080020B12946207CFFF725F8012038BD007C0D
:105A1800FFF728B810B50446FEF73BFB204610BD3B
:105A280010B50446002363604FF47A73A360054BF6
:105A3800236001230846217463741146FEF7EAFFC8
:105A4800204610BD38700D0010B514220446002100
:105A580001F05DF9204610BD30B50E4D87B001A8A4
:105A6800FFF7F2FF296811F0010410D12846FEF76C
:105A780014FB60B101AA21460748FFF7D1FF284669
:105A8800FEF710FB054A0649034800F065F902488D
:105A980007B030BDF0E60320F4E6032098E30320C6
:105AA800D9590D00002211464068FFF747B8002277
:105AB80011464068FFF762B8002211464068FFF7B8
:105AC8006DB800224068FFF761B8002281F001013B
:105AD8004068FFF74BB800231A4619464068FFF79D
:105AE8003DB800231A4619464068FFF72FB8002230
:105AF80011464068FFF712B8002202214068FFF7FC
:105B080015B800231A464068FFF700B8024B042274
:105B18005A60024A1A60704708E7032068700D004F
:105B280010B5044601F03FF9013823182046984281
:105B380006D20278197800F8011B03F80129F6E764
:105B480010BD70B50C46911E222920D8254629463D
:105B580010B9234430220EE0B0FBF2F602FB160027
:105B6800C1B205F8011B092894BF3031573105F837
:105B7800011C3046EBE7994202D201F8012BFAE703
:105B8800002320460B70FFF7CBFF204670BD002096
:105B980070BD000008B50C4B33B1FFF75DFF03681B
:105BA8001B699847002809DC084B63B1FFF7E8FE3A
:105BB80003681B699847002803DC08BDAFF3008021
:105BC800F2E7AFF3008008BD00000000000000000D
:105BD80008B5FFF7DFFFFEF755FE014B186008BD5B
:105BE80014E7032007B5002300931A466FF07701E6
:105BF800FEF772FF03B05DF804FB000007B54388A9
:105C08000A2B08D0502B09D1094B1B683BB103B0B4
:105C18005DF804EB1847FFF7E5FF06E00023009363
:105C28001A466FF07701FEF757FF03B05DF804FBE3
:105C380010E7032010B5FEF715FE044601F070F8D2
:105C4800074B13B12046AFF3008000210448FEF74C
:105C580055FF00210348BDE81040FEF733BF00BFE1
:105C680000000000055C0D0010B504460F48FFF762
:105C780053FD28B1A4F10B03022B01D8002010BD5D
:105C880000F028F8FFF7EEFA08B1012CF6D9FFF773
:105C980077FEFFF771FE18B1A4F10903012BEDD9C6
:105CA800232C8CBF0020012010BD00BF30E703204B
:105CB800232838B504460D460AD8FF2908D0FFF72F
:105CC800D3FF28B129462046BDE83840FEF7EABD93
:105CD80038BD000038B50B4D296811F001040FD10B
:105CE8002846FEF7DAF958B121460748FFF7A8FA1F
:105CF8002846FEF7D7F9054A0549034800F02CF86D
:105D0800014838BD18E703201CE7032098E3032067
:105D1800F1510D0070B50C4C0C4E0D4D0021204674
:105D2800FFF7E6FC20460B4C3246294600F014F8F3
:105D380001212046FFF7DCFC324629462046BDE813
:105D4800704000F009B800BF30E7032098E3032053
:105D5800E9560D0040E703200B460146184600F0BF
:105D6800BDBF08B5FEF73AFF244B1A68D0075CBFE1
:105D780001221A60224B1A68D1075CBF01221A60FF
:105D8800204B1A68D2075CBF01221A601E4B1A68A2
:105D9800D0075CBF01221A601C4B1A68D1075CBF90
:105DA80001221A601A4B1A68D2075CBF01221A60D6
:105DB800184B1A68D0075CBF01221A60164B1A6884
:105DC800D1075CBF01221A60144B1A68D2075CBF66
:105DD80001221A60124B1A68D0075CBF01221A60B0
:105DE800104B1A68D1075CBF01221A600E4B1A6863
:105DF800D2075CBF01221A60704700BF7CE703200E
:105E080078E7032074E7032070E703206CE703209A
:105E180068E7032064E7032060E703205CE70320CA
:105E280058E7032054E7032050E70320184B1A686B
:105E3800D1075CBF01221A60164B1A68D2075CBFF3
:105E480001221A60144B1A68D0075CBF01221A603D
:105E5800124B1A68D1075CBF01221A60104B1A68EE
:105E6800D2075CBF01221A600E4B1A68D0075CBFCC
:105E780001221A600C4B1A68D1075CBF01221A6014
:105E88000A4B1A68D2075CBF01221A60704700BF2C
:105E98009CE7032098E7032094E7032090E703207A
:105EA8008CE7032088E7032084E7032080E70320AA
:105EB800184B1A68D1075CBF01221A60164B1A6882
:105EC800D2075CBF01221A60144B1A68D0075CBF66
:105ED80001221A60124B1A68D1075CBF01221A60AE
:105EE800104B1A68D2075CBF01221A600E4B1A6861
:105EF800D0075CBF01221A600C4B1A68D1075CBF3F
:105F080001221A600A4B1A68D2075CBF01221A6084
:105F1800704700BFBCE70320B8E70320B4E70320BD
:105F2800B0E70320ACE70320A8E70320A4E7032099
:105F3800A0E70320244B1A68D0075CBF01221A602F
:105F4800224B1A68D1075CBF01221A60204B1A68DD
:105F5800D2075CBF01221A601E4B1A68D0075CBFCB
:105F680001221A601C4B1A68D1075CBF01221A6013
:105F78001A4B1A68D2075CBF01221A60184B1A68BC
:105F8800D0075CBF01221A60164B1A68D1075CBFA4
:105F980001221A60144B1A68D2075CBF01221A60EA
:105FA800124B1A68D0075CBF01221A60104B1A689E
:105FB800D1075CBF01221A600E4B1A68D2075CBF7A
:105FC80001221A60704700BFECE70320E8E70320CE
:105FD800E4E70320E0E70320DCE70320D8E7032019
:105FE800D4E70320D0E70320CCE70320C8E7032049
:105FF800C4E70320C0E7032081F0004102E000BFAE
:1060080083F0004330B54FEA41044FEA430594EA70
:10601800050F08BF90EA020F1FBF54EA000C55EAAB
:10602800020C7FEA645C7FEA655C00F0E2804FEA7C
:106038005454D4EB5555B8BF6D420CDD2C4480EA5E
:10604800020281EA030382EA000083EA010180EA8E
:10605800020281EA0303362D88BF30BD11F0004FDC
:106068004FEA01314FF4801C4CEA113102D0404212
:1060780061EB410113F0004F4FEA03334CEA13334D
:1060880002D0524263EB430394EA050F00F0A78065
:10609800A4F10104D5F1200E0DDB02FA0EFC22FA60
:1060A80005F2801841F1000103FA0EF2801843FA54
:1060B80005F359410EE0A5F120050EF1200E012A45
:1060C80003FA0EFC28BF4CF0020C43FA05F3C01883
:1060D80051EBE37101F0004507D54FF0000EDCF1FC
:1060E800000C7EEB00006EEB0101B1F5801F1BD3A5
:1060F800B1F5001F0CD349085FEA30004FEA3C0CA9
:1061080004F101044FEA445212F5800F80F09A809E
:10611800BCF1004F08BF5FEA500C50F1000041EBA2
:10612800045141EA050130BD5FEA4C0C404141EBA6
:10613800010111F4801FA4F10104E9D191F0000FCD
:1061480004BF01460020B1FA81F308BF2033A3F150
:106158000B03B3F120020CDA0C3208DD02F1140C47
:10616800C2F10C0201FA0CF021FA02F10CE002F182
:106178001402D8BFC2F1200C01FA02F120FA0CFC7B
:10618800DCBF41EA0C019040E41AA2BF01EB0451C4
:10619800294330BD6FEA04041F3C1CDA0C340EDCC2
:1061A80004F11404C4F1200220FA04F001FA02F305
:1061B80040EA030021FA04F345EA030130BDC4F1C3
:1061C8000C04C4F1200220FA02F001FA04F340EAB8
:1061D8000300294630BD21FA04F0294630BD94F069
:1061E800000F83F4801306BF81F480110134013D50
:1061F8004EE77FEA645C18BF7FEA655C29D094EAC1
:10620800050F08BF90EA020F05D054EA000C04BF3E
:106218001946104630BD91EA030F1EBF0021002029
:1062280030BD5FEA545C05D14000494128BF41F0C8
:10623800004130BD14F580043CBF01F5801130BD2C
:1062480001F0004545F0FE4141F470014FF00000B7
:1062580030BD7FEA645C1ABF194610467FEA655C68
:106268001CBF0B46024650EA013406BF52EA03350A
:1062780091EA030F41F4002130BD00BF90F0000FF8
:1062880004BF0021704730B54FF4806404F1320434
:106298004FF000054FF0000150E700BF90F0000FED
:1062A80004BF0021704730B54FF4806404F1320414
:1062B80010F0004548BF40424FF000013EE700BFE4
:1062C80042004FEAE2014FEA31014FEA02701FBF74
:1062D80012F07F4393F07F4F81F06051704792F046
:1062E800000F14BF93F07F4F704730B54FF46074C0
:1062F80001F0004521F0004120E700BF50EA01020B
:1063080008BF704730B54FF000050AE050EA0102B7
:1063180008BF704730B511F0004502D5404261EB27
:1063280041014FF4806404F132045FEA915C3FF468
:10633800DCAE4FF003025FEADC0C18BF03325FEA01
:10634800DC0C18BF033202EBDC02C2F1200300FAB6
:1063580003FC20FA02F001FA03FE40EA0E0021FADB
:1063680002F11444C1E600BF70B54FF0FF0C4CF4C5
:10637800E06C1CEA11541DBF1CEA135594EA0C0F7B
:1063880095EA0C0F00F0DEF82C4481EA030621EAB6
:106398004C5123EA4C5350EA013518BF52EA0335F1
:1063A80041F4801143F4801338D0A0FB02CE4FF0A3
:1063B8000005E1FB02E506F00042E0FB03E54FF0D3
:1063C8000006E1FB03569CF0000F18BF4EF0010ECB
:1063D800A4F1FF04B6F5007F64F5407404D25FEAC7
:1063E8004E0E6D4146EB060642EAC62141EA55517A
:1063F8004FEAC52040EA5E504FEACE2EB4F1FD0CBC
:1064080088BFBCF5E06F1ED8BEF1004F08BF5FEA39
:10641800500E50F1000041EB045170BD06F00046EB
:1064280046EA010140EA020081EA0301B4EB5C0498
:10643800C2BFD4EB0C0541EA045170BD41F4801190
:106448004FF0000E013C00F3AB8014F1360FDEBFB5
:10645800002001F0004170BDC4F10004203C35DA91
:106468000C341BDC04F11404C4F1200500FA05F314
:1064780020FA04F001FA05F240EA020001F00042B5
:1064880021F0004110EBD37021FA04F642EB06012B
:106498005EEA430E08BF20EAD37070BDC4F10C0455
:1064A800C4F1200500FA04F320FA05F001FA04F219
:1064B80040EA020001F0004110EBD37041F1000105
:1064C8005EEA430E08BF20EAD37070BDC4F1200510
:1064D80000FA05F24EEA020E20FA04F301FA05F278
:1064E80043EA020321FA04F001F0004121FA04F220
:1064F80020EA020000EBD3705EEA430E08BF20EAF0
:10650800D37070BD94F0000F0FD101F00046400029
:1065180041EB010111F4801F08BF013CF7D041EAAB
:10652800060195F0000F18BF704703F000465200AF
:1065380043EB030313F4801F08BF013DF7D043EA80
:106548000603704794EA0C0F0CEA135518BF95EA36
:106558000C0F0CD050EA410618BF52EA4306D1D1BD
:1065680081EA030101F000414FF0000070BD50EADC
:10657800410606BF1046194652EA430619D094EA66
:106588000C0F02D150EA013613D195EA0C0F05D150
:1065980052EA03361CBF104619460AD181EA0301A4
:1065A80001F0004141F0FE4141F470014FF000005C
:1065B80070BD41F0FE4141F4780170BD70B54FF0F7
:1065C800FF0C4CF4E06C1CEA11541DBF1CEA135577
:1065D80094EA0C0F95EA0C0F00F0A7F8A4EB050459
:1065E80081EA030E52EA03354FEA013100F0888050
:1065F8004FEA03334FF0805545EA131343EA126319
:106608004FEA022245EA111545EA10654FEA0026CD
:106618000EF000419D4208BF964244F1FD0404F586
:10662800407402D25B084FEA3202B61A65EB0305E2
:106638005B084FEA32024FF480104FF4002CB6EB9F
:10664800020E75EB030E22BFB61A754640EA0C001F
:106658005B084FEA3202B6EB020E75EB030E22BF5F
:10666800B61A754640EA5C005B084FEA3202B6EBA0
:10667800020E75EB030E22BFB61A754640EA9C005F
:106688005B084FEA3202B6EB020E75EB030E22BF2F
:10669800B61A754640EADC0055EA060E18D04FEAED
:1066A800051545EA16754FEA06164FEAC30343EA8D
:1066B80052734FEAC2025FEA1C1CC0D111F4801F5A
:1066C8000BD141EA00014FF000004FF0004CB6E753
:1066D80011F4801F04BF01430020B4F1FD0C88BFF2
:1066E800BCF5E06F3FF6AFAEB5EB030C04BFB6EBFD
:1066F800020C5FEA500C50F1000041EB045170BDF0
:106708000EF0004E4EEA113114EB5C04C2BFD4EB1C
:106718000C0541EA045170BD41F480114FF0000EA0
:10672800013C90E645EA060E8DE60CEA135594EA1C
:106738000C0F08BF95EA0C0F3FF43BAF94EA0C0F1F
:106748000AD150EA01347FF434AF95EA0C0F7FF494
:1067580025AF104619462CE795EA0C0F06D152EAE8
:1067680003353FF4FDAE1046194622E750EA4106CC
:1067780018BF52EA43067FF4C5AE50EA41047FF4DD
:106788000DAF52EA43057FF4EBAE12E74FF0FF3C42
:1067980006E000BF4FF0010C02E000BF4FF0010C13
:1067A8004DF804CD4FEA410C7FEA6C5C4FEA430C8C
:1067B80018BF7FEA6C5C1BD001B050EA410C0CBFDB
:1067C80052EA430C91EA030F02BF90EA020F00203D
:1067D800704710F1000F91EA030F58BF994208BFA4
:1067E80090422CBFD8176FEAE37040F00100704761
:1067F8004FEA410C7FEA6C5C02D150EA013C07D1B8
:106808004FEA430C7FEA6C5CD6D152EA033CD3D002
:106818005DF8040B704700BF8446104662468C46FC
:106828001946634600E000BF01B5FFF7B7FF00282F
:1068380048BF10F1000F01BD4DF808EDFFF7F4FF58
:106848000CBF012000205DF808FB00BF4DF808EDE3
:10685800FFF7EAFF34BF012000205DF808FB00BF06
:106868004DF808EDFFF7E0FF94BF012000205DF828
:1068780008FB00BF4DF808EDFFF7CEFF94BF0120DD
:1068880000205DF808FB00BF4DF808EDFFF7C4FFD6
:1068980034BF012000205DF808FB00BF4A0011D278
:1068A80012F5001211D20DD56FF47873B3EB625262
:1068B8000ED44FEAC12343F0004343EA505323FA6E
:1068C80002F070474FF00000704750EA013002D1E3
:1068D8004FF0FF3070474FF0000070474FEA410219
:1068E800B2F1E04324BFB3F5001CDCF1FE5C0DD926
:1068F80001F0004C4FEAC0024CEA5070B2F1004F70
:1069080040EB830008BF20F00100704711F0804F72
:1069180021D113F13872BCBF01F00040704741F437
:1069280080114FEA5252C2F11802C2F1200C10FA3B
:106938000CF320FA02F018BF40F001004FEAC1231F
:106948004FEAD32303FA0CFC40EA0C0023FA02F3C3
:106958004FEA4303CCE77FEA625307D150EA013399
:106968001EBF4FF0FE4040F44000704701F0004069
:1069780040F0FE4040F40000704700BF53B94AB9E8
:10698800002908BF00281CBF4FF0FF314FF0FF302F
:1069980000F0A2B9ADF1080C6DE904CE00F02AF8B8
:1069A800DDF804E0DDE9022304B07047D0B5002229
:1069B8000E4B06460F46FFF7D7FCFFF76FFF04465E
:1069C800FFF75CFC00220A4BFFF7CEFC02460B46A1
:1069D80030463946FFF714FBFFF760FF23460022D5
:1069E80042EA000210461946D0BD00BF0000F03D43
:1069F8000000F0412DE9F0478C460E460446089DFC
:106A0800002B50D18A4217466CD9B2FA82FEBEF1E9
:106A1800000F0BD0CEF1200420FA04F401FA0EF690
:106A280044EA060C02FA0EF700FA0EF44FEA174988
:106A3800220CBCFBF9F01FFA87F809FB10C642EAE2
:106A4800064600FB08F3B34209D9F61900F1FF32F4
:106A580080F02281B34240F21F8102383E44F61A88
:106A6800A2B2B6FBF9F309FB136642EA064403FB3C
:106A780008F8A04509D9E41903F1FF3280F00A812A
:106A8800A04540F20781023B3C44C8EB040443EABA
:106A980000400021002D62D024FA0EF400232C605F
:106AA8006B60BDE8F0878B4207D9002D55D00021D7
:106AB80085E841000846BDE8F087B3FA83F100296C
:106AC80040F09080B34202D3824200F2F880841AE8
:106AD80066EB03060120B446002D40D085E810106F
:106AE800BDE8F08712B90127B7FBF2F7B7FA87FEBE
:106AF800BEF1000F35D1F31B4FEA17481FFA87FC88
:106B08000121B3FBF8F0220C08FB103642EA0646D6
:106B18000CFB00F3B34207D9F61900F1FF3202D299
:106B2800B34200F2CE801046F61AA2B2B6FBF8F3D2
:106B380008FB136642EA06440CFB03FCA44507D98C
:106B4800E41903F1FF3202D2A44500F2B5801346DE
:106B5800CCEB040443EA00409CE729462846BDE8FC
:106B6800F087CEF1200106FA0EF307FA0EF720FAA5
:106B780001F94FEA1748CE4049EA0309B6FBF8FA8B
:106B88004FEA194408FB1A661FFA87FC44EA0643D1
:106B98000AFB0CF29A4200FA0EF40AD9DB190AF140
:106BA800FF3180F087809A4240F28480AAF1020A7D
:106BB8003B449B1A1FFA89F9B3FBF8F108FB113320
:106BC80049EA034301FB0CF69E4207D9DB1901F1A0
:106BD800FF326BD29E4269D902393B449B1B41EA82
:106BE8000A418EE7C1F1200E22FA0EF48B402343AE
:106BF80020FA0EF706FA01F44FEA134C26FA0EF6BD
:106C08003C43B6FBFCF9270C0CFB19661FFA83F80A
:106C180047EA064609FB08F7B74202FA01F200FA0A
:106C280001FA08D9F61809F1FF3041D2B7423FD925
:106C3800A9F102091E44F61BA0B2B6FBFCF40CFB3A
:106C4800146640EA064704FB08F8B84507D9FF1858
:106C580004F1FF3028D2B84526D9023C1F4444EA43
:106C68000940C8EB0707A0FB02894F4544464E463A
:106C780014D329D065B3BAEB040367EB060707FA08
:106C88000EFECB40CF404EEA030385E88800002182
:106C9800BDE8F0871346F8E61046E0E6B8EB0204D4
:106CA80069EB03060138E5E70446D8E7114695E79E
:106CB8008146C0E78A467CE7023B3C4448E70846F1
:106CC8000AE702383E442FE7C245E7D33E46D1E7FC
:106CD8002946BDE8F08700BF704700BF10B5054CD6
:106CE80013462CB10A4601460220AFF3008010BDBE
:106CF800204610BD0000000010B5431E0A44914212
:106D080004D011F8014B03F8014FF8E710BD024415
:106D18000346934202D003F8011BFAE770470000CC
:106D280038B5124B1C68A36B0546D3B91820FDF77C
:106D38003DFF43F20E33A06303804AF6CD33438010
:106D480041F2342383804EF26D63C3804DF6EC63C9
:106D58000381052343810B23838101220023C0E99A
:106D68000423A36B00221D615A6138BD94E30320FC
:106D7800024B0146186800F003B800BF94E30320F3
:106D880070B5064608460C4600F00DF8451C294625
:106D98003046FDF72BFF064618B12A462146FFF775
:106DA800ABFF304670BD034613F8012B002AFBD118
:106DB800181A0138704700001D400D0059400D0099
:106DC80085400D0089400D000000000074656D705D
:106DD8006572617475726500666172656E68696571
:106DE800740000000000000000000000314C0D009D
:106DF800374C0D005F4C0D00434C0D00334C0D001B
:106E08000000000000000000D3510D00C9510D0022
:106E1800BF510D00B5510D00A9510D009D510D0038
:106E280091510D0089510D007F510D0075510D00D4
:106E380031550D000000000000000000F1510D0068
:106E48003B520D0013520D00F3510D001B520D0063
:106E580023520D002B520D0033520D00000000008C
:106E6800000000008B520D007D520D007F520D0076
:106E780066006C6E00666E00636F6465006465741E
:106E880061696C000D0A00253031307520005D20E5
:106E9800002564002C200028293A2000205B00638C
:106EA8006F6465203D200025690064657461696C24
:106EB80073203D2000626175640053657269616CDE
:106EC8000053657269616C31007479706500706196
:106ED80072616D00636D6400696400686E640073BC
:106EE80074726D0066696C74006C766C0061646421
:106EF80048616E646C65720072656D6F7665486195
:106F08006E646C657200656E756D48616E646C6563
:106F18007273004A534F4E53747265616D4C6F67BC
:106F280048616E646C657200617070006E6F6E65AA
:106F380000747261636500696E666F007761726ED6
:106F4800006572726F720070616E696300616C6CCB
:106F5800000000000000000000000000CF530D00FA
:106F6800C5530D00BB530D00B1530D00A5530D00C3
:106F780099530D008D530D0085530D007B530D0063
:106F880071530D0031550D00000000000000000095
:106F9800C9540D00D3540D00DD540D00E7540D0005
:106FA800F1540D00FD540D0009550D0015550D0047
:106FB8001D550D0027550D0031550D00000000002E
:106FC80000000000E9560D00EB560D005A00252B75
:106FD8003033643A253032750025592D256D2D251D
:106FE800645425483A254D3A2553257A0061736340
:106FF80074696D65000000000000000000000000DA
:1070080001590D0025590D0031590D0011560D007B
:107018000D590D0019590D0013590D001F590D0078
:1070280003590D0007590D00000000000000000082
:10703800D9590D001D5A0D00F7590D0011560D00B4
:10704800F1590D00DB590D00E3590D00175A0D00D9
:10705800EB590D00D5590D0000000000000000009C
:107068000B5B0D00015B0D00F75A0D00AD5A0D00CA
:10707800EB5A0D00DF5A0D00D35A0D00CB5A0D0004
:10708800C15A0D00B75A0D0031550D00000000001F
:1070980000000000000000000000000000000000E8
:1070A80000000000000000000000000000000000D8
:1070B80000000000000000000000000000000000C8
:1070C80000000000000000000000000000000000B8
:1070D80000000000000000000000000000000000A8
:1070E8000000000000000000000000004300000055
:1070F8005D410D0081410D002D440D000D480D002E
:10710800DD510D0061530D007D540D00FD550D003E
:10711800CD560D00D5580D00ED580D00155B0D002E
:107128001D5D0D00715D0D00355E0D00B95E0D0031
:087138003D5F0D0000000000A6
:08714000BCF8FF7F0100000014
:10714800F56F0D000000000094700D00B4700D0084
:10715800D4700D00000000000000000000000000D6
:1071680000000000F4700D000000000000000000A6
:107178000000000000000000000000000000000007
:1071880000000000000000000000000000000000F7
:1071980000000000000000000000000000000000E7
:0871A8000000000034E30320A5
:1071B000FFFFFFFF00000102030405060708090A9C
:1071C0000B0C0D0E0F101112131415161718191A97
:0871D0001B1C1D1E1F202800DE
:0471D800785634129F
:04000003D0004018D1
:00000001FF
