:02000002D0002C
:1040000000400D00C48E0D00000006000C000501EC
:084010000401BB0400000000E4
:10401800C8860D0009480A49884208B505D0094AEA
:10402800824202D0121A03F02BFF0748074A0021E8
:10403800121A03F030FF014808BD00BF30E1032029
:10404800E08D0D00ECE10320ECE10320F0E7032014
:1040580070B502F0FBFF074C074BE41AA4080025D3
:104068001E46A54204D056F8253098470135F8E792
:1040780070BD00BFD48D0D00748D0D0000F0D8B94F
:1040880008B500F059F9BDE8084002F0ADBF01F0ED
:10409800F3B801F0F1B801F0F7B801F0F5B800781D
:1040A800B0FA80F040097047012303707047012A75
:1040B80002D0022A02D004E0016002E00B6800B1DD
:1040C8000360002070471FB50468684601F0E3FEEE
:1040D8006846A0470446684601F0EDFE204604B055
:1040E80010BD37B59DF8184023438DF800303C23A8
:1040F800054601F07DFA284603B030BD10B5084CDE
:1041080000F056FE2368C01A064B1B68984204D973
:1041180000F04EFE2060012010BD002010BD00BF41
:1041280014E2032030E1032008B5FFF7E7FF18B1D8
:10413800BDE80840FFF7E2BF01F026F8F5E7000008
:1041480000B58DB00A4903A802F0F4FE03A802F0F6
:10415800B7FE10EE100A03F0D7FA064ACDE90001BF
:104168001021054801F0A8F80DB05DF804FB00BF68
:10417800E0E60320DC860D00F0E1032000000000EB
:1041880007B5212002F0B1FF03F0ACFA0CA3D3E984
:10419800002303F00DFB03F01DFD03F0B5FA064AFA
:1041A800CDE900011021054801F086F803B05DF85B
:1041B80004FB00BFAFF30080E3860D0054E2032048
:1041C8009402C1D2AF63523F07B50A4800F0C4FA5F
:1041D80068B1084800F0E4FA10EE100A03F094FA07
:1041E800054ACDE900011021044801F065F803B043
:1041F8005DF804FB20E20320EB860D0000E20320BB
:1042080008B5FFF79DFFFFF7BBFFBDE80840FFF7C4
:10421800DBBF38B5046805467CB16368013B636061
:104228005BB9236820469B689847A368013BA36055
:104238001BB923682046DB689847284638BD00002C
:1042480030B5154985B0054601F08FFE044658B1D2
:10425800124B01241C70FFF767FF114B00221B78DB
:104268008DF800200F4A0DE00F49284601F07DFE29
:1042780080B10A4B1C70FFF757FF094B0B4A1B789C
:104288008DF800400A4902A8FFF72BFF03A8FFF7A3
:10429800C0FF012005B030BDA0880D004DE203200D
:1042A8004CE20320FB860D0011870D0013870D00DB
:1042B800B2870D0010B51348134CC6B000F070FA61
:1042C800124B84ED000A10EE100A029303F01CFA58
:1042D8000F4ACDE900014FF4807106A800F0ECFF09
:1042E8000C4B0D491B7800228DF8002004A806AA63
:1042F800FFF7F7FE05A8FFF78CFF2268074B1A6047
:1043080046B010BD20E2032010E2032054E203204F
:1043180029870D004CE2032050870D0050E203204E
:1043280008B5044800F018FA18B1BDE80840FFF7CE
:10433800C1BF08BD20E2032030B5314C2378022BE1
:1043480085B025461BD0032B31D0012B55D12D4DDF
:1043580002F05AF92B6898424FD00223237002F0DA
:1043680053F9294B28601B78002B46D0FFF7DCFE59
:10437800264B00221B788DF80020254A0FE0FFF716
:104388003FFF03232370204B1B78002B35D0FFF70A
:10439800CBFE1E4B00221B788DF800201D4A1E49BB
:1043A80002A8FFF79EFE03A8FFF733FF25E0164B90
:1043B8001A781C4662B1154B18491B7800228DF8F3
:1043C800002002A8164AFFF78CFE03A8FFF721FF7A
:1043D800FFF7A6FF237873B1FFF7A6FE0B4B0E4934
:1043E8001B7800228DF8002002A80E4AFFF779FEFC
:1043F80003A8FFF70EFF01232B7005B030BD00BFE7
:1044080018E203201CE203204DE203204CE20320C3
:1044180061870D0071870D006B870D007B870D008C
:1044280000E2032087870D000023042200F09CBED1
:1044380010B586B0FFF7C8FEFFF772FF2249234880
:10444800FFF7F2FF22492348FFF7EEFF22492348EE
:10445800FFF7EAFF22492348FFF7E6FF224B0293C2
:10446800224B05931020224B0493FFF710FE0446BD
:1044780078B100238360049B33B1022202A99847D4
:10448800059BE360049BA3601A4A1B48214600F081
:104498008FFF049B1BB102A9032208469847174BBC
:1044A8001B7863B1164B17491B7800228DF8002042
:1044B80002A8154AFFF715FE03A8FFF7AAFE134B3B
:1044C80001221A7006B010BD00E203208C870D008F
:1044D800B7870D0094870D00F0E103209C870D003D
:1044E80054E20320A3870D0049420D00CF400D0080
:1044F800B7400D00AB870D0091530D004DE203202E
:104508004CE203206B870D0087870D0018E203201B
:1045180008B5064B01221A7000F062FC0022032144
:104528000348BDE8084000F016B800BF4CE203207D
:1045380020E2032000230022438242618361C36199
:104548000362436280F8283080F8293080F82A30E6
:1045580080F82B30704738B50446154600F094F9BA
:104568004FF47A732046A5732382FFF7E3FF2046B2
:1045780038BD0000F8B52DED028B0B68836100F1A2
:1045880018054B686B600B78222B04460AD003D8B9
:10459800102B42D1012308E0262B05D0282B3CD133
:1045A800022302E0032300E0042384F82930204694
:1045B80000F074F92946204600F030FAA27B442125
:1045C800204600F0F8F9208A00F096FE204600F018
:1045D80065F92946204600F021FA0022B821204634
:1045E80000F0E9F900221146204600F0E4F92046DF
:1045F80000F054F92946204600F010FA0022BE21A6
:10460800204600F0D8F994F82930042B09D100226B
:104618001146204600F0CFF903E0002084F8290075
:1046280094E004F11F0504F12806204600F0E6F99D
:1046380005F8010FAE42F8D1082104F1200000F07E
:1046480086FA94F82830834204D0012384F82B306A
:1046580000207BE094F8212094F8203094F8291069
:1046680043EA02230429638227D194F8223007EE13
:10467800903A42EA0321D208F8EE678A07EE902AB8
:1046880013F0800F618284F82120B8EE678A45D044
:1046980018EE900A03F038F8064618EE100A0F468E
:1046A80003F032F800222B4B03F082F802460B4647
:1046B8003046394602F0C8FE44E0012903D044D30D
:1046C800032910D941E0B4F9123094F82720DB000F
:1046D800102A638219D194F8262023F00F03C2F11F
:1046E8000C02134410E094F8242012F0600202D166
:1046F80023F0070308E0202A02D123F0030303E094
:10470800402A02D123F001036382B4F9123007EE84
:10471800903AFAEECE7AC4ED057A16E018EE100A51
:1047280002F0F2FF00220B4B03F042F8064618EEA7
:10473800900A0F4602F0E8FF02460B46304639461B
:1047480002F084FE03F046FA60610120BDEC028BA2
:10475800F8BD00BF0000A03F38B50446FFF7EAFEE9
:1047680000F11805294600F077F930B9012384F8DB
:104778002A30204600F064F910E00721284600F0AE
:10478800E6F9E37F834203D0012384F82B3005E068
:1047980029462046BDE83840FFF7ECBE002038BD6A
:1047A80090ED050A704700F01BBB000010B50368C8
:1047B8002F2B044604D9074A00210A2000F080FC68
:1047C80023681F2B83BF03F01F03236002484FF0A9
:1047D800A04010BDA94D0D000003005007B50B4BBC
:1047E8001B68000119181A5C4B7802A803F01F0314
:1047F80043EA421340F8043DFFF7D8FF019A01232A
:104808009340C0F80C3503B05DF804FB64E2032064
:1048180007B50B4B1B68000119181A5C4B7802A8E6
:1048280003F01F0343EA421340F8043DFFF7BEFFBD
:10483800019A01239340C0F8083503B05DF804FBE2
:1048480064E2032013B50F4B1B6800011A181C5CA7
:10485800537802A803F01F0343EA441440F8044DB8
:10486800FFF7A4FFD0F8103502A840F8084DFFF76D
:104878009DFFD0F81035009823FA00F000F00100F1
:1048880002B010BD64E2032038B504460D46284640
:10489800002102F019FC2580204638BD38B50546B0
:1048A80001F08CF80021288800F0AAFA01F088F8B5
:1048B8007D24013C14F0FF042BD0022000F070FA94
:1048C8002888FFF7BFFF0028F3D001F077F8288881
:1048D800FFF784FF0121288800F092FA01F070F8B0
:1048E8004FF4F07000F05CFA01F068F800212888B5
:1048F80000F086FA462000F053FA2888FFF7A2FF56
:10490800B0FA80F401F05CF84FF4CD70640900F05F
:1049180047FA204638BD38B511F00105044613D0D2
:1049280001F04CF82088FFF759FF0121208800F09A
:1049380067FA0A2000F034FA2088002100F060FAB3
:1049480001F03EF8372012E001F038F82088FFF730
:1049580045FF0121208800F053FA412000F020FA99
:104968002088294600F04CFA01F02AF80520BDE815
:10497800384000F015BA10B5044601F01FF8208839
:10498800FFF72CFF0121208800F03AFA032000F0FD
:1049980007FA0021208800F033FA0A2000F000FA14
:1049A8002088FFF74FFF044601F00AF8352000F091
:1049B800F7F9204610BD2DE9F0410546884617460F
:1049C8000826012418EA040F14BF012100212846F3
:1049D800FFF7A1FF6400013EE4B2F3D167B100F034
:1049E800EDFF2888FFF714FF2888012100F008FA56
:1049F800BDE8F04100F0E4BFBDE8F081F8B5074636
:104A08000826002501243846FFF7B5FF00B12543E5
:104A18006400013EE4B2F6D12846F8BD70B5002224
:104A28000C4655210646FFF7C6FF651E073415F8E4
:104A3800011F00223046FFF7BEFFA542F7D170BD27
:104A4800002383720373C37200F10A02023002F872
:104A5800013D8242FBD170472DE9F047057B0446B2
:104A68008846002D5ED1FFF719FF20B9A072207388
:104A7800E072BDE8F0872A46F0212046FFF79BFF49
:104A88000126AA4637462046FFF775FF814620468D
:104A9800FFF771FFB9F1010F02D101281BD137E0EF
:104AA800814504EB05031ED1A27A974207D29A7872
:104AB800164214BF4FF001094FF0000904E00CBF83
:104AC8004FF001094FF00009B9F1000F03D1082F89
:104AD80008D8E77206E062194FF00109937833436A
:104AE800937004E0BA469A7822EA06029A70494618
:104AF80020467600FFF70FFF16F0FF0604BF0135CA
:104B0800EDB207F1010708BF0126072DFFB2BAD998
:104B1800402F07D984F80AA0BAF1000F12D1012357
:104B280023730FE00020A0722073E072631C08F169
:104B3800FF38093413F8012F08F8012FA342F9D1DF
:104B4800BDE8F087A378002BECD00120EEE730B564
:104B5800054600200139C9B2FF2913D015F8014BC9
:104B6800082280EA040313F0010F4FEA50001CBF2B
:104B780080F08C03D8B2531E13F0FF024FEA54049E
:104B8800EFD1E7E730BD000008B500F029F9014B87
:104B9800186008BD64E2032010B5064B0360643357
:104BA8000446036101F0DBFD204601F09DFF20462D
:104BB80010BD00BF548A0D0038B584690A4B0360E4
:104BC80005467CB16368013B63605BB92368204696
:104BD8009B689847A368013BA3601BB923682046DC
:104BE800DB689847284638BDC8890D0010B583682A
:104BF800044613B1032201469847204610BD10B55C
:104C08000446FFF7C9FF20464C2102F0CCFA2046A3
:104C180010BD10B50446FFF7CFFF20461C2102F057
:104C2800C2FA204610BD000070B5104D104C114E50
:104C380000F0D6F8284601F061FC28460E4D2246C1
:104C4800314602F0ABFA284601F058FC28460B4DD5
:104C58002246314602F0A2FA284601F027FF2246F2
:104C680028460749BDE8704002F098BA84E203205C
:104C7800ECE10320C14B0D0068E20320A0E2032011
:104C8800A14B0D0010B5064C00F0AAF8204601F023
:104C980035FC2046034A0449BDE8104002F07EBABC
:104CA800ECE20320ECE10320C14B0D000022114689
:104CB800406800F0A9BA000008B500F091F800F0CB
:104CC80077F8014B186008BD08E3032000F088B8A6
:104CD800024B00221A7000F083B800BF0CE30320D7
:104CE80010B5064C00F07CF8204601F007FC204681
:104CF800034A0449BDE8104002F050BA10E303200B
:104D0800ECE10320C14B0D0010B5064C00F068F82B
:104D1800204601F0CBFE2046034A0449BDE8104076
:104D280002F03CBA2CE30320ECE10320A14B0D0078
:104D380008B500F055F8BDE8084000F039B80000A3
:104D480008B5024B1B689B68019308BD4802030025
:104D580008B5024B1B681B69019308BD4802030094
:104D680008B5024B1B685B69019308BD4802030044
:104D780008B5024B1B681B6B019308BD4802030072
:104D880008B5024B1B685B6C019308BD4802030021
:104D980008B5024B1B685B68019308BD1802030045
:104DA80008B5024B1B68DB68019308BD18020300B5
:104DB80008B5024B1B685B69019308BD1802030024
:104DC80008B5024B1B68DB69019308BD1802030094
:104DD80008B5024B1B689B6D019308BD18020300C0
:104DE80008B5024B1B681B68019308BD2C02030021
:104DF80008B5024B1B685B68019308BD2C020300D1
:104E080008B5024B1B689B68019308BD2C02030080
:104E180008B5024B1B681B6A019308BD2C020300EE
:104E280008B5024B1B685B6A019308BD2C0203009E
:104E380008B5024B1B681B6B019308BD2C020300CD
:104E480008B5024B1B681B6A019308BD28020300C2
:104E580008B5024B1B685B6A019308BD2802030072
:104E680008B5024B1B689B6A019308BD2802030022
:104E780008B5024B1B68DB6A019308BD28020300D2
:104E880008B5024B1B681B6B019308BD2802030081
:104E980008B5024B1B685B6B019308BD2802030031
:104EA80008B5024B1B681B6C019308BD2802030060
:104EB80008B5024B1B685B69019308BD6C020300CF
:104EC80008B5024B1B685B69019308BD64020300C7
:104ED80008B5024B1B681B6A019308BD64020300F6
:104EE80008B5024B1B685B6A019308BD64020300A6
:104EF80008B5024B1B689B6A019308BD6402030056
:104F080008B5024B1B689B68019308BD6802030043
:104F180008B5024B1B68DB68019308BD68020300F3
:104F280008B5024B1B685B68019308BD3802030093
:104F380008B5024B1B689B69019308BD3802030042
:104F480008B5024B1B68DB69019308BD38020300F2
:104F580008B5024B1B681B6A019308BD38020300A1
:104F680008B5024B1B689B6A019308BD3802030011
:104F780008B5024B1B68DB6A019308BD38020300C1
:104F880008B5024B1B681B6B019308BD3802030070
:104F980008B5024B1B685B6B019308BD3802030020
:104FA80008B5024B1B689B6B019308BD38020300D0
:104FB80008B5024B1B68DB69019308BD300203008A
:104FC80008B5024B1B681B6A019308BD3002030039
:104FD80008B5024B1B681B68019308BD3C0203001F
:104FE80008B5024B1B68DB68019308BD3C0203004F
:104FF80008B5024B1B681B69019308BD3C020300FE
:1050080008B5024B1B685B69019308BD3C020300AD
:1050180008B5024B1B689B69019308BD3C0203005D
:1050280008B5024B1B68DB69019308BD3C0203000D
:1050380008B5024B1B681B6A019308BD3C020300BC
:1050480008B5024B1B689B6A019308BD3C0203002C
:1050580008B5024B1B681B68019308BD4C0203008E
:1050680008B5024B1B681B69019308BD4C0203007D
:1050780008B5024B1B685B69019308BD4C0203002D
:1050880008B5024B1B689B69019308BD4C020300DD
:1050980008B5024B1B68DB69019308BD4C0203008D
:1050A80008B5024B1B681B6A019308BD4C0203003C
:1050B80008B5024B1B685B6F019308BD74020300BF
:1050C80008B5024B1B685B6B019308BD60020300C7
:1050D80008B5024B1B681B6D019308BD60020300F5
:1050E80008B5024B1B681B68019308BD200203002A
:1050F80008B5024B1B685B68019308BD20020300DA
:1051080008B5024B1B685B69019308BD20020300C8
:1051180008B5024B1B68DB6C019308BD2002030035
:1051280008B5024B1B685B6D019308BD20020300A4
:1051380008B5024B1B689B6D019308BD2002030054
:1051480008B5034B1B68D3F88830019308BD0000ED
:105158002002030008B5034B1B68D3F89430019371
:1051680008BD00002002030008B5024B1B681B683D
:10517800019308BD4402030008B5024B1B685B6835
:10518800019308BD4402030008B5024B1B689B68E5
:10519800019308BD4402030008B5024B1B685B6914
:1051A800019308BD4402030008B5024B1B681B6A43
:1051B800019308BD4402030008B5024B1B681B6B32
:1051C800019308BD4402030008B5024B1B68DB6B62
:1051D800019308BD4402030008B5024B1B685B68D5
:1051E800019308BD4002030008B5024B1B689B6889
:1051F800019308BD4002030008B5024B1B68DB6839
:10520800019308BD4002030008B5024B1B681B69E7
:10521800019308BD4002030008B5024B1B685B6997
:10522800019308BD4002030008B5024B1B689B6947
:10523800019308BD4002030008B5024B1B68DB69F7
:10524800019308BD4002030008B5024B1B681B6AA6
:10525800019308BD4002030008B5024B1B681B6B95
:10526800019308BD4002030008B5024B1B685B6B45
:10527800019308BD4002030008B5024B1B681B6878
:10528800019308BD1C02030008B5024B1B685B684C
:10529800019308BD1C02030008B5024B1B689B68FC
:1052A800019308BD1C02030008B5024B1B689B69EB
:1052B800019308BD1C02030008B5024B1B68DB699B
:1052C800019308BD1C02030008B5024B1B68DB6A8A
:1052D800019308BD1C02030008B5024B1B681B6B39
:1052E800019308BD1C02030008B5024B1B68DB6B69
:1052F800019308BD1C0203000021FFF701BF10B590
:10530800836804460BB901F050FFC3689847A36847
:105318001BB1032221462046984720461021BDE8AC
:10532800104001F040BF70470020704710B51021B1
:10533800044601F038FF204610BD08B508B1FFF754
:10534800F5FF08BD38B5C468ECB12378022B02D14B
:10535800E068FFF799FF656835B12846FFF746FC16
:105368001021284601F01FFFA56835B12846FFF730
:105378003DFC1021284601F016FF20461421BDE807
:10538800384001F010BF38BD1FB50446684600F02C
:10539800D9FDA3680BB901F008FFE3686946204608
:1053A80098470446684600F086FD204604B010BDC4
:1053B800F0B5102485B007460E4615460021224652
:1053C800684602F068FD002269461046ADF80040C4
:1053D800029703960195FFF7CFFE05B0F0BD13B510
:1053E800044691E8050000234B600B602060626072
:1053F80001A801930093FEF70CFF204602B010BDF0
:105408000B68036013B15A6801325A607047F7B5E8
:105418000C4602AD54F8043B45F8083D06460F46D5
:1054280001A82146FFF7ECFF29463046FFF7D7FFD2
:1054380001A8FEF7EEFE2046FEF7EBFE38460821EF
:1054480001F0B1FE304603B0F0BD13B50B4604467B
:1054580003C88DE8030093E8030084E803009DE88F
:10546800030083E8030002B010BD826810B50AB9D2
:1054780001F09BFEC368BDE81040184708B50068F6
:1054880000F11001FFF7F1FF08BD826810B50AB9F5
:1054980001F08BFEC368BDE81040184708B50068E6
:1054A80000F11001FFF7F1FF08BD38B50023836054
:1054B8008B6804460D462BB102229847EB68E360DF
:1054C800AB68A360204638BD2DE9F0414FF69C73C8
:1054D80086B00468B1F904208B8000230F688DF82A
:1054E80000300B604FF00200D4E84F1F994203D1FF
:1054F800C4E8450F002DF7D102D08DF800106BE0FD
:1055080014F10C051EBFE76022821F460123BFF37A
:105518005F8F0020637004F10803BFF35F8F53E8C7
:10552800006F43E80002002AF9D1BFF35F8F002E15
:1055380052D0FFF7EDFD20B129463046FFF795FF21
:1055480043E031466846FFF7B0FFE068B4F9105011
:1055580008B102F0E3FC04901020ADF81450FEF7F7
:1055680096FD054630B34FF00008C0F808801820B3
:10557800FEF78DFD0446C0B1C0F8088001466846B4
:10558800FFF763FF029BA268A360039B0292E26895
:10559800E360BDF81430A3824FF69C73ADF8143065
:1055A800049B03922361CDF810800E4BEB600E4BE9
:1055B8002C60AB600498FFF767FE6846FFF716FBA0
:1055C800002229460948FFF7ABFD3046FFF70EFBDE
:1055D8001021304601F0E7FD3846FFF755FE06B0CA
:1055E800BDE8F08185540D00E1560D0007530D000C
:1055F8002DE9F04F8BB007AD4FF0000B06469946EA
:1056080014200C230F4690469DF850A0C5F804B00E
:10561800C5F808B00793FEF73AFD044638B180F89C
:1056280000B080F801B0C0F804B0C0F808B000239A
:10563800102003940493FEF72AFD28B10123436048
:105648008360234B0360C4600490224B08930820B6
:10565800FEF71DFD044628B1039B40F8043B04A94E
:10566800FFF7CEFE00955FFA8AF34A464146384670
:105678000994FFF799FDB8B9039B5B7803F0FF0223
:1056880093B94FF69C7305A903A80592ADF8183095
:10569800FFF71AFF0598FFF7F7FD05A80999FFF727
:1056A800B6FE06A8FEF7B5FD039B059304A906A858
:1056B800FFF7A6FE05A93046FFF791FE06A8FEF7FC
:1056C800A8FD04A8FEF7A5FD30460BB0BDE8F08F95
:1056D800C8870D004D580D00022AF8B5044606D0BB
:1056E800032A17D0012A21D10B6803601EE0182075
:1056F8000E68FEF7CCFC054650B13146FFF7D5FEE3
:105708003069B6F9147008B102F008FC2861AF825C
:1057180025600BE004684CB12069FFF7B5FD204611
:10572800FFF764FA1821204601F03DFD0020F8BD7E
:1057380038B5002383608B6804460D462BB10222DE
:105748009847EB68E360AB68A360204638BD022A3F
:1057580070B5044606D0032A11D0012A18D10B6867
:10576800036015E014200E68FEF791FC054620B191
:105778003146FFF7DDFF337C2B74256008E00468B1
:1057880034B12046FFF732FA1421204601F00BFD10
:10579800002070BDF0B5002387B00C46BFF35F8FC3
:1057A80050E8006F40E80032002AF9D1BFF35F8F5C
:1057B800002E3FD01846FFF7ABFC074620B1214624
:1057C8003046FFF762FE2EE0314601A8FFF7B0FF32
:1057D80023788DF814301020FEF759FC0546D0B117
:1057E80087601420FEF753FC044678B187600146B1
:1057F80001A8FFF72AFE039BA268A360049B0392FB
:10580800E268E3609DF81430049223740A4BEB605D
:105818000A4B2C60AB6001A8FFF7E8F90022294683
:105828000748FFF77DFC3046FFF7E0F910213046C6
:1058380001F0B9FC07B0F0BDA5540D0057570D0095
:1058480007530D0030B585B004460D46684611462D
:10585800FFF7DDFD7CB124B228460DB102F05EFBF6
:10586800029002A96846ADF80C40FFF72DFE029899
:10587800FFF70AFD1DE000988DF808404FF001027F
:10588800D0E84F3FA34203D1C0E8412F0029F7D108
:1058980002D08DF808300CE010F10C014FF0010334
:1058A80018BF0373BFF35F8F043000F8033CFFF7A2
:1058B80071FF01A8FEF7ADFC05B030BD002211460E
:1058C8004068FFF7C1BC002211464068FFF7CCBC16
:1058D80000224068FFF7C0BC002281F00101406847
:1058E800FFF7AABC00231A4619464068FFF79CBC7C
:1058F80000231A4619464068FFF78EBC002211465D
:105908004068FFF781BC002211464068FFF76CBC75
:10591800002202214068FFF76FBC00231A46406846
:10592800FFF75ABC024B03225A60024A1A607047BA
:1059380078E30320E4870D007047F8B5064615465E
:105948000C468F18BC4206D0336814F8011B9B68BC
:1059580030469847F6E72846F8BD0022007CFFF756
:105968006FBA0021007CFFF773BA0021007CFFF7B3
:1059780077BA0021007CFFF77BBA0021007CFFF793
:105988007FBA10B51421044601F00DFC204610BD65
:1059980010B504464FF47A730846A3600021044BFF
:1059A800207461602360FFF77BFA204610BD00BFBA
:1059B80018880D000021007CFFF76ABAFFF730BA9B
:1059C800FFF726BA704710B51821044601F0EBFB23
:1059D800204610BDF0B5037D062B8DB00E4600F1B4
:1059E80004074FF0000402D000F1080518E00CADE0
:1059F800394605F8304D2F232A460A20FFF760FA6A
:105A0800284602F0A6FA33680246DB682946304683
:105A180098470FE024B12E21304600F0D7F904440E
:105A280015F8011D0A22304600F000FABD42044470
:105A3800F0D120460DB0F0BD10B5054B044611223B
:105A480040F8043B002102F026FA204610BD00BFB2
:105A580040880D000346074A10B543F8042B01F1AE
:105A6800100251F8044B43F8044B9142F9D10A78DB
:105A78001A7010BD40880D00037D042B01D14068C9
:105A880008E0062B0AD1436853B1836843B1C36861
:105A980033B10069003018BF0120704700207047FB
:105AA8001846704710B59DF8084044EA032343EAB6
:105AB800024242EA016104234160037510BD37B513
:105AC8000D788B784A78C97800912946FFF7EAFF64
:105AD80003B030BD014B024A1A60704780E30320CF
:105AE80001890D00002211464068FFF7ADBB002276
:105AF80011464068FFF7B8BB00224068FFF7ACBB0F
:105B0800002281F001014068FFF796BB00231A4686
:105B180019464068FFF788BB00231A4619464068B3
:105B2800FFF77ABB002211464068FFF75DBB0022F1
:105B380002214068FFF760BB00231A464068FFF760
:105B48004BBB38B5054688B104684CB1A3681BB196
:105B580003222146204698471021204601F023FBC6
:105B680028461421BDE8384001F01DBB38BD10B1EE
:105B780003685B681847704710B503680446BBB1F3
:105B88005868FFF7DDF878B923685A7C12B9586865
:105B9800FFF7DEF823685868FFF7E2F8206800236B
:105BA800236028B1FFF7CDFF206808B1FFF7C9FFD0
:105BB800204610BD38B50C4B03600446D0F8CC0124
:105BC80008B1FEF76AFAD4F8C45135B12846FFF790
:105BD800D3FF0421284601F0E6FAA06808B1FFF7D0
:105BE800C6FF204638BD00BF34890D0038B50D4CBE
:105BF8000D4B23600025022304F5E4706360A56063
:105C0800C4F8C451C4F8C851FFF7BAF8074BC4F830
:105C1800CC5123602046064A0649BDE8384001F0C9
:105C2800BDBA00BF84E3032068890D0034890D00E4
:105C3800ECE10320BD5B0D0000231A464068FFF726
:105C4800CBBA002202214068FFF7D6BA00221146DB
:105C58004068FFF7C9BA002211464068FFF7D4BA76
:105C680000231A4619464068FFF7D6BA00231A4699
:105C780019464068FFF7D8BA002281F00101406850
:105C8800FFF7DABA00224068FFF7E6BA00221146A9
:105C98004068FFF7E9BA002211464068FFF7D4BA16
:105CA8002DE9F043002495B016460D460746FFF748
:105CB800C3FE214620220CA8009402F0ECF84023F1
:105CC8000C9321466B460CAA3046FFF721F904468F
:105CD800002844D1024601216868FFF795FA02219D
:105CE800804622466868FFF78FFA009E8146214663
:105CF800002E34D0002932D17368022B02D00A2B2F
:105D080009D02AE0B8F1000F27D07169384604316C
:105D1800FFF7D5FE20E0B9F1000F1ED074691122FB
:105D280001A802F0B8F806238DF8143001AD04F18B
:105D380008031834186859682A4603C20833A3426E
:105D48001546F7D101A906A807ADFFF783FE0FCDC9
:105D58003C1D0FC42B6823700121F669C8E7009821
:105D6800FFF7CEF8384615B0BDE8F083024B034A7A
:105D78001A6000225A60704754E5032068890D00B4
:105D8800F8B506460D468F180024BD420CD033687E
:105D980015F8011B9B6830469847002801DB04442E
:105DA800F3E7002C08BF04462046F8BD70B5054649
:105DB8000C46084649B102F0CCF82B680246214649
:105DC8002846DB68BDE87040184770BD03689B68CB
:105DD800184730B58BB00B4600218DF82410012AE6
:105DE80098BF0A220DF12304B3FBF2F505FB123329
:105DF80003F0FF03092B94BF30333733DBB221465E
:105E080004F801392B46002DEED1FFF7CFFF0BB078
:105E180030BD10B42AB903685DF8044B9B68C9B259
:105E28001847D2B25DF8044BFFF7D3BFFFF7F1BFB5
:105E380010B50446FEF7DAFE204610BD0348044AB2
:105E480004490023836001F0A9B900BF5CE5032081
:105E5800ECE10320395E0D00704710B510210446AF
:105E680001F0A1F9204610BD70B5084B0360044647
:105E780000250E4640F80C5FFEF77AFF3046267183
:105E8800FFF796F8A560204670BD00BF9C890D00FD
:105E98000079FFF795B800230360436083600373BC
:105EA80010B50C6804604C6844608C6884600B60B2
:105EB8004B608B6010BD10B504460068FFF7E4F92D
:105EC800204610BD10B50446006808B1FFF7DCF99C
:105ED80000232360A360636010BD38B504460D46F7
:105EE80000680131FFF7D8F910B184E821000120DA
:105EF80038BD10B50368044613B143688B4207D216
:105F08002046FFF7EAFF20B1A3680BB92268137097
:105F1800012010BD70B50E46114604461546FFF720
:105F2800E8FF18B92046FFF7CDFF09E02A463146B9
:105F3800A560206801F0A4FF2268A3680021D1545D
:105F4800204670BD38B50023044603604360836073
:105F580003730D4639B1084601F0FBFF2946024696
:105F68002046FFF7D7FF204638BD08B582680B46A4
:105F780012B919B9012008BD11B90368187802E0EF
:105F8800006801F0B9FFB0FA80F0400908BD0000D0
:105F9800044B00204FF6FF72187058809A80FFF764
:105FA800A7B800BF6CE5032037B502AC036804F856
:105FB800011DDD6B01224FF0FF332146A84703B0D6
:105FC80030BD10B40368DC6B4FF0FF33A4465DF8B6
:105FD800044B604737B502AC036804F8011DDD6B5C
:105FE800214613460122A84703B030BD704738B593
:105FF80043691A68002A044605DAB3F88620B3F81C
:1060080084309A4201D001250BE003681B69984748
:10601800002814BF0125002503D123682046DB6A28
:106028009847284638BD43691868C043C00F704771
:1060380070470020704710B51421044601F0B3F8EA
:10604800204610BDFEF727B82DE9F04398460368AF
:1060580093B0DB6A0C4606461746984712AB0025F4
:1060680043F8485D2A4629462046FEF751FF002896
:106078003ADB009B002B39D05B69002B36D006A891
:10608800FFF7DAFC009B5C696378022B01D1211DC4
:1060980013E00A2B14D11122294601A801F0FBFEB6
:1060A800A36833BBE36823BB4FF6FF702569FEF78F
:1060B8000FFF85421DD104F1140106A8FFF7FFFC6C
:1060C80006A8FFF7D9FC88B1336807ADD3F820904C
:1060D800184B0C930FCD0DAC0FC42B6823703A46A8
:1060E80043460CA93046C84704461CE04FF0FF342D
:1060F80019E004F1080301AD1834186859682A46F4
:1061080003C20833A3421546F7D1062301A90CA8F8
:106118000DAD8DF81430FFF79DFC0FCD07AC0FC403
:106128002B682370CCE70098FEF7EAFE204613B0F0
:10613800BDE8F08340880D007FB516460022426016
:10614800029203925A1C04460D4608D04FF47A7204
:10615800B3FBF2F1029102FB11314A4303926069E9
:106168000823009341F205026B4440F6FF71006872
:10617800FEF7DEFE002808DB606900233246294668
:106188000068FEF7FDFE002804DAFFF7ADF80368A3
:106198006360002004B070BD10B5036804469B68B6
:1061A8009847A368013BA3602BB923682046DB68A6
:1061B800BDE81040184710BD70B504464D69054B41
:1061C80044F8043B8C3506460FCD0FC42B6823706A
:1061D800304670BD40880D0010B54369B3F886207D
:1061E800B3F884309A42044605D06269B2F8843024
:1061F8001344187910BD03681B6998470028F4D127
:106208004FF0FF3010BD10B54369B3F88620B3F8DE
:1062180084309A42044608D06269B2F88430591C26
:106228001344A2F88410187910BD03681B699847B5
:106238000028F1D14FF0FF3010BDF8B5436917467B
:10624800B3F88620B3F884309A4205460E4606D144
:1062580003681B69984710B94FF0FF3414E0696967
:10626800B1F88430B1F88640E41ABC4228BF3C46F5
:10627800194422460431304601F002FE6A69B2F838
:1062880084302344A2F884302046F8BD42690023B4
:10629800A2F884304269A2F8863070472DE9F041AF
:1062A800984603680D468AB0DB6A06461746984743
:1062B8002B7D7469042B0CBF02200A2006220121C1
:1062C800FEF76EFE206073691C68002C5BDB3046AD
:1062D800FFF7DCFFB8F1000F17D0002303A95FFA1E
:1062E80088F00393ADF81030FEF7E2FD002849DB93
:1062F80070690623009341F20B0203AB40F6FF716D
:106308000068FEF715FE00283CDB1C24224600210D
:1063180003A801F0C0FD2B7D8DF80C40042B0CD197
:10632800022338468DF80D30FEF7E2FDADF80E0079
:106338006868FEF7CDFD049013E00A2338468DF80F
:106348000D30FEF7D5FD05ACADF80E002B1D05F19F
:10635800140718685968224603C20833BB4214461A
:10636800F7D173691C2203A91868FEF7F1FD00280C
:1063780008DB2C1D0FCC76698C360FC6236833706A
:10638800012404E0044633683046DB6A9847204617
:106398000AB0BDE8F08110B54369044618680028C2
:1063A80001DBFEF7CDFD63694FF0FF321A606069CB
:1063B800112200218C3001F06EFD2046BDE810400E
:1063C800FFF764BF30B54269B2F886308BB0044637
:1063D8001BB1B2F884209A4240D06369186800283B
:1063E8003FDBB3F886507F2D3BD8191DC5F18002DD
:1063F80008232944FEF7B4FD00280CDD6369B3F8CF
:1064080086200AB9A3F884206269B2F88630184455
:10641800A2F8860025E0FEF767FF03680B2B20D063
:10642800FEF762FF03680B2B1BD020230025029385
:106438000395FEF759FF036801930E4B009302AAD8
:106448002B460D493220FEF743FE63691868FEF7B4
:1064580077FD63694FF0FF321A6002E0FFF716FF1D
:10646800BBE76269B2F88630B2F88400181A0BB03C
:1064780030BD00BF138A0D000C8A0D0010B5002333
:1064880004460160A0F88430A0F886308830FFF711
:10649800D3FA204610BD00004FF47A7270B500237D
:1064A8008260144A43600260436183610446A0200D
:1064B8000E46FDF7ECFD054610B13146FFF7DEFF4D
:1064C8001420FDF7E4FD034628B1012242608260F2
:1064D800094A02600561A0696561A36128B1436842
:1064E800013B43600BB9FFF757FE2046FFF7CEFE8E
:1064F800204670BDC8890D00AC890D0010B54FF05D
:10650800FF310446FFF7C8FF204610BD10B504460A
:106518000068002801DBFEF713FD204610BD10B50A
:1065280004692046FFF7F2FF24B12046BDE8104079
:10653800FDF7B1BD10BD0000F0B5144B144F1E6837
:10654800144B064418683B6806449E428BB01BD027
:106558000AA801AD40F8286D01F09AFB436903F2DF
:106568006C73436104460FCC0FC50FCC0FC5D4F82C
:1065780000E0C5F800E001AD0FCD074C0FC40FCD0A
:106588000FC43E60C4F800E00BB0F0BDA4E50320E2
:10659800A0E503209CE5032074E5032008B500204E
:1065A800FEF70AFE28B1FEF7F7FD80F00100C0B241
:1065B80008BD012008BD10B50020FEF709FC0446FF
:1065C80068B9FEF78DFD01280BD12046FEF7B0FD16
:1065D80038B9FFF7E3FF30B9FEF7D6FDF9E7012038
:1065E80010BD002010BDFFF7D9FF0020FEF7F0FB1B
:1065F800003018BF012010BD08B5FFF7DCFFBDE86B
:106608000840FEF7DDBB000008B5FFF7F5FFFFF710
:1066180093FF014B586808BD74E50320024B1A68C4
:10662800024B1A60704700BF34E1032098E503204D
:1066380010B40468246BA4465DF8044B60470368F3
:106648009B6C1847808E7047028FC08E101A704757
:1066580013B502AB026803F8011DD468194601227C
:10666800A04702B010BD10B503681B6904469847DF
:1066780028B1E38EE26B591CE186D05C10BD4FF067
:10668800FF3010BD10B503681B690446984718B160
:10669800E38EE26BD05C10BD4FF0FF3010BD704749
:1066A80010B403460846DC6BD98E1A8F0368521A59
:1066B800DB6821445DF8044B1847A0F11000FFF790
:1066C800EFBFF0B503688DB01C265B6A04460F4621
:1066D8001546984701233246002105A8029301F088
:1066E800DAFB8DF8146038460A268DF81560FEF737
:1066F800FFFB1122ADF8160002213046FEF750FCD0
:106708000028606124DB0422009202AB40F6FF718E
:10671800FEF70EFCE0B995B10390ADF8100003A99F
:10672800E8B2FEF7C5FB98B90623009341F20B02C5
:1067380003AB40F6FF716069FEF7FAFB40B91C2213
:1067480005A96069FEF7ECFB10B96564012004E057
:10675800236820465B6A984700200DB0F0BD10B54D
:1067680004464069002801DBFEF7EAFB4FF0FF33DF
:1067780063610023E386238710BD38B5C36B0546E4
:10678800C08E13B12C6C241A00E01C46944228BF1A
:1067980014462246184401F073FBEB8E2344EB8623
:1067A800204638BD70B503681B6904460E46154679
:1067B800984788B1236820461B699847E38EE16BA8
:1067C8008542A8BF054619442A46304601F058FBC1
:1067D800E38E2B44E38601E04FF0FF35284670BD79
:1067E80070B50446054B44F8043B01F12005064604
:1067F8000FCD0FC42B682370304670BD40880D0044
:10680800F0B59446026889B0976A0A4A02921D1D3B
:106818008E4606460FCD03AC0FC42B682370BDF817
:1068280038300093624602AB71463046B84709B02B
:10683800F0BD00BF40880D00F0B50368B0F836E041
:106848009F6A0D4B89B000F12006044602930FCED3
:1068580003AD0FC533682B70A38E0093724602AB4D
:10686800E16B2046B84723680546DB692046984710
:10687800284609B0F0BD00BF40880D00F0B5437848
:10688800022B8DB005460C46174601D1011D33E099
:106898000A2B35D11122002101A801F0FCFAAB68BE
:1068A80043B9EB6833B94FF6FF702E69FEF710FB5A
:1068B80086421FD005F1080301AE05F1180E1868CD
:1068C8005968324603C2083373451646F7D1062382
:1068D80001A906A807AE8DF81430FFF7BBF80FCE54
:1068E80004340FC43368237057B16888FEF7F8FA88
:1068F800388005E005F114012046FFF7E0F8F3E7DA
:106908000DB0F0BD2DE9F0418EB00EAB0025064666
:106918001746084643F8345D2A462946FEF7F8FA32
:1069280000281FDB019BFBB15B69EBB102A8FFF7F5
:1069380083F8019B2A46586902A9FFF79FFF02A81E
:10694800FFF79AF880B1336803ADD3F838800B4B62
:1069580008930FCD09AC0FC42B6823703A4608A9D9
:106968003046C047044601E04FF0FF340198FEF777
:10697800C7FA20460EB0BDE8F08100BF40880D0080
:106988002DE9F047D0F81480B8F1000F8CB0054617
:106998000C461746994600DB11B94FF0FF3035E039
:1069A8004FF01C0A05AE52460021304601F073FA3A
:1069B800CDF808A0B9F1000F14D04FF47A72B9FBE2
:1069C800F2F1039102FB11914A43082304920093C8
:1069D80041F2060203AB40F6FF714046FEF7A8FA03
:1069E80008B113E0082002AB019321460346009644
:1069F8003A466869FEF7BCFA041E06DB05F1340264
:106A080005F11C013046FFF739FF20460CB0BDE800
:106A1800F08738B5054614462B7D062B084611D15C
:106A28001C2313700A235370FEF762FA083424F803
:106A3800060C2B1D143553F8042B44F8042BAB42D9
:106A4800F9D138BD042B0AD11023137002235370D7
:106A5800FEF74EFA60806868FEF73AFA606038BD63
:106A68002DE9F0438BB003AC1C25994606460F462A
:106A7800904600212A46204601F00DFA2246BDF82C
:106A880048104846FFF7C5FF9DF80D3043B18DE823
:106A980030000023424639467069FEF779FA01E072
:106AA8004FF0FF300BB0BDE8F083000038B54FF46D
:106AB8007A7383600B4B03F108026C330025036182
:106AC8004FF0FF3304464560026043611C30FEF717
:106AD800B3FF4FF40073E5862587E5632364656497
:106AE800204638BD4C8A0D0010B590F84830044651
:106AF80023B1C06B10B1012100F055FB0023E36303
:106B080084F848302364E386238710BD70B50446B3
:106B180016460D46FFF7E8FF0023E66323643EB9F7
:106B280035B12846FDF7B5FA0123E06384F848300B
:106B3800E36B03B12564206C003018BF012070BDE1
:106B4800F8B51746C26B05460C461AB9016C09B16F
:106B5800FFF7DCFF04340FCC05F120060FC62368CD
:106B680033700023AF86EB862B87286CF8BD70B591
:106B7800C26B04460E461AB9016C09B1FFF7C6FF8D
:106B8800E16B0022E286228749B1226C3AB1236880
:106B980020461D6B3346A8470028C8BF20872368B6
:106BA80020461B69BDE8704018477047417470471C
:106BB80008B5007CFEF744FA20EAE07008BD08B585
:106BC800007CFEF715FA20EAE07008BD08B5007CE5
:106BD800FEF71EFA30EA200028BF4FF0FF3008BD4C
:106BE80008B5007CFEF70CFA30EA200028BF4FF009
:106BF800FF3008BD007CFEF713BA10B51421044617
:106C080000F0D1FA204610BD70B5457C04460E460A
:106C180025B9007CFEF714FA002805DD3146207CF2
:106C2800BDE87040FEF7DCB9284670BD10B50446D3
:106C380008461146002262604FF47A72A260054A43
:106C480022600122207462741A46FEF7C1F92046B8
:106C580010BD00BFC48A0D00007CFEF7E9B9000032
:106C680038B50C4D296811F0010411D12846FDF7FB
:106C780016FA68B1084A094B09482146FFF7D6FFBA
:106C88002846FDF711FA074A0749054800F086FA31
:106C9800034838BD40E6032044E60320BCE5032052
:106CA800A8E50320ECE10320B36B0D0041747047A5
:106CB800704708B50021007CFEF7E2F930EA2000B1
:106CC80028BF4FF0FF3008BD08B50121007CFEF752
:106CD800D7F930EA200028BF4FF0FF3008BD08B5CB
:106CE800007CFEF7C5F920EAE07008BD08B5007C15
:106CF800FEF7B6F920EAE07008BD007CFEF7D0B9CF
:106D080010B51421044600F04EFA204610BD38B5DF
:106D18000446007C0D46FEF7ABF9002801DC607CD8
:106D280028B12946207CFEF7B3F920EAE07038BD87
:106D380010B50446002363604FF47A73A360054BD3
:106D4800236001230846217463741146FEF780F915
:106D5800204610BDF48A0D0010B514220446002107
:106D680001F099F8204610BD30B50E4D87B001A846
:106D7800FFF7F2FF296811F0010410D12846FDF74A
:106D88008EF960B101AA21460748FFF7D1FF2846CE
:106D9800FDF78AF9054A0649034800F0FFF9024859
:106DA80007B030BDC8E60320CCE60320ECE10320A1
:106DB800B96C0D00704701207047000083891BB132
:106DC8000369B3F1004F02D19FED050A704707EE42
:106DD800903A9FED047AF8EEE77A87EE870A7047D3
:106DE800000000000000C84283891BB18369B3F129
:106DF800004F02D19FED050A704707EE903A9FEDCC
:106E0800047AF8EEE77A87EE870A704700000000F8
:106E18000000C842002211464068FEF7F5B910B5D7
:106E28002421044600F0BFF9204610BD0022114677
:106E38004068FEF709BA002211464068FEF714BA06
:106E480000224068FEF708BA002281F0010140687C
:106E5800FEF7F2B900231A4619464068FEF7E4B96E
:106E680000231A4619464068FEF7D6B90022114693
:106E78004068FEF7B9B9002202214068FEF7BCB9A4
:106E880000231A464068FEF7A7B9000083897BB142
:106E9800036A002B0CDB07EE903ADFED076A9FEDE3
:106EA800070AB8EEE77AC7EE267A27EE800A704717
:106EB800BFEE000A704700BF00FF7F470000C842CE
:106EC80083897BB14369002B0CDB07EE903ADFED39
:106ED800076A9FED070AB8EEE77AC7EE267A27EE2B
:106EE800800A7047BFEE000A704700BF00FF7F4767
:106EF8000000C84270B50D46064600F10C040FCDDF
:106F08000FC495E8030084E803003369B3F1004F28
:106F18000EBF0223642293FBF2F37360B369B3F1EB
:106F2800004F0EBF0023642293FBF2F3B3600120ED
:106F380070BD00002DE9F041164B0360002588461E
:106F48000227182686B047608560324629460446DF
:106F58000C3000F0A0FF2A462946D8F80400FEF7B6
:106F680053F990B132462946684600F094FF2A4604
:106F780069462846ADF80060FEF79AF820B96946D8
:106F88002046FFF7B7FF00E06760204606B0BDE87F
:106F9800F08100BF588B0D00024B04225A60024A50
:106FA8001A607047E0E60320248B0D0008B50C4BEF
:106FB80033B1FFF7D9FE03681B699847002809DC3D
:106FC800084B63B1FFF74CFE03681B69984700281C
:106FD80003DC08BDAFF30080F2E7AFF3008008BD23
:106FE800000000000000000008B5FFF7DFFFFDF714
:106FF800DFFE014B186008BDECE6032007B500234F
:1070080000931A466FF07701FEF7A4F803B05DF815
:1070180004FB000007B543880A2B08D0502B09D180
:10702800094B1B683BB103B05DF804EB1847FFF749
:10703800E5FF06E0002300931A466FF07701FEF79C
:1070480089F803B05DF804FBE8E6032010B5FDF706
:107058009FFE044600F028FF074B13B12046AFF30C
:10706800008000210448FEF7AFF800210348BDE87E
:107078001040FEF765B800BF000000001D700D004D
:1070880010B504460F48FEF703FF28B1A4F10B031F
:10709800022B01D8002010BD00F03EF8FEF78AFC54
:1070A80008B1012CF6D9FFF7DBFDFFF7D5FD18B1C4
:1070B800A4F10903012BEDD9232C8CBF002001205A
:1070C80010BD00BF08E70320232838B504460D4645
:1070D8000AD8FF2908D0FFF7D3FF28B12946204650
:1070E800BDE83840FDF78CBE38BD0D2810B5044604
:1070F8009CBF0E34A4B22046FFF7C2FF50B1032153
:107108002046FDF775FE032804D12046BDE810404F
:10711800FDF78EBE002010BD38B50B4D296811F063
:1071280001040FD12846FCF7BAFF58B12146074899
:10713800FEF72EFC2846FCF7B7FF054A0549034829
:1071480000F02CF8014838BDF0E60320F4E60320EF
:10715800ECE1032041590D0070B50C4C0C4E0D4D5F
:1071680000212046FEF780FE20460B4C3246294679
:1071780000F014F801212046FEF776FE3246294633
:107188002046BDE8704000F009B800BF08E70320BA
:10719800ECE10320615E0D0018E703200B46014671
:1071A800184600F067BDFCF776BF08B5FEF78CF807
:1071B800244B1A68D0075CBF01221A60224B1A6858
:1071C800D1075CBF01221A60204B1A68D2075CBF46
:1071D80001221A601E4B1A68D0075CBF01221A6090
:1071E8001C4B1A68D1075CBF01221A601A4B1A6837
:1071F800D2075CBF01221A60184B1A68D0075CBF1F
:1072080001221A60164B1A68D1075CBF01221A6066
:10721800144B1A68D2075CBF01221A60124B1A6815
:10722800D0075CBF01221A60104B1A68D1075CBFF7
:1072380001221A600E4B1A68D2075CBF01221A603D
:10724800704700BF54E7032050E703204CE70320B2
:1072580048E7032044E7032040E703203CE70320F6
:1072680038E7032034E7032030E703202CE7032026
:1072780028E70320184B1A68D1075CBF01221A605F
:10728800164B1A68D2075CBF01221A60144B1A68A1
:10729800D0075CBF01221A60124B1A68D1075CBF85
:1072A80001221A60104B1A68D2075CBF01221A60CB
:1072B8000E4B1A68D0075CBF01221A600C4B1A6883
:1072C800D1075CBF01221A600A4B1A68D2075CBF5B
:1072D80001221A60704700BF74E7032070E703209B
:1072E8006CE7032068E7032064E7032060E70320D6
:1072F8005CE7032058E70320184B1A68D1075CBFE6
:1073080001221A60164B1A68D2075CBF01221A6064
:10731800144B1A68D0075CBF01221A60124B1A6816
:10732800D1075CBF01221A60104B1A68D2075CBFF4
:1073380001221A600E4B1A68D0075CBF01221A603E
:107348000C4B1A68D1075CBF01221A600A4B1A68F5
:10735800D2075CBF01221A60704700BF94E7032080
:1073680090E703208CE7032088E7032084E70320C5
:1073780080E703207CE7032078E70320244B1A6882
:10738800D0075CBF01221A60224B1A68D1075CBF84
:1073980001221A60204B1A68D2075CBF01221A60CA
:1073A8001E4B1A68D0075CBF01221A601C4B1A6872
:1073B800D1075CBF01221A601A4B1A68D2075CBF5A
:1073C80001221A60184B1A68D0075CBF01221A60A4
:1073D800164B1A68D1075CBF01221A60144B1A6851
:1073E800D2075CBF01221A60124B1A68D0075CBF33
:1073F80001221A60104B1A68D1075CBF01221A607B
:107408000E4B1A68D2075CBF01221A60704700BF92
:10741800C4E70320C0E70320BCE70320B8E7032044
:10742800B4E70320B0E70320ACE70320A8E7032074
:10743800A4E70320A0E703209CE7032098E70320A4
:1074480081F0004102E000BF83F0004330B54FEA0D
:1074580041044FEA430594EA050F08BF90EA020F7A
:107468001FBF54EA000C55EA020C7FEA645C7FEA0D
:10747800655C00F0E2804FEA5454D4EB5555B8BF30
:107488006D420CDD2C4480EA020281EA030382EAA1
:10749800000083EA010180EA020281EA0303362D33
:1074A80088BF30BD11F0004F4FEA01314FF4801C06
:1074B8004CEA113102D0404261EB410113F0004F18
:1074C8004FEA03334CEA133302D0524263EB4303CF
:1074D80094EA050F00F0A780A4F10104D5F1200E6D
:1074E8000DDB02FA0EFC22FA05F2801841F10001C8
:1074F80003FA0EF2801843FA05F359410EE0A5F19C
:1075080020050EF1200E012A03FA0EFC28BF4CF0CC
:10751800020C43FA05F3C01851EBE37101F0004582
:1075280007D54FF0000EDCF1000C7EEB00006EEB8F
:107538000101B1F5801F1BD3B1F5001F0CD3490819
:107548005FEA30004FEA3C0C04F101044FEA445270
:1075580012F5800F80F09A80BCF1004F08BF5FEAF7
:10756800500C50F1000041EB045141EA050130BDD7
:107578005FEA4C0C404141EB010111F4801FA4F17A
:107588000104E9D191F0000F04BF01460020B1FACF
:1075980081F308BF2033A3F10B03B3F120020CDA07
:1075A8000C3208DD02F1140CC2F10C0201FA0CF0E5
:1075B80021FA02F10CE002F11402D8BFC2F1200C4A
:1075C80001FA02F120FA0CFCDCBF41EA0C01904000
:1075D800E41AA2BF01EB0451294330BD6FEA040449
:1075E8001F3C1CDA0C340EDC04F11404C4F1200234
:1075F80020FA04F001FA02F340EA030021FA04F346
:1076080045EA030130BDC4F10C04C4F1200220FA9C
:1076180002F001FA04F340EA0300294630BD21FADA
:1076280004F0294630BD94F0000F83F4801306BFA0
:1076380081F480110134013D4EE77FEA645C18BF94
:107648007FEA655C29D094EA050F08BF90EA020F2B
:1076580005D054EA000C04BF1946104630BD91EA23
:10766800030F1EBF0021002030BD5FEA545C05D126
:107678004000494128BF41F0004130BD14F5800465
:107688003CBF01F5801130BD01F0004545F0FE41D9
:1076980041F470014FF0000030BD7FEA645C1ABF0E
:1076A800194610467FEA655C1CBF0B46024650EA45
:1076B800013406BF52EA033591EA030F41F4002171
:1076C80030BD00BF90F0000F04BF0021704730B5F7
:1076D8004FF4806404F132044FF000054FF00001CC
:1076E80050E700BF90F0000F04BF0021704730B58D
:1076F8004FF4806404F1320410F0004548BF404262
:107708004FF000013EE700BF42004FEAE2014FEAB6
:1077180031014FEA02701FBF12F07F4393F07F4F91
:1077280081F06051704792F0000F14BF93F07F4FC3
:10773800704730B54FF4607401F0004521F0004106
:1077480020E700BF50EA010208BF704730B54FF08C
:1077580000050AE050EA010208BF704730B511F091
:10776800004502D5404261EB41014FF4806404F1C9
:1077780032045FEA915C3FF4DCAE4FF003025FEA4B
:10778800DC0C18BF03325FEADC0C18BF033202EBD3
:10779800DC02C2F1200300FA03FC20FA02F001FA2D
:1077A80003FE40EA0E0021FA02F11444C1E600BFCC
:1077B80070B54FF0FF0C4CF4E06C1CEA11541DBF7F
:1077C8001CEA135594EA0C0F95EA0C0F00F0DEF84A
:1077D8002C4481EA030621EA4C5123EA4C5350EA2F
:1077E800013518BF52EA033541F4801143F4801380
:1077F80038D0A0FB02CE4FF00005E1FB02E506F011
:107808000042E0FB03E54FF00006E1FB03569CF065
:10781800000F18BF4EF0010EA4F1FF04B6F5007F6B
:1078280064F5407404D25FEA4E0E6D4146EB0606DD
:1078380042EAC62141EA55514FEAC52040EA5E5066
:107848004FEACE2EB4F1FD0C88BFBCF5E06F1ED810
:10785800BEF1004F08BF5FEA500E50F1000041EB47
:10786800045170BD06F0004646EA010140EA0200F4
:1078780081EA0301B4EB5C04C2BFD4EB0C0541EA16
:10788800045170BD41F480114FF0000E013C00F32B
:10789800AB8014F1360FDEBF002001F0004170BD4F
:1078A800C4F10004203C35DA0C341BDC04F1140468
:1078B800C4F1200500FA05F320FA04F001FA05F2F4
:1078C80040EA020001F0004221F0004110EBD370C1
:1078D80021FA04F642EB06015EEA430E08BF20EAED
:1078E800D37070BDC4F10C04C4F1200500FA04F390
:1078F80020FA05F001FA04F240EA020001F0004122
:1079080010EBD37041F100015EEA430E08BF20EA94
:10791800D37070BDC4F1200500FA05F24EEA020EDC
:1079280020FA04F301FA05F243EA020321FA04F00B
:1079380001F0004121FA04F220EA020000EBD370C2
:107948005EEA430E08BF20EAD37070BD94F0000FC2
:107958000FD101F00046400041EB010111F4801FF6
:1079680008BF013CF7D041EA060195F0000F18BFA7
:10797800704703F00046520043EB030313F4801FE3
:1079880008BF013DF7D043EA0603704794EA0C0F9D
:107998000CEA135518BF95EA0C0F0CD050EA4106B3
:1079A80018BF52EA4306D1D181EA030101F0004130
:1079B8004FF0000070BD50EA410606BF1046194658
:1079C80052EA430619D094EA0C0F02D150EA013664
:1079D80013D195EA0C0F05D152EA03361CBF1046A5
:1079E80019460AD181EA030101F0004141F0FE4144
:1079F80041F470014FF0000070BD41F0FE4141F4C8
:107A0800780170BD70B54FF0FF0C4CF4E06C1CEAC7
:107A180011541DBF1CEA135594EA0C0F95EA0C0F7C
:107A280000F0A7F8A4EB050481EA030E52EA033537
:107A38004FEA013100F088804FEA03334FF0805558
:107A480045EA131343EA12634FEA022245EA111585
:107A580045EA10654FEA00260EF000419D4208BF36
:107A6800964244F1FD0404F5407402D25B084FEAE3
:107A78003202B61A65EB03055B084FEA32024FF48F
:107A880080104FF4002CB6EB020E75EB030E22BFEC
:107A9800B61A754640EA0C005B084FEA3202B6EBAC
:107AA800020E75EB030E22BFB61A754640EA5C005B
:107AB8005B084FEA3202B6EB020E75EB030E22BFEB
:107AC800B61A754640EA9C005B084FEA3202B6EBEC
:107AD800020E75EB030E22BFB61A754640EADC00AB
:107AE80055EA060E18D04FEA051545EA16754FEA0D
:107AF80006164FEAC30343EA52734FEAC2025FEA2B
:107B08001C1CC0D111F4801F0BD141EA00014FF0B9
:107B180000004FF0004CB6E711F4801F04BF01438A
:107B28000020B4F1FD0C88BFBCF5E06F3FF6AFAEA6
:107B3800B5EB030C04BFB6EB020C5FEA500C50F136
:107B4800000041EB045170BD0EF0004E4EEA1131B9
:107B580014EB5C04C2BFD4EB0C0541EA045170BDC0
:107B680041F480114FF0000E013C90E645EA060E04
:107B78008DE60CEA135594EA0C0F08BF95EA0C0F32
:107B88003FF43BAF94EA0C0F0AD150EA01347FF47A
:107B980034AF95EA0C0F7FF425AF104619462CE751
:107BA80095EA0C0F06D152EA03353FF4FDAE1046B4
:107BB800194622E750EA410618BF52EA43067FF405
:107BC800C5AE50EA41047FF40DAF52EA43057FF495
:107BD800EBAE12E74FEA4102B2F1E04324BFB3F53E
:107BE800001CDCF1FE5C0DD901F0004C4FEAC0022C
:107BF8004CEA5070B2F1004F40EB830008BF20F010
:107C08000100704711F0804F21D113F13872BCBFC9
:107C180001F00040704741F480114FEA5252C2F11E
:107C28001802C2F1200C10FA0CF320FA02F018BF67
:107C380040F001004FEAC1234FEAD32303FA0CFCBA
:107C480040EA0C0023FA02F34FEA4303CCE77FEA49
:107C5800625307D150EA01331EBF4FF0FE4040F493
:107C68004000704701F0004040F0FE4040F4000042
:107C7800704700BF10B5054C13462CB10A460146A3
:107C88000220AFF3008010BD204610BD00000000A8
:107C980038B5074B1C68E36B05461BB92420FDF774
:107CA800EBFAE063E16B2846BDE8384000F002B823
:107CB8009CE103202DE9F0410C46804600F062FC6F
:107CC80021460746404600F061FC466906F26C769C
:107CD800B307044605D1642296FBF2F302FB136353
:107CE8004BB94FF4C87596FBF5F305FB1365B5FA68
:107CF80085F35B0900E001235F4A302505FB032576
:107D080000F074FA00F074FA5C4B1B68F3B17B68FE
:107D18009E4205D13968D8F80030FA6941B90AE0BD
:107D2800304600F0BBF90028F4D14FF0FF330DE0E6
:107D3800934208DB01E0934207DABA6B9342ACBF87
:107D48000023012302E0002300E001232362236AC9
:107D5800012B0CBFF96B396A4FF461633C2091FB2E
:107D6800F3F603FB1613616893FBF0F200FB123085
:107D78002368891AA26861601B1A921B3B2B236037
:107D8800A26003DD013161603C3B04E0002B03DAB3
:107D9800013961603C33236063683B2B03DD0132AA
:107DA800A2603C3B04E0002B03DA013AA2603C33BA
:107DB8006360A368172B22DDE2690132E261A269E0
:107DC8000132062AC8BF0022A261E268183B0132CC
:107DD800A3602369E26055F823108A4246DD013327
:107DE8000C2B0CBF63692361A2EB0102E26001BFA7
:107DF800013300222261636108BFE26136E0002B93
:107E080034DAE269013AE261A269013A48BF06221E
:107E1800A261E2681833013AE260A36032BB2369C9
:107E2800013B01D423611DE00B23236163695A1EC2
:107E380012F0030F626103F26B7305D1642193FBA7
:107E4800F1F201FB12324AB94FF4C87193FBF1F217
:107E580001FB1233B3FA83F35B0900E0012303F556
:107E6800B673E361236955F82330E36000F0BFF986
:107E78002046BDE8F08100BFD88C0D00E4E7032060
:107E880010B5431E0A44914204D011F8014B03F87F
:107E9800014FF8E710BD02440346934202D003F8AD
:107EA800011BFAE77047000038B5124B1C68A36B3A
:107EB8000546D3B91820FDF7DFF943F20E33A06366
:107EC80003804AF6CD33438041F2342383804EF257
:107ED8006D63C3804DF6EC630381052343810B2357
:107EE800838101220023C0E90423A36B00221D61C2
:107EF8005A6138BD9CE1032010F8012B11F8013BB1
:107F0800012A28BF9A42F7D0D01A7047034611F8C1
:107F1800012B03F8012B002AF9D17047024B0146C7
:107F2800186800F003B800BF9CE1032070B506464E
:107F380008460C4600F00DF8451C29463046FDF76A
:107F4800CBF9064618B12A462146FFF799FF304675
:107F580070BD034613F8012B002AFBD1181A01380B
:107F6800704730B582B1451E013915F8013F11F847
:107F7800014FA34206D1EC431444E04201D0002B48
:107F8800F3D11C46181B30BD104630BD2DE9F04713
:107F980080463C48D0F800900E46354615F8014B0F
:107FA80009EB0400407800F0080000F0FF0708B172
:107FB8002E46F2E72D2C03D1B51C7478012703E077
:107FC8002B2C04BF7478B51C13B1102B0AD153E0C5
:107FD800302C4FD1287800F0DF00582845D16C7834
:107FE800102302354FF0FF3C0026BCFBF3FC03FBDB
:107FF8000CFA6FEA0A0A304609EB040E9EF801E013
:108008001EF0040F01D0303C0BE01EF0030E1AD016
:10801800BEF1010F0CBF4FF0370E4FF0570ECEEBED
:108028000404A3420FDD002E08DB604506D801D109
:10803800544503DC03FB0040012601E04FF0FF3606
:1080480015F8014BD8E7002E07DA2223C8F80030CC
:108058004FF0FF302AB9BDE8F08707B1404272B14E
:1080680006B1691E1160BDE8F0873024002BB9D134
:108078000823B7E70A23B5E7302CABD0B2E7BDE851
:10808800F08700BF38E1032013460A46014602483C
:108098000068FFF77BBF00BF9CE103202DE9F74F85
:1080A800044600F06FFA40F2B1739C4240F39680A8
:1080B8006FF4F663E318A4F2B2729B1040F26D15E8
:1080C80005FB0235A4F26D726FF0630392FBF3F3C4
:1080D8006FF4C8622B44A5184FF4C87295FBF2F5EB
:1080E8001D44642394FBF2F794FBF3F602FB174755
:1080F80003FB164600F13803B7FA87FE019304F034
:10810800030344604FEA5E1E014600934FF0070CDC
:108118000B7A4A2B0ED14B69009AEC1802B906B9B2
:1081280027B93B2BD4BF0023012300E000232344BD
:10813800013B3FE0442B02D14B692B443AE0009BC2
:108148002BB9002E0CBFF0464FF0010800E0F046B6
:10815800244BCC68302202FB0838A8F1040AA9464F
:108168000123A34204DA5AF804BF0133D944F8E7DB
:1081780009F1040393FBFCFBCBEBCB0A012CCAEB04
:10818800030A4B69B8BF012404F18044B3EB0A0A1F
:108198000B6904F1FF3403F1FF3348BF0AF1070A02
:1081A800C3EBC30358F824405344A34201DB073B05
:1081B800FBE74B448C690C4A02FB03430C6A2344DB
:1081C80041F81C3F019B9942A2D1C369826B93423B
:1081D800ACBF002301230360012000E0002003B0AE
:1081E800BDE8F08FD88C0D008051010070477047B2
:1081F800014B186800F002B89CE103202DE9F04F0C
:108208008DB0074600F0BEF9B049B14E0446384675
:1082180000F0B0F9054660B9AE4BAF4A1860AF4BF5
:108228001860AF4B30681A605A60FDF72DF835605A
:1082380048E1316879B93068FDF726F82846FFF734
:1082480088FE411C3846FDF747F8306048B129469A
:10825800FFF75CFE05E0FFF74FFE002800F03281D3
:10826800E9E72B789F4AA0493A2B08BF01350AAEA7
:1082780033462846FDF718F8002840F323810A9B67
:10828800EF18EB5C2D2B03D101374FF0FF3503E0DE
:108298002B2B08BF013701250DF1200A0DF11E0B0C
:1082A8004FF000080396CDF808A00196CDF800B06D
:1082B800334607AA8D49ADF81E803846ADF82080B0
:1082C800FCF7F2FF404540F3FD80BDF81E20BDF8E5
:1082D8002030DFF824923C2101FB0233BDF81C203A
:1082E8004FF4616101FB02335D4325627C4D7D4B98
:1082F8002B600A9B7C491F444A4633463846FCF7A4
:10830800D3FF404508DC2B686B60724B226A1A6009
:10831800724BC3F80080D5E00A9BC5F80490FD189D
:10832800FB5C2D2B03D101354FF0FF3703E02B2BDE
:1083380008BF013501270023ADF81C30ADF81E3009
:10834800ADF820300A930396CDF808A00196CDF831
:1083580000B0334607AA65492846FCF7A5FF002860
:1083680004DC236AA3F56163E3630EE0BDF81E2015
:10837800BDF820303C2101FB0233BDF81C204FF42E
:10838800616101FB02335F43E7630A9B27461D4493
:108398004FF000092B782C2B08BF013595F8008089
:1083A800B8F14D0F26D10DF12603029309AB0093C6
:1083B8000396019633460DF122024D492846FCF7F3
:1083C80073FF03287ED1BDF822104B1E0B2B79D8E2
:1083D800BDF82420531E042B74D8BDF82630062B74
:1083E80070D887F80880F9603A617B610A9B05EBD1
:1083F80003082AE0B8F14A0F06BF01354346442373
:108408000A220BA928460593FFF73EFEDDF82C80CB
:10841800ADF826004545059B14D14D23B9F1000F51
:1084280007D123720323E36002232361C4F8149065
:108438000BE084F824300B23A3620123E3620023BA
:10844800236302E080B23B7278610223ADF81C30EE
:108458000023ADF81E30ADF820300A9398F80030AC
:108468002F2B0BD10396CDF808A00196CDF800B0BC
:10847800334607AA1F494046FCF716FFBDF81E20E1
:10848800BDF820303C2101FB0233BDF81C204FF41D
:10849800616101FB0233BB610A9D09F10109B9F170
:1084A800020F454407F11C077FF474AF6068FFF7BB
:1084B800F5FD084B226A1A60E36B9B1A074A18BF3E
:1084C800012313600DB0BDE8F08F00BF388D0D009B
:1084D800E0E70320E8E703203B8D0D00E4E70320F5
:1084E800A0E10320D3E703203F8D0D00628D0D002E
:1084F8004E8D0D00618D0D00C8E703202DE9F84F62
:1085080007468B46904600F0D9F8194B1D689A46E5
:108518003DB15C46234613F8012B42B13D2A1C4667
:10852800F8D1384600F0CBF80020BDE8F88FCBEB47
:108538000404A94659F8040B0028F2D022465946EB
:10854800FFF70FFD88B959F8043C1E191B5D3D2B38
:108558000BD1DAF80030ED1AAD103846C8F80050E3
:1085680000F0ADF8701CBDE8F88F4D46E1E700BF9C
:10857800E8E1032007B501AAFFF7C0FF03B05DF8E3
:1085880004FB000000487047A8E103200268474B3D
:10859800F0B592FBF3F403FB1422002ABCBF02F5EA
:1085A800A83202F5C0724FF4616004F52F2492FBE3
:1085B800F0F300FB13224FF03C00ACBF04F66C2430
:1085C80004F66B248B6092FBF0F300FB13224B60E4
:1085D8000A600723E21C92FBF3F3C3EBC303D31A2D
:1085E8008B61334B334D94FBF5F503FB054448F69B
:1085F800AC62B4FBF2F2224440F2B457B4FBF7F396
:10860800D21A2D48B4FBF0F048F69466131AB3FB5F
:10861800F6F6344440F26D12B3FBF2F0B3FBF7F315
:10862800E31A02FB1033992403EB83020232B2FBF4
:10863800F4F20A2A04FB02F404F102064FF00504DE
:10864800B6FBF4F434BF02266FF0090616444FF463
:10865800C87202FB05055F1C012E98BF0135B3F5F2
:10866800997FA7EB040702D3A3F5997214E0820758
:1086780005D16424B0FBF4F204FB12024AB94FF4AA
:10868800C872B0FBF2F402FB1400B0FA80F252098F
:1086980000E001223B331A44A5F26C750023CA613D
:1086A8004D610E61CF600B620846F0BD805101003C
:1086B8004FC5FDFFB13A0200B03A0200704770475B
:1086C8001D400D0059400D0085400D0089400D00EA
:1086D80000000000252E306625250025332E316642
:1086E80020560025332E3166204465677265657310
:1086F800204300566572626F7365204D6F64652074
:10870800537461727465642E003000566572626F2E
:108718007365204D6F64652053746F707065642EA7
:10872800007B2254656D7065726174757265223ABA
:1087380025332E31662C20224261747465727922A9
:108748003A25332E31667D004169722D5175616C71
:108758006974792D486F6F6B004D454153555249E7
:108768004E47005374617465005245504F52544946
:108778004E470054656D7065726174757265004985
:10878800444C450063656C736975730052656C658C
:10879800617365005369676E616C0042617474654A
:1087A800727900766572626F73654D6F646500312A
:1087B8002E3038000000000000000000000000001B
:1087C8002F530D0035530D004D530D0043530D002D
:1087D80031530D00000000000000000023590D0077
:1087E80019590D000F590D0005590D00F9580D00C4
:1087F800ED580D00E1580D00D9580D00CF580D0067
:10880800C5580D00A95C0D00000000000000000024
:1088180041590D008B590D0063590D0043590D0046
:108828006B590D0073590D007B590D0083590D00CC
:108838000000000000000000DD590D00CD590D00BA
:10884800CF590D0066006C6E00666E00636F64653C
:108858000064657461696C000D0A0025303130755B
:1088680020005D20002C200028293A2000205B00F1
:10887800636F6465203D2000256900646574616943
:108888006C73203D200062617564005365726961F4
:108898006C0053657269616C3100747970650070A1
:1088A8006172616D00636D6400696400686E6400E4
:1088B8007374726D0066696C74006C766C00616428
:1088C8006448616E646C65720072656D6F766548A8
:1088D800616E646C657200656E756D48616E646C7E
:1088E800657273004A534F4E53747265616D4C6FD5
:1088F8006748616E646C657200617070006E6F6EBF
:108908006500747261636500696E666F00776172F5
:108918006E006572726F720070616E696300616CDF
:108928006C0000000000000000000000415B0D002A
:10893800375B0D002D5B0D00B54C0D00215B0D0064
:10894800155B0D00095B0D00015B0D00F75A0D006A
:10895800ED5A0D00A95C0D000000000000000000A9
:10896800415C0D004B5C0D00555C0D005F5C0D001B
:10897800695C0D00755C0D00815C0D008D5C0D005F
:10898800955C0D009F5C0D00A95C0D0000000000C7
:1089980000000000615E0D00635E0D000000000035
:1089A8000000000039600D003F600D0027650D00D4
:1089B8004D600D003B600D0000000000000000004D
:1089C800C14B0D001B4C0D00B15F0D00CB5F0D00BE
:1089D800CD630D000F620D00E1610D00F55F0D0024
:1089E800A5620D0051600D0043620D009F630D00EC
:1089F800F75F0D002F600D00DD5F0D0041610D0078
:108A0800C1610D00776972696E67007265637620CF
:108A18006572726F72203D20256400252B30336407
:108A28003A253032750025592D256D2D256454259C
:108A3800483A254D3A2553257A0061736374696D68
:108A4800650000000000000000000000A14B0D00C0
:108A5800074C0D0059660D0083670D0051660D0027
:108A68006F660D008D660D00A7660D00CB660D00C4
:108A780067670D00696A0D0009680D0089690D00B6
:108A880039660D00496B0D000D690D0041680D0038
:108A9800776B0D00AD670D0047660D00E9670D00A7
:108AA8004D660D00A9660D00F0FFFFFF00000000F5
:108AB800C3660D000000000000000000B36B0D004D
:108AC800036C0D00116C0D00895D0D00C76B0D0066
:108AD800E96B0D00D56B0D00FD6B0D00B56B0D003E
:108AE800B96B0D000000000000000000B96C0D001B
:108AF800096D0D00176D0D00895D0D00F56C0D00F9
:108B0800BB6C0D00D16C0D00036D0D00E76C0D0002
:108B1800B56C0D000000000000000000896E0D001B
:108B28007F6E0D00756E0D001D6E0D00696E0D00D7
:108B38005D6E0D00516E0D00496E0D003F6E0D000B
:108B4800356E0D00A95C0D0000000000000000005B
:108B5800BD6D0D00276E0D00BF6D0D00C96E0D00B7
:108B6800C56D0D00956E0D00F16D0D0000202020E3
:108B780020202020202028282828282020202020C5
:108B88002020202020202020202020202088101095
:108B980010101010101010101010101010040404F1
:108BA80004040404040404101010101010104141AF
:108BB800414141410101010101010101010101019D
:108BC80001010101010101011010101010104242B1
:108BD800424242420202020202020202020202026D
:108BE800020202020202020210101010200000000D
:108BF800000000000000000000000000000000006D
:108C0800000000000000000000000000000000005C
:108C1800000000000000000000000000000000004C
:108C2800000000000000000000000000000000003C
:108C3800000000000000000000000000000000002C
:108C4800000000000000000000000000000000001C
:108C5800000000000000000000000000000000000C
:108C680000000000000000000000000000000000FC
:108C780000000000000000000000000000000000EC
:108C880000000000000000000000000000000000DC
:108C980000000000000000000000000000000000CC
:108CA80000000000000000000000000000000000BC
:108CB80000000000000000000000000000000000AC
:108CC800000000000000000000000000000000009C
:108CD8001F0000001C0000001F0000001E00000014
:108CE8001F0000001E0000001F0000001F00000001
:108CF8001E0000001F0000001E0000001F000000F2
:108D08001F0000001D0000001F0000001E000000E2
:108D18001F0000001E0000001F0000001F000000D0
:108D28001E0000001F0000001E0000001F000000C1
:108D3800545A00474D54002531305B5E302D392C94
:108D48002B2D5D256E004D256875256E2E256875C1
:108D5800256E2E256875256E002F256875256E3AB7
:108D6800256875256E3A256875256E0019450D002C
:108D7800AF470D00914B0D00314C0D008D4C0D008F
:108D8800C14C0D00D54C0D00D94C0D00E94C0D001F
:108D9800114D0D00394D0D002D590D00DD5A0D00F6
:108DA800F55B0D00755D0D00455E0D00995F0D00CA
:108DB80025660D00A16F0D0061710D00B9710D00E0
:108DC8007D720D0001730D0085730D000000000019
:088DD800000000000000000093
:108DE00088130000428A0D00748B0D000000000003
:108DF000788C0D00988C0D00B88C0D0000000000E0
:108E0000000000000000000000000000F9860D00D6
:108E10000000000000000000000000000000000052
:108E20000000000000000000000000000000000042
:108E30000000000000000000000000000000000032
:108E40000000000000000000000000003CE10320E2
:108E50003B8D0D003B8D0D00010000000000000067
:108E60004A000000000000000000000000000000B8
:108E70000000000000000000000000004A000000A8
:108E800000000000000000000000000000000000E2
:0C8E90000000000000000000ECE70320E0
:108E9C00FFFFFFFF00000102030405060708090A93
:108EAC000B0C0D0E0F101112131415161718191A8E
:088EBC001B1C1D1E1F202800D5
:048EC4007856341296
:04000003D0004018D1
:00000001FF
