:02000002D0002C
:1040000000400D0098840D00000006000C00050122
:084010000401BB0400000000E4
:10401800D07C0D0009480A49884208B505D0094AEC
:10402800824202D0121A03F08BF90748074A00218E
:10403800121A03F090F9014808BD00BF30E20320CE
:10404800B0830D00F0E20320F0E20320F0E7032044
:1040580070B502F057FA074C074BE41AA40800257C
:104068001E46A54204D056F8253098470135F8E792
:1040780070BD00BFAC830D006C830D0000F0CEBA9C
:1040880008B500F097F9BDE8084002F009BA01F058
:10409800C9B801F0CFB801F0CDB80078B0FA80F017
:1040A80040097047012303707047012A02D0022A91
:1040B80002D004E0016002E00B6800B10360002058
:1040C80070471FB50468684601F0ADFE6846A04712
:1040D8000446684601F0B7FE204604B010BD37B567
:1040E8009DF8184023438DF800303C23054601F025
:1040F80057FA284603B030BD10B5084C00F08EFEC4
:104108002368C01A064B1B68984204D900F086FE43
:104118002060012010BD002010BD00BF1CE303205B
:1041280030E2032008B5FFF7E7FF18B1BDE8084003
:10413800FFF7E2BF00F0EEFFF5E7000000B58DB035
:104148000A4903A802F052F903A802F015F910EE83
:10415800100A02F035FD064ACDE900011021054894
:1041680001F080F80DB05DF804FB00BFE0E6032025
:10417800EA7C0D00F4E2032007B5212002F011FAD1
:1041880002F00CFD0DA3D3E9002302F06DFD02F04F
:104198007DFF074B186002F013FD064ACDE90001C8
:1041A8001021054801F05EF803B05DF804FB00BF7C
:1041B8005CE30320F17C0D0060E303209402C1D28C
:1041C800AF63523F13B51348134C00F0CFFB78B1DF
:1041D800104800F0EFFB10EE100A84ED000A02F020
:1041E800EFFC0E4ACDE9000110210D4801F03AF824
:1041F8000C4B94ED007AD3ED007A77EE677AFDEEFA
:10420800E77A17EE900A10B183ED007A012002B028
:1042180010BD00BF28E3032018E30320F97C0D003C
:1042280004E3032014E3032008B5FFF787FFFFF733
:10423800A3FFBDE80840FFF7C5BF38B504680546C9
:104248007CB16368013B63605BB9236820469B6867
:104258009847A368013BA3601BB923682046DB6825
:104268009847284638BD00007FB52949054601F022
:1042780044FE10B1274B1E7886B12549284601F027
:104288003CFEA8B1234B1B7893B1FFF74BFF224BA1
:10429800224A1B7800248DF800402EE001241C706F
:1042A800FFF740FF1C4B1E4A1B788DF8006024E086
:1042B8001C49284601F021FE60B1164B1C784CB110
:1042C80000251D70FFF72EFF134B174A1B788DF83A
:1042D800005012E01349284601F00FFE20B10D4BA3
:1042E8001C781CB100240FE004460DE0FFF71AFF0C
:1042F800094B0E4A1B788DF8004002A80C49FFF7BD
:10430800EEFE03A8FFF799FF204604B070BD00BF7A
:10431800877F0D0055E3032054E303201F7D0D0024
:10432800097D0D00387D0D003A7D0D00507D0D0092
:104338009C7E0D0000B5174BC7B0186802F040FC12
:10434800CDE90201144B186802F03AFC134ACDE992
:1043580000014FF4807106A800F084FF104B11494A
:104368001B7800228DF8002004A806AAFFF7B7FEE4
:1043780005A8FFF762FF01F05FFE0B4B186000F025
:104388004DFD0A4B18600A4B01221A7047B05DF8C0
:1043980004FB00BF5CE3032018E303206A7D0D00E3
:1043A80054E30320917D0D0034E2032058E30320F9
:1043B80070E303207FB55B4800F0D8FA60B15A4B30
:1043C8005A491B7800228DF8002002A8584AFFF7A6
:1043D80086FE03A8FFF731FF564C2378013B042BD8
:1043E80000F29D80DFE803F0031D587C9900524DD0
:1043F80001F022FE2B68984200F09180022323707E
:1044080001F01AFE4D4B28601B78002B00F08780C6
:10441800FFF788FE444B00221B788DF80020484A9D
:1044280011E0FFF701FF454E0546A0B103232370B5
:104438003378002B73D0FFF775FE3B4B00221B78B7
:104448008DF800203F4A404902A8FFF748FE03A81C
:10445800FFF7F3FE63E001F0EFFD3C4B1B68C01A69
:104468003B280CD9032323703378002B57D0FFF750
:1044780059FE2D4B364A1B788DF80050E3E701238F
:1044880023703378002B4AD0FFF74CFE264B314A75
:104498001B788DF80050D6E7284B1A781D4662B174
:1044A800214B2D491B7800228DF8002002A82B4AA9
:1044B800FFF715FE03A8FFF7C0FEFFF73BFF042335
:1044C80023702B7843B1FFF72DFE174B00221B7882
:1044D8008DF80020224AB6E7164B05221A701EE016
:1044E800204B1B780BB90123237000F097FC1E4B5F
:1044F8001B68C01A4AF6C873984210D90A4B1B4960
:104508001B7800228DF8002002A8194AFFF7E7FD62
:1045180003A8FFF792FE052300E00123237004B0EF
:1045280070BD00BF28E3032054E30320AA7D0D00DB
:10453800A27D0D0020E3032024E3032055E303209C
:10454800B27D0D00C27D0D00BC7D0D0034E203205C
:10455800DE7D0D00F67D0D00077E0D0004E30320CF
:10456800137E0D0070E3032058E30320247E0D0022
:10457800467F0D002DE9F04184B0084602AF0D4694
:1045880002F047FF00F1080323F00703E846ADEB0C
:10459800030D02AC421C2946204602F057FF9DF845
:1045A8000820154E2AB9337814498DF80020144A8A
:1045B80016E0204602F0BAFDC838002501283378F5
:1045C8008DF800500AD80F4A0F493846FFF787FD83
:1045D800381DFFF732FE0D4B1D7007E00C492246CF
:1045E8003846FFF77CFD381DFFF727FE0837C5461C
:1045F800BD46BDE8F08100BF54E30320457E0D00B1
:104608003D7E0D00527E0D00647E0D0070E3032098
:104618006A7E0D000023042200F06CBD30B5ABB0FB
:1046280002A800F087FD002400237D220AA902A821
:1046380001F075FC234622462749019400940AA8F4
:1046480000F088FDFFF7BEFD24492548FFF7E2FF8B
:1046580024492548FFF7DEFF24492548FFF7DAFFFC
:1046680024492548FFF7D6FF244B0693244B09938A
:104678001020244B0893FFF70AFD054670B1089BEC
:10468800846033B1022206A99847099BEB60089B16
:10469800AB601D4A1D48294600F061FE089B1BB10E
:1046A80006A9032208469847194B1B7863B1194B92
:1046B80019491B7800228DF8002006A8174AFFF731
:1046C8000EFD07A8FFF7B9FD154B012202A81A70C5
:1046D80001F0B9FB2BB030BD7D450D0004E303208C
:1046E800717E0D00E47C0D00797E0D00F4E203205C
:1046F800817E0D0060E30320887E0D0071420D006D
:10470800CB400D00B3400D00957E0D003F530D00CA
:1047180055E3032054E30320BC7D0D00907E0D007B
:1047280020E3032008B5064B01221A7000F08EFB27
:10473800002203210348BDE8084000F016B800BF76
:1047480054E3032028E3032000230022438242612C
:104758008361C3610362436280F8283080F829309E
:1047680080F82A3080F82B30704738B50446154653
:1047780000F094F94FF47A732046A5732382FFF76B
:10478800E3FF204638BD0000F8B52DED028B0B681D
:10479800836100F118054B686B600B78222B044687
:1047A8000AD003D8102B42D1012308E0262B05D0CC
:1047B800282B3CD1022302E0032300E0042384F8E1
:1047C8002930204600F074F92946204600F030FAD6
:1047D800A27B4421204600F0F8F9208A00F05AFD17
:1047E800204600F065F92946204600F021FA00220B
:1047F800B821204600F0E9F900221146204600F0D1
:10480800E4F9204600F054F92946204600F010FA51
:104818000022BE21204600F0D8F994F82930042B54
:1048280009D100221146204600F0CFF903E000200C
:1048380084F8290094E004F11F0504F128062046B5
:1048480000F0E6F905F8010FAE42F8D1082104F1AD
:10485800200000F086FA94F82830834204D001231F
:1048680084F82B3000207BE094F8212094F8203045
:1048780094F8291043EA02230429638227D194F883
:10488800223007EE903A42EA0321D208F8EE678A0E
:1048980007EE902A13F0800F618284F82120B8EE89
:1048A800678A45D018EE900A02F08AF9064618EE93
:1048B800100A0F4602F084F900222B4B02F0D4F9BB
:1048C80002460B463046394602F01AF844E0012900
:1048D80003D044D3032910D941E0B4F9123094F835
:1048E8002720DB00102A638219D194F8262023F0B0
:1048F8000F03C2F10C02134410E094F8242012F0C4
:10490800600202D123F0070308E0202A02D123F035
:10491800030303E0402A02D123F001036382B4F9C0
:10492800123007EE903AFAEECE7AC4ED057A16E028
:1049380018EE100A02F044F900220B4B02F094F929
:10494800064618EE900A0F4602F03AF902460B4660
:104958003046394601F0D6FF02F098FB606101202D
:10496800BDEC028BF8BD00BF0000A03F38B504467F
:10497800FFF7EAFE00F11805294600F077F930B98B
:10498800012384F82A30204600F064F910E007215A
:10499800284600F0E6F9E37F834203D0012384F838
:1049A8002B3005E029462046BDE83840FFF7ECBE2D
:1049B800002038BD90ED050A704700F047BA0000A6
:1049C80010B503682F2B044604D9074A00210A2092
:1049D80000F044FB23681F2B83BF03F01F032360F1
:1049E80002484FF0A04010BD154E0D0000030050C6
:1049F80007B50B4B1B68000119181A5C4B7802A805
:104A080003F01F0343EA421340F8043DFFF7D8FFC1
:104A1800019A01239340C0F80C3503B05DF804FBFC
:104A280074E3032007B50B4B1B68000119181A5CC7
:104A38004B7802A803F01F0343EA421340F8043DF1
:104A4800FFF7BEFF019A01239340C0F8083503B071
:104A58005DF804FB74E3032013B50F4B1B680001DA
:104A68001A181C5C537802A803F01F0343EA441485
:104A780040F8044DFFF7A4FFD0F8103502A840F81D
:104A8800084DFFF79DFFD0F81035009823FA00F085
:104A980000F0010002B010BD74E3032038B50446ED
:104AA8000D462846002101F06BFD2580204638BDC3
:104AB80038B5054600F05AFF0021288800F0D6F9DD
:104AC80000F056FF7D24013C14F0FF042BD0022097
:104AD80000F09CF92888FFF7BFFF0028F3D000F00A
:104AE80045FF2888FFF784FF0121288800F0BEF9D8
:104AF80000F03EFF4FF4F07000F088F900F036FF48
:104B08000021288800F0B2F9462000F07FF92888B3
:104B1800FFF7A2FFB0FA80F400F02AFF4FF4CD703F
:104B2800640900F073F9204638BD38B511F0010565
:104B3800044613D000F01AFF2088FFF759FF01211F
:104B4800208800F093F90A2000F060F920880021FD
:104B580000F08CF900F00CFF372012E000F006FF9F
:104B68002088FFF745FF0121208800F07FF94120C8
:104B780000F04CF92088294600F078F900F0F8FE9A
:104B88000520BDE8384000F041B910B5044600F0F2
:104B9800EDFE2088FFF72CFF0121208800F066F940
:104BA800032000F033F90021208800F05FF90A2083
:104BB80000F02CF92088FFF74FFF044600F0D8FEDC
:104BC800352000F023F9204610BD2DE9F0410546B7
:104BD800884617460826012418EA040F14BF012145
:104BE80000212846FFF7A1FF6400013EE4B2F3D19B
:104BF80067B100F0BBFE2888FFF714FF2888012161
:104C080000F034F9BDE8F04100F0B2BEBDE8F08133
:104C1800F8B507460826002501243846FFF7B5FFF2
:104C280000B125436400013EE4B2F6D12846F8BD40
:104C380070B500220C4655210646FFF7C6FF651ED3
:104C4800073415F8011F00223046FFF7BEFFA542C2
:104C5800F7D170BD002383720373C37200F10A0297
:104C6800023002F8013D8242FBD170472DE9F0473E
:104C7800057B04468846002D5ED1FFF719FF20B951
:104C8800A0722073E072BDE8F0872A46F021204622
:104C9800FFF79BFF0126AA4637462046FFF775FF18
:104CA80081462046FFF771FFB9F1010F02D10128B3
:104CB8001BD137E0814504EB05031ED1A27A974248
:104CC80007D29A78164214BF4FF001094FF0000935
:104CD80004E00CBF4FF001094FF00009B9F1000FD3
:104CE80003D1082F08D8E77206E062194FF00109CE
:104CF80093783343937004E0BA469A7822EA06021E
:104D08009A70494620467600FFF70FFF16F0FF0617
:104D180004BF0135EDB207F1010708BF0126072DD1
:104D2800FFB2BAD9402F07D984F80AA0BAF1000F08
:104D380012D1012323730FE00020A0722073E072C8
:104D4800631C08F1FF38093413F8012F08F8012F04
:104D5800A342F9D1BDE8F087A378002BECD001205D
:104D6800EEE730B5054600200139C9B2FF2913D056
:104D780015F8014B082280EA040313F0010F4FEAEB
:104D880050001CBF80F08C03D8B2531E13F0FF02F2
:104D98004FEA5404EFD1E7E730BD000008B500F052
:104DA80055F8014B186008BD74E3032008B5024BA1
:104DB8001B689B68019308BD4802030008B5024BB5
:104DC8001B681B69019308BD4802030008B5024B24
:104DD8001B685B69019308BD4802030008B5024BD4
:104DE8001B681B6B019308BD4802030008B5024B02
:104DF8001B685B6C019308BD4802030008B5024BB1
:104E08001B685B68019308BD1802030008B5024BD4
:104E18001B68DB68019308BD1802030008B5024B44
:104E28001B685B69019308BD1802030008B5024BB3
:104E38001B68DB69019308BD1802030008B5024B23
:104E48001B689B6D019308BD1802030008B5024B4F
:104E58001B681B68019308BD2C02030008B5024BB0
:104E68001B685B68019308BD2C02030008B5024B60
:104E78001B689B68019308BD2C02030008B5024B10
:104E88001B681B6A019308BD2C02030008B5024B7E
:104E98001B685B6A019308BD2C02030008B5024B2E
:104EA8001B681B6B019308BD2C02030008B5024B5D
:104EB8001B681B6A019308BD2802030008B5024B52
:104EC8001B685B6A019308BD2802030008B5024B02
:104ED8001B689B6A019308BD2802030008B5024BB2
:104EE8001B68DB6A019308BD2802030008B5024B62
:104EF8001B681B6B019308BD2802030008B5024B11
:104F08001B685B6B019308BD2802030008B5024BC0
:104F18001B681B6C019308BD2802030008B5024BEF
:104F28001B685B69019308BD6402030008B5024B66
:104F38001B689B68019308BD6802030008B5024B13
:104F48001B68DB68019308BD6802030008B5024BC3
:104F58001B68DB69019308BD3002030008B5024BEA
:104F68001B681B6A019308BD3002030008B5024B99
:104F78001B681B68019308BD3C02030008B5024B7F
:104F88001B68DB68019308BD3C02030008B5024BAF
:104F98001B681B69019308BD3C02030008B5024B5E
:104FA8001B685B69019308BD3C02030008B5024B0E
:104FB8001B689B69019308BD3C02030008B5024BBE
:104FC8001B68DB69019308BD3C02030008B5024B6E
:104FD8001B681B6A019308BD3C02030008B5024B1D
:104FE8001B689B6A019308BD3C02030008B5024B8D
:104FF8001B681B68019308BD4C02030008B5024BEF
:105008001B681B69019308BD4C02030008B5024BDD
:105018001B685B69019308BD4C02030008B5024B8D
:105028001B689B69019308BD4C02030008B5024B3D
:105038001B68DB69019308BD4C02030008B5024BED
:105048001B681B6A019308BD4C02030008B5024B9C
:105058001B685B6F019308BD7402030008B5024B1F
:105068001B685B6B019308BD6002030008B5024B27
:105078001B681B68019308BD2002030008B5024B9A
:105088001B685B68019308BD2002030008B5024B4A
:105098001B685B69019308BD2002030008B5024B39
:1050A8001B68DB6C019308BD2002030008B5024BA6
:1050B8001B685B6D019308BD2002030008B5024B15
:1050C8001B689B6D019308BD2002030008B5034BC4
:1050D8001B68D3F88830019308BD00002002030044
:1050E80008B5034B1B68D3F89430019308BD000042
:1050F8002002030008B5024B1B681B68019308BD1A
:105108004402030008B5024B1B685B68019308BDA5
:105118004402030008B5024B1B689B68019308BD55
:105128004402030008B5024B1B685B69019308BD84
:105138004402030008B5024B1B68DB69019308BDF4
:105148004402030008B5024B1B681B6A019308BDA3
:105158004402030008B5024B1B685B6A019308BD53
:105168004402030008B5024B1B681B6B019308BD82
:105178004402030008B5024B1B68DB6B019308BDB2
:105188004402030008B5024B1B685B68019308BD25
:105198004002030008B5024B1B689B68019308BDD9
:1051A8004002030008B5024B1B68DB68019308BD89
:1051B8004002030008B5024B1B681B69019308BD38
:1051C8004002030008B5024B1B685B69019308BDE8
:1051D8004002030008B5024B1B689B69019308BD98
:1051E8004002030008B5024B1B68DB69019308BD48
:1051F8004002030008B5024B1B681B6A019308BDF7
:105208004002030008B5024B1B681B6B019308BDE5
:105218004002030008B5024B1B685B6B019308BD95
:105228004002030008B5024B1B681B68019308BDC8
:105238001C02030008B5024B1B685B68019308BD9C
:105248001C02030008B5024B1B689B68019308BD4C
:105258001C02030008B5024B1B689B69019308BD3B
:105268001C02030008B5024B1B68DB69019308BDEB
:105278001C02030008B5024B1B68DB6A019308BDDA
:105288001C02030008B5024B1B681B6B019308BD89
:105298001C0203000021FFF7F9BE10B5836804461D
:1052A8000BB901F0DEF9C3689847A3681BB1032264
:1052B80021462046984720461021BDE8104001F0BD
:1052C800CEB970470020704710B51021044601F090
:1052D800C6F9204610BD08B508B1FFF7F5FF08BDAF
:1052E80010B58368044613B1032201469847204647
:1052F80010BD38B5C468ECB12378022B02D1E06840
:10530800FFF798FF656835B12846FFF7E9FF1021D8
:10531800284601F0A4F9A56835B12846FFF7E0FF53
:105328001021284601F09BF920461421BDE8384099
:1053380001F095B938BD1FB50446684600F0CAFDAE
:10534800A3680BB901F08DF9E368694620469847D0
:105358000446684600F077FD204604B010BDF0B55D
:10536800102485B007460E46154600212246684699
:1053780001F0F1FF002269461046ADF8004002979F
:1053880003960195FFF7BEFE05B0F0BD13B50446C0
:1053980091E8050000234B600B602060626001A863
:1053A80001930093FEF749FF204602B010BD0B6839
:1053B800036013B15A6801325A607047F7B50C465A
:1053C80002AD54F8043B45F8083D06460F4601A8CF
:1053D8002146FFF7ECFF29463046FFF7D7FF01A823
:1053E800FEF72BFF2046FEF728FF3846082101F07C
:1053F80036F9304603B0F0BD13B50B46044603C872
:105408008DE8030093E8030084E803009DE80300A7
:1054180083E8030002B010BD826810B50AB901F034
:1054280020F9C368BDE81040184708B5006800F1C6
:105438001001FFF7F1FF08BD826810B50AB901F045
:1054480010F9C368BDE81040184708B5006800F1B6
:105458001001FFF7F1FF08BD38B5002383608B68A2
:1054680004460D462BB102229847EB68E360AB680F
:10547800A360204638BD00002DE9F0414FF69C732B
:1054880086B00468B1F904208B8000230F688DF87A
:1054980000300B604FF00200D4E84F1F994203D14F
:1054A800C4E8450F002DF7D102D08DF800106BE04D
:1054B80014F10C051EBFE76022821F460123BFF3CB
:1054C8005F8F0020637004F10803BFF35F8F53E818
:1054D800006F43E80002002AF9D1BFF35F8F002E66
:1054E80052D0FFF7DBFD20B129463046FFF794FF85
:1054F80043E031466846FFF7AFFFE068B4F9105063
:1055080008B101F06BFF04901020ADF81450FEF7BD
:10551800BEFD054630B34FF00008C0F808801820DB
:10552800FEF7B5FD0446C0B1C0F8088001466846DC
:10553800FFF762FF029BA268A360039B0292E268E6
:10554800E360BDF81430A3824FF69C73ADF81430B5
:10555800049B03922361CDF810800E4BEB600E4B39
:105568002C60AB600498FFF765FE6846FFF7B8FE4D
:10557800002229460948FFF799FD3046FFF7B0FE9B
:105588001021304601F06BF83846FFF753FE06B09D
:10559800BDE8F08133540D0091560D00A3520D0063
:1055A8002DE9F04F8BB007AD4FF0000B064699463A
:1055B80014200C230F4690469DF850A0C5F804B05F
:1055C800C5F808B00793FEF762FD044638B180F8C5
:1055D80000B080F801B0C0F804B0C0F808B00023EB
:1055E800102003940493FEF752FD28B10123436071
:1055F8008360234B0360C4600490224B0893082007
:10560800FEF745FD044628B1039B40F8043B04A976
:10561800FFF7CDFE00955FFA8AF34A4641463846C1
:105628000994FFF78FFDB8B9039B5B7803F0FF027D
:1056380093B94FF69C7305A903A80592ADF81830E5
:10564800FFF71AFF0598FFF7F5FD05A80999FFF779
:10565800B5FE06A8FEF7F1FD039B059304A906A86D
:10566800FFF7A5FE05A93046FFF790FE06A8FEF74E
:10567800E4FD04A8FEF7E1FD30460BB0BDE8F08F6D
:10568800AC7E0D00FD570D00022AF8B5044606D081
:10569800032A17D0012A21D10B6803601EE01820C5
:1056A8000E68FEF7F4FC054650B13146FFF7D4FE0C
:1056B8003069B6F9147008B101F090FE2861AF8224
:1056C80025600BE004684CB12069FFF7B3FD204664
:1056D800FFF706FE1821204600F0C1FF0020F8BDA4
:1056E80038B5002383608B6804460D462BB102222F
:1056F8009847EB68E360AB68A360204638BD022A90
:1057080070B5044606D0032A11D0012A18D10B68B7
:10571800036015E014200E68FEF7B9FC054620B1B9
:105728003146FFF7DDFF337C2B74256008E0046801
:1057380034B12046FFF7D4FD1421204600F08FFF36
:10574800002070BDF0B5002387B00C46BFF35F8F13
:1057580050E8006F40E80032002AF9D1BFF35F8FAC
:10576800002E3FD01846FFF799FC074620B1214686
:105778003046FFF761FE2EE0314601A8FFF7B0FF83
:1057880023788DF814301020FEF781FC0546D0B13F
:1057980087601420FEF77BFC044678B187600146D9
:1057A80001A8FFF729FE039BA268A360049B03924C
:1057B800E268E3609DF81430049223740A4BEB60AE
:1057C8000A4B2C60AB6001A8FFF78AFD002229462E
:1057D8000748FFF76BFC3046FFF782FD1021304683
:1057E80000F03DFF07B0F0BD53540D0007570D0002
:1057F800A3520D0030B585B004460D4668461146E3
:10580800FFF7DCFD7CB124B228460DB101F0E6FDBE
:10581800029002A96846ADF80C40FFF72DFE0298E9
:10582800FFF708FD1DE000988DF808404FF00102D1
:10583800D0E84F3FA34203D1C0E8412F0029F7D158
:1058480002D08DF808300CE010F10C014FF0010384
:1058580018BF0373BFF35F8F043000F8033CFFF7F2
:1058680071FF01A8FEF7E9FC05B030BD0022114622
:105878004068FFF7BFBC002211464068FFF7CABC6A
:1058880000224068FFF7BEBC002281F00101406899
:10589800FFF7A8BC00231A4619464068FFF79ABCD0
:1058A80000231A4619464068FFF78CBC00221146AF
:1058B8004068FFF77FBC002211464068FFF76ABCCA
:1058C800002202214068FFF76DBC00231A46406899
:1058D800FFF758BC024B03225A60024A1A6070470D
:1058E80078E30320C87E0D007047F8B506461546D4
:1058F8000C468F18BC4206D0336814F8011B9B680D
:1059080030469847F6E72846F8BD0022007CFFF7A6
:10591800CDBA0021007CFFF7D1BA0021007CFFF747
:10592800D5BA0021007CFFF7D9BA0021007CFFF727
:10593800DDBA10B51421044600F091FE204610BDD2
:1059480010B504464FF47A730846A3600021044B4F
:10595800207461602360FFF7D9FA204610BD00BFAC
:10596800FC7E0D000021007CFFF7C8BAFFF78EBA55
:10597800FFF784BA704710B51821044600F06FFE8F
:10598800204610BDF0B5037D062B8DB00E4600F104
:1059980004074FF0000402D000F1080518E00CAD30
:1059A800394605F8304D2F232A460A20FFF7B6FA64
:1059B800284601F02EFD33680246DB68294630464A
:1059C80098470FE024B12E21304600F0C7F904446F
:1059D80015F8011D0A22304600F0F0F9BD420444D2
:1059E800F0D120460DB0F0BD10B5054B044611228C
:1059F80040F8043B002101F0AEFC204610BD00BF7A
:105A0800247F0D000346074A10B543F8042B01F123
:105A1800100251F8044B43F8044B9142F9D10A782B
:105A28001A7010BD247F0D0010B59DF8084044EA97
:105A3800032343EA024242EA0161042341600375F9
:105A480010BD37B50D788B784A78C978009129460A
:105A5800FFF7EAFF03B030BD014B024A1A607047F6
:105A680080E30320E87F0D00002211464068FFF71D
:105A7800C1BB002211464068FFF7CCBB002240683A
:105A8800FFF7C0BB002281F001014068FFF7AABB05
:105A980000231A4619464068FFF79CBB00231A46A4
:105AA80019464068FFF78EBB002211464068FFF791
:105AB80081BB002211464068FFF76CBB002202211F
:105AC8004068FFF76FBB00231A464068FFF75ABBD0
:105AD80038B5054688B104684CB1A3681BB10322E8
:105AE8002146204698471021204600F0B8FD284658
:105AF8001421BDE8384000F0B2BD38BD10B10368CC
:105B08005B681847704710B503680446BBB158680E
:105B1800FFF74CF978B923685A7C12B95868FFF72F
:105B28004DF923685868FFF751F92068002323606E
:105B380028B1FFF7CDFF206808B1FFF7C9FF20465D
:105B480010BD000038B50C4B03600446D0F8CC01FA
:105B580008B1FEF7A0FAD4F8C45135B12846FFF7CA
:105B6800D2FF0421284600F07AFDA06808B1FFF7AB
:105B7800C5FF204638BD00BF1C800D0038B50D4C50
:105B88000D4B23600025022304F5E4706360A560D3
:105B9800C4F8C451C4F8C851FFF728F9074BC4F832
:105BA800CC5123602046064A0649BDE8384000F03B
:105BB80051BD00BF84E3032050800D001C800D0000
:105BC800F0E203204D5B0D0000231A464068FFF702
:105BD800D9BA002202214068FFF7E4BA0022114630
:105BE8004068FFF7D7BA002211464068FFF7E2BACB
:105BF80000231A4619464068FFF7E4BA00231A46FC
:105C080019464068FFF7E6BA002281F001014068B2
:105C1800FFF7E8BA00224068FFF7F4BA00221146FD
:105C28004068FFF7F7BA002211464068FFF7E2BA6A
:105C38002DE9F043002495B016460D460746FFF7B8
:105C4800D3FE214620220CA8009401F084FB4023B7
:105C58000C9321466B460CAA3046FFF76FF90446B1
:105C6800002844D1024601216868FFF7A3FA0221FF
:105C7800804622466868FFF79DFA009E81462146C5
:105C8800002E34D0002932D17368022B02D00A2B9F
:105C980009D02AE0B8F1000F27D0716938460431DD
:105CA800FFF7CFFE20E0B9F1000F1ED07469112272
:105CB80001A801F050FB06238DF8143001AD04F162
:105CC80008031834186859682A4603C20833A342DF
:105CD8001546F7D101A906A807ADFFF793FE0FCD2A
:105CE8003C1D0FC42B6823700121F669C8E7009892
:105CF800FFF71CF9384615B0BDE8F083024B034A9C
:105D08001A6000225A60704754E5032050800D0045
:105D1800F8B506460D468F180024BD420CD03368EE
:105D280015F8011B9B6830469847002801DB04449E
:105D3800F3E7002C08BF04462046F8BD70B50546B9
:105D48000C46084649B101F064FB2B68024621461F
:105D58002846DB68BDE87040184770BD03689B683B
:105D6800184730B58BB00B4600218DF82410012A56
:105D780098BF0A220DF12304B3FBF2F505FB123399
:105D880003F0FF03092B94BF30333733DBB22146CE
:105D980004F801392B46002DEED1FFF7CFFF0BB0E9
:105DA80030BD10B42AB903685DF8044B9B68C9B2CA
:105DB8001847D2B25DF8044BFFF7D3BFFFF7F1BF26
:105DC80010B50446FFF78CFA204610BD0348044A74
:105DD80004490023836000F03DBC00BF5CE503205C
:105DE800F0E20320C95D0D00704710B5102104468C
:105DF80000F035FC204610BD70B5084B0360044622
:105E080000250E4640F80C5FFEF7E8FF3046267185
:105E1800FFF79CF8A560204670BD00BF84800D0088
:105E28000079FFF79BB80023036043608360037326
:105E380010B50C6804604C6844608C6884600B6022
:105E48004B608B6010BD10B504460068FFF7F2F98F
:105E5800204610BD10B50446006808B1FFF7EAF9FE
:105E680000232360A360636010BD38B504460D4667
:105E780000680131FFF7E6F910B184E8210001203C
:105E880038BD10B50368044613B143688B4207D286
:105E98002046FFF7EAFF20B1A3680BB92268137008
:105EA800012010BD70B50E46114604461546FFF791
:105EB800E8FF18B92046FFF7CDFF09E02A4631462A
:105EC800A560206801F03CFA2268A3680021D1543B
:105ED800204670BD38B500230446036043608360E4
:105EE80003730D4639B1084601F093FA2946024674
:105EF8002046FFF7D7FF204638BD08B582680B4615
:105F080012B919B9012008BD11B90368187802E05F
:105F1800006801F051FAB0FA80F0400908BD70B588
:105F28000E469AB191B185689D4202D800230B7044
:105F380070BD541EED1A0168AC4228BF2C461944A6
:105F48002246304601F082FA0023335570BD000026
:105F5800044B00204FF6FF72187058809A80FFF7A4
:105F68008DB800BF6CE50320F0B5144B144F1E68C4
:105F7800144B064418683B6806449E428BB01BD0FD
:105F88000AA801AD40F8286D01F0E2F8436903F270
:105F98006C73436104460FCC0FC50FCC0FC5D4F802
:105FA80000E0C5F800E001AD0FCD074C0FC40FCDE0
:105FB8000FC43E60C4F800E00BB0F0BDA4E50320B8
:105FC800A0E503209CE5032074E5032008B5002024
:105FD800FFF7C8F828B1FFF7A5F880F00100C0B2B4
:105FE80008BD012008BD10B50020FEF727FF0446B4
:105FF80068B9FFF73BF801280BD12046FFF75EF898
:1060080038B9FFF7E3FF30B9FFF784F8F9E7012063
:1060180010BD002010BDFFF7D9FF0020FEF70EFFCE
:10602800003018BF012010BD08B5FFF7DCFFBDE840
:106038000840FEF7FBBE000008B5FFF7F5FFFFF7C5
:1060480093FF014B586808BD74E50320024B1A689A
:10605800024B1A60704700BF38E2032098E503201E
:1060680070474174704708B5007CFEF7B7FF20EA17
:10607800E07008BD08B5007CFEF788FF20EAE070F4
:1060880008BD08B5007CFEF791FF30EA200028BF64
:106098004FF0FF3008BD08B5007CFEF77FFF30EAFF
:1060A800200028BF4FF0FF3008BD007CFEF786BFF8
:1060B80010B51421044600F0D2FA204610BD70B580
:1060C800457C04460E4625B9007CFEF787FF00286C
:1060D80005DD3146207CBDE87040FEF74FBF2846FD
:1060E80070BD000010B504460846114600226260E3
:1060F8004FF47A72A260054A226001222074627409
:106108001A46FEF733FF204610BD00BFBC800D00C5
:10611800007CFEF75BBF000038B50C4D296811F014
:10612800010411D12846FDF7B8FF68B1084A094BA8
:1061380009482146FFF7D6FF2846FDF7B3FF074A6F
:106148000749054800F086FA034838BD40E60320B1
:1061580044E60320BCE50320A8E50320F0E2032081
:1061680069600D0041747047704708B50021007CD4
:10617800FEF754FF30EA200028BF4FF0FF3008BD7B
:1061880008B50121007CFEF749FF30EA200028BF4E
:106198004FF0FF3008BD08B5007CFEF737FF20EA56
:1061A800E07008BD08B5007CFEF728FF20EAE07023
:1061B80008BD007CFEF742BF10B51421044600F06C
:1061C8004EFA204610BD38B50446007C0D46FEF751
:1061D8001DFF002801DC607C28B12946207CFEF7E1
:1061E80025FF20EAE07038BD10B50446002363603F
:1061F8004FF47A73A360054B23600123084621748A
:1062080063741146FEF7F2FE204610BDEC800D00C7
:1062180010B514220446002101F09DF8204610BD57
:1062280030B50E4D87B001A8FFF7F2FF296811F0CD
:10623800010410D12846FDF730FF60B101AA2146BC
:106248000748FFF7D1FF2846FDF72CFF054A064906
:10625800034800F0FFF9024807B030BDC8E6032044
:10626800CCE60320F0E2032071610D0070470120A5
:106278007047000083891BB10369B3F1004F02D155
:106288009FED050A704707EE903A9FED047AF8EE05
:10629800E77A87EE870A7047000000000000C842CE
:1062A80083891BB18369B3F1004F02D19FED050AC1
:1062B800704707EE903A9FED047AF8EEE77A87EE9A
:1062C800870A7047000000000000C84200221146FB
:1062D8004068FEF76FBF10B52421044600F0BFF9EF
:1062E800204610BD002211464068FEF783BF0022F9
:1062F80011464068FEF78EBF00224068FEF782BF55
:10630800002281F001014068FEF76CBF00231A46A5
:1063180019464068FEF75EBF00231A4619464068D2
:10632800FEF750BF002211464068FEF733BF002237
:1063380002214068FEF736BF00231A464068FEF780
:1063480021BF000083897BB1036A002B0CDB07EEB9
:10635800903ADFED076A9FED070AB8EEE77AC7EED5
:10636800267A27EE800A7047BFEE000A704700BF02
:1063780000FF7F470000C84283897BB14369002B37
:106388000CDB07EE903ADFED076A9FED070AB8EEDF
:10639800E77AC7EE267A27EE800A7047BFEE000A32
:1063A800704700BF00FF7F470000C84270B50D4628
:1063B800064600F10C040FCD0FC495E8030084E8ED
:1063C80003003369B3F1004F0EBF0223642293FB2D
:1063D800F2F37360B369B3F1004F0EBF0023642278
:1063E80093FBF2F3B360012070BD00002DE9F0418A
:1063F800164B0360002588460227182686B047609A
:1064080085603246294604460C3000F0A4FF2A462F
:106418002946D8F80400FEF7CDFE90B13246294649
:10642800684600F098FF2A4669462846ADF800609D
:10643800FEF70CFE20B969462046FFF7B7FF00E0DB
:106448006760204606B0BDE8F08100BF50810D00AE
:10645800024B04225A60024A1A607047E0E60320A1
:106468001C810D0008B50C4B33B1FFF7D9FE03684A
:106478001B699847002809DC084B63B1FFF74CFEFD
:1064880003681B699847002803DC08BDAFF3008048
:10649800F2E7AFF3008008BD000000000000000034
:1064A80008B5FFF7DFFFFEF7B9FC014B186008BD20
:1064B800ECE6032007B5002300931A466FF0770136
:1064C800FEF70EFE03B05DF804FB000007B5438835
:1064D8000A2B08D0502B09D1094B1B683BB103B0DC
:1064E8005DF804EB1847FFF7E5FF06E0002300938B
:1064F8001A466FF07701FEF7F3FD03B05DF804FB71
:10650800E8E6032010B5FEF779FC044600F02CFFFE
:10651800074B13B12046AFF3008000210448FEF773
:1065280029FE00210348BDE81040FEF7CFBD00BF9B
:1065380000000000D5640D0010B504460F48FFF7B1
:106548006FFC28B1A4F10B03022B01D8002010BD69
:1065580000F03EF8FFF706FA08B1012CF6D9FFF76C
:10656800DBFDFFF7D5FD18B1A4F10903012BEDD927
:10657800232C8CBF0020012010BD00BF08E703209A
:10658800232838B504460D460AD8FF2908D0FFF756
:10659800D3FF28B129462046BDE83840FEF766BC3F
:1065A80038BD0D2810B504469CBF0E34A4B2204651
:1065B800FFF7C2FF50B103212046FEF74FFC032826
:1065C80004D12046BDE81040FEF768BC002010BD8D
:1065D80038B50B4D296811F001040FD12846FDF795
:1065E8005CFD58B121460748FFF7AAF92846FDF790
:1065F80059FD054A0549034800F02CF8014838BD03
:10660800F0E60320F4E60320F0E20320F1580D0041
:1066180070B50C4C0C4E0D4D00212046FFF7ECFBDD
:1066280020460B4C3246294600F014F8012120463A
:10663800FFF7E2FB324629462046BDE8704000F0ED
:1066480009B800BF08E70320F0E20320F15D0D0060
:1066580018E703200B460146184600F06BBDFDF70E
:1066680018BD08B5FEF706FE244B1A68D0075CBFB4
:1066780001221A60224B1A68D1075CBF01221A60F6
:10668800204B1A68D2075CBF01221A601E4B1A6899
:10669800D0075CBF01221A601C4B1A68D1075CBF87
:1066A80001221A601A4B1A68D2075CBF01221A60CD
:1066B800184B1A68D0075CBF01221A60164B1A687B
:1066C800D1075CBF01221A60144B1A68D2075CBF5D
:1066D80001221A60124B1A68D0075CBF01221A60A7
:1066E800104B1A68D1075CBF01221A600E4B1A685A
:1066F800D2075CBF01221A60704700BF54E703202D
:1067080050E703204CE7032048E7032044E7032031
:1067180040E703203CE7032038E7032034E7032061
:1067280030E703202CE7032028E70320184B1A68DA
:10673800D1075CBF01221A60164B1A68D2075CBFEA
:1067480001221A60144B1A68D0075CBF01221A6034
:10675800124B1A68D1075CBF01221A60104B1A68E5
:10676800D2075CBF01221A600E4B1A68D0075CBFC3
:1067780001221A600C4B1A68D1075CBF01221A600B
:106788000A4B1A68D2075CBF01221A60704700BF23
:1067980074E7032070E703206CE7032068E7032011
:1067A80064E7032060E703205CE7032058E7032041
:1067B800184B1A68D1075CBF01221A60164B1A6879
:1067C800D2075CBF01221A60144B1A68D0075CBF5D
:1067D80001221A60124B1A68D1075CBF01221A60A5
:1067E800104B1A68D2075CBF01221A600E4B1A6858
:1067F800D0075CBF01221A600C4B1A68D1075CBF36
:1068080001221A600A4B1A68D2075CBF01221A607B
:10681800704700BF94E7032090E703208CE703202C
:1068280088E7032084E7032080E703207CE7032030
:1068380078E70320244B1A68D0075CBF01221A604E
:10684800224B1A68D1075CBF01221A60204B1A68D4
:10685800D2075CBF01221A601E4B1A68D0075CBFC2
:1068680001221A601C4B1A68D1075CBF01221A600A
:106878001A4B1A68D2075CBF01221A60184B1A68B3
:10688800D0075CBF01221A60164B1A68D1075CBF9B
:1068980001221A60144B1A68D2075CBF01221A60E1
:1068A800124B1A68D0075CBF01221A60104B1A6895
:1068B800D1075CBF01221A600E4B1A68D2075CBF71
:1068C80001221A60704700BFC4E70320C0E7032015
:1068D800BCE70320B8E70320B4E70320B0E70320B0
:1068E800ACE70320A8E70320A4E70320A0E70320E0
:1068F8009CE7032098E7032081F0004102E000BFF5
:1069080083F0004330B54FEA41044FEA430594EA67
:10691800050F08BF90EA020F1FBF54EA000C55EAA2
:10692800020C7FEA645C7FEA655C00F0E2804FEA73
:106938005454D4EB5555B8BF6D420CDD2C4480EA55
:10694800020281EA030382EA000083EA010180EA85
:10695800020281EA0303362D88BF30BD11F0004FD3
:106968004FEA01314FF4801C4CEA113102D0404209
:1069780061EB410113F0004F4FEA03334CEA133344
:1069880002D0524263EB430394EA050F00F0A7805C
:10699800A4F10104D5F1200E0DDB02FA0EFC22FA57
:1069A80005F2801841F1000103FA0EF2801843FA4B
:1069B80005F359410EE0A5F120050EF1200E012A3C
:1069C80003FA0EFC28BF4CF0020C43FA05F3C0187A
:1069D80051EBE37101F0004507D54FF0000EDCF1F3
:1069E800000C7EEB00006EEB0101B1F5801F1BD39C
:1069F800B1F5001F0CD349085FEA30004FEA3C0CA0
:106A080004F101044FEA445212F5800F80F09A8095
:106A1800BCF1004F08BF5FEA500C50F1000041EB99
:106A2800045141EA050130BD5FEA4C0C404141EB9D
:106A3800010111F4801FA4F10104E9D191F0000FC4
:106A480004BF01460020B1FA81F308BF2033A3F147
:106A58000B03B3F120020CDA0C3208DD02F1140C3E
:106A6800C2F10C0201FA0CF021FA02F10CE002F179
:106A78001402D8BFC2F1200C01FA02F120FA0CFC72
:106A8800DCBF41EA0C019040E41AA2BF01EB0451BB
:106A9800294330BD6FEA04041F3C1CDA0C340EDCB9
:106AA80004F11404C4F1200220FA04F001FA02F3FC
:106AB80040EA030021FA04F345EA030130BDC4F1BA
:106AC8000C04C4F1200220FA02F001FA04F340EAAF
:106AD8000300294630BD21FA04F0294630BD94F060
:106AE800000F83F4801306BF81F480110134013D47
:106AF8004EE77FEA645C18BF7FEA655C29D094EAB8
:106B0800050F08BF90EA020F05D054EA000C04BF35
:106B18001946104630BD91EA030F1EBF0021002020
:106B280030BD5FEA545C05D14000494128BF41F0BF
:106B3800004130BD14F580043CBF01F5801130BD23
:106B480001F0004545F0FE4141F470014FF00000AE
:106B580030BD7FEA645C1ABF194610467FEA655C5F
:106B68001CBF0B46024650EA013406BF52EA033501
:106B780091EA030F41F4002130BD00BF90F0000FEF
:106B880004BF0021704730B54FF4806404F132042B
:106B98004FF000054FF0000150E700BF90F0000FE4
:106BA80004BF0021704730B54FF4806404F132040B
:106BB80010F0004548BF40424FF000013EE700BFDB
:106BC80042004FEAE2014FEA31014FEA02701FBF6B
:106BD80012F07F4393F07F4F81F06051704792F03D
:106BE800000F14BF93F07F4F704730B54FF46074B7
:106BF80001F0004521F0004120E700BF50EA010202
:106C080008BF704730B54FF000050AE050EA0102AE
:106C180008BF704730B511F0004502D5404261EB1E
:106C280041014FF4806404F132045FEA915C3FF45F
:106C3800DCAE4FF003025FEADC0C18BF03325FEAF8
:106C4800DC0C18BF033202EBDC02C2F1200300FAAD
:106C580003FC20FA02F001FA03FE40EA0E0021FAD2
:106C680002F11444C1E600BF70B54FF0FF0C4CF4BC
:106C7800E06C1CEA11541DBF1CEA135594EA0C0F72
:106C880095EA0C0F00F0DEF82C4481EA030621EAAD
:106C98004C5123EA4C5350EA013518BF52EA0335E8
:106CA80041F4801143F4801338D0A0FB02CE4FF09A
:106CB8000005E1FB02E506F00042E0FB03E54FF0CA
:106CC8000006E1FB03569CF0000F18BF4EF0010EC2
:106CD800A4F1FF04B6F5007F64F5407404D25FEABE
:106CE8004E0E6D4146EB060642EAC62141EA555171
:106CF8004FEAC52040EA5E504FEACE2EB4F1FD0CB3
:106D080088BFBCF5E06F1ED8BEF1004F08BF5FEA30
:106D1800500E50F1000041EB045170BD06F00046E2
:106D280046EA010140EA020081EA0301B4EB5C048F
:106D3800C2BFD4EB0C0541EA045170BD41F4801187
:106D48004FF0000E013C00F3AB8014F1360FDEBFAC
:106D5800002001F0004170BDC4F10004203C35DA88
:106D68000C341BDC04F11404C4F1200500FA05F30B
:106D780020FA04F001FA05F240EA020001F00042AC
:106D880021F0004110EBD37021FA04F642EB060122
:106D98005EEA430E08BF20EAD37070BDC4F10C044C
:106DA800C4F1200500FA04F320FA05F001FA04F210
:106DB80040EA020001F0004110EBD37041F10001FC
:106DC8005EEA430E08BF20EAD37070BDC4F1200507
:106DD80000FA05F24EEA020E20FA04F301FA05F26F
:106DE80043EA020321FA04F001F0004121FA04F217
:106DF80020EA020000EBD3705EEA430E08BF20EAE7
:106E0800D37070BD94F0000F0FD101F00046400020
:106E180041EB010111F4801F08BF013CF7D041EAA2
:106E2800060195F0000F18BF704703F000465200A6
:106E380043EB030313F4801F08BF013DF7D043EA77
:106E48000603704794EA0C0F0CEA135518BF95EA2D
:106E58000C0F0CD050EA410618BF52EA4306D1D1B4
:106E680081EA030101F000414FF0000070BD50EAD3
:106E7800410606BF1046194652EA430619D094EA5D
:106E88000C0F02D150EA013613D195EA0C0F05D147
:106E980052EA03361CBF104619460AD181EA03019B
:106EA80001F0004141F0FE4141F470014FF0000053
:106EB80070BD41F0FE4141F4780170BD70B54FF0EE
:106EC800FF0C4CF4E06C1CEA11541DBF1CEA13556E
:106ED80094EA0C0F95EA0C0F00F0A7F8A4EB050450
:106EE80081EA030E52EA03354FEA013100F0888047
:106EF8004FEA03334FF0805545EA131343EA126310
:106F08004FEA022245EA111545EA10654FEA0026C4
:106F18000EF000419D4208BF964244F1FD0404F57D
:106F2800407402D25B084FEA3202B61A65EB0305D9
:106F38005B084FEA32024FF480104FF4002CB6EB96
:106F4800020E75EB030E22BFB61A754640EA0C0016
:106F58005B084FEA3202B6EB020E75EB030E22BF56
:106F6800B61A754640EA5C005B084FEA3202B6EB97
:106F7800020E75EB030E22BFB61A754640EA9C0056
:106F88005B084FEA3202B6EB020E75EB030E22BF26
:106F9800B61A754640EADC0055EA060E18D04FEAE4
:106FA800051545EA16754FEA06164FEAC30343EA84
:106FB80052734FEAC2025FEA1C1CC0D111F4801F51
:106FC8000BD141EA00014FF000004FF0004CB6E74A
:106FD80011F4801F04BF01430020B4F1FD0C88BFE9
:106FE800BCF5E06F3FF6AFAEB5EB030C04BFB6EBF4
:106FF800020C5FEA500C50F1000041EB045170BDE7
:107008000EF0004E4EEA113114EB5C04C2BFD4EB13
:107018000C0541EA045170BD41F480114FF0000E97
:10702800013C90E645EA060E8DE60CEA135594EA13
:107038000C0F08BF95EA0C0F3FF43BAF94EA0C0F16
:107048000AD150EA01347FF434AF95EA0C0F7FF48B
:1070580025AF104619462CE795EA0C0F06D152EADF
:1070680003353FF4FDAE1046194622E750EA4106C3
:1070780018BF52EA43067FF4C5AE50EA41047FF4D4
:107088000DAF52EA43057FF4EBAE12E74FEA410237
:10709800B2F1E04324BFB3F5001CDCF1FE5C0DD96E
:1070A80001F0004C4FEAC0024CEA5070B2F1004FB8
:1070B80040EB830008BF20F00100704711F0804FBB
:1070C80021D113F13872BCBF01F00040704741F480
:1070D80080114FEA5252C2F11802C2F1200C10FA84
:1070E8000CF320FA02F018BF40F001004FEAC12368
:1070F8004FEAD32303FA0CFC40EA0C0023FA02F30C
:107108004FEA4303CCE77FEA625307D150EA0133E1
:107118001EBF4FF0FE4040F44000704701F00040B1
:1071280040F0FE4040F40000704700BF0A220021F2
:1071380000F026BA10B5054C13462CB10A46014694
:107148000220AFF3008010BD204610BD00000000F3
:1071580038B5074B1C68E36B05461BB92420FEF7BE
:1071680061F8E063E16B2846BDE8384000F002B8FA
:10717800A0E203202DE9F0410C46804600F006FD10
:1071880021460746404600F005FD466906F26C7642
:10719800B307044605D1642296FBF2F302FB13639E
:1071A8004BB94FF4C87596FBF5F305FB1365B5FAB3
:1071B80085F35B0900E001235F4A302505FB0325C1
:1071C80000F018FB00F018FB5C4B1B68F3B17B6800
:1071D8009E4205D13968D8F80030FA6941B90AE009
:1071E800304600F05FFA0028F4D14FF0FF330DE08D
:1071F800934208DB01E0934207DABA6B9342ACBFD3
:107208000023012302E0002300E001232362236A14
:10721800012B0CBFF96B396A4FF461633C2091FB79
:10722800F3F603FB1613616893FBF0F200FB1230D0
:107238002368891AA26861601B1A921B3B2B236082
:10724800A26003DD013161603C3B04E0002B03DAFE
:10725800013961603C33236063683B2B03DD0132F5
:10726800A2603C3B04E0002B03DA013AA2603C3305
:107278006360A368172B22DDE2690132E261A2692B
:107288000132062AC8BF0022A261E268183B013217
:10729800A3602369E26055F823108A4246DD013372
:1072A8000C2B0CBF63692361A2EB0102E26001BFF2
:1072B800013300222261636108BFE26136E0002BDE
:1072C80034DAE269013AE261A269013A48BF06226A
:1072D800A261E2681833013AE260A36032BB236915
:1072E800013B01D423611DE00B23236163695A1E0E
:1072F80012F0030F626103F26B7305D1642193FBF3
:10730800F1F201FB12324AB94FF4C87193FBF1F262
:1073180001FB1233B3FA83F35B0900E0012303F5A1
:10732800B673E361236955F82330E36000F063FA2C
:107338002046BDE8F08100BFD0820D00E4E70320BD
:1073480010B5431E0A44914204D011F8014B03F8CA
:10735800014FF8E710BD02440346934202D003F8F8
:10736800011BFAE77047000038B5124B1C68A36B85
:107378000546D3B91820FDF755FF43F20E33A06335
:1073880003804AF6CD33438041F2342383804EF2A2
:107398006D63C3804DF6EC630381052343810B23A2
:1073A800838101220023C0E90423A36B00221D610D
:1073B8005A6138BDA0E2032010F8012B11F8013BF7
:1073C800012A28BF9A42F7D0D01A7047034611F80D
:1073D800012B03F8012B002AF9D17047024B014613
:1073E800186800F003B800BFA0E2032070B5064695
:1073F80008460C4600F00DF8451C29463046FDF7B6
:1074080041FF064618B12A462146FFF799FF304644
:1074180070BD034613F8012B002AFBD1181A013856
:10742800704730B582B1451E013915F8013F11F892
:10743800014FA34206D1EC431444E04201D0002B93
:10744800F3D11C46181B30BD104630BD10B503469D
:1074580042B111F8014B03F8014B013A002CF7D166
:107468001A4400E010BD934202D003F8014BFAE73A
:1074780010BD00002DE9F04780464048D0F8009044
:107488000F463D4615F8014B09EB0400407800F023
:10749800080000F0FF0608B12F46F2E72D2C03D1B3
:1074A800BD1C7C78012603E02B2C04BF7C78BD1C16
:1074B80013B1102B0AD15BE0302C57D1287800F09B
:1074C800DF0058284DD16C7810230235002E14BFE8
:1074D8004FF0004C6FF0004C0027BCFBF3FA384625
:1074E80003FB1ACC09EB040E9EF801E01EF0040F12
:1074F80001D0303C0BE01EF0030E1BD0BEF1010F93
:107508000CBF4FF0370E4FF0570ECEEB0404A342DA
:1075180010DDB7F1FF3F0AD0504506D801D16445C8
:1075280003DC03FB0040012701E04FF0FF3715F8AB
:10753800014BD7E77B1C0CD1002E4FF0220314BF60
:107548004FF000406FF00040C8F800302AB9BDE89D
:10755800F08706B1404272B107B1691E1160BDE8FB
:10756800F0873024002BB1D10823AFE70A23ADE719
:10757800302CA3D0AAE7BDE8F08700BF3CE2032087
:1075880013460A46014602480068FFF773BF00BF6A
:10759800A0E203202DE9F04780463C48D0F800904F
:1075A8000E46354615F8014B09EB0400407800F00B
:1075B800080000F0FF0708B12E46F2E72D2C03D192
:1075C800B51C7478012703E02B2C04BF7478B51C14
:1075D80013B1102B0AD153E0302C4FD1287800F08A
:1075E800DF00582845D16C78102302354FF0FF3C56
:1075F8000026BCFBF3FC03FB0CFA6FEA0A0A3046D0
:1076080009EB040E9EF801E01EF0040F01D0303C97
:107618000BE01EF0030E1AD0BEF1010F0CBF4FF0A5
:10762800370E4FF0570ECEEB0404A3420FDD002EA9
:1076380008DB604506D801D1544503DC03FB004054
:10764800012601E04FF0FF3615F8014BD8E7002E70
:1076580007DA2223C8F800304FF0FF302AB9BDE816
:10766800F08707B1404272B106B1691E1160BDE8EA
:10767800F0873024002BB9D10823B7E70A23B5E7F0
:10768800302CABD0B2E7BDE8F08700BF3CE2032066
:1076980013460A46014602480068FFF77BBF00BF51
:1076A800A0E203202DE9F74F044600F06FFA40F2FC
:1076B800B1739C4240F396806FF4F663E318A4F22A
:1076C800B2729B1040F26D1505FB0235A4F26D7283
:1076D8006FF0630392FBF3F36FF4C8622B44A518B1
:1076E8004FF4C87295FBF2F51D44642394FBF2F73E
:1076F80094FBF3F602FB174703FB164600F1380329
:10770800B7FA87FE019304F0030344604FEA5E1E54
:10771800014600934FF0070C0B7A4A2B0ED14B69A8
:10772800009AEC1802B906B927B93B2BD4BF00233D
:10773800012300E000232344013B3FE0442B02D116
:107748004B692B443AE0009B2BB9002E0CBFF04646
:107758004FF0010800E0F046244BCC68302202FBD1
:107768000838A8F1040AA9460123A34204DA5AF802
:1077780004BF0133D944F8E709F1040393FBFCFB88
:10778800CBEBCB0A012CCAEB030A4B69B8BF012427
:1077980004F18044B3EB0A0A0B6904F1FF3403F1E6
:1077A800FF3348BF0AF1070AC3EBC30358F8244064
:1077B8005344A34201DB073BFBE74B448C690C4A6B
:1077C80002FB03430C6A234441F81C3F019B994286
:1077D800A2D1C369826B9342ACBF0023012303602B
:1077E800012000E0002003B0BDE8F08FD0820D003A
:1077F8008051010070477047014B186800F002B8CB
:10780800A0E203202DE9F04F8DB0074600F0BEF945
:10781800B049B14E0446384600F0B0F9054660B9A3
:10782800AE4BAF4A1860AF4B1860AF4B30681A6068
:107838005A60FDF7FFFC356048E1316879B9306876
:10784800FDF7F8FC2846FFF7E4FD411C3846FDF734
:1078580019FD306048B12946FFF7B8FD05E0FFF78C
:10786800ABFD002800F03281E9E72B789F4AA04958
:107878003A2B08BF01350AAE33462846FDF7EAFC25
:10788800002840F323810A9BEF18EB5C2D2B03D1D2
:1078980001374FF0FF3503E02B2B08BF01370125D7
:1078A8000DF1200A0DF11E0B4FF000080396CDF8DC
:1078B80008A00196CDF800B0334607AA8D49ADF867
:1078C8001E803846ADF82080FDF7C4FC404540F3E3
:1078D800FD80BDF81E20BDF82030DFF824923C2141
:1078E80001FB0233BDF81C204FF4616101FB023338
:1078F8005D4325627C4D7D4B2B600A9B7C491F4470
:107908004A4633463846FDF7A5FC404508DC2B6857
:107918006B60724B226A1A60724BC3F80080D5E024
:107928000A9BC5F80490FD18FB5C2D2B03D101358B
:107938004FF0FF3703E02B2B08BF01350127002349
:10794800ADF81C30ADF81E30ADF820300A93039620
:10795800CDF808A00196CDF800B0334607AA6549CE
:107968002846FDF777FC002804DC236AA3F5616349
:10797800E3630EE0BDF81E20BDF820303C2101FB7A
:107988000233BDF81C204FF4616101FB02335F43F1
:10799800E7630A9B27461D444FF000092B782C2BE0
:1079A80008BF013595F80080B8F14D0F26D10DF1CB
:1079B8002603029309AB00930396019633460DF113
:1079C80022024D492846FDF745FC03287ED1BDF823
:1079D80022104B1E0B2B79D8BDF82420531E042BE4
:1079E80074D8BDF82630062B70D887F80880F9605F
:1079F8003A617B610A9B05EB03082AE0B8F14A0F5C
:107A080006BF0135434644230A220BA9284605939D
:107A1800FFF73EFEDDF82C80ADF826004545059BB6
:107A280014D14D23B9F1000F07D123720323E3606A
:107A380002232361C4F814900BE084F824300B234C
:107A4800A3620123E3620023236302E080B23B7256
:107A580078610223ADF81C300023ADF81E30ADF874
:107A680020300A9398F800302F2B0BD10396CDF8CD
:107A780008A00196CDF800B0334607AA1F49404632
:107A8800FDF7E8FBBDF81E20BDF820303C2101FBC6
:107A98000233BDF81C204FF4616101FB0233BB6166
:107AA8000A9D09F10109B9F1020F454407F11C07C4
:107AB8007FF474AF6068FFF7F5FD084B226A1A601F
:107AC800E36B9B1A074A18BF012313600DB0BDE88A
:107AD800F08F00BF30830D00E0E70320E8E70320C4
:107AE80033830D00E4E70320A4E20320D3E7032057
:107AF80037830D005A830D0046830D0059830D000E
:107B0800C8E703202DE9F84F07468B46904600F05A
:107B1800D9F8194B1D689A463DB15C46234613F8BF
:107B2800012B42B13D2A1C46F8D1384600F0CBF86B
:107B38000020BDE8F88FCBEB0404A94659F8040BE4
:107B48000028F2D022465946FFF76BFC88B959F84D
:107B5800043C1E191B5D3D2B0BD1DAF80030ED1AE1
:107B6800AD103846C8F8005000F0ADF8701CBDE8FC
:107B7800F88F4D46E1E700BFECE2032007B501AA04
:107B8800FFF7C0FF03B05DF804FB00000048704732
:107B9800ACE203200268474BF0B592FBF3F403FB19
:107BA8001422002ABCBF02F5A83202F5C0724FF4B5
:107BB800616004F52F2492FBF0F300FB13224FF0D1
:107BC8003C00ACBF04F66C2404F66B248B6092FB7B
:107BD800F0F300FB13224B600A600723E21C92FBC0
:107BE800F3F3C3EBC303D31A8B61334B334D94FBCD
:107BF800F5F503FB054448F6AC62B4FBF2F2224407
:107C080040F2B457B4FBF7F3D21A2D48B4FBF0F0A6
:107C180048F69466131AB3FBF6F6344440F26D1234
:107C2800B3FBF2F0B3FBF7F3E31A02FB103399242A
:107C380003EB83020232B2FBF4F20A2A04FB02F4D9
:107C480004F102064FF00504B6FBF4F434BF022633
:107C58006FF0090616444FF4C87202FB05055F1C55
:107C6800012E98BF0135B3F5997FA7EB040702D31E
:107C7800A3F5997214E0820705D16424B0FBF4F2ED
:107C880004FB12024AB94FF4C872B0FBF2F402FBCB
:107C98001400B0FA80F2520900E001223B331A4482
:107CA800A5F26C750023CA614D610E61CF600B624D
:107CB8000846F0BD805101004FC5FDFFB13A0200F2
:107CC800B03A0200704770471D400D0059400D0042
:107CD80085400D0089400D0000000000312E313034
:107CE8000000252E306625250025332E31662056C6
:107CF8000025332E3166204465677265657320431D
:107D080000566572626F7365204D6F646520537409
:107D180061727465642E00566572626F7365204DDA
:107D28006F646520416C7265616479204F4E2E0046
:107D38003000566572626F7365204D6F646520531D
:107D4800746F707065642E00566572626F7365207B
:107D58004D6F646520616C7265616479204F464699
:107D68002E007B2254656D70657261747572652290
:107D78003A25332E31662C2022426174746572795B
:107D8800223A25332E31667D004169722D51756185
:107D98006C6974792D486F6F6B0052554E4E494E81
:107DA800470054455354494E47004D454153555299
:107DB800494E47005374617465004368616E676596
:107DC800206465746563746564202D205265706F46
:107DD8007274696E670054696D65205061737365CC
:107DE80064202D205265706F7274696E67004E6F43
:107DF800206368616E6765202D2049646C650054B6
:107E0800656D706572617475726500576169746932
:107E18006E6720524553504F4E5345007370617240
:107E28006B2F6465766963652F73657373696F6E0D
:107E38002F656E64004E6F2044617461005562695D
:107E4800646F747320486F6F6B00526573706F6E48
:107E580073652052656365697665640053544154BF
:107E680045004552524F52210063656C7369757322
:107E78000052656C65617365005369676E616C00DB
:107E8800426174746572790049444C4500766572A4
:107E9800626F73654D6F64650000000000000000AC
:107EA80000000000CB520D00D1520D00FB520D0016
:107EB800DF520D00CD520D00000000000000000050
:107EC800D3580D00C9580D00BF580D00B5580D0006
:107ED800A9580D009D580D0091580D0089580D00A6
:107EE8007F580D0075580D00395C0D00000000002A
:107EF80000000000F1580D003B590D0013590D000A
:107F0800F3580D001B590D0023590D002B590D0076
:107F180033590D0000000000000000008D590D00CD
:107F28007D590D007F590D0066006C6E00666E006D
:107F3800636F64650064657461696C000D0A0025EF
:107F48003031307520005D20002564002C20002889
:107F5800293A2000205B00636F6465203D200025DE
:107F6800690064657461696C73203D200062617505
:107F7800640053657269616C0053657269616C31A4
:107F8800007479706500706172616D00636D6400E2
:107F9800696400686E64007374726D0066696C745D
:107FA800006C766C0061646448616E646C65720094
:107FB80072656D6F766548616E646C657200656E9A
:107FC800756D48616E646C657273004A534F4E5309
:107FD800747265616D4C6F6748616E646C657200A0
:107FE800617070006E6F6E65007472616365006920
:107FF8006E666F007761726E006572726F720070E4
:10800800616E696300616C6C000000000000000094
:1080180000000000CF5A0D00C55A0D00BB5A0D00D4
:10802800B15A0D00A55A0D00995A0D008D5A0D0030
:10803800855A0D007B5A0D00715A0D00395C0D00F0
:108048000000000000000000D15B0D00DB5B0D00AC
:10805800E55B0D00EF5B0D00F95B0D00055C0D00A5
:10806800115C0D001D5C0D00255C0D002F5C0D00E2
:10807800395C0D000000000000000000F15D0D00FB
:10808800F35D0D00252B3033643A25303275002519
:10809800592D256D2D25645425483A254D3A2553EB
:1080A800257A0061736374696D6500000000000043
:1080B8000000000069600D00B9600D00C7600D0088
:1080C800195D0D007D600D009F600D008B600D0037
:1080D800B3600D006B600D006F600D0000000000C4
:1080E8000000000071610D00C1610D00CF610D003D
:1080F800195D0D00AD610D0073610D0089610D0002
:10810800BB610D009F610D006D610D000000000056
:108118000000000041630D0037630D002D630D0062
:10812800D5620D0021630D0015630D0009630D0074
:1081380001630D00F7620D00ED620D00395C0D0062
:10814800000000000000000075620D00DF620D00F5
:1081580077620D0081630D007D620D004D630D0097
:10816800A9620D000020202020202020202028287F
:1081780028282820202020202020202020202020DF
:10818800202020202088101010101010101010101F
:10819800101010101004040404040404040404104F
:1081A80010101010101041414141414101010101DD
:1081B80001010101010101010101010101010101A7
:1081C80010101010101042424242424202020202B3
:1081D8000202020202020202020202020202020277
:1081E8001010101020000000000000000000000027
:1081F8000000000000000000000000000000000077
:108208000000000000000000000000000000000066
:108218000000000000000000000000000000000056
:108228000000000000000000000000000000000046
:108238000000000000000000000000000000000036
:108248000000000000000000000000000000000026
:108258000000000000000000000000000000000016
:108268000000000000000000000000000000000006
:1082780000000000000000000000000000000000F6
:1082880000000000000000000000000000000000E6
:1082980000000000000000000000000000000000D6
:1082A80000000000000000000000000000000000C6
:1082B80000000000000000000000000000000000B6
:1082C80000000000000000001F0000001C0000006B
:1082D8001F0000001E0000001F0000001E0000001C
:1082E8001F0000001F0000001E0000001F0000000B
:1082F8001E0000001F0000001F0000001D000000FD
:108308001F0000001E0000001F0000001E000000EB
:108318001F0000001F0000001E0000001F000000DA
:108328001E0000001F000000545A00474D5400254D
:1083380031305B5E302D392C2B2D5D256E004D259F
:108348006875256E2E256875256E2E256875256E2F
:10835800002F256875256E3A256875256E3A2568BB
:1083680075256E002D470D00C3490D00A54D0D0064
:10837800DD580D00615A0D00855B0D00055D0D008F
:10838800D55D0D00595F0D0055600D0059640D0055
:1083980019660D0071660D0035670D00B9670D008F
:0883A8003D680D00000000001B
:1083B0008813000001000000AB800D006C810D00EF
:1083C0000000000070820D0090820D00B0820D0050
:1083D000000000000000000000000000000000009D
:1083E000077D0D00000000000000000000000000FC
:1083F000000000000000000000000000000000007D
:10840000000000000000000000000000000000006C
:10841000000000000000000000000000000000005C
:1084200040E2032033830D0033830D000100000080
:10843000000000004A0000000000000000000000F2
:10844000000000000000000000000000000000002C
:108450004A000000000000000000000000000000D2
:10846000000000000000000000000000ECE7032016
:10847000FFFFFFFF00000102030405060708090AC9
:108480000B0C0D0E0F101112131415161718191AC4
:088490001B1C1D1E1F2028000B
:0484980078563412CC
:04000003D0004018D1
:00000001FF
