:02000002D0002C
:1040000000400D002C930D00000006000C0005017F
:08401000040179050000000025
:04401800D0880D003F
:1040200009480A49884208B505D0094A824202D0A7
:10403000121A03F089FF0748074A0021121A03F0F9
:104040008EFF014808BD00BF8CE00320E0900D000A
:10405000B0E20320B0E20320F0E7032070B502F0E5
:104060005BFF074C074BE41AA40800251E46A54237
:1040700004D056F8253098470135F8E770BD00BFE9
:10408000D4900D0090900D0000F0C6BD08B500F072
:10409000F7FABDE8084002F00DBF01F041BC01F0A5
:1040A00047BC01F045BC0078B0FA80F04009704789
:1040B000012303707047012A02D0022A02D004E0D3
:1040C000016002E00B6800B10360002070471FB57B
:1040D0000468684602F05FFB6846A04704466846ED
:1040E00002F069FB204604B010BD000038B5094954
:1040F000054602F0BAFB044618B1074B01201870C0
:1041000038BD0649284602F0B0FB10B1024B012031
:104110001C7038BD628C0D00F4E10320EA880D00AC
:1041200037B59DF8184023438DF800303C230546F1
:1041300001F0DAFD284603B030BD000000000000A9
:10414000F7B502F06DFC384B186002F07BFC0F28CD
:104150000AD007DD1E2803D02D2803D1022504E054
:10416000012502E0032500E00025304C304E0023FD
:1041700023703368E36002F05DFD0746306803F0AA
:104180003DFA41EC100B0221384602F0C5FA02F06C
:1041900051FD284902F0B3F9E06803F02FFA264AEE
:1041A000CDE900011021254801F0DAFB02F042FDC3
:1041B0000646E06803F022FA41EC100B022130467B
:1041C00002F0AAFA02F036FD1D4902F098F921200A
:1041D00002F0F1FE03F000FA11A3D3E9002303F08B
:1041E00061FA03F057FDA06003F008FA0126CDE95B
:1041F0000001114A1348102101F0B2FB267002F0B1
:104200000FFC606002F0EEFE64206843102221463D
:10421000073001F067F9304603B0F0BDAFF300801E
:104220009402C1D2AF63523FB4E20320D0E2032034
:10423000F4E20320EC880D00FD880D00B8E20320B5
:1042400006890D004CE3032010B5074C01F01AF964
:104250002368C01AB0F57A7F04D901F013F9206001
:10426000012010BD002010BDE4E2032008B5FFF7D7
:10427000EBFF18B1BDE80840FFF7E6BF01F0B8FA60
:10428000F5E7000000B58DB00A4903A802F0B8FDBB
:1042900003A802F07BFD10EE100A03F0AFF9064A06
:1042A000CDE900011021054801F05AFB0DB05DF881
:1042B00004FB00BFD8E6032031890D002CE3032066
:1042C00007B5212002F077FE03F086F90DA3D3E9AC
:1042D000002303F0E7F903F0DDFC074B186003F05F
:1042E0008DF9064ACDE900011021054801F038FB9F
:1042F00003B05DF804FB00BF48E3032038890D00DC
:104300004CE303209402C1D2AF63523F38B5046836
:1043100005467CB16368013B63605BB92368204656
:104320009B689847A368013BA3601BB9236820469C
:10433000DB689847284638BD70B5214E8CB0012403
:10434000204800F03FFE0546B8B11F4CD4ED007A7E
:10435000F5EE407AF1EE10FA04D01A4800F056FE5D
:1043600084ED000A206803F049F9184ACDE90001FC
:104370001021174801F0F4FA1EE001F083F83060D4
:1043800001F036FA2346134A202104A801F0E8FA86
:10439000FFF76CFF104B1B785BB1104B10491B787B
:1043A0008DF8005002A804AAFFF7BAFE03A8FFF791
:1043B000ADFF01340B2CC3D128460CB070BD00BF3B
:1043C000E4E60320FCE20320F4E2032040890D0030
:1043D000B8E2032050890D0041E303205CE3032091
:1043E0006F890D0008B5FFF74DFFFFF769FFBDE8C6
:1043F0000840FFF7A1BF00007FB52949054602F03C
:1044000034FA10B1274B1E7886B12549284602F0B0
:104410002CFAA8B1234B1B7893B1FFF727FF224B4F
:10442000224A1B7800248DF800402EE001241C70E5
:10443000FFF71CFF1C4B1E4A1B788DF8006024E020
:104440001C49284602F011FA60B1164B1C784CB199
:1044500000251D70FFF70AFF134B174A1B788DF8D4
:10446000005012E01349284602F0FFF920B10D4B2D
:104470001C781CB100240FE004460DE0FFF7F6FEA7
:10448000094B0E4A1B788DF8004002A80C49FFF733
:1044900047FE03A8FFF73AFF204604B070BD00BFF7
:1044A000628C0D0041E303205CE303208D890D0045
:1044B00077890D00EA880D00A6890D00BC890D00E2
:1044C000A58B0D0070B5234D234EADF5067D072459
:1044D00002F088FD102220461E4900F0FBFFA8686C
:1044E00003F08CF8CDE90201E86803F087F81B4A75
:1044F000CDE900014FF4007106A801F031FA002265
:10450000337817498DF8002004A806AAFFF708FEA3
:1045100005A8FFF7FBFE6434FFF7A8FE40F29713EF
:104520009C42D5D102F07CFA0E4C206002F05AFD7C
:104530002178032000F0C6FF00F0A4FF0A4B1860AA
:1045400002F076FA094B1860094B01221A700DF53A
:10455000067D70BDD0E203205CE30320D6890D0008
:10456000FD890D00B4E2032044E30320E8E20320C8
:10457000E0E2032030B50C4685B0214D51B92B78CF
:10458000002B3AD0FFF772FE1E4B1F4A1B788DF8A6
:1045900000402BE0084603F0CDFBC83801282B78FB
:1045A0001BD873B1FFF762FE164B18491B78002227
:1045B0008DF8002002A8164AFFF7B2FD03A8FFF706
:1045C000A5FE144B00221A7002F00CFD02F028FA2E
:1045D000C1B2032000F076FF0FE073B1FFF746FE93
:1045E000084B00221B788DF80020224602A80A49B9
:1045F000FFF796FD03A8FFF789FE05B030BD00BFA9
:1046000041E303205CE303200E8A0D00238A0D00A2
:10461000B68A0D00E0E20320168A0D0030B5124D77
:10462000124C95B0FFF722FE11492A7820782C23EE
:1046300003FB0212009203FB00130E4A402104A860
:1046400001F08EF92B7823700B4B0C491B7800225C
:104650008DF8002002A804AAFFF762FD03A8FFF767
:1046600055FE15B030BD00BFECE2032040E303204F
:1046700094E00320298A0D005CE30320238A0D00C7
:104680002DE9F041A74C2378013B98B0062B00F2AE
:104690000A82DFE813F007003300700001014700D1
:1046A0007D01A501A04B1B782BB1A04B1B78012BE2
:1046B00001D0FFF7B3FF9E4B1B784BB100F0E2FE39
:1046C0009C4B1B68C01A9C4B1B68984280F0E3818E
:1046D00002F0B8F9994B1A68801A994A3C2112687D
:1046E00092FBF1F290421D4680F2D88102F0A0F9CF
:1046F000944B1B68984240F0D181D4E18A4B1B78DF
:104700002BB18A4B1B78022B01D0FFF787FF02F0F9
:104710008FF98C4B1860FFF765FE28B3FFF710FD8B
:10472000032326E0804B1A781D46002A40F0DD80E6
:10473000854B1B78002B00F0E08000F0A3FE834B3C
:104740001B68C01A4AF6C873984240F2AC81804B8D
:1047500080491B7800228DF8002008A87E4AFFF7C8
:10476000DFFC09A8FFF7D2FD00F08CFE7B4B186040
:104770000623237097E16C4D2B782BB16B4B1B7884
:10478000032B01D0FFF74AFF02F052F96D4B1A6874
:1047900090421E4618D0684B714A1A602B7873B14C
:1047A000FFF764FD6A4B6F491B7800228DF80020EB
:1047B00008A86D4AFFF7B4FC09A8FFF7A7FD02F0AF
:1047C00037F904233060D4E7684A694BD2ED006AB8
:1047D00093ED007ADFF8688176EEC77A1746FDEE32
:1047E000E77A1E4617EE901A0029B8BF494207EE35
:1047F000901A6049F8EEE77A91ED006AF4EEC67A15
:10480000F1EE10FA17DB2B7873B1FFF72FFD504B49
:1048100054491B7800228DF8002008A8564AFFF75B
:104820007FFC09A8FFF772FD3B6833600423237007
:104830004FF496731BE0F4EE476AF1EE10FA2B7812
:1048400018D073B1FFF712FD414B46491B78002287
:104850008DF8002008A8494AFFF762FC09A8FFF775
:1048600055FD3B683360042323704FF41673C8F87A
:10487000003018E173B1FFF7F9FC354B39491B786B
:1048800000228DF8002008A83D4AFFF749FC09A83E
:10489000FFF73CFD0123E7E7234B1A781D462AB1B9
:1048A000224B1B78042B01D0FFF7B8FE02F0C0F8B2
:1048B0000C2805D100F0ACFF10B1002000F0C8FFBB
:1048C0002B7873B1FFF7D2FC214B2E491B780022C5
:1048D0008DF8002008A82C4AFFF722FC09A8FFF752
:1048E00015FDFFF7EFFD052343E7104B1B78052B64
:1048F0003FF41EAFFFF792FE1AE72D7801232370D5
:10490000002D7FF41AAFFFF7B1FC114B1F4A1B7843
:1049100014498DF8005008A8FFF702FC09A8FFF71A
:10492000F5FC0AE7ECE2032041E3032040E3032027
:10493000F4E1032028E30320C8E20320F8E2032087
:104940008CE00320E8E20320E0E2032044E30320BC
:104950005CE30320C88A0D00F48C0D00CCE2032038
:10496000905F0100238A0D003E8A0D00F4E20320CF
:1049700060E3032090E00320528A0D00718A0D004D
:104980008D8A0D009E8A0D00B8E20320AA8A0D00D0
:10499000464B1B782BB1464B1B78062B01D0FFF7FB
:1049A0003DFE00F06FFD434B1B68C01A47F22F53CA
:1049B000984278D9FFF75AFC3F4B40491B780022B8
:1049C0008DF8002008A83E4AFFF7AAFB09A8FFF7C8
:1049D0009DFC4FF4FA6000F0DBFF01F075FF62E030
:1049E000324B1B782BB1324B1B78072B01D0FFF7D2
:1049F00015FE344B41F288321A6002F011F8324B46
:104A00001D6890FBF5F303FB1500281A002803DD51
:104A10008542A8BF054600E0012500F0F9FE264FBB
:104A200098B12B46294A402108A800F099FFFFF7CA
:104A30001DFC00223B7826498DF8002006A808AA14
:104A4000FFF76EFB07A8FFF761FC224B1A680823EB
:104A5000ADF8163018AB012603F84B6D0DF11601B9
:104A600006A8029201953246009601F047FF00F039
:104A7000C7FE00223B7818498DF8002006A8174A87
:104A8000FFF74EFB07A8FFF741FC00F0FBFC144BBF
:104A90002670186007E00723237019E602232370AD
:104AA00001F0D0FF286018B0BDE8F08141E3032099
:104AB00040E30320CCE203205CE30320F98A0D00ED
:104AC000E18A0D00C8E203208CE00320FF8A0D007C
:104AD0001D8B0D003CE30320308B0D00258B0D005A
:104AE00028E303201FB51149044601F0BEFE98B12A
:104AF0000F4B04221A70FFF7B9FB0E4B0E491B78BF
:104B000000228DF8002002A80C4AFFF709FB03A839
:104B1000FFF7FCFB012006E00949204601F0A5FE55
:104B2000003018BF012004B010BD00BF628C0D0022
:104B3000ECE203205CE3032028890D00378B0D0095
:104B4000EA880D001FB51149044601F08EFE98B1A8
:104B50000F4B02221A70FFF789FB0E4B0E491B7890
:104B600000228DF8002002A80C4AFFF7D9FA03A80A
:104B7000FFF7CCFB012006E00949204601F075FE55
:104B8000003018BF012004B010BD00BF628C0D00C2
:104B9000ECE203205CE3032028890D00588B0D0014
:104BA000EA880D0030B585B000230546029321B197
:104BB000144B0393144B00910293029B83B110207A
:104BC000FFF76BFA044658B100238360029B7BB168
:104BD000022269469847039BE360029BA36007E0BB
:104BE0000024029B5BB1032269466846984706E0B1
:104BF00021462A46054800F056FF0446F1E72046C4
:104C000005B030BDCF400D00B7400D007F5A0D00FC
:104C10000023042200F0DCBD70B5A8B002F00AF851
:104C20004FF4165101F0FAFF04A800F0F9FD00243A
:104C300000237D2208A904A801F029FE234622466C
:104C400034490194009408A800F0FAFD3249334831
:104C5000FFF7A8FF32493348FFF7A4FF3249334832
:104C6000FFF7A0FF32493348FFF79CFF3249334832
:104C7000FFF7CEFF32493348FFF7CAFF32493348C6
:104C8000FFF7C6FF32493348FFF7C2FF02F0AAF927
:104C9000204600F00FFC022818D102F0A3F90220F0
:104CA00000F008FC2C4B1860FFF746FBFFF748FAB2
:104CB0002A4B2B4A1A6000F0E5FB2A4B18602A4B5E
:104CC00001221A70294B1B78C3B91DE028AE02F0EF
:104CD00089F9022346F8943D04223146204600F02B
:104CE00001FC012502F07EF92846042231460135F7
:104CF000039400F0F7FB642DF4D1CEE71C4B1B7836
:104D0000012B01D0FFF78AFC04A801F054FD28B064
:104D100070BD00BF75450D00F9430D00778B0D0088
:104D2000454B0D00838B0D00E54A0D008F8B0D0068
:104D3000ED400D009B8B0D00B8E203209E8A0D0014
:104D4000E4880D00AA8B0D002CE30320B28B0D002C
:104D50004CE30320B98B0D00F0E20320C8E20320EE
:104D6000905F010028E30320ECE2032041E30320ED
:104D700040E3032010B5074B00241C60064B0122C2
:104D80001A7000F0BFFB224603210448BDE8104022
:104D900000F017B83CE303205CE30320FCE20320AF
:104DA00000230022438242618361C3610362436244
:104DB00080F8283080F8293080F82A3080F82B30AD
:104DC000704738B50446154600F094F94FF47A73ED
:104DD0002046A5732382FFF7E3FF204638BD00007D
:104DE000F8B52DED028B0B68836100F118054B6857
:104DF0006B600B78222B04460AD003D8102B42D1CB
:104E0000012308E0262B05D0282B3CD1022302E009
:104E1000032300E0042384F82930204600F074F9CD
:104E20002946204600F030FAA27B4421204600F0BB
:104E3000F8F9208A00F0ACFD204600F065F929461B
:104E4000204600F021FA0022B821204600F0E9F9BE
:104E500000221146204600F0E4F9204600F054F903
:104E60002946204600F010FA0022BE21204600F01C
:104E7000D8F994F82930042B09D100221146204694
:104E800000F0CFF903E0002084F8290094E004F159
:104E90001F0504F12806204600F0E6F905F8010F89
:104EA000AE42F8D1082104F1200000F086FA94F80F
:104EB0002830834204D0012384F82B3000207BE08B
:104EC00094F8212094F8203094F8291043EA022322
:104ED0000429638227D194F8223007EE903A42EAFF
:104EE0000321D208F8EE678A07EE902A13F0800FAC
:104EF000618284F82120B8EE678A45D018EE900AC6
:104F000002F07CFB064618EE100A0F4602F076FB14
:104F100000222B4B02F0C6FB02460B4630463946B8
:104F200002F00CFA44E0012903D044D3032910D93C
:104F300041E0B4F9123094F82720DB00102A638294
:104F400019D194F8262023F00F03C2F10C02134468
:104F500010E094F8242012F0600202D123F007033D
:104F600008E0202A02D123F0030303E0402A02D103
:104F700023F001036382B4F9123007EE903AFAEE9F
:104F8000CE7AC4ED057A16E018EE100A02F036FB70
:104F900000220B4B02F086FB064618EE900A0F46E5
:104FA00002F02CFB02460B463046394602F0C8F9A7
:104FB00002F070FE60610120BDEC028BF8BD00BF05
:104FC0000000A03F38B50446FFF7EAFE00F11805DF
:104FD000294600F077F930B9012384F82A302046B9
:104FE00000F064F910E00721284600F0E6F9E37FBD
:104FF000834203D0012384F82B3005E02946204664
:10500000BDE83840FFF7ECBE002038BD90ED050A42
:10501000704700F077BA000010B503682F2B0446E4
:1050200004D9074A00210A2000F07CFB23681F2BCB
:1050300083BF03F01F03236002484FF0A04010BD60
:1050400075540D000003005007B50B4B1B680001A1
:1050500019181A5C4B7802A803F01F0343EA4213A5
:1050600040F8043DFFF7D8FF019A01239340C0F8B0
:105070000C3503B05DF804FB64E3032007B50B4B6C
:105080001B68000119181A5C4B7802A803F01F0373
:1050900043EA421340F8043DFFF7BEFF019A0123A3
:1050A0009340C0F8083503B05DF804FB64E30320C7
:1050B00013B50F4B1B6800011A181C5C537802A82B
:1050C00003F01F0343EA441440F8044DFFF7A4FF24
:1050D000D0F8103502A840F8084DFFF79DFFD0F832
:1050E0001035009823FA00F000F0010002B010BD66
:1050F00064E3032038B504460D462846002101F03C
:1051000049FF2580204638BD38B5054600F0EEFF42
:105110000021288800F006FA00F0EAFF7D24013C17
:1051200014F0FF042BD0022000F0A4F92888FFF728
:10513000BFFF0028F3D000F0D9FF2888FFF784FFD5
:105140000121288800F0EEF900F0D2FF4FF4F07052
:1051500000F090F900F0CAFF0021288800F0E2F981
:10516000462000F087F92888FFF7A2FFB0FA80F404
:1051700000F0BEFF4FF4CD70640900F07BF92046CB
:1051800038BD38B511F00105044613D000F0AEFF6C
:105190002088FFF759FF0121208800F0C3F90A2079
:1051A00000F068F92088002100F0BCF900F0A0FFB1
:1051B000372012E000F09AFF2088FFF745FF012119
:1051C000208800F0AFF9412000F054F920882946EA
:1051D00000F0A8F900F08CFF0520BDE8384000F091
:1051E00049B910B5044600F081FF2088FFF72CFF75
:1051F0000121208800F096F9032000F03BF90021FE
:10520000208800F08FF90A2000F034F92088FFF799
:105210004FFF044600F06CFF352000F02BF92046CC
:1052200010BD2DE9F04105468846174608260124A1
:1052300018EA040F14BF012100212846FFF7A1FF3F
:105240006400013EE4B2F3D167B100F04FFF28885B
:10525000FFF714FF2888012100F064F9BDE8F04150
:1052600000F046BFBDE8F081F8B5074608260025E6
:1052700001243846FFF7B5FF00B125436400013E25
:10528000E4B2F6D12846F8BD70B500220C4655218F
:105290000646FFF7C6FF651E073415F8011F0022FA
:1052A0003046FFF7BEFFA542F7D170BD00238372E1
:1052B0000373C37200F10A02023002F8013D824218
:1052C000FBD170472DE9F047057B04468846002D49
:1052D0005ED1FFF719FF20B9A0722073E072BDE81C
:1052E000F0872A46F0212046FFF79BFF0126AA46B9
:1052F00037462046FFF775FF81462046FFF771FFCE
:10530000B9F1010F02D101281BD137E0814504EB2F
:1053100005031ED1A27A974207D29A78164214BF8B
:105320004FF001094FF0000904E00CBF4FF00109F4
:105330004FF00009B9F1000F03D1082F08D8E77228
:1053400006E062194FF0010993783343937004E04B
:10535000BA469A7822EA06029A70494620467600B2
:10536000FFF70FFF16F0FF0604BF0135EDB207F19E
:10537000010708BF0126072DFFB2BAD9402F07D970
:1053800084F80AA0BAF1000F12D1012323730FE0B1
:105390000020A0722073E072631C08F1FF3809340A
:1053A00013F8012F08F8012FA342F9D1BDE8F087C7
:1053B000A378002BECD00120EEE730B505460020A5
:1053C0000139C9B2FF2913D015F8014B082280EA30
:1053D000040313F0010F4FEA50001CBF80F08C0350
:1053E000D8B2531E13F0FF024FEA5404EFD1E7E79F
:1053F00030BD000008B500F085F8014B186008BD0D
:1054000064E3032008B5024B1B689B68019308BD49
:105410004802030008B5024B1B681B69019308BDD5
:105420004802030008B5024B1B685B69019308BD85
:105430004802030008B5024B1B681B6B019308BDB3
:105440004802030008B5024B1B685B6C019308BD62
:105450004802030008B5024B1B689B6E019308BD10
:105460003402030008B5024B1B685B68019308BD5A
:105470001802030008B5024B1B68DB68019308BDE6
:105480001802030008B5024B1B685B69019308BD55
:105490001802030008B5024B1B68DB69019308BDC5
:1054A0001802030008B5024B1B689B6A019308BDF4
:1054B0001802030008B5024B1B68DB6A019308BDA4
:1054C0001802030008B5024B1B681B6B019308BD53
:1054D0001802030008B5024B1B685B6C019308BD02
:1054E0001802030008B5024B1B689B6C019308BDB2
:1054F0001802030008B5024B1B689B6D019308BDA1
:105500001802030008B5024B1B681B68019308BD15
:105510002C02030008B5024B1B685B68019308BDB1
:105520002C02030008B5024B1B689B68019308BD61
:105530002C02030008B5024B1B681B6A019308BDCF
:105540002C02030008B5024B1B685B6A019308BD7F
:105550002C02030008B5024B1B681B6B019308BDAE
:105560002C02030008B5024B1B681B6A019308BD9F
:105570002802030008B5024B1B685B6A019308BD53
:105580002802030008B5024B1B689B6A019308BD03
:105590002802030008B5024B1B68DB6A019308BDB3
:1055A0002802030008B5024B1B681B6B019308BD62
:1055B0002802030008B5024B1B685B6B019308BD12
:1055C0002802030008B5024B1B681B6C019308BD41
:1055D0002802030008B5024B1B685B69019308BDF4
:1055E0006402030008B5024B1B689B68019308BD69
:1055F0006802030008B5024B1B68DB68019308BD15
:105600006802030008B5024B1B68DB69019308BD03
:105610003002030008B5024B1B681B6A019308BDEA
:105620003002030008B5024B1B681B68019308BDDC
:105630003C02030008B5024B1B68DB68019308BD00
:105640003C02030008B5024B1B681B69019308BDAF
:105650003C02030008B5024B1B685B69019308BD5F
:105660003C02030008B5024B1B689B69019308BD0F
:105670003C02030008B5024B1B68DB69019308BDBF
:105680003C02030008B5024B1B681B6A019308BD6E
:105690003C02030008B5024B1B689B6A019308BDDE
:1056A0003C02030008B5024B1B681B68019308BD50
:1056B0004C02030008B5024B1B685B68019308BDF0
:1056C0004C02030008B5024B1B681B69019308BD1F
:1056D0004C02030008B5024B1B685B69019308BDCF
:1056E0004C02030008B5024B1B689B69019308BD7F
:1056F0004C02030008B5024B1B68DB69019308BD2F
:105700004C02030008B5024B1B681B6A019308BDDD
:105710004C02030008B5024B1B685B6F019308BD88
:105720007402030008B5024B1B685B6B019308BD54
:105730006002030008B5024B1B681B68019308BD9B
:105740002002030008B5024B1B685B68019308BD8B
:105750002002030008B5024B1B685B69019308BD7A
:105760002002030008B5024B1B68DB6C019308BDE7
:105770002002030008B5024B1B685B6D019308BD56
:105780002002030008B5024B1B689B6D019308BD06
:105790002002030008B5034B1B68D3F8883001933F
:1057A00008BD00002002030008B5034B1B68D3F8B6
:1057B0009430019308BD00002002030008B5034B9C
:1057C0001B68D3F8A030019308BD0000200203003D
:1057D00008B5024B1B681B68019308BD4402030017
:1057E00008B5024B1B685B68019308BD44020300C7
:1057F00008B5024B1B689B68019308BD4402030077
:1058000008B5024B1B68DB68019308BD4402030026
:1058100008B5024B1B685B69019308BD4402030095
:1058200008B5024B1B68DB69019308BD4402030005
:1058300008B5024B1B681B6A019308BD44020300B4
:1058400008B5024B1B685B6A019308BD4402030064
:1058500008B5024B1B68DB6A019308BD44020300D4
:1058600008B5024B1B681B6B019308BD4402030083
:1058700008B5024B1B68DB6B019308BD44020300B3
:1058800008B5024B1B685B68019308BD400203002A
:1058900008B5024B1B689B68019308BD40020300DA
:1058A00008B5024B1B68DB68019308BD400203008A
:1058B00008B5024B1B681B69019308BD4002030039
:1058C00008B5024B1B685B69019308BD40020300E9
:1058D00008B5024B1B689B69019308BD4002030099
:1058E00008B5024B1B68DB69019308BD4002030049
:1058F00008B5024B1B681B6A019308BD40020300F8
:1059000008B5024B1B681B6B019308BD40020300E6
:1059100008B5024B1B685B6B019308BD4002030096
:1059200008B5024B1B681B68019308BD1C020300ED
:1059300008B5024B1B685B68019308BD1C0203009D
:1059400008B5024B1B689B68019308BD1C0203004D
:1059500008B5024B1B689B69019308BD1C0203003C
:1059600008B5024B1B68DB69019308BD1C020300EC
:1059700008B5024B1B68DB6A019308BD1C020300DB
:1059800008B5024B1B681B6B019308BD1C0203008A
:105990000021FFF7DFBE10B5836804460BB901F0A4
:1059A0007EFBC3689847A3681BB1032221462046AB
:1059B000984720461021BDE8104001F06EBB0B68EF
:1059C000036013B15A6801325A60704702480023DD
:1059D0000360FFF737BD00BF68E303207047002076
:1059E000704710B51021044601F057FB204610BD4A
:1059F00008B508B1FFF7F5FF08BD10B58368044688
:105A000013B1032201469847204610BD00220260D0
:105A100010B54FF69C728280B1F9044084808A8070
:105A200002680C6804600A6010BD10B50446006886
:105A3000FFF77EFF204610BD38B5C468F4B1237867
:105A4000022B03D104F10C00FFF7EFFF656835B1BD
:105A50002846FFF7D2FF1021284601F01EFBA5685B
:105A600035B12846FFF7C9FF1021284601F015FB84
:105A700020461421BDE8384001F00FBB38BD1FB5EA
:105A80000446684600F0DEFEA3680BB901F007FB90
:105A9000E3686946204698470446684600F08BFE56
:105AA000204604B010BDF0B5102485B007460E4660
:105AB000154600212246684602F051FA0022694646
:105AC0001046ADF80040029703960195FFF788FE57
:105AD00005B0F0BD13B5044691E8050000234B6006
:105AE0000B602060626001A801930093FEF70EFC3A
:105AF000204602B010BDF7B50C4602AD54F8043B89
:105B000045F8083D06460F4601A82146FFF757FF16
:105B100029463046FFF7DEFF01A8FEF7F7FB2046D7
:105B2000FEF7F4FB3846082101F0B7FA304603B01F
:105B3000F0BD13B50B46044603C88DE8030093E897
:105B4000030084E803009DE8030083E8030002B03B
:105B500010BD000038B500230446036010200D4638
:105B6000FEF79BFA28B1012343608360024B036078
:105B7000C5602060204638BDCC8B0D00826810B512
:105B80000AB901F08CFAC368BDE81040184708B59F
:105B9000006800F11001FFF7F1FF08BD826810B541
:105BA0000AB901F07CFAC368BDE81040184708B58F
:105BB000006800F11001FFF7F1FF08BD38B50023C0
:105BC00083608B6804460D462BB102229847EB6830
:105BD000E360AB68A360204638BD0000F0B589B033
:105BE00004686846FFF712FF00238DF808304FF075
:105BF0000202D4E84F3F002B03D1C4E8412F002913
:105C0000F7D102D08DF8083063E014F10C0503D011
:105C100069462846FFF7FAFEBFF35F8F01236370E2
:105C2000002004F10803BFF35F8F53E8006F43E8DF
:105C30000002002AF9D1BFF35F8F002E49D0FFF791
:105C400091FD20B129463046FFF798FF3AE03146F2
:105C500002A8FFF7B3FFE068B4F9105008B102F0F2
:105C6000C1F906901020ADF81C50FEF716FA054653
:105C7000E8B1002787601820FEF70FFA044688B1C4
:105C80000146876002A8FFF754FF049BA268A36047
:105C9000059B049206A9E268E36004F110000592F6
:105CA000FFF7B4FE0D4BEB600D4B2C60AB6006A80C
:105CB000FFF7BBFE02A8FFF7A0FE00222946094815
:105CC000FFF758FD3046FFF798FE1021304601F0EF
:105CD000E4F96846FFF7A9FE09B0F0BD8F5B0D003F
:105CE000055E0D0097590D002DE9F04F8BB006466B
:105CF0000F46904699469DF850A0FFF789FD07ADE5
:105D0000834630BB4FF62E73059005A92846ADF8A3
:105D10001830FFF77BFE1420FEF7BFF9044658B198
:105D20000223037001234370C0F804B0C0F808B028
:105D300029460C30FFF76AFE3046214640F8044BF6
:105D4000FFF708FF2846FFF770FE05A8FFF76DFE76
:105D500052E000240C2314206C60AC600793FEF723
:105D60009CF9014618B1047044704460846004A832
:105D70000391FFF7EFFE224B08930820FEF78DF901
:105D8000044628B1039B40F8043B04A9FFF717FE23
:105D900000955FFA8AF34A46414638460994FFF770
:105DA00047FD20B9039B5B7803F0FF0283B1039B9F
:105DB000059304A906A8FFF702FE05A93046FFF7E0
:105DC00089FE06A8FEF7A2FA04A8FEF79FFA13E0E0
:105DD0004FF69C7305A903A80592ADF81830FFF79C
:105DE000FDFE05A8FFF721FE05A80999FFF783FE30
:105DF00006A8FEF78BFADAE730460BB0BDE8F08F65
:105E0000755F0D00022AF8B5044606D0032A17D0A4
:105E1000012A22D10B6803601FE018200E68FEF7EC
:105E20003CF9054650B13146FFF7C8FE3069B6F976
:105E3000147008B102F0D6F82861AF8225600CE03A
:105E4000046854B104F11000FFF7EFFD2046FFF79E
:105E5000D4FD1821204601F020F90020F8BD38B506
:105E6000002383608B6804460D462BB102229847BD
:105E7000EB68E360AB68A360204638BD022A70B5CA
:105E8000044606D0032A11D0012A18D10B680360FA
:105E900015E014200E68FEF700F9054620B13146E2
:105EA000FFF7DDFF337C2B74256008E0046834B114
:105EB0002046FFF7A2FD1421204601F0EEF8002055
:105EC00070BD0000F0B5002387B00C46BFF35F8FB4
:105ED00050E8006F40E80032002AF9D1BFF35F8F2D
:105EE000002E3FD01846FFF73DFC074620B1214663
:105EF0003046FFF753FE2EE0314601A8FFF7AFFF13
:105F000023788DF814301020FEF7C7F80546D0B17D
:105F100087601420FEF7C1F8044678B18760014617
:105F200001A8FFF706FE039BA268A360049B0392EF
:105F3000E268E3609DF81430049223740A4BEB602E
:105F40000A4B2C60AB6001A8FFF757FD00222946E1
:105F50000748FFF70FFC3046FFF74FFD1021304692
:105F600001F09BF807B0F0BDAF5B0D007D5E0D004A
:105F700097590D0030B585B004460D466846114668
:105F8000FFF7B9FD7CB124B228460DB102F02AF822
:105F9000029002A96846ADF80C40FFF71FFE02A868
:105FA000FFF743FD1DE000988DF808404FF0010217
:105FB000D0E84F3FA34203D1C0E8412F0029F7D1D9
:105FC00002D08DF808300CE010F10C014FF0010305
:105FD00018BF0373BFF35F8F043000F8033CFFF773
:105FE00071FF01A8FEF792F905B030BD00221146FD
:105FF0004068FFF77DBC002211464068FFF788BC6F
:1060000000224068FFF77CBC002281F0010140685B
:10601000FFF766BC00231A4619464068FFF758BCD4
:1060200000231A4619464068FFF74ABC0022114671
:106030004068FFF73DBC002211464068FFF728BCCE
:10604000002202214068FFF72BBC00231A4640685B
:10605000FFF716BC024B03225A60024A1A607047CF
:106060006CE30320E88B0D007047F8B50646154633
:106070000C468F18BC4206D0336814F8011B9B688D
:1060800030469847F6E72846F8BD0022007CFFF727
:1060900069BA0021007CFFF76DBA0021007CFFF790
:1060A00071BA0021007CFFF775BA0021007CFFF770
:1060B00079BA10B51421044600F0EFFF204610BD58
:1060C00010B504464FF47A730846A3600021044BD0
:1060D000207461602360FFF775FA204610BD00BF91
:1060E0001C8C0D000021007CFFF764BAFFF72ABA70
:1060F000FFF720BA704710B51821044600F0CDFF15
:10610000204610BDF0B5037D062B8DB00E4600F184
:1061100004074FF0000402D000F1080518E00CADB0
:10612000394605F8304D2F232A460A20FFF752FA48
:10613000284601F072FF33680246DB682946304684
:1061400098470FE024B12E21304600F0C9F90444ED
:1061500015F8011D0A22304600F008FABD42044439
:10616000F0D120460DB0F0BD10B5054B044611220C
:1061700040F8043B002101F0F2FE204610BD00BFB4
:10618000448C0D000346074A10B543F8042B01F177
:10619000100251F8044B43F8044B9142F9D10A78AC
:1061A0001A7010BD448C0D0010B59DF8084044EAEB
:1061B000032343EA024242EA01610423416003757A
:1061C00010BD37B50D788B784A78C978009129468B
:1061D000FFF7EAFF03B030BD014B024A1A60704777
:1061E00074E30320C38C0D00002211464068FFF7C2
:1061F0007FBB002211464068FFF78ABB002240683F
:10620000FFF77EBB002281F001014068FFF768BB09
:1062100000231A4601214068FFF75ABB00231A46A3
:1062200019464068FFF74CBB002211464068FFF753
:106230003FBB002211464068FFF72ABB0022022123
:106240004068FFF72DBB00231A464068FFF718BBD4
:1062500038B5054688B104684CB1A3681BB1032268
:106260002146204698471021204600F016FF284678
:106270001421BDE8384000F010BF38BD10B10368EC
:106280005B681847704710B503680446BBB158688F
:10629000FFF7B8F878B923685A7C12B95868FFF745
:1062A000B9F823685868FFF7BDF820680023236019
:1062B00028B1FFF7CDFF206808B1FFF7C9FF2046DE
:1062C00010BD000038B50C4B03600446D0F8CC017B
:1062D00008B1FDF7E6FED4F8C45135B12846FFF702
:1062E000D2FF0421284600F0D8FEA06808B1FFF7CD
:1062F000C5FF204638BD00BF348D0D0038B50E4CAB
:106300000E4B23600025022304F5E4706360A56052
:10631000C4F8C451C4F8C851FFF794F8084BC4F846
:10632000CC5184F8D05123602046064A0649BDE886
:10633000384000F0ADBE00BF78E30320688D0D004B
:10634000348D0D00B0E20320C5620D0000231A4613
:106350004068FFF795BA002202214068FFF7A0BA13
:10636000002211464068FFF793BA002211464068A8
:10637000FFF79EBA00231A4619464068FFF7A0BAF5
:1063800000231A4619464068FFF7A2BA002281F09E
:1063900001014068FFF7A4BA00224068FFF7B0BAD5
:1063A000002211464068FFF7B3BA00221146406848
:1063B000FFF79EBA2DE9F043002495B016460D462E
:1063C0000746FFF7D1FE214620220CA8009401F0D9
:1063D000C6FD40230C9321466B460CAA3046FFF7BE
:1063E00009F90446002844D1024601216868FFF7F4
:1063F0005FFA0221804622466868FFF759FA009E3C
:1064000081462146002E34D0002932D17368022BF8
:1064100002D00A2B09D02AE0B8F1000F27D0716909
:1064200038460431FFF7CDFE20E0B9F1000F1ED051
:106430007469112201A801F092FD06238DF8143031
:1064400001AD04F108031834186859682A4603C2DC
:106450000833A3421546F7D101A906A807ADFFF7F7
:1064600091FE0FCD3C1D0FC42B6823700121F669EE
:10647000C8E70098FFF7B6F8384615B0BDE8F083D6
:10648000024B034A1A6000225A6070474CE5032011
:10649000688D0D00F8B506460D468F180024BD42E4
:1064A0000CD0336815F8011B9B68304698470028CC
:1064B00001DB0444F3E7002C08BF04462046F8BD86
:1064C00070B505460C46084649B101F0A6FD2B689B
:1064D000024621462846DB68BDE87040184770BD7B
:1064E00003689B68184738B50D210546FFF7F8FF8C
:1064F0000A2104462846FFF7F3FF204438BD38B58B
:106500000546FFF7DDFF04462846FFF7ECFF204471
:1065100038BD30B58BB00B4600218DF82410012A10
:1065200098BF0A220DF12304B3FBF2F505FB1233E9
:1065300003F0FF03092B94BF30333733DBB221461E
:1065400004F801392B46002DEED1FFF7B9FF0BB04F
:1065500030BD10B42AB903685DF8044B9B68C9B21A
:106560001847D2B25DF8044BFFF7D3BFFFF7F1BF76
:106570002DE9F04107460E4615462AB90368C9B20F
:106580009B68BDE8F04118470A2A02D1002901DAC8
:1065900004E0D2B2BDE8F041FFF7BBBF2D21FFF709
:1065A0009FFF2A46044671423846FFF7B2FF204457
:1065B000BDE8F0812DE9F04757EC106B82460D469F
:1065C00010EE102A3B4610EE100A394601F004FB8B
:1065D00008B1484912E027F000494FF0FF32464B1E
:1065E0003046494601F0F8FA68B94FF0FF32424BA5
:1065F0003046494601F0D2FA28B940495046FFF7E3
:106600005FFFBDE8F0874FF060423D4B30463946B2
:1066100001F0D8FA08B13B49F0E74FF060423A4B3D
:106620003046394601F0B0FA0028F4D100220023A8
:106630003046394601F0A8FA40B12D215046FFF707
:106640004FFF07F1004304461F4600E004462F4970
:106650004FF0000800205FFA88F39D4206D900221F
:106660002B4B01F049F908F10108F4E732463B46AB
:1066700000F066FE0F46064601F0ECFA0A220146DB
:1066800080465046FFF745FF04447DB3404600F086
:1066900093FF02460B463046394600F04FFE064651
:1066A0000F4650461B49FFF70BFF0444184B0022CE
:1066B0003046394600F0F6FF0F46064601F0A2FAD2
:1066C0000A22014680465046FFF752FF04444046E6
:1066D00000F082FF02460B463046394600F02EFE9F
:1066E000013D15F0FF0506460F46DFD12046BDE807
:1066F000F08700BF948D0D00FFFFEF7F9C8D0D0094
:10670000FFFFEF41988D0D00FFFFEFC10000E03F5C
:1067100000002440D4890D0038B5C9B20546FFF702
:1067200049FF04462846FFF7DEFE204438BD10B579
:106730000446FFF762F9204610BD00000348044AF2
:1067400004490023836000F0A3BC00BF54E503208C
:10675000B0E203202F670D00704710B510210446EA
:1067600000F09BFC204610BD70B5084B036004464A
:1067700000250E4640F80C5FFEF75CFE30462671A1
:10678000FEF740FFA560204670BD00BFA88D0D003C
:106790000079FEF73FBF002303604360836003730B
:1067A00010B50C6804604C6844608C6884600B60B1
:1067B0004B608B6010BD10B504460068FFF7B8F859
:1067C000204610BD10B50446006808B1FFF7B0F8C8
:1067D00000232360A360636010BD38B504460D46F6
:1067E00000680131FFF7ACF810B184E82100012006
:1067F00038BD10B50368044613B143688B4207D215
:106800002046FFF7EAFF20B1A3680BB92268137096
:10681000012010BD70B50E46114604461546FFF71F
:10682000E8FF18B92046FFF7CDFF09E02A463146B8
:10683000A560206801F088FB2268A3680021D1547C
:10684000204670BD38B50023044603604360836072
:1068500003730D4639B1084601F0DFFB29460246B5
:106860002046FFF7D7FF204638BD08B582680B46A3
:1068700012B919B9012008BD11B90368187802E0EE
:10688000006801F09DFBB0FA80F0400908BD70B5CA
:106890000E469AB191B185689D4202D800230B70D3
:1068A00070BD541EED1A0168AC4228BF2C46194435
:1068B0002246304601F0CEFB0023335570BD014621
:1068C00000228C20FEF7C6BD0020FFF7F8BF10B5F0
:1068D00000240470448000294FF6FF74848007DD93
:1068E0000139994209D232F811308380012301E045
:1068F00002D10223037010BD418010BD70B586B077
:1069000016461A46002302930C9B01930D460B9BDF
:10691000009304460A9B31462846FEF74FFF334654
:106920002A46014604A8FFF7D2FF064B0498BDF89B
:10693000142018609A801A689B8822602046A380E1
:1069400006B070BD64E50320044B00204FF6FF72D3
:10695000187058809A80FEF7F5BE00BF64E50320EA
:10696000F0B5144B144F1E68144B064418683B686E
:1069700006449E428BB01BD00AA801AD40F8286D9A
:1069800001F0EAF9436903F26C73436104460FCCEA
:106990000FC50FCC0FC5D4F800E0C5F800E001AD7D
:1069A0000FCD074C0FC40FCD0FC43E60C4F800E0FC
:1069B0000BB0F0BD9CE5032098E5032094E503208F
:1069C0006CE5032008B50020FEF74AFF28B1FEF76A
:1069D0001FFF80F00100C0B208BD012008BD10B546
:1069E0000020FEF787FD044668B9FEF7A3FE0128E4
:1069F0000BD12046FEF7C6FE38B9FFF7E3FF30B9EA
:106A0000FEF7F6FEF9E7012010BD002010BDFFF7EC
:106A1000D9FF0020FEF76EFD003018BF012010BD29
:106A200008B5FFF7DCFFBDE80840FEF733BD000006
:106A300008B5FFF7F5FFFFF793FF014B986808BD16
:106A40006CE5032008B5FFF7EBFFFFF789FF014B6B
:106A5000586808BD6CE50320024B1A68024B1A60A7
:106A6000704700BFF8E1032090E5032070474174B0
:106A7000704708B5007CFEF70DFE20EAE07008BD07
:106A800008B5007CFEF7DEFD20EAE07008BD08B521
:106A9000007CFEF7E7FD30EA200028BF4FF0FF3012
:106AA00008BD08B5007CFEF7D5FD30EA200028BF00
:106AB0004FF0FF3008BD007CFEF7DCBD10B514219F
:106AC000044600F0EAFA204610BD70B5457C044645
:106AD0000E4625B9007CFEF7DDFD002805DD3146B8
:106AE000207CBDE87040FEF7A5BD284670BD0000C3
:106AF00010B5044608461146002262604FF47A72CF
:106B0000A260054A22600122207462741A46FEF7D0
:106B100089FD204610BD00BFE08D0D00007CFEF712
:106B2000B1BD000038B50C4D296811F0010411D138
:106B30002846FDF7B8FA68B1084A094B09482146CA
:106B4000FFF7D6FF2846FDF7B3FA074A074905487D
:106B500000F09EFA034838BD38E603203CE60320E7
:106B6000B4E50320A0E50320B0E203206D6A0D0028
:106B700041747047704708B50021007CFEF7B2FDF4
:106B800030EA200028BF4FF0FF3008BD08B50121D2
:106B9000007CFEF7A7FD30EA200028BF4FF0FF3051
:106BA00008BD08B5007CFEF795FD20EAE07008BD41
:106BB00008B5007CFEF786FD20EAE07008BD007C89
:106BC000FEF7A0BD10B51421044600F066FA204679
:106BD00010BD38B50446007C0D46FEF77BFD00284D
:106BE00001DC607C28B12946207CFEF783FD20EA89
:106BF000E07038BD10B50446002363604FF47A732B
:106C0000A360054B23600123084621746374114679
:106C1000FEF748FD204610BD108E0D000022007CBE
:106C2000FEF748BD10B514220446002101F097F983
:106C3000204610BD30B50E4D87B001A8FFF7F2FF1A
:106C4000296811F0010410D12846FDF72CFA60B133
:106C500001AA21460748FFF7CDFF2846FDF728FA8D
:106C6000054A0649034800F013FA024807B030BD50
:106C7000C0E60320C4E60320B0E20320756B0D00DC
:106C8000704701207047000083891BB10369B3F18D
:106C9000004F02D19FED050A704707EE903A9FED35
:106CA000047AF8EEE77A87EE870A70470000000062
:106CB0000000C84283891BB18369B3F1004F02D140
:106CC0009FED050A704707EE903A9FED047AF8EEC3
:106CD000E77A87EE870A7047000000000000C8428C
:106CE000002211464068FEF7E3BD10B5242104469A
:106CF00000F0D3F9204610BD002211464068FEF78F
:106D0000F7BD002211464068FEF702BE002240682F
:106D1000FEF7F6BD002281F001014068FEF7E0BDFC
:106D200000231A4619464068FEF7D2BD00231A46D2
:106D300019464068FEF7C4BD002211464068FEF7C0
:106D4000A7BD002202214068FEF7AABD00231A4613
:106D50004068FEF795BD000083897BB1036A002B74
:106D60000CDB07EE903ADFED076A9FED070AB8EEFD
:106D7000E77AC7EE267A27EE800A7047BFEE000A50
:106D8000704700BF00FF7F470000C84283897BB186
:106D90004369002B0CDB07EE903ADFED076A9FEDAD
:106DA000070AB8EEE77AC7EE267A27EE800A704720
:106DB000BFEE000A704700BF00FF7F470000C842D7
:106DC00070B50D46064600F10C040FCD0FC495E8D2
:106DD000030084E803003369B3F1004F0EBF0223C0
:106DE000642293FBF2F37360B369B3F1004F0EBFFB
:106DF0000023642293FBF2F3B360012070BD000016
:106E00002DE9F041164B036000258846022718261D
:106E100086B0476085603246294604460C3001F052
:106E20009EF82A462946D8F80400FEF741FD90B1A5
:106E300032462946684601F092F82A4669462846B5
:106E4000ADF80060FEF766FC20B969462046FFF702
:106E5000B7FF00E06760204606B0BDE8F08100BFE4
:106E6000748E0D00024B04225A60024A1A60704769
:106E7000D8E60320408E0D0008B50C4B33B1FFF768
:106E8000D9FE03681B699847002809DC084B63B1E9
:106E9000FFF748FE03681B699847002803DC08BD1C
:106EA000AFF30080F2E7AFF3008008BD0000000000
:106EB0000000000008B5FFF7DFFFFEF7E3FA014B23
:106EC000186008BDE4E6032007B5002300931A46C6
:106ED0006FF07701FEF768FC03B05DF804FB00007B
:106EE00007B543880A2B08D0502B09D1094B1B68E2
:106EF0003BB103B05DF804EB1847FFF7E5FF06E090
:106F0000002300931A466FF07701FEF74DFC03B0A3
:106F10005DF804FBE0E6032010B5FEF7A3FA044693
:106F200001F026F8074B13B12046AFF30080002193
:106F30000448FEF79DFC00210348BDE81040FEF721
:106F400029BC00BF00000000E16E0D0010B5044632
:106F50000F48FFF71DFC28B1A4F10B03022B01D849
:106F6000002010BD00F052F8FFF7BCF808B1012C6A
:106F7000F6D9FFF7D7FDFFF7D1FD18B1A4F109034A
:106F8000012BEDD9232C8CBF0020012010BD00BFA8
:106F900008E70320232838B504460D460AD8FF2900
:106FA00008D0FFF7D3FF28B129462046BDE8384076
:106FB000FEF7B8BA38BD0D2810B504469CBF0E3494
:106FC000A4B22046FFF7C2FF50B103212046FEF7CE
:106FD000A1FA032804D12046BDE81040FEF7BABA52
:106FE000002010BD10B5074C2368DB0708D42046ED
:106FF000FDF759F820B1FEF755FA2046FDF758F88D
:10700000014810BDE8E60320ECE6032038B50B4D3F
:10701000296811F001040FD12846FDF744F858B152
:1070200021460748FFF74CF82846FDF741F8054A86
:107030000549034800F02CF8014838BDF0E603206C
:10704000F4E60320B0E2032069600D0070B50C4C3B
:107050000C4E0D4D00212046FFF786FB20460B4CC1
:107060003246294600F014F801212046FFF77CFB48
:10707000324629462046BDE8704000F009B800BFFE
:1070800008E70320B0E2032059670D0018E703204A
:107090000B460146184600F051BEFDF700B808B592
:1070A000FEF766FC244B1A68D0075CBF01221A6009
:1070B000224B1A68D1075CBF01221A60204B1A6864
:1070C000D2075CBF01221A601E4B1A68D0075CBF52
:1070D00001221A601C4B1A68D1075CBF01221A609A
:1070E0001A4B1A68D2075CBF01221A60184B1A6843
:1070F000D0075CBF01221A60164B1A68D1075CBF2B
:1071000001221A60144B1A68D2075CBF01221A6070
:10711000124B1A68D0075CBF01221A60104B1A6824
:10712000D1075CBF01221A600E4B1A68D2075CBF00
:1071300001221A60704700BF54E7032050E7032084
:107140004CE7032048E7032044E7032040E70320FF
:107150003CE7032038E7032034E7032030E703202F
:107160002CE7032028E70320184B1A68D1075CBFDF
:1071700001221A60164B1A68D2075CBF01221A60FE
:10718000144B1A68D0075CBF01221A60124B1A68B0
:10719000D1075CBF01221A60104B1A68D2075CBF8E
:1071A00001221A600E4B1A68D0075CBF01221A60D8
:1071B0000C4B1A68D1075CBF01221A600A4B1A688F
:1071C000D2075CBF01221A60704700BF74E703203A
:1071D00070E703206CE7032068E7032064E70320DF
:1071E00060E703205CE7032058E70320184B1A6888
:1071F000D1075CBF01221A60164B1A68D2075CBF28
:1072000001221A60144B1A68D0075CBF01221A6071
:10721000124B1A68D1075CBF01221A60104B1A6822
:10722000D2075CBF01221A600E4B1A68D0075CBF00
:1072300001221A600C4B1A68D1075CBF01221A6048
:107240000A4B1A68D2075CBF01221A60704700BF60
:1072500094E7032090E703208CE7032088E70320CE
:1072600084E7032080E703207CE7032078E70320FE
:10727000244B1A68D0075CBF01221A60224B1A689F
:10728000D1075CBF01221A60204B1A68D2075CBF8D
:1072900001221A601E4B1A68D0075CBF01221A60D7
:1072A0001C4B1A68D1075CBF01221A601A4B1A687E
:1072B000D2075CBF01221A60184B1A68D0075CBF66
:1072C00001221A60164B1A68D1075CBF01221A60AE
:1072D000144B1A68D2075CBF01221A60124B1A685D
:1072E000D0075CBF01221A60104B1A68D1075CBF3F
:1072F00001221A600E4B1A68D2075CBF01221A6085
:10730000704700BFC4E70320C0E70320BCE70320A9
:10731000B8E70320B4E70320B0E70320ACE703207D
:10732000A8E70320A4E70320A0E703209CE70320AD
:1073300098E7032081F0004102E000BF83F00043A2
:1073400030B54FEA41044FEA430594EA050F08BF00
:1073500090EA020F1FBF54EA000C55EA020C7FEAC4
:10736000645C7FEA655C00F0E2804FEA5454D4EB41
:107370005555B8BF6D420CDD2C4480EA020281EA0B
:10738000030382EA000083EA010180EA020281EA43
:107390000303362D88BF30BD11F0004F4FEA013195
:1073A0004FF4801C4CEA113102D0404261EB4101A4
:1073B00013F0004F4FEA03334CEA133302D052422A
:1073C00063EB430394EA050F00F0A780A4F10104E6
:1073D000D5F1200E0DDB02FA0EFC22FA05F2801820
:1073E00041F1000103FA0EF2801843FA05F3594106
:1073F0000EE0A5F120050EF1200E012A03FA0EFC85
:1074000028BF4CF0020C43FA05F3C01851EBE371AE
:1074100001F0004507D54FF0000EDCF1000C7EEBCB
:1074200000006EEB0101B1F5801F1BD3B1F5001F09
:107430000CD349085FEA30004FEA3C0C04F1010428
:107440004FEA445212F5800F80F09A80BCF1004F51
:1074500008BF5FEA500C50F1000041EB045141EAD3
:10746000050130BD5FEA4C0C404141EB010111F4D4
:10747000801FA4F10104E9D191F0000F04BF01467F
:107480000020B1FA81F308BF2033A3F10B03B3F15D
:1074900020020CDA0C3208DD02F1140CC2F10C02ED
:1074A00001FA0CF021FA02F10CE002F11402D8BF4B
:1074B000C2F1200C01FA02F120FA0CFCDCBF41EA17
:1074C0000C019040E41AA2BF01EB0451294330BDE6
:1074D0006FEA04041F3C1CDA0C340EDC04F11404C3
:1074E000C4F1200220FA04F001FA02F340EA03009A
:1074F00021FA04F345EA030130BDC4F10C04C4F1E0
:10750000200220FA02F001FA04F340EA03002946BF
:1075100030BD21FA04F0294630BD94F0000F83F409
:10752000801306BF81F480110134013D4EE77FEAEC
:10753000645C18BF7FEA655C29D094EA050F08BF38
:1075400090EA020F05D054EA000C04BF1946104619
:1075500030BD91EA030F1EBF0021002030BD5FEA5D
:10756000545C05D14000494128BF41F0004130BD85
:1075700014F580043CBF01F5801130BD01F00045D9
:1075800045F0FE4141F470014FF0000030BD7FEA4C
:10759000645C1ABF194610467FEA655C1CBF0B4647
:1075A000024650EA013406BF52EA033591EA030F5E
:1075B00041F4002130BD00BF90F0000F04BF002156
:1075C000704730B54FF4806404F132044FF0000589
:1075D0004FF0000150E700BF90F0000F04BF002102
:1075E000704730B54FF4806404F1320410F0004568
:1075F00048BF40424FF000013EE700BF42004FEA63
:10760000E2014FEA31014FEA02701FBF12F07F43DF
:1076100093F07F4F81F06051704792F0000F14BFDC
:1076200093F07F4F704730B54FF4607401F0004520
:1076300021F0004120E700BF50EA010208BF704777
:1076400030B54FF000050AE050EA010208BF70476C
:1076500030B511F0004502D5404261EB41014FF4D5
:10766000806404F132045FEA915C3FF4DCAE4FF0D9
:1076700003025FEADC0C18BF03325FEADC0C18BFC0
:10768000033202EBDC02C2F1200300FA03FC20FA11
:1076900002F001FA03FE40EA0E0021FA02F114445E
:1076A000C1E600BF70B54FF0FF0C4CF4E06C1CEA73
:1076B00011541DBF1CEA135594EA0C0F95EA0C0FE8
:1076C00000F0DEF82C4481EA030621EA4C5123EA5B
:1076D0004C5350EA013518BF52EA033541F480118A
:1076E00043F4801338D0A0FB02CE4FF00005E1FB3D
:1076F00002E506F00042E0FB03E54FF00006E1FB87
:1077000003569CF0000F18BF4EF0010EA4F1FF04C9
:10771000B6F5007F64F5407404D25FEA4E0E6D4109
:1077200046EB060642EAC62141EA55514FEAC5201A
:1077300040EA5E504FEACE2EB4F1FD0C88BFBCF596
:10774000E06F1ED8BEF1004F08BF5FEA500E50F147
:10775000000041EB045170BD06F0004646EA01010D
:1077600040EA020081EA0301B4EB5C04C2BFD4EB3F
:107770000C0541EA045170BD41F480114FF0000E38
:10778000013C00F3AB8014F1360FDEBF002001F0A6
:10779000004170BDC4F10004203C35DA0C341BDC20
:1077A00004F11404C4F1200500FA05F320FA04F0F2
:1077B00001FA05F240EA020001F0004221F0004126
:1077C00010EBD37021FA04F642EB06015EEA430E99
:1077D00008BF20EAD37070BDC4F10C04C4F12005C9
:1077E00000FA04F320FA05F001FA04F240EA02007C
:1077F00001F0004110EBD37041F100015EEA430E4D
:1078000008BF20EAD37070BDC4F1200500FA05F26C
:107810004EEA020E20FA04F301FA05F243EA0203EB
:1078200021FA04F001F0004121FA04F220EA0200FA
:1078300000EBD3705EEA430E08BF20EAD37070BD40
:1078400094F0000F0FD101F00046400041EB010120
:1078500011F4801F08BF013CF7D041EA060195F002
:10786000000F18BF704703F00046520043EB0303BC
:1078700013F4801F08BF013DF7D043EA06037047A9
:1078800094EA0C0F0CEA135518BF95EA0C0F0CD0B4
:1078900050EA410618BF52EA4306D1D181EA0301FA
:1078A00001F000414FF0000070BD50EA410606BFF4
:1078B0001046194652EA430619D094EA0C0F02D139
:1078C00050EA013613D195EA0C0F05D152EA03367E
:1078D0001CBF104619460AD181EA030101F000419C
:1078E00041F0FE4141F470014FF0000070BD41F0E5
:1078F000FE4141F4780170BD70B54FF0FF0C4CF4BF
:10790000E06C1CEA11541DBF1CEA135594EA0C0FDD
:1079100095EA0C0F00F0A7F8A4EB050481EA030E2A
:1079200052EA03354FEA013100F088804FEA033311
:107930004FF0805545EA131343EA12634FEA0222DF
:1079400045EA111545EA10654FEA00260EF00041A0
:107950009D4208BF964244F1FD0404F5407402D2F2
:107960005B084FEA3202B61A65EB03055B084FEA83
:1079700032024FF480104FF4002CB6EB020E75EB80
:10798000030E22BFB61A754640EA0C005B084FEAA8
:107990003202B6EB020E75EB030E22BFB61A754625
:1079A00040EA5C005B084FEA3202B6EB020E75EB70
:1079B000030E22BFB61A754640EA9C005B084FEAE8
:1079C0003202B6EB020E75EB030E22BFB61A7546F5
:1079D00040EADC0055EA060E18D04FEA051545EAE4
:1079E00016754FEA06164FEAC30343EA52734FEA8D
:1079F000C2025FEA1C1CC0D111F4801F0BD141EA06
:107A000000014FF000004FF0004CB6E711F4801F6A
:107A100004BF01430020B4F1FD0C88BFBCF5E06F4A
:107A20003FF6AFAEB5EB030C04BFB6EB020C5FEA5A
:107A3000500C50F1000041EB045170BD0EF0004EAF
:107A40004EEA113114EB5C04C2BFD4EB0C0541EAE1
:107A5000045170BD41F480114FF0000E013C90E6DE
:107A600045EA060E8DE60CEA135594EA0C0F08BFA2
:107A700095EA0C0F3FF43BAF94EA0C0F0AD150EAA1
:107A800001347FF434AF95EA0C0F7FF425AF104634
:107A900019462CE795EA0C0F06D152EA03353FF45C
:107AA000FDAE1046194622E750EA410618BF52EAD9
:107AB00043067FF4C5AE50EA41047FF40DAF52EAAD
:107AC00043057FF4EBAE12E74FF0FF3C06E000BF4A
:107AD0004FF0010C02E000BF4FF0010C4DF804CD57
:107AE0004FEA410C7FEA6C5C4FEA430C18BF7FEA17
:107AF0006C5C1BD001B050EA410C0CBF52EA430C45
:107B000091EA030F02BF90EA020F0020704710F1C4
:107B1000000F91EA030F58BF994208BF90422CBF53
:107B2000D8176FEAE37040F0010070474FEA410C4C
:107B30007FEA6C5C02D150EA013C07D14FEA430C6A
:107B40007FEA6C5CD6D152EA033CD3D05DF8040BDB
:107B5000704700BF8446104662468C46194663460D
:107B600000E000BF01B5FFF7B7FF002848BF10F1E4
:107B7000000F01BD4DF808EDFFF7F4FF0CBF012029
:107B800000205DF808FB00BF4DF808EDFFF7EAFFA5
:107B900034BF012000205DF808FB00BF4DF808ED60
:107BA000FFF7E0FF94BF012000205DF808FB00BF55
:107BB0004DF808EDFFF7CEFF94BF012000205DF8DF
:107BC00008FB00BF4DF808EDFFF7C4FF34BF0120EC
:107BD00000205DF808FB00BF4FEA410C7FEA6C5CB7
:107BE00002D150EA013C0AD14FEA430C7FEA6C5CB7
:107BF00002D152EA033C02D14FF0000070474FF02F
:107C0000010070474FEA410212F5001215D211D55A
:107C10006FF47873B3EB625212D94FEAC12343F089
:107C2000004343EA505311F0004F23FA02F018BF0B
:107C3000404270474FF00000704750EA013005D1D4
:107C400011F0004008BF6FF0004070474FF0000097
:107C5000704700BF4A0011D212F5001211D20DD5A3
:107C60006FF47873B3EB62520ED44FEAC12343F042
:107C7000004343EA505323FA02F070474FF00000EC
:107C8000704750EA013002D14FF0FF3070474FF09B
:107C9000000070474FEA4102B2F1E04324BFB3F560
:107CA000001CDCF1FE5C0DD901F0004C4FEAC00273
:107CB0004CEA5070B2F1004F40EB830008BF20F057
:107CC0000100704711F0804F21D113F13872BCBF11
:107CD00001F00040704741F480114FEA5252C2F166
:107CE0001802C2F1200C10FA0CF320FA02F018BFAF
:107CF00040F001004FEAC1234FEAD32303FA0CFC02
:107D000040EA0C0023FA02F34FEA4303CCE77FEA90
:107D1000625307D150EA01331EBF4FF0FE4040F4DA
:107D20004000704701F0004040F0FE4040F4000089
:107D3000704700BF0A22002100F026BA10B5054C9A
:107D400013462CB10A4601460220AFF3008010BD55
:107D5000204610BD0000000038B5074B1C68E36BDF
:107D600005461BB92420FDF7DBFDE063E16B2846E7
:107D7000BDE8384000F002B860E203202DE9F04190
:107D80000C46804600F006FD21460746404600F0BE
:107D900005FD466906F26C76B307044605D16422F8
:107DA00096FBF2F302FB13634BB94FF4C87596FBD5
:107DB000F5F305FB1365B5FA85F35B0900E00123D4
:107DC0005F4A302505FB032500F018FB00F018FB87
:107DD0005C4B1B68F3B17B689E4205D13968D8F8CB
:107DE0000030FA6941B90AE0304600F05FFA002835
:107DF000F4D14FF0FF330DE0934208DB01E09342F2
:107E000007DABA6B9342ACBF0023012302E00023E0
:107E100000E001232362236A012B0CBFF96B396A4E
:107E20004FF461633C2091FBF3F603FB161361688A
:107E300093FBF0F200FB12302368891AA26861609C
:107E40001B1A921B3B2B2360A26003DD0131616092
:107E50003C3B04E0002B03DA013961603C332360D2
:107E600063683B2B03DD0132A2603C3B04E0002B46
:107E700003DA013AA2603C336360A368172B22DD6A
:107E8000E2690132E261A2690132062AC8BF00221A
:107E9000A261E268183B0132A3602369E26055F8F1
:107EA00023108A4246DD01330C2B0CBF636923612A
:107EB000A2EB0102E26001BF013300222261636193
:107EC00008BFE26136E0002B34DAE269013AE26190
:107ED000A269013A48BF0622A261E2681833013A5A
:107EE000E260A36032BB2369013B01D423611DE042
:107EF0000B23236163695A1E12F0030F626103F2C0
:107F00006B7305D1642193FBF1F201FB12324AB984
:107F10004FF4C87193FBF1F201FB1233B3FA83F310
:107F20005B0900E0012303F5B673E361236955F8AB
:107F30002330E36000F063FA2046BDE8F08100BF23
:107F4000F48F0D00E4E7032010B5431E0A4491426C
:107F500004D011F8014B03F8014FF8E710BD0244BB
:107F60000346934202D003F8011BFAE77047000072
:107F700038B5124B1C68A36B0546D3B91820FDF722
:107F8000CFFC43F20E33A06303804AF6CD33438027
:107F900041F2342383804EF26D63C3804DF6EC636F
:107FA0000381052343810B23838101220023C0E940
:107FB0000423A36B00221D615A6138BD60E20320D7
:107FC00010F8012B11F8013B012A28BF9A42F7D083
:107FD000D01A7047034611F8012B03F8012B002A31
:107FE000F9D17047024B0146186800F003B800BF92
:107FF00060E2032070B5064608460C4600F00DF816
:10800000451C29463046FDF7BBFC064618B12A46FA
:108010002146FFF799FF304670BD034613F8012B48
:10802000002AFBD1181A0138704730B582B1451EBD
:10803000013915F8013F11F8014FA34206D1EC4375
:108040001444E04201D0002BF3D11C46181B30BD74
:10805000104630BD10B5034642B111F8014B03F88C
:10806000014B013A002CF7D11A4400E010BD9342B5
:1080700002D003F8014BFAE710BD00002DE9F047EC
:1080800080464048D0F800900F463D4615F8014B19
:1080900009EB0400407800F0080000F0FF0608B18A
:1080A0002F46F2E72D2C03D1BD1C7C78012603E07E
:1080B0002B2C04BF7C78BD1C13B1102B0AD15BE0C4
:1080C000302C57D1287800F0DF0058284DD16C783B
:1080D00010230235002E14BF4FF0004C6FF0004CFF
:1080E0000027BCFBF3FA384603FB1ACC09EB040E5D
:1080F0009EF801E01EF0040F01D0303C0BE01EF0B2
:10810000030E1BD0BEF1010F0CBF4FF0370E4FF026
:10811000570ECEEB0404A34210DDB7F1FF3F0AD0A7
:10812000504506D801D1644503DC03FB004001271C
:1081300001E04FF0FF3715F8014BD7E77B1C0CD15E
:10814000002E4FF0220314BF4FF000406FF00040AC
:10815000C8F800302AB9BDE8F08706B1404272B1D4
:1081600007B1691E1160BDE8F0873024002BB1D142
:108170000823AFE70A23ADE7302CA3D0AAE7BDE878
:10818000F08700BFFCE1032013460A46014602487F
:108190000068FFF773BF00BF60E203202DE9F047DE
:1081A00080463C48D0F800900E46354615F8014B05
:1081B00009EB0400407800F0080000F0FF0708B168
:1081C0002E46F2E72D2C03D1B51C7478012703E06D
:1081D0002B2C04BF7478B51C13B1102B0AD153E0BB
:1081E000302C4FD1287800F0DF00582845D16C782A
:1081F000102302354FF0FF3C0026BCFBF3FC03FBD1
:108200000CFA6FEA0A0A304609EB040E9EF801E008
:108210001EF0040F01D0303C0BE01EF0030E1AD00C
:10822000BEF1010F0CBF4FF0370E4FF0570ECEEBE3
:108230000404A3420FDD002E08DB604506D801D1FF
:10824000544503DC03FB0040012601E04FF0FF36FC
:1082500015F8014BD8E7002E07DA2223C8F80030C2
:108260004FF0FF302AB9BDE8F08707B1404272B144
:1082700006B1691E1160BDE8F0873024002BB9D12A
:108280000823B7E70A23B5E7302CABD0B2E7BDE847
:10829000F08700BFFCE1032013460A46014602486E
:1082A0000068FFF77BBF00BF60E203202DE9F74FB6
:1082B000044600F06FFA40F2B1739C4240F396809E
:1082C0006FF4F663E318A4F2B2729B1040F26D15DE
:1082D00005FB0235A4F26D726FF0630392FBF3F3BA
:1082E0006FF4C8622B44A5184FF4C87295FBF2F5E1
:1082F0001D44642394FBF2F794FBF3F602FB17474B
:1083000003FB164600F13803B7FA87FE019304F029
:10831000030344604FEA5E1E014600934FF0070CD2
:108320000B7A4A2B0ED14B69009AEC1802B906B9A8
:1083300027B93B2BD4BF0023012300E000232344B3
:10834000013B3FE0442B02D14B692B443AE0009BB8
:108350002BB9002E0CBFF0464FF0010800E0F046AC
:10836000244BCC68302202FB0838A8F1040AA94645
:108370000123A34204DA5AF804BF0133D944F8E7D1
:1083800009F1040393FBFCFBCBEBCB0A012CCAEBFA
:10839000030A4B69B8BF012404F18044B3EB0A0A15
:1083A0000B6904F1FF3403F1FF3348BF0AF1070AF8
:1083B000C3EBC30358F824405344A34201DB073BFB
:1083C000FBE74B448C690C4A02FB03430C6A2344D1
:1083D00041F81C3F019B9942A2D1C369826B934231
:1083E000ACBF002301230360012000E0002003B0A4
:1083F000BDE8F08FF48F0D00805101007047704789
:10840000014B186800F002B860E203202DE9F04F3C
:108410008DB0074600F0BEF9B049B14E044638466B
:1084200000F0B0F9054660B9AE4BAF4A1860AF4BEB
:108430001860AF4B30681A605A60FDF779FA356002
:1084400048E1316879B93068FDF772FA2846FFF7DC
:10845000E4FD411C3846FDF793FA306048B12946E7
:10846000FFF7B8FD05E0FFF7ABFD002800F0328113
:10847000E9E72B789F4AA0493A2B08BF01350AAE9D
:1084800033462846FDF764FA002840F323810A9B0F
:10849000EF18EB5C2D2B03D101374FF0FF3503E0D4
:1084A0002B2B08BF013701250DF1200A0DF11E0B02
:1084B0004FF000080396CDF808A00196CDF800B063
:1084C000334607AA8D49ADF81E803846ADF82080A6
:1084D000FDF73EFA404540F3FD80BDF81E20BDF893
:1084E0002030DFF824923C2101FB0233BDF81C2030
:1084F0004FF4616101FB02335D4325627C4D7D4B8E
:108500002B600A9B7C491F444A4633463846FDF798
:108510001FFA404508DC2B686B60724B226A1A60B8
:10852000724BC3F80080D5E00A9BC5F80490FD1893
:10853000FB5C2D2B03D101354FF0FF3703E02B2BD4
:1085400008BF013501270023ADF81C30ADF81E30FF
:10855000ADF820300A930396CDF808A00196CDF827
:1085600000B0334607AA65492846FDF7F1F900280F
:1085700004DC236AA3F56163E3630EE0BDF81E200B
:10858000BDF820303C2101FB0233BDF81C204FF424
:10859000616101FB02335F43E7630A9B27461D4489
:1085A0004FF000092B782C2B08BF013595F800807F
:1085B000B8F14D0F26D10DF12603029309AB0093BC
:1085C0000396019633460DF122024D492846FDF7E8
:1085D000BFF903287ED1BDF822104B1E0B2B79D892
:1085E000BDF82420531E042B74D8BDF82630062B6A
:1085F00070D887F80880F9603A617B610A9B05EBC7
:1086000003082AE0B8F14A0F06BF01354346442368
:108610000A220BA928460593FFF73EFEDDF82C80C1
:10862000ADF826004545059B14D14D23B9F1000F47
:1086300007D123720323E36002232361C4F814905B
:108640000BE084F824300B23A3620123E3620023B0
:10865000236302E080B23B7278610223ADF81C30E4
:108660000023ADF81E30ADF820300A9398F80030A2
:108670002F2B0BD10396CDF808A00196CDF800B0B2
:10868000334607AA1F494046FDF762F9BDF81E2090
:10869000BDF820303C2101FB0233BDF81C204FF413
:1086A000616101FB0233BB610A9D09F10109B9F166
:1086B000020F454407F11C077FF474AF6068FFF7B1
:1086C000F5FD084B226A1A60E36B9B1A074A18BF34
:1086D000012313600DB0BDE8F08F00BF54900D0072
:1086E000E0E70320E8E7032057900D00E4E70320CC
:1086F00064E20320D3E703205B900D007E900D0021
:108700006A900D007D900D00C8E703202DE9F84F19
:1087100007468B46904600F0D9F8194B1D689A46DB
:108720003DB15C46234613F8012B42B13D2A1C465D
:10873000F8D1384600F0CBF80020BDE8F88FCBEB3D
:108740000404A94659F8040B0028F2D022465946E1
:10875000FFF76BFC88B959F8043C1E191B5D3D2BD3
:108760000BD1DAF80030ED1AAD103846C8F80050D9
:1087700000F0ADF8701CBDE8F88F4D46E1E700BF92
:10878000ACE2032007B501AAFFF7C0FF03B05DF814
:1087900004FB0000004870476CE203200268474B6E
:1087A000F0B592FBF3F403FB1422002ABCBF02F5E0
:1087B000A83202F5C0724FF4616004F52F2492FBD9
:1087C000F0F300FB13224FF03C00ACBF04F66C2426
:1087D00004F66B248B6092FBF0F300FB13224B60DA
:1087E0000A600723E21C92FBF3F3C3EBC303D31A23
:1087F0008B61334B334D94FBF5F503FB054448F691
:10880000AC62B4FBF2F2224440F2B457B4FBF7F38B
:10881000D21A2D48B4FBF0F048F69466131AB3FB55
:10882000F6F6344440F26D12B3FBF2F0B3FBF7F30B
:10883000E31A02FB1033992403EB83020232B2FBEA
:10884000F4F20A2A04FB02F404F102064FF00504D4
:10885000B6FBF4F434BF02266FF0090616444FF459
:10886000C87202FB05055F1C012E98BF0135B3F5E8
:10887000997FA7EB040702D3A3F5997214E082074E
:1088800005D16424B0FBF4F204FB12024AB94FF4A0
:10889000C872B0FBF2F402FB1400B0FA80F2520985
:1088A00000E001223B331A44A5F26C750023CA6133
:1088B0004D610E61CF600B620846F0BD8051010032
:1088C0004FC5FDFFB13A0200B03A02007047704751
:1088D00021400D005D400D0089400D008D400D00D0
:1088E00000000000312E32300000300054454D5061
:1088F0004552415455524520494E20430025342EBF
:1089000031662025250054656D706572617475723D
:10891000652066726F6D2074616B654D656173755E
:1089200072656D656E74732046756E6374696F6EE3
:1089300000252E306625250025332E316620560071
:1089400025332E31662044656772656573204300C8
:1089500053656E736F722052656164204661696C65
:1089600065642C20617474656D70742025690053F2
:10897000656E73696E6700566572626F7365204D30
:108980006F646520537461727465642E005665725D
:10899000626F7365204D6F646520416C7265616420
:1089A00079204F4E2E00566572626F7365204D6FB1
:1089B00064652053746F707065642E005665726232
:1089C0006F7365204D6F646520616C7265616479B9
:1089D000204F46462E007B2254656D70657261748F
:1089E000757265223A25332E31662C20224261743D
:1089F00074657279223A25332E31667D00416972A1
:108A00002D5175616C6974792D486F6F6B004E6FD5
:108A1000204461746100556269646F747320486F0B
:108A20006F6B005374617465005472616E73697486
:108A3000696F6E3A20257320746F202573004E6590
:108A40007720486F75722D205265706F7274696E51
:108A50006700426967204368616E6765202D205278
:108A6000617069642026205265706F7274696E6748
:108A7000004368616E67652064657465637465644E
:108A8000202D205265706F7274696E67004E6F20E2
:108A90004368616E6765202D2049646C65005465EC
:108AA0006D70657261747572650044617461205304
:108AB000656E74202F20526573706F6E736520523F
:108AC0006563656976656400737061726B2F6465B8
:108AD000766963652F73657373696F6E2F656E6456
:108AE00000526573657474696E6720696E20333057
:108AF000207365636F6E6473004572726F72004716
:108B00006F696E6720746F2074616B65206120252A
:108B100069207365636F6E64206E6170004E6170D2
:108B200070696E670046726F6D20536C65657000EA
:108B3000576F6B65557000436F6D6D616E6420619A
:108B400063636570746564202D207265706F727444
:108B5000696E67206E6F7700436F6D6D616E642084
:108B60006163636570746564202D2073656E73693D
:108B70006E67206E6F7700766572626F73654D6FFA
:108B80006465004765742D52656164696E670053C2
:108B9000656E642D5265706F7274004C6F772D5046
:108BA0006F7765722D4D6F64650052656C656173FA
:108BB00065005369676E616C004261747465727917
:108BC000000000000000000000000000DD590D0062
:108BD000E3590D00395A0D00F1590D00DF590D0010
:108BE00000000000000000004B600D0041600D001F
:108BF00037600D002D600D0021600D0015600D0027
:108C000009600D0001600D00F75F0D00ED5F0D00C4
:108C1000B5630D00000000000000000069600D0059
:108C2000B3600D008B600D006B600D0093600D0054
:108C30009B600D00A3600D00AB600D000000000004
:108C40000000000005610D00F5600D00F7600D00EB
:108C5000626175640053657269616C005365726985
:108C6000616C31007479706500706172616D0063D0
:108C70006D6400696400686E64007374726D0066F0
:108C8000696C74006C766C0061646448616E646C3D
:108C900065720072656D6F766548616E646C6572B1
:108CA00000656E756D48616E646C657273004A5341
:108CB0004F4E53747265616D4C6F6748616E646CA2
:108CC00065720061707000253031307520005D20C4
:108CD000002564002C200028293A2000205B006336
:108CE0006F6465203D200064657461696C73203D8C
:108CF00020000D0A006C6E00666E00636F646500F4
:108D000064657461696C006E6F6E65007472616396
:108D10006500696E666F007761726E006572726FD2
:108D2000720070616E696300616C6C00000000008D
:108D30000000000047620D003D620D0033620D002F
:108D400029620D001D620D0011620D0005620D000B
:108D5000FD610D00F3610D00E9610D00B5630D00CB
:108D600000000000000000004D630D0057630D007F
:108D700061630D006B630D0075630D0081630D0071
:108D80008D630D0099630D00A1630D00AB630D00B1
:108D9000B5630D006E616E006F766600696E6600E9
:108DA000000000000000000059670D005B670D0027
:108DB000252B3033643A253032750025592D256D29
:108DC0002D25645425483A254D3A2553257A0061CE
:108DD000736374696D65000000000000000000000E
:108DE0006D6A0D00BD6A0D00CB6A0D0095640D0023
:108DF000816A0D00A36A0D008F6A0D00B76A0D002D
:108E00006F6A0D00736A0D00000000000000000092
:108E1000756B0D00C56B0D00D36B0D0095640D00D7
:108E2000B16B0D00776B0D008D6B0D00BF6B0D00EE
:108E3000A36B0D00716B0D0000000000000000002E
:108E40004D6D0D00436D0D00396D0D00E16C0D0091
:108E50002D6D0D00216D0D00156D0D000D6D0D00BA
:108E6000036D0D00F96C0D00B5630D0000000000EE
:108E700000000000816C0D00EB6C0D00836C0D0098
:108E80008D6D0D00896C0D00596D0D00B56C0D00D8
:108E900000202020202020202020282828282820CA
:108EA00020202020202020202020202020202020C2
:108EB000208810101010101010101010101010102A
:108EC000100404040404040404040410101010101A
:108ED00010104141414141410101010101010101E4
:108EE0000101010101010101010101011010101036
:108EF00010104242424242420202020202020202B6
:108F00000202020202020202020202021010101009
:108F10002000000000000000000000000000000031
:108F20000000000000000000000000000000000041
:108F30000000000000000000000000000000000031
:108F40000000000000000000000000000000000021
:108F50000000000000000000000000000000000011
:108F60000000000000000000000000000000000001
:108F700000000000000000000000000000000000F1
:108F800000000000000000000000000000000000E1
:108F900000000000000000000000000000000000D1
:108FA00000000000000000000000000000000000C1
:108FB00000000000000000000000000000000000B1
:108FC00000000000000000000000000000000000A1
:108FD0000000000000000000000000000000000091
:108FE0000000000000000000000000000000000081
:108FF000000000001F0000001C0000001F00000017
:109000001E0000001F0000001E0000001F000000E6
:109010001F0000001E0000001F0000001E000000D6
:109020001F0000001F0000001D0000001F000000C6
:109030001E0000001F0000001E0000001F000000B6
:109040001F0000001E0000001F0000001E000000A6
:109050001F000000545A00474D54002531305B5E1C
:10906000302D392C2B2D5D256E004D256875256E14
:109070002E256875256E2E256875256E002F2568AE
:1090800075256E3A256875256E3A256875256E003A
:10909000754D0D0013500D00F5530D00CD590D0009
:1090A00055600D00D9610D00FD620D0081640D0059
:1090B0003D670D0049690D00596A0D00656E0D0090
:1090C0004D700D00A5700D0069710D00ED710D0062
:1090D00071720D00000000000000000000000000A0
:1090E000580200000000C03F496E697469616C203D
:1090F000537461746500000000000000000000006F
:10910000000000000000000000000000000000005F
:109110000000000049646C652053746174650000B0
:10912000000000000000000000000000000000003F
:10913000000000000000000000000000000000002F
:109140004D6561737572696E670000000000000074
:10915000000000000000000000000000000000000F
:109160000000000000000000000000005265706F69
:109170007274696E672044657465726D696E61749E
:10918000696F6E0000000000000000000000000099
:1091900000000000000000005265706F7274696E7C
:1091A0006700000000000000000000000000000058
:1091B00000000000000000000000000000000000AF
:1091C00000000000526573706F6E7365205761690F
:1091D000740000000000000000000000000000001B
:1091E000000000000000000000000000000000007F
:1091F0004572726F722057616974000000000000B0
:10920000000000000000000000000000000000005E
:109210000000000000000000000000004E617070BF
:10922000696E6720537461746500000000000000DF
:10923000000000000000000000000000000000002E
:10924000000000000000000001000000CF8D0D00B4
:10925000908E0D0000000000948F0D00B48F0D0063
:10926000D48F0D000000000000000000000000008E
:1092700000000000FB880D0000000000000000005E
:1092800000000000000000000000000000000000DE
:1092900000000000000000000000000000000000CE
:1092A00000000000000000000000000000000000BE
:1092B0000000000000E2032057900D0057900D00C1
:1092C00001000000000000004A0000000000000053
:1092D000000000000000000000000000000000008E
:1092E000000000004A000000000000000000000034
:1092F000000000000000000000000000000000006E
:04930000ECE7032073
:10930400FFFFFFFF00000102030405060708090A26
:109314000B0C0D0E0F101112131415161718191A21
:089324001B1C1D1E1F20280068
:04932C007856341229
:04000003D0004020C9
:00000001FF
