:02000002D0002C
:1040000000400D008C8B0D00000006000C00050127
:08401000040179050000000025
:044018006C810D00AA
:1040200009480A49884208B505D0094A824202D0A7
:10403000121A03F0D7FB0748074A0021121A03F0AF
:10404000DCFB014808BD00BFACE0032040890D0047
:10405000D0E20320D0E20320F0E7032070B502F0A5
:10406000B9FB074C074BE41AA40800251E46A542DD
:1040700004D056F8253098470135F8E770BD00BFE9
:1040800034890D00EC880D0000F028BD08B500F063
:104090005BFABDE8084002F06BBB01F043B901F0E8
:1040A00049B901F047B90078B0FA80F0400970478B
:1040B000012303707047012A02D0022A02D004E0D3
:1040C000016002E00B6800B10360002070471FB57B
:1040D0000468684602F07BF86846A04704466846D4
:1040E00002F085F8204604B010BD000038B509493B
:1040F000054602F0D6F8044618B1074B01201870A7
:1041000038BD0649284602F0CCF810B1024B012018
:104110001C7038BD3D840D0014E2032086810D0023
:1041200037B59DF8184023438DF800303C230546F1
:1041300001F0DCFA284603B030BD000000000000AA
:1041400073B502F089F93A4B186002F097F90F281D
:104150000AD007DD1E2803D02D2803D1022504E054
:10416000012502E0032500E00025324C32480023FF
:10417000237000F049FE84ED030A02F077FA2F4B1A
:104180000646186802F088FE41EC100B022130460A
:1041900001F0DEFF02F06AFA294901F0CCFEE06886
:1041A00002F07AFE274ACDE900011021264801F0ED
:1041B000D9F802F05BFA0646E06802F06DFE41ECC9
:1041C000100B0221304601F0C3FF02F04FFA1F49E5
:1041D00001F0B1FE212002F03BFB02F04BFE12A3E6
:1041E000D3E9002302F0ACFE03F0A2F9A06002F0D4
:1041F00053FE0126CDE90001154A1648102101F0B1
:10420000B1F8267002F028F9606002F039FB6420F2
:10421000684314222146073000F06EFE304602B09B
:1042200070BD00BFAFF300809402C1D2AF63523FB4
:10423000D4E20320F0E2032040E3032018E303204C
:1042400088810D0099810D00D8E20320A0810D0026
:10425000CB810D0050E3032010B5074C00F01CFE8D
:104260002368C01AB0F57A7F04D900F015FE2060EB
:10427000012010BD002010BD08E3032008B5FFF7A2
:10428000EBFF18B1BDE80840FFF7E6BF00F0B2FF52
:10429000F5E738B5046805467CB16368013B6360A7
:1042A0005BB9236820469B689847A368013BA360DD
:1042B0001BB923682046DB689847284638BD0000B4
:1042C0007FB52949054601F0ECFF10B1274B1E7858
:1042D00086B12549284601F0E4FFA8B1234B1B789D
:1042E00093B1FFF7CBFF224B224A1B7800248DF8B5
:1042F00000402EE001241C70FFF7C0FF1C4B1E4A3B
:104300001B788DF8006024E01C49284601F0C9FFA5
:1043100060B1164B1C784CB100251D70FFF7AEFF45
:10432000134B174A1B788DF8005012E013492846AA
:1043300001F0B7FF20B10D4B1C781CB100240FE039
:1043400004460DE0FFF79AFF094B0E4A1B788DF8E3
:10435000004002A80C49FFF7E3FE03A8FFF799FF0E
:10436000204604B070BD00BF3D840D003DE3032036
:1043700020E30320F7810D00E1810D0086810D000F
:1043800010820D0026820D000F840D0070B5234DA4
:10439000234EADF5067D072402F072FA1422204662
:1043A0001E4900F0A1FDA86802F076FDCDE90201EA
:1043B000E86802F071FD1B4ACDE900014FF400717D
:1043C00006A800F0CFFF0022337817498DF80020AF
:1043D00004A806AAFFF7A4FE05A8FFF75AFF643455
:1043E000FFF74CFF40F297139C42D5D102F034F80E
:1043F0000E4C206002F044FA2178032000F06CFD9E
:1044000000F04AFD0A4B186002F02EF8094B1860C4
:10441000094B01221A700DF5067D70BDF0E20320F4
:1044200020E3032040820D0067820D00D4E20320C8
:104430004CE303200CE3032004E3032030B50C46D7
:1044400085B0214D51B92B78002B3AD0FFF716FFDC
:104450001E4B1F4A1B788DF800402BE0084603F0E6
:10446000B7F8C83801282B781BD873B1FFF706FFBF
:10447000164B18491B7800228DF8002002A8164A16
:10448000FFF74EFE03A8FFF704FF144B00221A703B
:1044900002F0F6F901F0E0FFC1B2032000F01CFDCC
:1044A0000FE073B1FFF7EAFE084B00221B788DF88E
:1044B0000020224602A80A49FFF732FE03A8FFF7B0
:1044C000E8FE05B030BD00BF3DE3032020E303203C
:1044D00078820D008D820D0020830D0004E30320FF
:1044E00080820D0030B5124D124C95B0FFF7C6FE1C
:1044F00011492A7820782C2303FB0212009203FB37
:1045000000130E4A402104A800F02CFF2B782370E2
:104510000B4B0C491B7800228DF8002002A804AA3E
:10452000FFF7FEFD03A8FFF7B4FE15B030BD00BFD6
:1045300010E303203CE30320B4E0032093820D004A
:1045400020E303208D820D002DE9F041A64C237855
:10455000013B98B0062B00F20882DFE813F0070059
:1045600033006E00FF0045007B01A3019F4B1B78C9
:104570002BB19F4B1B78012B01D0FFF7B3FF9D4B55
:104580001B784BB100F088FC9B4B1B68C01A9B4BFF
:104590001B68984280F0E18101F070FF984B1A6827
:1045A000801A984A3C21126892FBF1F290421D4613
:1045B00080F2D68101F058FF934B1B68984240F07F
:1045C000CF81D2E1894B1B782BB1894B1B78022B11
:1045D00001D0FFF787FF01F047FF8B4B1860FFF713
:1045E000AFFD18B3032326E0804B1A781D46002A3E
:1045F00040F0DD80854B1B78002B00F0E08000F060
:104600004BFC834B1B68C01A4AF6C873984240F2B1
:10461000AC81804B80491B7800228DF8002008A8CF
:104620007E4AFFF77DFD09A8FFF733FE00F034FC5A
:104630007B4B18600623237097E16C4D2B782BB1D0
:104640006B4B1B78032B01D0FFF74CFF01F00CFFE5
:104650006D4B1A6890421E4618D0684B714A1A601A
:104660002B7873B1FFF70AFE6A4B6F491B78002263
:104670008DF8002008A86D4AFFF752FD09A8FFF742
:1046800008FE01F0F1FE04233060D4E7684A694B6C
:10469000D2ED006A93ED007ADFF8688176EEC77A92
:1046A0001746FDEEE77A1E4617EE901A0029B8BFAE
:1046B000494207EE901A6049F8EEE77A91ED006AF8
:1046C000F4EEC67AF1EE10FA17DB2B7873B1FFF730
:1046D000D5FD504B54491B7800228DF8002008A8C6
:1046E000564AFFF71DFD09A8FFF7D3FD3B6833606D
:1046F000042323704FF496731BE0F4EE476AF1EE47
:1047000010FA2B7818D073B1FFF7B8FD414B46492A
:104710001B7800228DF8002008A8494AFFF700FD09
:1047200009A8FFF7B6FD3B683360042323704FF4FC
:104730001673C8F8003018E173B1FFF79FFD354BD1
:1047400039491B7800228DF8002008A83D4AFFF760
:10475000E7FC09A8FFF79DFD0123E7E7234B1A7843
:104760001D462AB1224B1B78042B01D0FFF7BAFE5D
:1047700001F07AFE0C2805D100F04CFD10B10020AC
:1047800000F068FD2B7873B1FFF778FD214B2E49BF
:104790001B7800228DF8002008A82C4AFFF7C0FCE7
:1047A00009A8FFF776FDFFF7F1FD052343E7104B5E
:1047B0001B78052B3FF41EAFFFF794FE1AE72D7808
:1047C00001232370002D7FF41AAFFFF757FD114B23
:1047D0001F4A1B7814498DF8005008A8FFF7A0FC69
:1047E00009A8FFF756FD0AE710E303203DE3032085
:1047F0003CE3032014E2032060E30320E8E203200B
:104800001CE30320ACE003200CE3032004E30320BB
:104810004CE3032020E3032032830D0073850D0059
:10482000ECE20320905F01008D820D00A8820D0054
:1048300018E3032024E30320B0E00320BC820D0032
:10484000DB820D00F7820D0008830D00D8E2032003
:1048500014830D00464B1B782BB1464B1B78062B5F
:1048600001D0FFF73FFE00F017FB434B1B68C01A57
:1048700047F22F53984278D9FFF700FD3F4B40494C
:104880001B7800228DF8002008A83E4AFFF748FC5C
:1048900009A8FFF7FEFC4FF4FA6000F07BFD01F081
:1048A0002FFD62E0324B1B782BB1324B1B78072B6C
:1048B00001D0FFF717FE344B41F288321A6001F045
:1048C000CBFD324B1D6890FBF5F303FB1500281A56
:1048D000002803DD8542A8BF054600E0012500F061
:1048E00099FC264F98B12B46294A402108A800F090
:1048F00039FDFFF7C3FC00223B7826498DF80020E4
:1049000006A808AAFFF70CFC07A8FFF7C2FC224B79
:104910001A680823ADF8163018AB012603F84B6D62
:104920000DF1160106A8029201953246009601F09B
:1049300001FD00F067FC00223B7818498DF800204B
:1049400006A8174AFFF7ECFB07A8FFF7A2FC00F048
:10495000A3FA144B2670186007E0072323701BE6A8
:104960000223237001F08AFD286018B0BDE8F081B1
:104970003DE303203CE30320ECE2032020E303209B
:1049800063830D004B830D00E8E20320ACE00320BD
:1049900069830D0087830D0038E303209A830D009F
:1049A0008F830D0060E303201FB51149044601F019
:1049B00078FC98B10F4B04221A70FFF75FFC0E4B86
:1049C0000E491B7800228DF8002002A80C4AFFF740
:1049D000A7FB03A8FFF75DFC012006E0094920467C
:1049E00001F05FFC003018BF012004B010BD00BF13
:1049F0003D840D0010E3032020E30320C2810D005D
:104A0000A1830D0086810D001FB51149044601F0F8
:104A100048FC98B10F4B02221A70FFF72FFC0E4B87
:104A20000E491B7800228DF8002002A80C4AFFF7DF
:104A300077FB03A8FFF72DFC012006E0094920467B
:104A400001F02FFC003018BF012004B010BD00BFE2
:104A50003D840D0010E3032020E30320C2810D00FC
:104A6000C2830D0086810D0030B585B00023054658
:104A7000029321B1144B0393144B00910293029BB8
:104A800083B11020FFF709FB044658B1002383606F
:104A9000029B7BB1022269469847039BE360029B1D
:104AA000A36007E00024029B5BB1032269466846CD
:104AB000984706E021462A46054800F0F6FC0446E1
:104AC000F1E7204605B030BDCF400D00B7400D00E6
:104AD00083540D000023042200F07CBB70B5A8B005
:104AE00001F0C4FD4FF4165101F0B4FD04A800F02C
:104AF00099FB002400237D2208A904A801F0E3FB10
:104B00002346224638490194009408A800F09AFBF5
:104B100036493748FFF7A8FF36493748FFF7A4FF63
:104B200036493748FFF7A0FF36493748FFF79CFF63
:104B300036493748FFF7CEFF36493748FFF7CAFFF7
:104B400036493748FFF7C6FF36493748FFF7C2FFF7
:104B500001F096FE204600F0B7F9022811D101F0CD
:104B60008FFE022000F0B0F9304B4421186030482D
:104B700000F0B3F8E8B901F079FD2E4901F0DBF956
:104B800017E028AE01F07CFE022346F8943D042293
:104B90003146204600F0B0F9012501F071FE2846AB
:104BA000042231460135039400F0A6F9642DF4D1B6
:104BB000D5E7FFF7C5FA204B204A1A6000F06CF9E0
:104BC0001F4B18601F4B01221A701F4B1B782BB113
:104BD0001E4B1B78934201D0FFF784FC04A801F020
:104BE00006FB28B070BD00BF3D440D00C1420D0062
:104BF000E1830D00094A0D00ED830D00A9490D0068
:104C0000F9830D00ED400D0005840D00D8E203206E
:104C100008830D0080810D0014840D0028E303201B
:104C20001C840D0050E3032023840D0014E30320B3
:104C300040E303202B840D00E8E20320905F010095
:104C400060E3032010E303203DE303203CE3032063
:104C500008B5064B00221A60054B01221A7000F0BD
:104C60005BF90448BDE8084000F014B838E30320BD
:104C700020E3032040E3032000F04EB908B500F024
:104C80004BF9014B186008BD64E303200368C9B207
:104C90009B681847704738B505460C4601F004FE7E
:104CA000297800F033FF01F0FFFD210AFFF7EEFF46
:104CB00001F0FAFDE1B2FFF7E9FF01F0F5FDBDE813
:104CC000384000F02BBF08B543F2A201FFF7E3FF25
:104CD0000A20BDE8084000F05DBB38B504460D462B
:104CE00001F0E2FD00F000FF20462570FFF7EBFF2A
:104CF000012038BD0A44FF2091420ED011F8013B3B
:104D00005840082310F0800F4FEA400018BF80F091
:104D10003100013BC0B2F5D1EEE770470000000062
:104D200073B54FF410510446FFF7B5FF4FF4FA7016
:104D300000F030FB01F0B8FD0622217800F0E3FE20
:104D400001F0B2FD03681B69984706284AD1002587
:104D500001F0AAFD03685B6998470DF8050001356D
:104D6000062DF5D1022269462046FFF7C3FF9DF8C4
:104D70000250854236D102220DF103012046FFF791
:104D8000B9FF9DF8055085422CD1BDF800009DF873
:104D900003609DF8045040BA80B202F05BF818A39B
:104DA000D3E9002302F0CCF811A3D3E9002302F0E9
:104DB000F1F90022104B01F00FFF02F0B9FBA060E7
:104DC00045EA062002F046F800220C4B02F0B8F843
:104DD00007A3D3E9002302F0DDF902F0A9FB60602C
:104DE000012000E0002002B070BD00BFAFF30080E2
:104DF00000000000E0FFEF40008046400000594006
:104E00000000000000E0654010B50446FFF788FF91
:104E100010B194ED020A10BD9FED010A10BD00BF54
:104E20000000C07F00F078B808B5024B1B689B6893
:104E3000019308BD4802030008B5024B1B681B69BB
:104E4000019308BD4802030008B5024B1B685B696B
:104E5000019308BD4802030008B5024B1B681B6B99
:104E6000019308BD4802030008B5024B1B685B6C48
:104E7000019308BD4802030008B5024B1B689B6EF6
:104E8000019308BD3402030008B5024B1B685B6840
:104E9000019308BD1802030008B5024B1B685B694B
:104EA000019308BD1802030008B5024B1B68DB69BB
:104EB000019308BD1802030008B5024B1B689B6AEA
:104EC000019308BD1802030008B5024B1B68DB6A9A
:104ED000019308BD1802030008B5024B1B681B6B49
:104EE000019308BD1802030008B5024B1B685B6CF8
:104EF000019308BD1802030008B5024B1B689B6CA8
:104F0000019308BD1802030008B5024B1B689B6D96
:104F1000019308BD1802030008B5024B1B681B680B
:104F2000019308BD2C02030008B5024B1B685B68A7
:104F3000019308BD2C02030008B5024B1B681B6BD4
:104F4000019308BD2C02030008B5024B1B68DB6807
:104F5000019308BD2802030008B5024B1B685B697A
:104F6000019308BD2802030008B5024B1B689B692A
:104F7000019308BD2802030008B5024B1B68DB69DA
:104F8000019308BD2802030008B5024B1B681B6A89
:104F9000019308BD2802030008B5024B1B685B6A39
:104FA000019308BD2802030008B5024B1B689B6AE9
:104FB000019308BD2802030008B5024B1B68DB6A99
:104FC000019308BD2802030008B5024B1B681B6B48
:104FD000019308BD2802030008B5024B1B685B6BF8
:104FE000019308BD2802030008B5024B1B681B6C27
:104FF000019308BD2802030008B5024B1B685B69DA
:10500000019308BD6402030008B5024B1B689B684E
:10501000019308BD6802030008B5024B1B68DB68FA
:10502000019308BD6802030008B5024B1B68DB69E9
:10503000019308BD3002030008B5024B1B681B6AD0
:10504000019308BD3002030008B5024B1B681B68C2
:10505000019308BD3C02030008B5024B1B68DB68E6
:10506000019308BD3C02030008B5024B1B681B6995
:10507000019308BD3C02030008B5024B1B685B6945
:10508000019308BD3C02030008B5024B1B689B69F5
:10509000019308BD3C02030008B5024B1B68DB69A5
:1050A000019308BD3C02030008B5024B1B681B6A54
:1050B000019308BD3C02030008B5024B1B689B6AC4
:1050C000019308BD3C02030008B5024B1B681B6836
:1050D000019308BD4C02030008B5024B1B685B68D6
:1050E000019308BD4C02030008B5024B1B681B6905
:1050F000019308BD4C02030008B5024B1B685B69B5
:10510000019308BD4C02030008B5024B1B689B6964
:10511000019308BD4C02030008B5024B1B68DB6914
:10512000019308BD4C02030008B5024B1B681B6AC3
:10513000019308BD4C02030008B5024B1B681B68B5
:10514000019308BD2002030008B5024B1B685B6891
:10515000019308BD2002030008B5024B1B685B6980
:10516000019308BD2002030008B5024B1B68DB6CED
:10517000019308BD2002030008B5024B1B685B6D5C
:10518000019308BD2002030008B5024B1B689B6D0C
:10519000019308BD2002030008B5034B1B68D3F838
:1051A0008830019308BD00002002030008B5034BBE
:1051B0001B68D3F89430019308BD0000200203005F
:1051C00008B5034B1B68D3F8A030019308BD00005D
:1051D0002002030008B5024B1B681B68019308BD41
:1051E0004402030008B5024B1B685B68019308BDCD
:1051F0004402030008B5024B1B689B68019308BD7D
:105200004402030008B5024B1B68DB68019308BD2C
:105210004402030008B5024B1B685B69019308BD9B
:105220004402030008B5024B1B68DB69019308BD0B
:105230004402030008B5024B1B681B6A019308BDBA
:105240004402030008B5024B1B685B6A019308BD6A
:105250004402030008B5024B1B68DB6A019308BDDA
:105260004402030008B5024B1B681B6B019308BD89
:105270004402030008B5024B1B68DB6B019308BDB9
:105280004402030008B5024B1B685B68019308BD2C
:105290004002030008B5024B1B689B68019308BDE0
:1052A0004002030008B5024B1B68DB68019308BD90
:1052B0004002030008B5024B1B681B69019308BD3F
:1052C0004002030008B5024B1B685B69019308BDEF
:1052D0004002030008B5024B1B689B69019308BD9F
:1052E0004002030008B5024B1B68DB69019308BD4F
:1052F0004002030008B5024B1B681B6A019308BDFE
:105300004002030008B5024B1B681B6B019308BDEC
:105310004002030008B5024B1B685B6B019308BD9C
:105320004002030008B5024B1B681B68019308BDCF
:105330001C02030008B5024B1B685B68019308BDA3
:105340001C02030008B5024B1B689B68019308BD53
:105350001C02030008B5024B1B689B69019308BD42
:105360001C02030008B5024B1B68DB69019308BDF2
:105370001C02030008B5024B1B68DB6A019308BDE1
:105380001C02030008B5024B1B681B6B019308BD90
:105390001C0203000021FFF7DFBE10B5836804463E
:1053A0000BB901F0CAFAC3689847A3681BB103227E
:1053B00021462046984720461021BDE8104001F0C4
:1053C000BABA0B68036013B15A6801325A60704769
:1053D000024800230360FFF747BD00BF68E30320D6
:1053E00070470020704710B51021044601F0A3FA61
:1053F000204610BD08B508B1FFF7F5FF08BD10B590
:105400008368044613B1032201469847204610BD25
:105410000022026010B54FF69C728280B1F9044000
:1054200084808A8002680C6804600A6010BD10B530
:1054300004460068FFF77EFF204610BD38B5C468FB
:10544000F4B12378022B03D104F10C00FFF7EFFF36
:10545000656835B12846FFF7D2FF1021284601F0D4
:105460006AFAA56835B12846FFF7C9FF102128461A
:1054700001F061FA20461421BDE8384001F05BBA22
:1054800038BD1FB50446684600F0F8FEA3680BB9A6
:1054900001F053FAE3686946204698470446684697
:1054A00000F0A5FE204604B010BDF0B5102485B074
:1054B00007460E46154600212246684602F09DF931
:1054C000002269461046ADF8004002970396019508
:1054D000FFF788FE05B0F0BD13B5044691E805005E
:1054E00000234B600B602060626001A80193009371
:1054F000FEF7CFFE204602B010BDF7B50C4602AD58
:1055000054F8043B45F8083D06460F4601A82146DD
:10551000FFF757FF29463046FFF7DEFF01A8FEF7E9
:10552000B8FE2046FEF7B5FE3846082101F003FA22
:10553000304603B0F0BD13B50B46044603C88DE8F2
:10554000030093E8030084E803009DE8030083E878
:10555000030002B010BD000038B50023044603600C
:1055600010200D46FEF799FD28B1012343608360AA
:10557000024B0360C5602060204638BD48840D00A2
:10558000826810B50AB901F0D8F9C368BDE81040C7
:10559000184708B5006800F11001FFF7F1FF08BDDA
:1055A000826810B50AB901F0C8F9C368BDE81040B7
:1055B000184708B5006800F11001FFF7F1FF08BDBA
:1055C00038B5002383608B6804460D462BB1022258
:1055D0009847EB68E360AB68A360204638BD0000E5
:1055E000F0B589B004686846FFF712FF00238DF814
:1055F00008304FF00202D4E84F3F002B03D1C4E83B
:10560000412F0029F7D102D08DF8083063E014F162
:105610000C0503D069462846FFF7FAFEBFF35F8FFB
:1056200001236370002004F10803BFF35F8F53E888
:10563000006F43E80002002AF9D1BFF35F8F002E0C
:1056400049D0FFF791FD20B129463046FFF798FF7A
:105650003AE0314602A8FFF7B3FFE068B4F9105012
:1056600008B102F00DF906901020ADF81C50FEF7BD
:1056700014FD0546E8B1002787601820FEF70DFDF0
:10568000044688B10146876002A8FFF754FF049BD7
:10569000A268A360059B049206A9E268E36004F196
:1056A00010000592FFF7B4FE0D4BEB600D4B2C6024
:1056B000AB6006A8FFF7BBFE02A8FFF7A0FE002222
:1056C00029460948FFF758FD3046FFF798FE10219C
:1056D000304601F030F96846FFF7A9FE09B0F0BD89
:1056E00093550D0009580D009B530D002DE9F04F07
:1056F0008BB006460F46904699469DF850A0FFF79E
:1057000089FD07AD834630BB4FF62E73059005A982
:105710002846ADF81830FFF77BFE1420FEF7BDFCDD
:10572000044658B10223037001234370C0F804B04B
:10573000C0F808B029460C30FFF76AFE3046214613
:1057400040F8044BFFF708FF2846FFF770FE05A856
:10575000FFF76DFE52E000240C2314206C60AC6057
:105760000793FEF79AFC014618B104704470446038
:10577000846004A80391FFF7EFFE224B08930820F2
:10578000FEF78BFC044628B1039B40F8043B04A9B8
:10579000FFF717FE00955FFA8AF34A4641463846FE
:1057A0000994FFF747FD20B9039B5B7803F0FF02E4
:1057B00083B1039B059304A906A8FFF702FE05A980
:1057C0003046FFF789FE06A8FEF763FD04A8FEF742
:1057D00060FD13E04FF69C7305A903A80592ADF890
:1057E0001830FFF7FDFE05A8FFF721FE05A809996F
:1057F000FFF783FE06A8FEF74CFDDAE730460BB054
:10580000BDE8F08F79590D00022AF8B5044606D09C
:10581000032A17D0012A22D10B6803601FE0182049
:105820000E68FEF73AFC054650B13146FFF7C8FE58
:105830003069B6F9147008B102F022F82861AF821D
:1058400025600CE0046854B104F11000FFF7EFFD8F
:105850002046FFF7D4FD1821204601F06CF8002007
:10586000F8BD38B5002383608B6804460D462BB124
:1058700002229847EB68E360AB68A360204638BD1E
:10588000022A70B5044606D0032A11D0012A18D185
:105890000B68036015E014200E68FEF7FEFB05465A
:1058A00020B13146FFF7DDFF337C2B74256008E023
:1058B000046834B12046FFF7A2FD1421204601F010
:1058C0003AF8002070BD0000F0B5002387B00C4608
:1058D000BFF35F8F50E8006F40E80032002AF9D133
:1058E000BFF35F8F002E3FD01846FFF73DFC074601
:1058F00020B121463046FFF753FE2EE0314601A885
:10590000FFF7AFFF23788DF814301020FEF7C5FBAA
:105910000546D0B187601420FEF7BFFB044678B17E
:105920008760014601A8FFF706FE039BA268A360FB
:10593000049B0392E268E3609DF8143004922374A0
:105940000A4BEB600A4B2C60AB6001A8FFF757FDD8
:10595000002229460748FFF70FFC3046FFF74FFDAE
:105960001021304600F0E7FF07B0F0BDB3550D0041
:1059700081580D009B530D0030B585B004460D468F
:1059800068461146FFF7B9FD7CB124B228460DB137
:1059900001F076FF029002A96846ADF80C40FFF7CF
:1059A0001FFE02A8FFF743FD1DE000988DF8084098
:1059B0004FF00102D0E84F3FA34203D1C0E8412F8E
:1059C0000029F7D102D08DF808300CE010F10C015D
:1059D0004FF0010318BF0373BFF35F8F043000F86B
:1059E000033CFFF771FF01A8FEF753FC05B030BD83
:1059F000002211464068FFF77DBC00221146406836
:105A0000FFF788BC00224068FFF77CBC002281F0D1
:105A100001014068FFF766BC00231A46194640683A
:105A2000FFF758BC00231A4619464068FFF74ABCE6
:105A3000002211464068FFF73DBC00221146406835
:105A4000FFF728BC002202214068FFF72BBC00238F
:105A50001A464068FFF716BC024B03225A60024AFE
:105A60001A6070476CE3032064840D007047F8B53A
:105A7000064615460C468F18BC4206D0336814F80B
:105A8000011B9B6830469847F6E72846F8BD002280
:105A9000007CFFF779BA0021007CFFF77DBA002176
:105AA000007CFFF781BA0021007CFFF785BA002156
:105AB000007CFFF789BA10B51421044600F03BFFC3
:105AC000204610BD10B504464FF47A730846A36013
:105AD0000021044B207461602360FFF785FA2046A3
:105AE00010BD00BF98840D0000231A461946007CA3
:105AF000FFF72ABA13B50024007C0094FFF72CFAB4
:105B0000C0B202B010BD0123FFF7F4BF0022007C39
:105B1000FFF72ABA0022007CFFF72EBA0121FFF717
:105B2000F9BF0021007CFFF757BA704710B5182164
:105B3000044600F000FF204610BDF0B5037D062BA3
:105B40008DB00E4600F104074FF0000402D000F1C2
:105B5000080518E00CAD394605F8304D2F232A46CC
:105B60000A20FFF749FA284601F0A5FE33680246ED
:105B7000DB682946304698470FE024B12E21304695
:105B800000F0CAF9044415F8011D0A22304600F05D
:105B900009FABD420444F0D120460DB0F0BD00002A
:105BA00010B5054B0446112240F8043B002101F0DA
:105BB00024FE204610BD00BFC0840D000346074AE6
:105BC00010B543F8042B01F1100251F8044B43F8CF
:105BD000044B9142F9D10A781A7010BDC0840D00AF
:105BE00010B59DF8084044EA032343EA024242EA22
:105BF000016104234160037510BD37B50D788B78C2
:105C00004A78C97800912946FFF7EAFF03B030BD12
:105C1000014B024A1A60704774E303203F850D0070
:105C2000002211464068FFF765BB0022114640681C
:105C3000FFF770BB00224068FFF764BB002281F0D1
:105C400001014068FFF74EBB00231A46012140685E
:105C5000FFF740BB00231A4619464068FFF732BBE6
:105C6000002211464068FFF725BB0022114640681C
:105C7000FFF710BB002202214068FFF713BB00238F
:105C80001A464068FFF7FEBA38B5054688B1046881
:105C90004CB1A3681BB1032221462046984710212E
:105CA000204600F048FE28461421BDE8384000F0A8
:105CB00042BE38BD10B103685B681847704710B525
:105CC00003680446BBB15868FFF7AEF878B923689B
:105CD0005A7C12B95868FFF7AFF823685868FFF785
:105CE000B3F820680023236028B1FFF7CDFF2068B8
:105CF00008B1FFF7C9FF204610BD000038B50C4BB6
:105D000003600446D0F8CC0108B1FEF7CAF9D4F814
:105D1000C45135B12846FFF7D2FF0421284600F0D0
:105D20000AFEA06808B1FFF7C5FF204638BD00BFD6
:105D3000B4850D0038B50E4C0E4B236000250223B0
:105D400004F5E4706360A560C4F8C451C4F8C85198
:105D5000FFF78AF8084BC4F8CC5184F8D05123607F
:105D60002046064A0649BDE8384000F0DFBD00BFC6
:105D700078E30320E8850D00B4850D00D0E2032010
:105D8000FD5C0D0000231A464068FFF77BBA002235
:105D900002214068FFF786BA002211464068FFF7EB
:105DA00079BA002211464068FFF784BA00231A46E8
:105DB00019464068FFF786BA00231A46194640681C
:105DC000FFF788BA002281F001014068FFF78ABA24
:105DD00000224068FFF796BA002211464068FFF79C
:105DE00099BA002211464068FFF784BA2DE9F043C2
:105DF000002495B016460D460746FFF7D1FE214612
:105E000020220CA8009401F0F8FC40230C932146BA
:105E10006B460CAA3046FFF7FFF80446002844D131
:105E2000024601216868FFF745FA022180462246B2
:105E30006868FFF73FFA009E81462146002E34D065
:105E4000002932D17368022B02D00A2B09D02AE034
:105E5000B8F1000F27D0716938460431FFF7CDFE45
:105E600020E0B9F1000F1ED07469112201A801F0E1
:105E7000C4FC06238DF8143001AD04F10803183476
:105E8000186859682A4603C20833A3421546F7D159
:105E900001A906A807ADFFF791FE0FCD3C1D0FC469
:105EA0002B6823700121F669C8E70098FFF7ACF86A
:105EB000384615B0BDE8F083024B034A1A60002251
:105EC0005A6070474CE50320E8850D00F8B506469A
:105ED0000D468F180024BD420CD0336815F8011B05
:105EE0009B6830469847002801DB0444F3E7002C08
:105EF00008BF04462046F8BD70B505460C46084666
:105F000049B101F0D8FC2B68024621462846DB68DF
:105F1000BDE87040184770BD03689B68184738B5E6
:105F20000D210546FFF7F8FF0A2104462846FFF732
:105F3000F3FF204438BD38B50546FFF7DDFF0446C2
:105F40002846FFF7ECFF204438BD30B58BB00B4638
:105F500000218DF82410012A98BF0A220DF1230494
:105F6000B3FBF2F505FB123303F0FF03092B94BFDB
:105F700030333733DBB2214604F801392B46002D8C
:105F8000EED1FFF7B9FF0BB030BD10B42AB90368EA
:105F90005DF8044B9B68C9B21847D2B25DF8044B58
:105FA000FFF7D3BFFFF7F1BF2DE9F04107460E46DB
:105FB00015462AB90368C9B29B68BDE8F041184785
:105FC0000A2A02D1002901DA04E0D2B2BDE8F04188
:105FD000FFF7BBBF2D21FFF79FFF2A460446714202
:105FE0003846FFF7B2FF2044BDE8F0812DE9F047C5
:105FF00057EC106B82460D4610EE102A3B4610EE11
:10600000100A394601F036FA08B1484912E027F083
:1060100000494FF0FF32464B3046494601F02AFA1C
:1060200068B94FF0FF32424B3046494601F004FA5E
:1060300028B940495046FFF75FFFBDE8F0874FF0B1
:1060400060423D4B3046394601F00AFA08B13B49FF
:10605000F0E74FF060423A4B3046394601F0E2F942
:106060000028F4D1002200233046394601F0DAF945
:1060700040B12D215046FFF74FFF07F10043044682
:106080001F4600E004462F494FF0000800205FFA49
:1060900088F39D4206D900222B4B01F07BF808F1D2
:1060A0000108F4E732463B4600F098FD0F460646ED
:1060B00001F01EFA0A22014680465046FFF745FFCE
:1060C00004447DB3404600F0C5FE02460B46304610
:1060D000394600F081FD06460F4650461B49FFF742
:1060E0000BFF0444184B00223046394600F028FFCD
:1060F0000F46064601F0D4F90A2201468046504672
:10610000FFF752FF0444404600F0B4FE02460B463F
:106110003046394600F060FD013D15F0FF050646AA
:106120000F46DFD12046BDE8F08700BF14860D0082
:10613000FFFFEF7F1C860D00FFFFEF4118860D006B
:10614000FFFFEFC10000E03F000024403E820D0051
:1061500038B5C9B20546FFF749FF04462846FFF7A0
:10616000DEFE204438BD10B50446FFF748F920464E
:1061700010BD00000348044A04490023836000F076
:10618000D5BB00BF54E50320D0E2032067610D00BA
:10619000704710B51021044600F0CDFB204610BD1D
:1061A00070B5084B0360044600250E4640F80C5FAE
:1061B000FEF752FE30462671FEF736FFA5602046F8
:1061C00070BD00BF28860D000079FEF735BF0023A3
:1061D000036043608360037310B50C6804604C680F
:1061E00044608C6884600B604B608B6010BD10B5A0
:1061F00004460068FFF79EF8204610BD10B504461F
:10620000006808B1FFF796F800232360A36063607D
:1062100010BD38B504460D4600680131FFF792F80D
:1062200010B184E82100012038BD10B50368044690
:1062300013B143688B4207D22046FFF7EAFF20B133
:10624000A3680BB922681370012010BD70B50E460B
:10625000114604461546FFF7E8FF18B92046FFF738
:10626000CDFF09E02A463146A560206801F0BAFA60
:106270002268A3680021D154204670BD38B50023A0
:10628000044603604360836003730D4639B10846DA
:1062900001F011FB294602462046FFF7D7FF2046B2
:1062A00038BD08B582680B4612B919B9012008BD7E
:1062B00011B90368187802E0006801F0CFFAB0FA6B
:1062C00080F0400908BD70B50E469AB191B185685D
:1062D0009D4202D800230B7070BD541EED1A016858
:1062E000AC4228BF2C4619442246304601F000FB40
:1062F0000023335570BD014600228C20FEF7BCBD43
:106300000020FFF7F8BF10B5002404704480002976
:106310004FF6FF74848007DD0139994209D232F8C3
:1063200011308380012301E002D10223037010BDEC
:10633000418010BD70B586B016461A460023029300
:106340000C9B01930D460B9B009304460A9B314620
:106350002846FEF735FF33462A46014604A8FFF7D4
:10636000D2FF064B0498BDF8142018609A801A6872
:106370009B8822602046A38006B070BD64E50320A0
:10638000044B00204FF6FF72187058809A80FEF779
:10639000DBBE00BF64E50320F0B5144B144F1E684C
:1063A000144B064418683B6806449E428BB01BD0D1
:1063B0000AA801AD40F8286D01F01CF9436903F209
:1063C0006C73436104460FCC0FC50FCC0FC5D4F8D6
:1063D00000E0C5F800E001AD0FCD074C0FC40FCDB4
:1063E0000FC43E60C4F800E00BB0F0BD9CE5032094
:1063F00098E5032094E503206CE5032008B5002010
:10640000FEF730FF28B1FEF705FF80F00100C0B2B3
:1064100008BD012008BD10B50020FEF775FD04463B
:1064200068B9FEF789FE01280BD12046FEF7ACFEC5
:1064300038B9FFF7E3FF30B9FEF7DCFEF9E70120DA
:1064400010BD002010BDFFF7D9FF0020FEF75CFD56
:10645000003018BF012010BD08B5FFF7DCFFBDE814
:106460000840FEF721BD000008B5FFF7F5FFFFF774
:1064700093FF014B986808BD6CE5032008B5FFF752
:10648000EBFFFFF789FF014B586808BD6CE503205F
:10649000024B1A68024B1A60704700BF18E20320D3
:1064A00090E5032070474174704708B5007CFEF703
:1064B00003FE20EAE07008BD08B5007CFEF7D4FDBD
:1064C00020EAE07008BD08B5007CFEF7DDFD30EA8B
:1064D000200028BF4FF0FF3008BD08B5007CFEF754
:1064E000CBFD30EA200028BF4FF0FF3008BD007C14
:1064F000FEF7D2BD10B51421044600F01CFA204668
:1065000010BD70B5457C04460E4625B9007CFEF7EB
:10651000D3FD002805DD3146207CBDE87040FEF744
:106520009BBD284670BD000010B5044608461146C4
:10653000002262604FF47A72A260054A2260012252
:10654000207462741A46FEF77FFD204610BD00BF1E
:1065500060860D00007CFEF7A7BD000038B50C4D2D
:10656000296811F0010411D12846FDF79CFD68B19E
:10657000084A094B09482146FFF7D6FF2846FDF790
:1065800097FD074A0749054800F0D0F9034838BD90
:1065900038E603203CE60320B4E50320A0E5032011
:1065A000D0E20320A5640D0041747047704708B520
:1065B0000021007CFEF7A8FD30EA200028BF4FF044
:1065C000FF3008BD08B50121007CFEF79DFD30EAD3
:1065D000200028BF4FF0FF3008BD08B5007CFEF753
:1065E0008BFD20EAE07008BD08B5007CFEF77CFD5D
:1065F00020EAE07008BD007CFEF796BD10B51421BE
:10660000044600F098F9204610BD38B50446007CD9
:106610000D46FEF771FD002801DC607C28B129469B
:10662000207CFEF779FD20EAE07038BD10B5044605
:10663000002363604FF47A73A360054B236001234A
:106640000846217463741146FEF73EFD204610BDD6
:1066500090860D000022007CFEF73EBD10B514228E
:106660000446002101F0C9F8204610BD30B50E4D9A
:1066700087B001A8FFF7F2FF296811F0010410D1DB
:106680002846FDF710FD60B101AA21460748FFF733
:10669000CDFF2846FDF70CFD054A0649034800F0EA
:1066A00045F9024807B030BDC0E60320C4E6032028
:1066B000D0E20320AD650D00002211464068FEF7D0
:1066C000F9BD002211464068FEF714BE00221146B3
:1066D0004068FEF71FBE00224068FEF713BE00228E
:1066E00081F001014068FEF7FDBD00231A461946FE
:1066F0004068FEF7EFBD00231A4619464068FEF7D2
:10670000E1BD002211464068FEF7C4BD002202210F
:106710004068FEF7C7BD00231A464068FEF7B2BDC9
:10672000024B04225A60024A1A607047D8E60320DE
:10673000C0860D0008B50C4B33B1FFF797FF036817
:106740001B699847002809DC084B63B1FFF706FF77
:1067500003681B699847002803DC08BDAFF300807D
:10676000F2E7AFF3008008BD000000000000000069
:1067700008B5FFF7DFFFFEF78FFB014B186008BD80
:10678000E4E6032007B5002300931A466FF0770173
:10679000FEF70CFD03B05DF804FB000007B543886D
:1067A0000A2B08D0502B09D1094B1B683BB103B011
:1067B0005DF804EB1847FFF7E5FF06E000230093C0
:1067C0001A466FF07701FEF7F1FC03B05DF804FBA9
:1067D000E0E6032010B5FEF757FB044601F016F87B
:1067E000074B13B12046AFF3008000210448FEF7A9
:1067F00041FD00210348BDE81040FEF7CDBC00BFBD
:10680000000000009D670D0010B504460F48FFF71B
:10681000DBFC28B1A4F10B03022B01D8002010BD32
:1068200000F042F8FFF77DF908B1012CF6D9FFF727
:1068300095FEFFF78FFE18B1A4F10903012BEDD9E6
:10684000232C8CBF0020012010BD00BF08E70320CF
:106850000D2810B504469CBF0E34A4B22046FFF7A5
:10686000D3FF50B103212046FEF75EFB032804D17D
:106870002046BDE81040FEF75FBB002010BD0000C1
:1068800010B5074C2368DB0708D42046FDF70BFC46
:1068900020B1FEF711FB2046FDF70AFC014810BDB0
:1068A000E8E60320ECE6032038B50B4D296811F02B
:1068B00001040FD12846FDF7F6FB58B121460748E1
:1068C000FFF700F92846FDF7F3FB054A05490348A1
:1068D00000F02CF8014838BDF0E60320F4E6032070
:1068E000D0E203206D5A0D0070B50C4C0C4E0D4DCE
:1068F00000212046FFF754FC20460B4C3246294627
:1069000000F014F801212046FFF74AFC32462946E0
:106910002046BDE8704000F009B800BF08E703203A
:10692000D0E2032091610D0018E703200B460146D9
:10693000184600F051BEFDF7B2BB08B5FEF71AFDD0
:10694000244B1A68D0075CBF01221A60224B1A68D8
:10695000D1075CBF01221A60204B1A68D2075CBFC6
:1069600001221A601E4B1A68D0075CBF01221A6010
:106970001C4B1A68D1075CBF01221A601A4B1A68B7
:10698000D2075CBF01221A60184B1A68D0075CBF9F
:1069900001221A60164B1A68D1075CBF01221A60E7
:1069A000144B1A68D2075CBF01221A60124B1A6896
:1069B000D0075CBF01221A60104B1A68D1075CBF78
:1069C00001221A600E4B1A68D2075CBF01221A60BE
:1069D000704700BF54E7032050E703204CE7032033
:1069E00048E7032044E7032040E703203CE7032077
:1069F00038E7032034E7032030E703202CE70320A7
:106A000028E70320184B1A68D1075CBF01221A60DF
:106A1000164B1A68D2075CBF01221A60144B1A6821
:106A2000D0075CBF01221A60124B1A68D1075CBF05
:106A300001221A60104B1A68D2075CBF01221A604B
:106A40000E4B1A68D0075CBF01221A600C4B1A6803
:106A5000D1075CBF01221A600A4B1A68D2075CBFDB
:106A600001221A60704700BF74E7032070E703201B
:106A70006CE7032068E7032064E7032060E7032056
:106A80005CE7032058E70320184B1A68D1075CBF66
:106A900001221A60164B1A68D2075CBF01221A60E5
:106AA000144B1A68D0075CBF01221A60124B1A6897
:106AB000D1075CBF01221A60104B1A68D2075CBF75
:106AC00001221A600E4B1A68D0075CBF01221A60BF
:106AD0000C4B1A68D1075CBF01221A600A4B1A6876
:106AE000D2075CBF01221A60704700BF94E7032001
:106AF00090E703208CE7032088E7032084E7032046
:106B000080E703207CE7032078E70320244B1A6802
:106B1000D0075CBF01221A60224B1A68D1075CBF04
:106B200001221A60204B1A68D2075CBF01221A604A
:106B30001E4B1A68D0075CBF01221A601C4B1A68F2
:106B4000D1075CBF01221A601A4B1A68D2075CBFDA
:106B500001221A60184B1A68D0075CBF01221A6024
:106B6000164B1A68D1075CBF01221A60144B1A68D1
:106B7000D2075CBF01221A60124B1A68D0075CBFB3
:106B800001221A60104B1A68D1075CBF01221A60FB
:106B90000E4B1A68D2075CBF01221A60704700BF13
:106BA000C4E70320C0E70320BCE70320B8E70320C5
:106BB000B4E70320B0E70320ACE70320A8E70320F5
:106BC000A4E70320A0E703209CE7032098E7032025
:106BD00081F0004102E000BF83F0004330B54FEA8E
:106BE00041044FEA430594EA050F08BF90EA020FFB
:106BF0001FBF54EA000C55EA020C7FEA645C7FEA8E
:106C0000655C00F0E2804FEA5454D4EB5555B8BFB0
:106C10006D420CDD2C4480EA020281EA030382EA21
:106C2000000083EA010180EA020281EA0303362DB3
:106C300088BF30BD11F0004F4FEA01314FF4801C86
:106C40004CEA113102D0404261EB410113F0004F98
:106C50004FEA03334CEA133302D0524263EB43034F
:106C600094EA050F00F0A780A4F10104D5F1200EED
:106C70000DDB02FA0EFC22FA05F2801841F1000148
:106C800003FA0EF2801843FA05F359410EE0A5F11C
:106C900020050EF1200E012A03FA0EFC28BF4CF04D
:106CA000020C43FA05F3C01851EBE37101F0004503
:106CB00007D54FF0000EDCF1000C7EEB00006EEB10
:106CC0000101B1F5801F1BD3B1F5001F0CD349089A
:106CD0005FEA30004FEA3C0C04F101044FEA4452F1
:106CE00012F5800F80F09A80BCF1004F08BF5FEA78
:106CF000500C50F1000041EB045141EA050130BD58
:106D00005FEA4C0C404141EB010111F4801FA4F1FA
:106D10000104E9D191F0000F04BF01460020B1FA4F
:106D200081F308BF2033A3F10B03B3F120020CDA87
:106D30000C3208DD02F1140CC2F10C0201FA0CF065
:106D400021FA02F10CE002F11402D8BFC2F1200CCA
:106D500001FA02F120FA0CFCDCBF41EA0C01904080
:106D6000E41AA2BF01EB0451294330BD6FEA0404C9
:106D70001F3C1CDA0C340EDC04F11404C4F12002B4
:106D800020FA04F001FA02F340EA030021FA04F3C6
:106D900045EA030130BDC4F10C04C4F1200220FA1D
:106DA00002F001FA04F340EA0300294630BD21FA5B
:106DB00004F0294630BD94F0000F83F4801306BF21
:106DC00081F480110134013D4EE77FEA645C18BF15
:106DD0007FEA655C29D094EA050F08BF90EA020FAC
:106DE00005D054EA000C04BF1946104630BD91EAA4
:106DF000030F1EBF0021002030BD5FEA545C05D1A7
:106E00004000494128BF41F0004130BD14F58004E5
:106E10003CBF01F5801130BD01F0004545F0FE4159
:106E200041F470014FF0000030BD7FEA645C1ABF8E
:106E3000194610467FEA655C1CBF0B46024650EAC5
:106E4000013406BF52EA033591EA030F41F40021F1
:106E500030BD00BF90F0000F04BF0021704730B577
:106E60004FF4806404F132044FF000054FF000014C
:106E700050E700BF90F0000F04BF0021704730B50D
:106E80004FF4806404F1320410F0004548BF4042E2
:106E90004FF000013EE700BF42004FEAE2014FEA37
:106EA00031014FEA02701FBF12F07F4393F07F4F12
:106EB00081F06051704792F0000F14BF93F07F4F44
:106EC000704730B54FF4607401F0004521F0004187
:106ED00020E700BF50EA010208BF704730B54FF00D
:106EE00000050AE050EA010208BF704730B511F012
:106EF000004502D5404261EB41014FF4806404F14A
:106F000032045FEA915C3FF4DCAE4FF003025FEACB
:106F1000DC0C18BF03325FEADC0C18BF033202EB53
:106F2000DC02C2F1200300FA03FC20FA02F001FAAD
:106F300003FE40EA0E0021FA02F11444C1E600BF4C
:106F400070B54FF0FF0C4CF4E06C1CEA11541DBFFF
:106F50001CEA135594EA0C0F95EA0C0F00F0DEF8CA
:106F60002C4481EA030621EA4C5123EA4C5350EAAF
:106F7000013518BF52EA033541F4801143F4801300
:106F800038D0A0FB02CE4FF00005E1FB02E506F091
:106F90000042E0FB03E54FF00006E1FB03569CF0E6
:106FA000000F18BF4EF0010EA4F1FF04B6F5007FEC
:106FB00064F5407404D25FEA4E0E6D4146EB06065E
:106FC00042EAC62141EA55514FEAC52040EA5E50E7
:106FD0004FEACE2EB4F1FD0C88BFBCF5E06F1ED891
:106FE000BEF1004F08BF5FEA500E50F1000041EBC8
:106FF000045170BD06F0004646EA010140EA020075
:1070000081EA0301B4EB5C04C2BFD4EB0C0541EA96
:10701000045170BD41F480114FF0000E013C00F3AB
:10702000AB8014F1360FDEBF002001F0004170BDCF
:10703000C4F10004203C35DA0C341BDC04F11404E8
:10704000C4F1200500FA05F320FA04F001FA05F274
:1070500040EA020001F0004221F0004110EBD37041
:1070600021FA04F642EB06015EEA430E08BF20EA6D
:10707000D37070BDC4F10C04C4F1200500FA04F310
:1070800020FA05F001FA04F240EA020001F00041A2
:1070900010EBD37041F100015EEA430E08BF20EA15
:1070A000D37070BDC4F1200500FA05F24EEA020E5D
:1070B00020FA04F301FA05F243EA020321FA04F08C
:1070C00001F0004121FA04F220EA020000EBD37043
:1070D0005EEA430E08BF20EAD37070BD94F0000F43
:1070E0000FD101F00046400041EB010111F4801F77
:1070F00008BF013CF7D041EA060195F0000F18BF28
:10710000704703F00046520043EB030313F4801F63
:1071100008BF013DF7D043EA0603704794EA0C0F1D
:107120000CEA135518BF95EA0C0F0CD050EA410633
:1071300018BF52EA4306D1D181EA030101F00041B0
:107140004FF0000070BD50EA410606BF10461946D8
:1071500052EA430619D094EA0C0F02D150EA0136E4
:1071600013D195EA0C0F05D152EA03361CBF104625
:1071700019460AD181EA030101F0004141F0FE41C4
:1071800041F470014FF0000070BD41F0FE4141F448
:10719000780170BD70B54FF0FF0C4CF4E06C1CEA48
:1071A00011541DBF1CEA135594EA0C0F95EA0C0FFD
:1071B00000F0A7F8A4EB050481EA030E52EA0335B8
:1071C0004FEA013100F088804FEA03334FF08055D9
:1071D00045EA131343EA12634FEA022245EA111506
:1071E00045EA10654FEA00260EF000419D4208BFB7
:1071F000964244F1FD0404F5407402D25B084FEA64
:107200003202B61A65EB03055B084FEA32024FF40F
:1072100080104FF4002CB6EB020E75EB030E22BF6C
:10722000B61A754640EA0C005B084FEA3202B6EB2C
:10723000020E75EB030E22BFB61A754640EA5C00DB
:107240005B084FEA3202B6EB020E75EB030E22BF6B
:10725000B61A754640EA9C005B084FEA3202B6EB6C
:10726000020E75EB030E22BFB61A754640EADC002B
:1072700055EA060E18D04FEA051545EA16754FEA8D
:1072800006164FEAC30343EA52734FEAC2025FEAAB
:107290001C1CC0D111F4801F0BD141EA00014FF03A
:1072A00000004FF0004CB6E711F4801F04BF01430B
:1072B0000020B4F1FD0C88BFBCF5E06F3FF6AFAE27
:1072C000B5EB030C04BFB6EB020C5FEA500C50F1B7
:1072D000000041EB045170BD0EF0004E4EEA11313A
:1072E00014EB5C04C2BFD4EB0C0541EA045170BD41
:1072F00041F480114FF0000E013C90E645EA060E85
:107300008DE60CEA135594EA0C0F08BF95EA0C0FB2
:107310003FF43BAF94EA0C0F0AD150EA01347FF4FA
:1073200034AF95EA0C0F7FF425AF104619462CE7D1
:1073300095EA0C0F06D152EA03353FF4FDAE104634
:10734000194622E750EA410618BF52EA43067FF485
:10735000C5AE50EA41047FF40DAF52EA43057FF415
:10736000EBAE12E74FF0FF3C06E000BF4FF0010C20
:1073700002E000BF4FF0010C4DF804CD4FEA410C84
:107380007FEA6C5C4FEA430C18BF7FEA6C5C1BD051
:1073900001B050EA410C0CBF52EA430C91EA030FD2
:1073A00002BF90EA020F0020704710F1000F91EA2F
:1073B000030F58BF994208BF90422CBFD8176FEAFD
:1073C000E37040F0010070474FEA410C7FEA6C5CCB
:1073D00002D150EA013C07D14FEA430C7FEA6C5CD2
:1073E000D6D152EA033CD3D05DF8040B704700BFFE
:1073F0008446104662468C461946634600E000BF4C
:1074000001B5FFF7B7FF002848BF10F1000F01BD1D
:107410004DF808EDFFF7F4FF0CBF012000205DF8E8
:1074200008FB00BF4DF808EDFFF7EAFF34BF01206D
:1074300000205DF808FB00BF4DF808EDFFF7E0FF06
:1074400094BF012000205DF808FB00BF4DF808ED57
:10745000FFF7CEFF94BF012000205DF808FB00BFBE
:107460004DF808EDFFF7C4FF34BF012000205DF8A0
:1074700008FB00BF4FEA410C7FEA6C5C02D150EA86
:10748000013C0AD14FEA430C7FEA6C5C02D152EA1C
:10749000033C02D14FF0000070474FF001007047ED
:1074A0004FEA410212F5001215D211D56FF478732C
:1074B000B3EB625212D94FEAC12343F0004343EACF
:1074C000505311F0004F23FA02F018BF40427047AA
:1074D0004FF00000704750EA013005D111F0004034
:1074E00008BF6FF0004070474FF00000704700BFCA
:1074F0004A0011D212F5001211D20DD56FF4787333
:10750000B3EB62520ED44FEAC12343F0004343EA87
:10751000505323FA02F070474FF00000704750EAD2
:10752000013002D14FF0FF3070474FF0000070473C
:107530004FEA4102B2F1E04324BFB3F5001CDCF195
:10754000FE5C0DD901F0004C4FEAC0024CEA5070CD
:10755000B2F1004F40EB830008BF20F001007047FC
:1075600011F0804F21D113F13872BCBF01F00040FF
:10757000704741F480114FEA5252C2F11802C2F131
:10758000200C10FA0CF320FA02F018BF40F00100B2
:107590004FEAC1234FEAD32303FA0CFC40EA0C0064
:1075A00023FA02F34FEA4303CCE77FEA625307D1A1
:1075B00050EA01331EBF4FF0FE4040F440007047D8
:1075C00001F0004040F0FE4040F40000704700BF72
:1075D0000A22002100F026BA10B5054C13462CB142
:1075E0000A4601460220AFF3008010BD204610BDC0
:1075F0000000000038B5074B1C68E36B05461BB95B
:107600002420FDF78FFEE063E16B2846BDE838409B
:1076100000F002B880E203202DE9F0410C468046DC
:1076200000F006FD21460746404600F005FD46698C
:1076300006F26C76B307044605D1642296FBF2F39A
:1076400002FB13634BB94FF4C87596FBF5F305FBCA
:107650001365B5FA85F35B0900E001235F4A302525
:1076600005FB032500F018FB00F018FB5C4B1B68C2
:10767000F3B17B689E4205D13968D8F80030FA69C9
:1076800041B90AE0304600F05FFA0028F4D14FF02B
:10769000FF330DE0934208DB01E0934207DABA6B57
:1076A0009342ACBF0023012302E0002300E001234A
:1076B0002362236A012B0CBFF96B396A4FF46163B3
:1076C0003C2091FBF3F603FB1613616893FBF0F289
:1076D00000FB12302368891AA26861601B1A921B92
:1076E0003B2B2360A26003DD013161603C3B04E081
:1076F000002B03DA013961603C33236063683B2B64
:1077000003DD0132A2603C3B04E0002B03DA013AC6
:10771000A2603C336360A368172B22DDE26901326B
:10772000E261A2690132062AC8BF0022A261E268B2
:10773000183B0132A3602369E26055F823108A42A6
:1077400046DD01330C2B0CBF63692361A2EB010200
:10775000E26001BF013300222261636108BFE26180
:1077600036E0002B34DAE269013AE261A269013ABB
:1077700048BF0622A261E2681833013AE260A360C2
:1077800032BB2369013B01D423611DE00B2323613C
:1077900063695A1E12F0030F626103F26B7305D125
:1077A000642193FBF1F201FB12324AB94FF4C87124
:1077B00093FBF1F201FB1233B3FA83F35B0900E0B0
:1077C000012303F5B673E361236955F82330E360C1
:1077D00000F063FA2046BDE8F08100BF50880D003C
:1077E000E4E7032010B5431E0A44914204D011F887
:1077F000014B03F8014FF8E710BD024403469342E2
:1078000002D003F8011BFAE77047000038B5124BAD
:107810001C68A36B0546D3B91820FDF783FD43F21E
:107820000E33A06303804AF6CD33438041F2342304
:1078300083804EF26D63C3804DF6EC6303810523B4
:1078400043810B23838101220023C0E90423A36B1E
:1078500000221D615A6138BD80E2032010F8012B1F
:1078600011F8013B012A28BF9A42F7D0D01A70477D
:10787000034611F8012B03F8012B002AF9D17047B8
:10788000024B0146186800F003B800BF80E20320F5
:1078900070B5064608460C4600F00DF8451C294612
:1078A0003046FDF76FFD064618B12A462146FFF720
:1078B00099FF304670BD034613F8012B002AFBD117
:1078C000181A0138704730B582B1451E013915F8D4
:1078D000013F11F8014FA34206D1EC431444E042AA
:1078E00001D0002BF3D11C46181B30BD104630BD13
:1078F00010B5034642B111F8014B03F8014B013AB0
:10790000002CF7D11A4400E010BD934202D003F8D6
:10791000014BFAE710BD00002DE9F04780464048D2
:10792000D0F800900F463D4615F8014B09EB0400D6
:10793000407800F0080000F0FF0608B12F46F2E79B
:107940002D2C03D1BD1C7C78012603E02B2C04BF19
:107950007C78BD1C13B1102B0AD15BE0302C57D1C1
:10796000287800F0DF0058284DD16C7810230235BC
:10797000002E14BF4FF0004C6FF0004C0027BCFBF2
:10798000F3FA384603FB1ACC09EB040E9EF801E02B
:107990001EF0040F01D0303C0BE01EF0030E1BD094
:1079A000BEF1010F0CBF4FF0370E4FF0570ECEEB6C
:1079B0000404A34210DDB7F1FF3F0AD0504506D8BA
:1079C00001D1644503DC03FB0040012701E04FF0D7
:1079D000FF3715F8014BD7E77B1C0CD1002E4FF079
:1079E000220314BF4FF000406FF00040C8F8003091
:1079F0002AB9BDE8F08706B1404272B107B1691EED
:107A00001160BDE8F0873024002BB1D10823AFE727
:107A10000A23ADE7302CA3D0AAE7BDE8F08700BF6A
:107A20001CE2032013460A46014602480068FFF79D
:107A300073BF00BF80E203202DE9F04780463C4839
:107A4000D0F800900E46354615F8014B09EB0400BE
:107A5000407800F0080000F0FF0708B12E46F2E77A
:107A60002D2C03D1B51C7478012703E02B2C04BF07
:107A70007478B51C13B1102B0AD153E0302C4FD1C0
:107A8000287800F0DF00582845D16C7810230235A3
:107A90004FF0FF3C0026BCFBF3FC03FB0CFA6FEA43
:107AA0000A0A304609EB040E9EF801E01EF0040FAE
:107AB00001D0303C0BE01EF0030E1AD0BEF1010FD6
:107AC0000CBF4FF0370E4FF0570ECEEB0404A3421D
:107AD0000FDD002E08DB604506D801D1544503DCDC
:107AE00003FB0040012601E04FF0FF3615F8014B83
:107AF000D8E7002E07DA2223C8F800304FF0FF3015
:107B00002AB9BDE8F08707B1404272B106B1691EDB
:107B10001160BDE8F0873024002BB9D10823B7E706
:107B20000A23B5E7302CABD0B2E7BDE8F08700BF41
:107B30001CE2032013460A46014602480068FFF78C
:107B40007BBF00BF80E203202DE9F74F044600F021
:107B50006FFA40F2B1739C4240F396806FF4F66383
:107B6000E318A4F2B2729B1040F26D1505FB0235CA
:107B7000A4F26D726FF0630392FBF3F36FF4C862CB
:107B80002B44A5184FF4C87295FBF2F51D446423ED
:107B900094FBF2F794FBF3F602FB174703FB164640
:107BA00000F13803B7FA87FE019304F00303446041
:107BB0004FEA5E1E014600934FF0070C0B7A4A2BEA
:107BC0000ED14B69009AEC1802B906B927B93B2BC4
:107BD000D4BF0023012300E000232344013B3FE006
:107BE000442B02D14B692B443AE0009B2BB9002E69
:107BF0000CBFF0464FF0010800E0F046244BCC6883
:107C0000302202FB0838A8F1040AA9460123A34246
:107C100004DA5AF804BF0133D944F8E709F1040340
:107C200093FBFCFBCBEBCB0A012CCAEB030A4B69A1
:107C3000B8BF012404F18044B3EB0A0A0B6904F1D4
:107C4000FF3403F1FF3348BF0AF1070AC3EBC30354
:107C500058F824405344A34201DB073BFBE74B4465
:107C60008C690C4A02FB03430C6A234441F81C3F15
:107C7000019B9942A2D1C369826B9342ACBF00239E
:107C800001230360012000E0002003B0BDE8F08F75
:107C900050880D008051010070477047014B1868F3
:107CA00000F002B880E203202DE9F04F8DB00746C6
:107CB00000F0BEF9B049B14E0446384600F0B0F9C4
:107CC000054660B9AE4BAF4A1860AF4B1860AF4B7A
:107CD00030681A605A60FDF72DFB356048E1316865
:107CE00079B93068FDF726FB2846FFF7E4FD411C13
:107CF0003846FDF747FB306048B12946FFF7B8FD2D
:107D000005E0FFF7ABFD002800F03281E9E72B78B2
:107D10009F4AA0493A2B08BF01350AAE3346284690
:107D2000FDF718FB002840F323810A9BEF18EB5C5A
:107D30002D2B03D101374FF0FF3503E02B2B08BF6C
:107D4000013701250DF1200A0DF11E0B4FF000083F
:107D50000396CDF808A00196CDF800B0334607AAE7
:107D60008D49ADF81E803846ADF82080FDF7F2FA57
:107D7000404540F3FD80BDF81E20BDF82030DFF8FF
:107D800024923C2101FB0233BDF81C204FF46161B9
:107D900001FB02335D4325627C4D7D4B2B600A9BCA
:107DA0007C491F444A4633463846FDF7D3FA4045DE
:107DB00008DC2B686B60724B226A1A60724BC3F846
:107DC0000080D5E00A9BC5F80490FD18FB5C2D2BC4
:107DD00003D101354FF0FF3703E02B2B08BF0135EE
:107DE00001270023ADF81C30ADF81E30ADF820306F
:107DF0000A930396CDF808A00196CDF800B033465B
:107E000007AA65492846FDF7A5FA002804DC236A7D
:107E1000A3F56163E3630EE0BDF81E20BDF82030DA
:107E20003C2101FB0233BDF81C204FF4616101FBD2
:107E300002335F43E7630A9B27461D444FF0000966
:107E40002B782C2B08BF013595F80080B8F14D0F29
:107E500026D10DF12603029309AB009303960196F8
:107E600033460DF122024D492846FDF773FA0328E7
:107E70007ED1BDF822104B1E0B2B79D8BDF82420E3
:107E8000531E042B74D8BDF82630062B70D887F803
:107E90000880F9603A617B610A9B05EB03082AE0E0
:107EA000B8F14A0F06BF0135434644230A220BA905
:107EB00028460593FFF73EFEDDF82C80ADF826003E
:107EC0004545059B14D14D23B9F1000F07D123720D
:107ED0000323E36002232361C4F814900BE084F8C9
:107EE00024300B23A3620123E3620023236302E017
:107EF00080B23B7278610223ADF81C300023ADF8EC
:107F00001E30ADF820300A9398F800302F2B0BD19B
:107F10000396CDF808A00196CDF800B0334607AA25
:107F20001F494046FDF716FABDF81E20BDF8203067
:107F30003C2101FB0233BDF81C204FF4616101FBC1
:107F40000233BB610A9D09F10109B9F1020F4544F1
:107F500007F11C077FF474AF6068FFF7F5FD084B6D
:107F6000226A1A60E36B9B1A074A18BF0123136049
:107F70000DB0BDE8F08F00BFB0880D00E0E7032032
:107F8000E8E70320B3880D00E4E7032084E2032040
:107F9000D3E70320B7880D00DA880D00C6880D00EE
:107FA000D9880D00C8E703202DE9F84F07468B4616
:107FB000904600F0D9F8194B1D689A463DB15C46D1
:107FC000234613F8012B42B13D2A1C46F8D138460E
:107FD00000F0CBF80020BDE8F88FCBEB0404A946F5
:107FE00059F8040B0028F2D022465946FFF76BFCE3
:107FF00088B959F8043C1E191B5D3D2B0BD1DAF8EA
:108000000030ED1AAD103846C8F8005000F0ADF859
:10801000701CBDE8F88F4D46E1E700BFCCE20320BD
:1080200007B501AAFFF7C0FF03B05DF804FB00002D
:10803000004870478CE203200268474BF0B592FB82
:10804000F3F403FB1422002ABCBF02F5A83202F5A8
:10805000C0724FF4616004F52F2492FBF0F300FB33
:1080600013224FF03C00ACBF04F66C2404F66B24E2
:108070008B6092FBF0F300FB13224B600A60072336
:10808000E21C92FBF3F3C3EBC303D31A8B61334BB4
:10809000334D94FBF5F503FB054448F6AC62B4FBA5
:1080A000F2F2224440F2B457B4FBF7F3D21A2D484F
:1080B000B4FBF0F048F69466131AB3FBF6F63444BA
:1080C00040F26D12B3FBF2F0B3FBF7F3E31A02FBDD
:1080D0001033992403EB83020232B2FBF4F20A2A32
:1080E00004FB02F404F102064FF00504B6FBF4F4BD
:1080F00034BF02266FF0090616444FF4C87202FB23
:1081000005055F1C012E98BF0135B3F5997FA7EBDC
:10811000040702D3A3F5997214E0820705D1642401
:10812000B0FBF4F204FB12024AB94FF4C872B0FB80
:10813000F2F402FB1400B0FA80F2520900E00122CE
:108140003B331A44A5F26C750023CA614D610E6180
:10815000CF600B620846F0BD805101004FC5FDFFA6
:10816000B13A0200B03A02007047704721400D005A
:108170005D400D0089400D008D400D0000000000A5
:10818000312E32320000300054454D50455241549A
:1081900055524520494E20430025342E3166430078
:1081A00054656D70657261747572652066726F6D6D
:1081B0002074616B654D6561737572656D656E7474
:1081C000732046756E6374696F6E0025342E3166B8
:1081D0005600252E306625250025332E3166205683
:1081E00000566572626F7365204D6F64652053742D
:1081F00061727465642E00566572626F7365204DFE
:108200006F646520416C7265616479204F4E2E0069
:10821000566572626F7365204D6F64652053746F8D
:10822000707065642E00566572626F7365204D6FC5
:10823000646520616C7265616479204F46462E004A
:108240007B2254656D7065726174757265223A2582
:10825000332E31662C202242617474657279223A81
:1082600025332E31667D004169722D5175616C692F
:1082700074792D486F6F6B004E6F204461746100FC
:10828000556269646F747320486F6F6B005374613B
:108290007465005472616E736974696F6E3A20255B
:1082A0007320746F202573004E657720486F7572B8
:1082B0002D205265706F7274696E67004269672085
:1082C0004368616E6765202D2052617069642026C5
:1082D000205265706F7274696E67004368616E67E3
:1082E00065206465746563746564202D2052657033
:1082F0006F7274696E67004E6F204368616E6765C8
:10830000202D2049646C650054656D706572617440
:1083100075726500446174612053656E74202F206E
:10832000526573706F6E736520526563656976651B
:108330006400737061726B2F6465766963652F7377
:10834000657373696F6E2F656E6400526573657433
:1083500074696E6720696E203330207365636F6EB9
:108360006473004572726F7200476F696E672074A4
:108370006F2074616B652061202569207365636FD0
:108380006E64206E6170004E617070696E670046A9
:10839000726F6D20536C65657000576F6B6555701B
:1083A00000436F6D6D616E64206163636570746519
:1083B00064202D207265706F7274696E67206E6F15
:1083C0007700436F6D6D616E6420616363657074E7
:1083D0006564202D2073656E73696E67206E6F77FC
:1083E00000766572626F73654D6F646500476574F2
:1083F0002D52656164696E670053656E642D526528
:10840000706F7274004C6F772D506F7765722D4DC1
:108410006F64650052656C65617365005369676ED2
:10842000616C004261747465727900436F756C64AD
:108430006E27742066696E642053485433310000FF
:108440000000000000000000E1530D00E7530D00A4
:108450003D540D00F5530D00E3530D0000000000E6
:10846000000000004F5A0D00455A0D003B5A0D0008
:10847000315A0D00255A0D00195A0D000D5A0D00E4
:10848000055A0D00FB590D00F1590D00ED5D0D0071
:1084900000000000000000006D5A0D00B75A0D00EA
:1084A0008F5A0D006F5A0D00975A0D009F5A0D00FC
:1084B000A75A0D00AF5A0D00000000000000000098
:1084C0003B5B0D002B5B0D002D5B0D006261756445
:1084D0000053657269616C0053657269616C3100AB
:1084E0007479706500706172616D00636D6400691C
:1084F0006400686E64007374726D0066696C740069
:108500006C766C0061646448616E646C65720072C4
:10851000656D6F766548616E646C657200656E7539
:108520006D48616E646C657273004A534F4E5374AC
:108530007265616D4C6F6748616E646C6572006155
:10854000707000253031307520005D2000256400FA
:108550002C200028293A2000205B00636F646520EE
:108560003D200025690064657461696C73203D20BD
:10857000000D0A006C6E00666E00636F6465006437
:10858000657461696C006E6F6E650074726163651D
:1085900000696E666F007761726E006572726F724D
:1085A0000070616E696300616C6C00000000000087
:1085B000000000007F5C0D00755C0D006B5C0D0021
:1085C000615C0D00555C0D00495C0D003D5C0D00CB
:1085D000355C0D002B5C0D00215C0D00ED5D0D0088
:1085E0000000000000000000855D0D008F5D0D00A3
:1085F000995D0D00A35D0D00AD5D0D00B95D0D0031
:10860000C55D0D00D15D0D00D95D0D00E35D0D0070
:10861000ED5D0D006E616E006F766600696E66003E
:10862000000000000000000091610D0093610D004A
:10863000252B3033643A253032750025592D256DB0
:108640002D25645425483A254D3A2553257A006155
:10865000736374696D650000000000000000000095
:10866000A5640D00F5640D0003650D00CD5E0D00E1
:10867000B9640D00DB640D00C7640D00EF640D00EC
:10868000A7640D00AB640D000000000000000000B6
:10869000AD650D00FD650D000B660D00CD5E0D0096
:1086A000E9650D00AF650D00C5650D00F7650D00AE
:1086B000DB650D00A9650D00000000000000000052
:1086C00017670D000D670D0003670D00B9660D00FB
:1086D000F7660D00EB660D00DF660D00D7660D0036
:1086E000CD660D00C3660D00ED5D0D00002020205D
:1086F0002020202020202828282828202020202052
:108700002020202020202020202020202088101021
:10871000101010101010101010101010100404047D
:10872000040404040404041010101010101041413B
:108730004141414101010101010101010101010129
:10874000010101010101010110101010101042423D
:1087500042424242020202020202020202020202F9
:108760000202020202020202101010102000000099
:1087700000000000000000000000000000000000F9
:1087800000000000000000000000000000000000E9
:1087900000000000000000000000000000000000D9
:1087A00000000000000000000000000000000000C9
:1087B00000000000000000000000000000000000B9
:1087C00000000000000000000000000000000000A9
:1087D0000000000000000000000000000000000099
:1087E0000000000000000000000000000000000089
:1087F0000000000000000000000000000000000079
:108800000000000000000000000000000000000068
:108810000000000000000000000000000000000058
:108820000000000000000000000000000000000048
:108830000000000000000000000000000000000038
:108840000000000000000000000000000000000028
:108850001F0000001C0000001F0000001E000000A0
:108860001F0000001E0000001F0000001F0000008D
:108870001E0000001F0000001E0000001F0000007E
:108880001F0000001D0000001F0000001E0000006F
:108890001F0000001E0000001F0000001F0000005D
:1088A0001E0000001F0000001E0000001F0000004E
:1088B000545A00474D54002531305B5E302D392C21
:1088C0002B2D5D256E004D256875256E2E2568754E
:1088D000256E2E256875256E002F256875256E3A44
:1088E000256875256E3A256875256E00514C0D007A
:1088F000794C0D007D4C0D00254E0D00D1530D001F
:10890000595A0D00115C0D00355D0D00B95E0D006A
:1089100075610D0081630D0091640D0021670D00EC
:10892000E9680D0041690D00056A0D00896A0D00B6
:108930000D6B0D00000000000000000000000000B2
:10894000580200000000C03F496E697469616C20E4
:108950005374617465000000000000000000000016
:108960000000000000000000000000000000000007
:108970000000000049646C65205374617465000058
:1089800000000000000000000000000000000000E7
:1089900000000000000000000000000000000000D7
:1089A0004D6561737572696E67000000000000001C
:1089B00000000000000000000000000000000000B7
:1089C0000000000000000000000000005265706F11
:1089D0007274696E672044657465726D696E617446
:1089E000696F6E0000000000000000000000000041
:1089F00000000000000000005265706F7274696E24
:108A000067000000000000000000000000000000FF
:108A10000000000000000000000000000000000056
:108A200000000000526573706F6E736520576169B6
:108A300074000000000000000000000000000000C2
:108A40000000000000000000000000000000000026
:108A50004572726F72205761697400000000000057
:108A60000000000000000000000000000000000006
:108A70000000000000000000000000004E61707067
:108A8000696E672053746174650000000000000087
:108A900000000000000000000000000000000000D6
:108AA0000000000000000000010000004F860D00E3
:108AB000EC860D0000000000F0870D0010880D000E
:108AC00030880D00000000000000000000000000E1
:108AD0000000000097810D00000000000000000071
:108AE0000000000000000000000000000000000086
:108AF0000000000000000000000000000000000076
:108B00000000000000000000000000000000000065
:108B10000000000020E20320B3880D00B3880D00A0
:108B200001000000000000004A00000000000000FA
:108B30000000000000000000000000000000000035
:108B4000000000004A0000000000000000000000DB
:108B50000000000000000000000000000000000015
:048B6000ECE703201B
:108B6400FFFFFFFF00000102030405060708090ACE
:108B74000B0C0D0E0F101112131415161718191AC9
:088B84001B1C1D1E1F20280010
:048B8C0078563412D1
:04000003D0004020C9
:00000001FF
